:020000040040BA
:1000000050390020D50A4000D10A4000D10A4000F2
:10001000D10A4000D10A4000D10A4000000000008F
:10002000000000000000000000000000D10A4000B5
:10003000D10A400000000000D10A4000D10A40006F
:10004000D10A4000D10A4000D10A4000D10A400044
:10005000D10A4000D10A4000D10A4000000000004F
:10006000D10A4000D10A4000D10A4000D10A400024
:10007000D10A4000D10A4000D10A4000D10A400014
:10008000D10A4000D10A400000000000D10A40001F
:10009000D10A4000D10A4000D10A4000D10A4000F4
:1000A000D10A4000D10A4000D10A4000D10A4000E4
:1000B000D10A400015084000D10A4000D10A400092
:1000C00010B5054C237833B9044B13B10448AFF392
:1000D00000800123237010BD740800200000000080
:1000E00038584000084B10B51BB108490848AFF319
:1000F00000800848036803B910BD074B002BFBD0F4
:10010000BDE81040184700BF00000000780800203C
:10011000385840003858400000000000034B5A6D2A
:10012000034B1A600122034B1A7070470080034092
:100130009808002090080020F0B583B005460C46D2
:1001400000230193294B984207D11F46284E214690
:100150003846B0470028FAD115E0264B984207D11F
:100160001F46234E21463846B0470028FAD115E0F5
:10017000214B984207D11F461D4E21463846B047B5
:100180000028FAD117E01D4B9D4207D11F46184E9B
:1001900021463846B0470028FAD119E0184B9D4255
:1001A00009D11E46174D01A93046A8470028FAD1AB
:1001B000019B237018E0144B9D4209D11E46114D3E
:1001C00001A93046A8470028FAD1019B23700BE013
:1001D0000E4B9D4208D11E460A4D01A93046A84744
:1001E0000028FAD1019B237003B0F0BD00060E4039
:1001F000910A400000080E40004004400080044086
:1002000000400240B90A40000080024000C00240A5
:1002100070B50C462A4B984208D11E46294D2146FE
:100220003046A8470028FAD1012070BD264B9842DD
:1002300008D11E46234D21463046A8470028FAD152
:10024000012070BD214B984208D11E461D4D21460C
:100250003046A8470028FAD1012070BD1C4B9842B7
:1002600008D11E46174D21463046A8470028FAD12E
:10027000012070BD174B984208D11E46164D2146ED
:100280003046A8470028FAD1012070BD134B984290
:1002900008D11E46104D21463046A8470028FAD105
:1002A000012070BD0E4B984208D11E460A4D2146D2
:1002B0003046A8470028FAD1012070BD002070BD4B
:1002C00000060E40810A400000080E400040044035
:1002D0000080044000400240A50A40000080024027
:1002E00000C0024070B58CB0724B9847724B984773
:1002F0000820724DA847724C724B1C60724A734BB7
:100300001A60734A734B1A60734B03934FF4E133D3
:1003100004934FF4006305930820A84703A92046DF
:100320006E4B98476E4D2B68002198686D4CA04726
:100330002B6800215868A0476B486C4B98476C4B62
:10034000984706A86B4B98476B4C06A920466B4B09
:10035000984702232361636823F08F0343F003036C
:1003600063600123664A19462046664CA0476648EA
:10037000664B9847664D674C03A92846A0479DF8F1
:100380000C30613B032BF7D8DFE803F0020F1D317F
:10039000FF22614B1A6010215748604B9847604814
:1003A000524CA0475F48A04734E040F2FF325A4B1E
:1003B0001A6000215048594B98475B484B4CA04766
:1003C0005848A04726E040F2FE72534B1A604A4C50
:1003D0004FF480312046514B9847236C43F48013EF
:1003E00023645248414CA0474E48A04712E040F6D3
:1003F000FC72494B1A60404C4FF400312046474B89
:100400009847236C43F4801323644948374CA04732
:100410004448A047384B5B6813F0800F02D1082294
:10042000354B1A60002602960CAD45F8246D172056
:10043000224B98473F4B01201866C3F8900058653F
:100440005862C3F880001A6F02431A675A6F22F08D
:1004500001025A675860204C00942B4602AA21469C
:10046000354DA847354D039A42F4D82231462846E7
:10047000334B9847029BB4FBF3F463086B61EC6168
:10048000314628462F4B98472F4C304D237813F098
:10049000FF0FFBD0296840F6E44303FB01F31E4A3B
:1004A0001168B3FBF1F12A48184B984700232370D9
:1004B000ECE700BF550540004506400089094000B3
:1004C00000060E40E408002011024000E008002071
:1004D00039014000DC08002000E1F505490A400030
:1004E00030040020E10E400018544000D10E4000BE
:1004F0004D084000F10640000080034045074000E1
:100500001D014000E5074000805440007D0D400083
:100510005C554000A50D40009408002019074000DC
:1005200060554000845540009C554000C055400037
:10053000E8554000000E0E40D50940000000014083
:10054000B5094000CD09400090080020980800201F
:100550001056400010B50E480E4B984710200E4B19
:1005600098470E4CA0470028FCD00D4B98470D4AE9
:100570000D4B9A620D4CA0470028FCD010200C4B6C
:1005800098470C4B98470248024B984710BD00BF54
:1005900000E1F5057D0C40000D09400059094000BF
:1005A00069094000013F182000040E40790940000D
:1005B000A50840006D0B400090B92DE9F0410C46B4
:1005C0009046002A0FDD8F18084E094D30682146ED
:1005D0002B6898470134A742F8D14046BDE8F08126
:1005E0004FF0FF3070470020BDE8F081E4080020A4
:1005F000DC0800200138022815D82DE9F0410E460C
:1006000014469AB10D46DFF838800C4FD8F8000038
:1006100015F8011B3B68984700280ADBA81B013C22
:10062000F4D1BDE8F0814FF0FF3070470020BDE805
:10063000F0814FF0FF30BDE8F08100BFE0080020FE
:10064000E408002010B54FF40042254B5A600B20FF
:10065000244CA0470C20A0470D20A047224B4FF46C
:1006600080421A61C3F8A0201A63A3F500734FF00B
:1006700080425A61C3F8A0205A66C3F890205A6598
:100680005A62C3F880201A6F22F080421A675A6FAC
:1006900022F080425A674FF080621A631A61C3F8F1
:1006A000A0204FF000621A631A61C3F8A0200F4A1D
:1006B000082111631161C2F8A0104FF4C0621A66DC
:1006C000C3F890205A655A62C3F88020196F21F44C
:1006D000C0611967596F21F4C06159675A6010BD34
:1006E00050140E408909400000100E4000120E40C8
:1006F00000230360064A4260064A82604FF480226B
:10070000C2600222027442748374C374037570471A
:1007100000E1F505808D5B00B1F5803F02D0B1F5B9
:10072000003F07D1436823F010034360036C194373
:1007300001647047436819434160036C23F44033FC
:100740000364704738B5036B13F0807337D101220F
:1007500002608A7C002A18BF4FF000430A7C120610
:1007600002F070644A7C120702F040522243CC68C7
:1007700014438A6855004A68B2FBF5F2013A120246
:1007800092B2224313434360CB7C002B14BF4FF043
:10079000807200220B7D002B14BF4FF480130023C6
:1007A000134303640968074B9847074B03F1600143
:1007B000002243F8042F8B42FBD1002038BD1920C2
:1007C00038BD00BF19074000E4080020B1F1FF3F29
:1007D0000EBF4FF0FF33024B53F821304362704796
:1007E0002856400010B5084C44F82120074A4FF025
:1007F0000054C2F880411B01DBB282F81D33146043
:10080000034B984710BD00BFE808002000E100E05E
:10081000CD07400070B582B0094B1B6B0193094EA8
:10082000341F094D5C36019A54F8043F1A4202D035
:100830002B6803B198470435B442F4D102B070BDBF
:100840000080034028564000E808002000B583B02F
:100850001D20114B9847114B9B78FF2B00D1FEE7D1
:10086000EFF31083B3FA83F35B09019372B6BFF31E
:100870005F8F00220A4B1A700199084A937801335E
:10088000937029B10122064B1A70BFF35F8F62B6D5
:1008900003B05DF804FB00BF89094000D4080020C4
:1008A00000000020184A136B23F0700318431063F4
:1008B000936E13F0080F03D009E0013B03D11EE053
:1008C0004FF4006310498A6E12F0080FF5D00E4AFB
:1008D000136B23F0030343F002031363906E10F0D5
:1008E000080004D000207047013B03D109E04FF419
:1008F000006305498A6E12F0080FF5D07047012099
:1009000070470120704700BF00040E40114B1A6A67
:1009100042F45C1242F008021A621A46936E13F413
:10092000003FFBD00B4A136A23F45C1323F07003DF
:1009300043F45C1303431362936E13F4003FFBD044
:10094000044A136A23F09B7323F4803343F45C134B
:100950001362704700040E40024B986E00F4803022
:10096000704700BF00040E404FF00052014B9A62E6
:10097000704700BF00040E40024B986E00F002006A
:10098000704700BF00040E401F280CD8084B9A691E
:1009900001238340934308D0012303FA00F0044B62
:1009A000186100207047012070470020704700BF89
:1009B00000040E4010B489014318022444504FF043
:1009C000FF319962196A5A6010BC7047890105238A
:1009D00043507047F0B486B0022401940824029476
:1009E00020240394802404940A9CE40B0594B0EB27
:1009F000510F1CD84C0CA0421FD201AE012556F855
:100A0000044FB1FBF4F4270C844212D3874215D96A
:100A10000135052DF3D1002013E006A901EB850176
:100A200051F8141C116033B11D60012009E0002051
:100A300007E0002005E0012003E00025002AECD1BA
:100A4000F1E706B0F0BC704710B4AC2303600B684C
:100A50004A68B3FBF2F31B095C1E4FF6FE72944228
:100A60000AD803628B68436040F20223C0F8203149
:100A700050230360002000E0012010BC704700BF3D
:100A8000436913F0020F1ABFC161002001207047B3
:100A9000436913F0010F1DBF83690B700020012013
:100AA000704700BF436913F0020F1DBFC1F3080177
:100AB000C161002001207047436913F0010F05D088
:100AC0008369C3F308030B6000207047012070475F
:100AD000FEE700BF08B5194B194A9A4203D0194BDB
:100AE000164A9A4204D3184B184A9A420FD31AE076
:100AF0001249174B5B1A23F003030433104A1344C3
:100B000052F8040B41F8040B9A42F9D1EBE7114B70
:100B1000114AD21A22F003021A44043B002143F87E
:100B2000041B9342FBD10D4A0D4B23F07F039360CE
:100B30000C4B98470C4B9847FEE700BF0000002085
:100B400038584000740800204C0900207408002028
:100B500073080020780800204F09002000ED00E015
:100B6000000040002D0D4000E50240003C4B1B6B97
:100B700003F00303012B0FD013B1022B29D057E050
:100B8000384B5B6913F0800F14BF4FF400424FF4F1
:100B9000FA42354B1A604BE0314B1B6A13F0807FF1
:100BA00003D0324A304B1A6042E0314A2E4B1A6071
:100BB0002B4B1B6A03F07003102B02D0202B04D0A8
:100BC00036E02C4A284B1A6032E0284A264B1A603D
:100BD0002EE0234B1B6A13F0807F03D0234A224B65
:100BE0001A6012E0224A204B1A601D4B1B6A03F068
:100BF0007003102B02D0202B04D006E01D4A1A4BA4
:100C00001A6002E0194A184B1A60154B1B6B03F06F
:100C10000303022B0CD1124A936A926A1248C3F35F
:100C20000A41036801FB0333D2B2B3FBF2F3036062
:100C30000B4B1B6B03F07003702B07D10A4A136830
:100C40000D49A1FB03135B0813607047044B1B6B3A
:100C50000549C3F302120B68D3400B60704700BF15
:100C600000040E4010140E4004000020001BB700CA
:100C700000093D0000127A00ABAAAAAA0F4B9842C5
:100C800004D84FF080620E4B1A6070470D4B9842AB
:100C900003D80D4A0A4B1A6070470C4B984203D890
:100CA0000B4A074B1A6070470A4B984294BF0A4A96
:100CB0004FF00422024B1A60704700BFFF2C310135
:100CC000000A0E40FF59620200010004FF869303F0
:100CD00000020004FFB3C40400030004094B1B68B6
:100CE00013B9094A074B1A60064B1B681A180749C3
:100CF000914204DB1046034A1060184670474FF0DB
:100D0000FF3070479C08002050390020FC3F012034
:100D10004FF0FF30704700BF4FF400534B6000208E
:100D2000704700BF012070470020704770B50F4E1C
:100D30000F4D761BB61018BF002405D0013455F8AE
:100D4000043B9847A642F9D10A4E0B4D761B04F09E
:100D50005DFDB61018BF002406D0013455F8043BE1
:100D60009847A642F9D170BD70BD00BF1858400029
:100D70001858400020584000185840000FB400B5E3
:100D8000074983B004AB086853F8042B81680193CA
:100D900000F000FA03B05DF804EB04B0704700BF48
:100DA000300400200FB400B5074983B004AB0868D5
:100DB00053F8042B4168019301F020F903B05DF86A
:100DC00004EB04B0704700BF3004002070B4840707
:100DD00046D0541E002A41D0CDB2034602E0621E26
:100DE000E4B3144603F8015B9A07F8D1032C2ED91B
:100DF000CDB245EA05250F2C45EA054519D903F181
:100E000010022646103E0F2E42F8105C42F80C5C91
:100E100042F8085C42F8045C02F11002F2D8A4F136
:100E2000100222F00F0204F00F041032032C1344BE
:100E30000DD91E462246043A032A46F8045BFAD826
:100E4000221F22F003020432134404F003042CB1E5
:100E5000C9B21C4403F8011BA342FBD170BC70470C
:100E600014460346C2E700BFF0B5054689B0084600
:100E70000C4600F0E5F8AB6B144F04940126441CBB
:100E800004A9022203940590AC6806970796019185
:100E90000292B3B1B4F90C309A0406D4626E43F4F2
:100EA000005322F40052A38162662146284601AA1B
:100EB00002F028FA002814BF4FF0FF300A2009B0D2
:100EC000F0BD284601F09EFFE4E700BF90564000C9
:100ED000024B01461868FFF7C7BF00BF300400206F
:100EE00000290CBF022200224FF4806300F000B8FA
:100EF0002DE9F043514C256883B004460F469046D7
:100F00001E4615B1AB6B002B79D0B8F1020F04D09F
:100F1000B8F1010F7FD8002E7DDB2146284601F075
:100F2000CBFE216B41B104F14003994202D0284627
:100F300002F000F900232363B4F90C300022A2610F
:100F400062601A0654D423F44A6323F00303B8F111
:100F5000020FA38139D001AB6A462146284602F030
:100F6000BBFBA3891843A08126B327B3AB6B002B2F
:100F70004DD0009BB4F90C0027609E421CBF40F48A
:100F80000060A081B8F1010F08BF40F0010083B2FA
:100F900008BFA08103F0080080B22761666118B322
:100FA00013F001002FD000207642A661A06003B0AC
:100FB000BDE8F083009E304602F002FC074668B3AD
:100FC000A38943F08003A381D0E7002004F143020A
:100FD00043F0020300250121A381A5602260226164
:100FE000616103B0BDE8F083A06003B0BDE8F083A9
:100FF0002169284602F09EF8B4F90C30A3E7284690
:1010000001F000FF81E7A66003B0BDE8F083284649
:1010100001F0F8FEADE74FF0FF30E2E7DDF80090B9
:10102000B14506D0484602F0CBFB074608B14E4614
:10103000C6E7B4F90C304FF0FF30C7E730040020AA
:1010400090F800F06DE9024520F007016FF0000C08
:1010500010F0070491F820F040F049804FF00004B0
:101060006FF00700D1E9002391F840F000F108008B
:1010700082FA4CF2A4FA8CF283FA4CF3A2FA8CF3C3
:101080004BBBD1E9022382FA4CF200F10800A4FA2A
:101090008CF283FA4CF3A2FA8CF3E3B9D1E904237E
:1010A00082FA4CF200F10800A4FA8CF283FA4CF3B5
:1010B000A2FA8CF37BB9D1E9062301F1200182FA6F
:1010C0004CF200F10800A4FA8CF283FA4CF3A2FA75
:1010D0008CF3002BC6D0002A04BF04301A4612BA83
:1010E000B2FA82F2FDE8024500EBD2007047D1E986
:1010F000002304F00305C4F100004FEAC50514F015
:10110000040F91F840F00CFA05F562EA05021CBFE5
:1011100063EA050362464FF00004A9E74B6E2DE930
:10112000F0479C0492462CD5936812683BB30F4657
:10113000804602F1080919E96000B60817D0043D9D
:10114000002401E0A64210D03A4655F8041F40465C
:1011500001F0C2FE431C04F10104F3D10023CAF8DC
:101160000830CAF80430BDE8F087DAF80830A3EB9D
:101170008603CAF8083009F10809002BDBD10020EA
:10118000ECE702F0BFF80023CAF80830CAF80430D0
:10119000BDE8F0872DE9F04FABB01C4600919046BA
:1011A0000493059018B1836B002B00F0DE8000984B
:1011B000B0F90C108AB2950407D4436E41F4005282
:1011C00023F400538281436692B2110740F1B1804B
:1011D000009B1B69002B00F0AC8002F01A020A2A67
:1011E00000F0B58000230DF1680B02930F930E936E
:1011F000CDF834B0DA4698F800304446FBB1252BE0
:1012000002D11CE0252B03D014F8013F002BF9D1AB
:10121000C8EB04059DB10E9B0F9ACAF800800133FC
:101220002A44072BCAF804500F920E937BDD002A44
:1012300040F02885029B0E922B44DA4602932378D5
:10124000002B00F03E8400214FF000034FF0FF32EE
:101250008DF82F3004F101086378019208460E469C
:101260000C4608F10108A3F12002582A00F29383EA
:10127000DFE812F04603910391034E0391039103BB
:101280009103910391039103890267029103800006
:101290006C029103C60159025902590259025902BE
:1012A0005902590259025902910391039103910382
:1012B000910391039103910391039103CB01910356
:1012C000910391039103910391039103910391037E
:1012D0009103140291039103910391039103EE0290
:1012E00091039103110391039103910391039103DE
:1012F0009103910391039103910334038A039103B2
:101300009103910367038A03910391036C03910393
:10131000790395028500E90291039B029103BA02C9
:101320009103910353030AF1080A029B2B44029391
:1013300085E70099059801F0A7FB002840F0588543
:10134000009B9A8902F01A020A2A7FF44BAF009997
:10135000B1F90E30002BFFF645AF23464246059803
:1013600000F016FE2BB0BDE8F08F01F04BFD1EE73C
:101370006442049346F0040698F8003071E7302187
:1013800004988DF83010019906944FF000037822EC
:101390008DF82F30002903468DF83120046803F1C1
:1013A00004034FF0000546F00202C0F2258526F046
:1013B000800654EA050246F00206049340F0BF841A
:1013C000B348019B002B40F01C84994600230193F5
:1013D00003935F46019B039A9342B8BF13461D4691
:1013E000B9F1000F00D0013516F00203079318BFC2
:1013F000023516F08403089340F0F182069B5C1BD3
:10140000002C40F3EC82102C40F35685DFF88492D8
:10141000DDF838E00F9AD4461023C2467046A8463D
:101420004D46DDF8149007E000F1020E0CF1080CB7
:101430000846103C102C13DD411C103207290F9276
:10144000CCF80050CCF804300E91EDDD002A40F0CD
:10145000B782103C102C10464FF0010EDC46EBDC3E
:10146000A94670464546D046E246224407280F92D8
:10147000CAF80090CAF804400E9000F375839DF8F6
:101480002F300AF1080A00F1010E002B40F0B08263
:10149000079B002B00F0C38202320CA90223BEF18D
:1014A000070F0F92CDF838E08AE80A0040F37883FE
:1014B000002A40F00A84089B802B4FF0010E104652
:1014C000DA4640F0B082069B5C1B002C40F3AB82F6
:1014D000102CDFF8C49140F30B85D6461023C2468A
:1014E000A8464D46DDF8149007E000F1020C0EF11D
:1014F000080E0846103C102C13DD411C1032072941
:101500000F92CEF80050CEF804300E91EDDD002A97
:1015100040F01583103C102C4FF0010C1046DE46B5
:10152000EBDCA9464546D046F2462244BCF1070F03
:101530000F92CAF80090CAF80440CDF838C000F302
:10154000D283019B03995C1A002C0AF1080A0CF162
:10155000010E604600F36D820399CAF800700A44D8
:10156000BEF1070F0F92CAF80410CDF838E040F32F
:10157000CE82002A40F03A8370070E9238D5069B3F
:101580005C1B002C34DDDA46102C40F3AB84DFF812
:1015900004910E994F461026DDF8149006E0881C41
:1015A0000AF1080A1946103C102C13DD4B1C1032AE
:1015B000072B0F92CAF80070CAF804600E93EEDD94
:1015C000002A40F08E82103C102C4FF00100114692
:1015D000DA46EBDCB946224407280F92CAF800909D
:1015E000CAF804400E9040F39B82002A40F0258404
:1015F000029B069AAA42ACBF9B185B19029399E220
:1016000046F0800698F800302BE60694002940F05A
:10161000AF8446F01006B30640F1128304990731F7
:1016200021F00701D1E900230831049114461D4639
:10163000002A73F10003C0F28683019B9DF82F906E
:10164000002BC0F21A8354EA050326F0800600F04E
:10165000ED80002D08BF0A2CC0F0ED805F462046CB
:1016600029460A22002303F04BFD303207F8012DF2
:101670002046294600230A2203F042FD04460D4677
:1016800054EA0503EBD1C7EB0B030393A2E600BFBB
:10169000B8564000D45640009456400006940029A5
:1016A00040F0628446F0100616F0200300F0AE828F
:1016B000049B073323F007034FF000028DF82F201F
:1016C000D3E9004503F10802019B0492002BC0F20C
:1016D000748154EA050326F0800640F06E81019B78
:1016E000002B00F030844FF00009002400255F46F5
:1016F000E20842EA4572E90804F007030D46144681
:10170000303354EA050207F8013DF1D1F407BAD5A8
:10171000302BB8D030227B1E07F8012CC3EB0B0214
:1017200003921F4656E6A3F13002002418F8013B4D
:1017300004EB840402EB4404A3F13002092AF5D936
:1017400091E598F8003001212B208AE598F80030C7
:101750002A2B08F1010500F0DD83A3F13002092AEC
:10176000A84698BF002500F2CE8318F8013B05EB90
:10177000850502EB4505A3F13002092AF5D945EAB2
:10178000E57201926FE5049A14681346002C03F188
:101790000403FFF6EDAD049398F8003061E506947C
:1017A000002981D08DF82F007EE7049A06941768EF
:1017B0004FF000038DF82F30141D019B002F00F017
:1017C0008683002BC0F25F831A460021384602F060
:1017D000FFFA002800F08F83C31B039300230494B7
:1017E0009DF82F900193F5E50694002940F0B98308
:1017F00016F0200935D116F0100303D116F0400978
:1018000040F02A83049A13461468019A8DF82F90A9
:10181000002A03F104034FF00005C0F2328354EABA
:10182000050226F0800604937FF413AF019B002B82
:101830003FF4CCAD00242AAF303407F8414DC7EB5C
:101840000B030393C6E546F0200698F8003008E540
:101850000694002940F06E8346F0100616F0200929
:10186000C9D0049B073323F007034FF000028DF823
:101870002F20D3E9004503F10802019B0492002BBD
:10188000C0F2F98154EA050326F080064FF0000902
:101890007FF4DFAECAE70694002940F05183B20618
:1018A000AE4841D5049A073222F00702D2E900453A
:1018B00002F10801049116F0010900F0778154EA61
:1018C000050240F026824FF000038DF82F30019B77
:1018D000002BC0F2968126F0800672E5049A0694E9
:1018E00013688DF8403013464FF000010125043392
:1018F0008DF82F100493039510AF0023019373E527
:1019000098F8003000287FF4ACAC01212020A8E436
:1019100046F0010698F80030A3E40694002940F050
:101920000C83B2068E48BDD40499F7060A4600F12E
:101930009D81750640F19A8104320C88049200253D
:10194000B9E746F0400698F800308AE498F800308D
:101950006C2B03BF98F8013046F0200608F101080F
:1019600046F010067DE4002940F00983B40640F1FA
:101970001C82049A02991368CD170846043229463E
:101980000492C3E9000136E4069400293FF443AE13
:101990008DF82F003FE60694002940F0ED82002BE1
:1019A00000F08F8001258DF840304FF000038DF856
:1019B0002F30039510AFA0E704934FF0000996E68F
:1019C0000DAA009909934846FFF7A8FB00287FD18C
:1019D0000E980F9A099B00F1010EDC4629E50E983E
:1019E0000F9A00F1010E9DF82F30002B3FF450ADFF
:1019F00001320DF12F010123BEF1070F0F92CDF837
:101A000038E08AE80A0040F3BF80002A40F04E81A7
:101A10000799002940F0BE809E461046DA46089B92
:101A2000802B3FF450AD019B03995C1A002C7FF78B
:101A300093AD102CDFF82C9125DDD4461023C2463F
:101A4000A8464D46DDF8149007E000F1020E0CF1B7
:101A5000080C0846103C102C11DD411C10320729DF
:101A60000F92CCF80050CCF804300E91EDDDD2B9D5
:101A7000103C102C4FF0010E1046DC46EDDCA94660
:101A80004546D046E2462244BEF1070F0F92CAF8FF
:101A90000090CAF80440CDF838E02EDC0AF1080ABC
:101AA0000EF1010E58E50DAA009901934846FFF783
:101AB00035FB68B90E980F9A019B00F1010EDC46C8
:101AC000C8E70F9B23B1059800990DAAFFF726FBE5
:101AD000009B9B895A0600F18B8102982BB0BDE8D0
:101AE000F08F0DAA00994846FFF718FB0028EFD1A8
:101AF0000E990F9A481CDA4655E5002A40F0FB8003
:101B0000039A1B9201230F921A970E93DA460AF159
:101B1000080A710704D5069B5C1B002C3FF734AD07
:101B2000029B0699A942ACBF5B185B190293002A7D
:101B300040F0B38000230E93DA46FFF75CBB0DAA9A
:101B4000009907934846FFF7E9FA0028C0D10E989C
:101B50000F9A079B00F1010CDE46CBE4A45640002F
:101B6000B856400094564000002A40F033819DF85A
:101B70002F30002B00F0F58001230DF12F011A46C4
:101B80001B939E461A91DA4670460AF1080A0EF136
:101B9000010E7DE40CA902229E461A911B92DA46A0
:101BA00070460AF1080A0EF1010E38E7019B8DF824
:101BB0002F90002BC0F22A8154EA050326F08006FC
:101BC0003FF4FFAB5F46230904F00F0143EA0573BE
:101BD0002A091C461546435C07F8013D54EA0503F3
:101BE000F1D1C7EB0B030393FFF7F4BB0DAA0099E8
:101BF0000598FFF793FA00287FF46AAF0F9ADA4648
:101C000087E74FF0000900240025DBE716F01002FB
:101C100000F0B28004998DF82F300A460C680199C3
:101C2000002902F104024FF00005C0F2598154EA84
:101C3000050126F0800604923FF451AD994656E521
:101C4000F7060AD4750608D50499B1F900400431A5
:101C5000E51722462B460491EAE4049A14681346D9
:101C60000433E517049322462B46E1E4146804325A
:101C7000049200251FE64FF0000954EA05037FF4A3
:101C8000E8ACD8E50DAA00990598FFF747FA0028B7
:101C90007FF41EAFDA46FFF748BB0DAA00990598FE
:101CA000FFF73CFA00283FF445AF11E70DAA009971
:101CB0000598FFF733FA00287FF40AAF0E980F9AC1
:101CC00000F1010EDA46FFF7E3BB0DAA0099059873
:101CD000FFF724FA00287FF4FBAE0E980F9A00F16C
:101CE000010EDA469BE6002A40F0D8804FF0010E44
:101CF0001046DA4697E60DAA00990598FFF70EFA06
:101D000000287FF4E5AE0E9B0F9A03F1010EDA4630
:101D100022E430228DF83020019A8DF83130002AEB
:101D20004FF000038DF82F3046F00203C0F2CB8055
:101D300026F0800646F002064FF0000942E74FF019
:101D4000000990483EE7019B64424FF02D0965EB86
:101D50004505002B8DF82F90FFF67BAC26F0800612
:101D600077E4079B002B72D00CAB02221A931B92D4
:101D70004FF0010EDA4613E716F0400948D00499F7
:101D80008DF82F200B460C880199002903F10403DC
:101D90004FF00005FFF610AE54EA050126F080066C
:101DA00004933FF49CAC9146A1E4F0060AD471067A
:101DB00008D5049A136804320492BDF808201A80EA
:101DC000FFF719BA049A136804320492029A1A604F
:101DD000FFF711BA0DAA00990598FFF79FF900289F
:101DE0007FF476AE0E980F9A00F1010EDA46FAE50E
:101DF0004FF0FF30FFF7B6BA6248164654EA0502C4
:101E000004934FF000097FF4DDAEFCE6049BF5E798
:101E1000049A8DF82F9013461468019A002A03F152
:101E200004034FF00005FFF6C7AD54EA050226F0A3
:101E3000800604937FF45BAC51E40DAA00990598E9
:101E4000FFF76CF900287FF443AE0F9A68E610465E
:101E50004FF0010EDA46E6E504998DF82F300A4678
:101E60000C880199002902F104024FF000054EDBB5
:101E700054EA050126F08006049299467FF4E9AB06
:101E8000D4E40493F9E638460494FFF7D9F8002324
:101E900003909DF82F900193FFF79CBA0DAA00992B
:101EA0000598FFF73BF900287FF412AE0E980F9AC1
:101EB00000F1010EDA46B6E50E980F9ADFF8CC90E5
:101EC0000130FFF7D2BA1E464FF000097AE6062B22
:101ED00028BF06230393049423EAE3752A4F0CE5F5
:101EE00004926AE50E98DFF8A4900130FFF773BB07
:101EF000F446FFF71ABB019B9DF82F9003930494BF
:101F00000190FFF767BA00220192FFF7ACB9049283
:101F10009946B2E6049A136801930432002B0492A6
:101F200098F80130A846BFF69CA94FF0FF32019205
:101F3000FFF797B98DF82F008EE48DF82F00F0E4AD
:101F40008DF82F00ABE49946F30705D52AAF30236F
:101F500007F8413DFFF797BB019B03935F46FFF7EF
:101F600039BA8DF82F0043E48DF82F00FFF79ABBA4
:101F70008DF82F00FFF74DBB8DF82F000FE58DF882
:101F80002F00F3E4B8564000CC564000D456400031
:101F9000F0B50C46ADF26C4D8989666EE5891996EF
:101FA00021F00201666AADF80E500025E769ADF830
:101FB0000C10099606951AAE4FF480656946009696
:101FC00004960295059507970646FFF7E3F8051E68
:101FD00007DB3046694600F06FFE002818BF4FF05F
:101FE000FF35BDF80C305B0603D5A38943F04003F1
:101FF000A38128460DF26C4DF0BD00BF2DE9F04FD6
:102000008B46B1F90C10D9B007468804059309D462
:10201000DBF8643041F4005123F40053ABF80C10AA
:10202000CBF864301646002316F8011B0693039381
:1020300099460793DFF8DCA40B9171B3DAF800C07E
:102040000CEB01035B7803F0080303F0FF0543B3D7
:10205000DBF8043012E0DBF80030DAF800101A7810
:102060000A4401335278120710D5DBF80420CBF86C
:102070000030531E09F10109CBF80430002BEADCD3
:102080005946384602F0F0F90028E4D032461646A8
:1020900016F8011B0B910029D0D1079859B0BDE863
:1020A000F08F252940F0828053782C46721C782BC3
:1020B00000F26482DFE813F09300620262026202BF
:1020C00062026202620262026202620262026202F0
:1020D00062026202620262026202620262026202E0
:1020E00062026202620262026202620262026202D0
:1020F00062026202620262026202620262026202C0
:10210000620279006202620262026202A701620256
:1021100062026202620262029F019F019F019F01AF
:102120009F019F019F019F019F019F016202620227
:10213000620262026202620262026202620262027F
:102140008D01620262026202620262026202620245
:10215000BE0162026202AC016202620262026202BB
:1021600062026202620262027B0162026202440156
:10217000620262026202620262026202620215018D
:1021800009016202620262020401C3016202620288
:10219000FC006202EB00DF00D10062026202C900B3
:1021A00062029800620262027B011646DBF804308C
:1021B000002B40F34482DBF8003016F8012C19782C
:1021C00091427FF46AAFDBF804200133013ACBF887
:1021D0000420CBF8003009F10109324657E74FF0EF
:1021E000FF3059B0BDE8F08FDBF804300292002BCD
:1021F00040F35982C54B06930A2303930326DBF869
:10220000003001E0CBF8003093F800E00CEB0E0258
:10221000507800F0080202F0FF01002A00F06E8200
:10222000DBF80420013A002A09F10109CBF8042067
:1022300003F10103E6DC5946384602F015F900289F
:1022400040F08C81DAF800C0D9E7DBF80430029264
:10225000002B40F332820226D1E7DBF804300292F1
:10226000002B45F4087540F3AA80A84B0693102371
:1022700003930326C3E7DBF804300292002B40F3FC
:10228000CF80A24B0693082303930326B7E7EB0600
:10229000029200F12C816E0740F1E48105990B68F0
:1022A000A3F800900B461646043305933246EEE63B
:1022B00073786C2B00F0CB8145F001051646F5E6EE
:1022C000737845F004051646F0E6DBF80430029218
:1022D000002B40F386808E4B06930A23039303263C
:1022E0008DE7DBF804300292002B40F3D481002C00
:1022F00008BF012415F0010340F0AD80EA0640F16B
:102300008A811D4609E01344CBF800301544A41A15
:1023100002F0AAF8002840F07581DBF80420DBF811
:102320000030A24259463846EDDB121B2344CBF85D
:1023300004202544CBF80030029EA9443246A6E68C
:102340000DF160081146404602F02AF9DBF804302E
:10235000002B064640F3CA81002CDBF8001008BFB2
:102360004FF0FF34EB06087840F1C480029400255A
:1023700000E0087818F800300131002B00F04681A9
:10238000DBF80430CBF800100135013BA542CBF857
:10239000043000F01081002BEBDC5946384602F087
:1023A00063F8002840F00681DBF80010E1E7DBF875
:1023B00004300292002B45F400753FF756AF5946A2
:1023C000384602F051F8002840F0C880DAF800C022
:1023D0004BE7DBF804300292002B45F001053FF794
:1023E0007AAF5946384602F03FF8002840F0B680F0
:1023F000DAF800C06FE704EB840403EB4404303CDC
:102400007378164652E6737845F0100516464DE689
:10241000DBF804300292002B45F001053FF731AFA5
:102420005946384602F020F8002840F09780DAF844
:1024300000C026E7737845F00205164636E6DBF85D
:1024400004300292002B40F34381314B069300236A
:1024500003930326D3E60CAB184608220021089309
:10246000FEF7B4FC15F01003099300F0AB800023D5
:10247000049300250DF1380801F028F9A8426DD029
:102480009BE80C0012F8010BCBF80020013B089AE6
:1024900000926E1CCBF80430049908F8050033460E
:1024A0004246384601F04CFC411C57D0002840F011
:1024B0009080099B002B40F09B80049AB1441360EC
:1024C000013C049B04330493DBF80430002B4FF0F1
:1024D000000573DC5946384601F0C6FF00286DD070
:1024E000002D3BD1099B13B9079B01330793029E33
:1024F0003246CCE5059A15680495134604332A192B
:1025000002932C4603463D46174608E075494000B5
:102510009D46400034040020DBF800100B7818F8CA
:102520000330481C002B36D0DBF80430CBF8000019
:10253000013BCBF804300B7804F8013BA7422AD0CA
:10254000DBF80430002BE7DC5946284601F08CFF0D
:102550000028E1D02F46049DA5421ED1079A002AEB
:102560003FF43DAEBBF80C3013F0400F134618BFDC
:102570004FF0FF33184659B0BDE8F08F6344029224
:102580005B7803F00303012BDBF8043064D0002BED
:102590003FF7A1AE25E72F46049D651B3FF47DADB7
:1025A000079B013300220793029B05932270A944E5
:1025B00032466CE50295029DA944F9E7002C7FF4B0
:1025C0005BAF8FE7059A13680493134604330593B2
:1025D0004FE702300FD1DBF80430002B35463FF7D0
:1025E0004BAF5946384601F03FFF0028E6D077E769
:1025F000B144013C68E7099BB144013C002B3FF426
:1026000060AF61E7002D7FF497AEA7E7002D3FF4A0
:1026100044ADA944CCE7059D23462968CDF800B018
:102620000122384600F06AFC0435002896D0079B4A
:10263000029E0595013381440793324627E55946AA
:10264000384601F011FF00283FF4B5AD86E7B378B6
:1026500045F00205023629E5002B45F001053FF75C
:102660003AAEBEE6EC070CD4A8070AD50598029E40
:1026700001684A46D3170430C1E900230590324669
:1026800005E5059A029E1368C3F8009013460433CB
:1026900005933246FBE45946384601F0E5FE002832
:1026A0003FF425AE5AE75946384601F0DDFE0028D2
:1026B0007FF454AFDAF800C09CE55946384601F083
:1026C000D3FE00287FF44AAFDAF800C0022696E570
:1026D0005946384601F0C8FE00287FF43FAF8B4BC7
:1026E0000390DAF800C00693032688E55946384679
:1026F00001F0BAFE00283FF42FAE2FE7032E40F082
:102700009880621E262A98BF0A460DF138084FF0BD
:10271000000118464B46B946039F049188BFA4F1B7
:10272000270245F4586588BF27244646AEF12B01A1
:102730004D2950D8DFE801F0784F784F4F6672721C
:1027400072727272724A4A4F4F4F4F4F4F4F454508
:10275000454545454F4F4F4F4F4F4F4F4F4F4F4FB1
:102760004F4F4F4F4F274F4F4F4F4F4F4F4F4545B5
:10277000454545454F4F4F4F4F4F4F4F4F4F4F4F91
:102780004F4F4F4F4F2705F4C061B1F5007F22D165
:1027900025F4007545F4A065102786F800E00136A1
:1027A000DBF8041001390029CBF804106EDD01308C
:1027B000CBF80000013C0ED0DBF8000090F800E000
:1027C000B4E70A2F07DD25F43865E6E7504931F90B
:1027D0001770082FF7DCE80503974F46994605D593
:1027E000464500F2E08046453FF457AC15F0100432
:1027F00000F0B380049BC8EB06061E44B144029E61
:10280000324644E42905C8D517B945F400750827B0
:10281000690540F1B68025F4B065BEE73C4925F472
:10282000386531F91770B8E72906D4D525F0800549
:10283000B3E7002C08BF4FF0FF3415F0010269D157
:10284000E9062ED51546614602E01A780A4450780A
:10285000060703F101033FF56FADDBF80420CBF869
:1028600000300135013AAC42CBF804203FF464ADAE
:10287000002AEADC5946384601F0F6FD00287FF4CC
:102880005BADDAF80010DBF80030DEE75946484669
:102890000892039301F0E8FD039B089A002889D071
:1028A00099E705990E680D1D3444B04606E0DBF843
:1028B0000030DAF8002019780A445078000703F154
:1028C000010115D4DBF80420CBF80010013ACBF855
:1028D00004201B7808F8013B444509D0DBF804309C
:1028E000002BE4DC5946384601F0BEFD0028DED05E
:1028F000C6EB0806079A0595B144029E01320023F3
:10290000079288F800303246FFF7C1BB9D46400071
:10291000E45640000CAB184608220893FEF756FA1E
:1029200015F0100304933BD1059A13460433D2F8F3
:10293000008005930026DBF80030DAF800201B78D1
:1029400013445B78180701D4002C49D1049B002B59
:102950007FF4CDADC8F80030C6E52246414634705C
:10296000039B069C3846A047A90613D46A0722D5C4
:10297000059A1368043205921880079B0133079368
:1029800038E725F460750AB1013A01340499013140
:10299000049105E7059A1368043205921860ECE784
:1029A0000DF12C08C6E716F8011C5A46384602F00D
:1029B0009BF9013E17E715F00102EBD1AB07E9D512
:1029C000304B069999423846039B414653D001F05B
:1029D000F9FE059A136804320592C3E90001CCE7B9
:1029E00000F074FE86423FF4B9AD9BE80C0012F88B
:1029F000010BCBF80020089A00920EAA751C013B2F
:102A00009055CBF8043041462B46384601F098F9F2
:102A1000461C3FF4A3AD88B1023008BF2E462DD12D
:102A2000DBF80430002B86DC5946384601F01CFDEB
:102A3000002880D0002E7FF491AD87E7C8F8000011
:102A400000F032FE68B1002D80D00EAB5C19013D64
:102A50005A4614F8011D384602F046F9002DF6D109
:102A600074E7049BA944013C1BB908F104081E4605
:102A7000D6E70646D4E702F017F8AAE7D8F8000030
:102A8000DEE700BF7549400038B5304B1B6805468E
:102A90000C4613B19A6B002A38D0B4F90C2093B2CB
:102AA00018070CD52069A8B113F001021ED0636984
:102AB00000225B42A361A260F0B1002038BDD906BC
:102AC0003CD5580726D4206942F00803A3819BB265
:102AD0000028E9D103F42072B2F5007FE4D0284643
:102AE000214600F029FEA3892069DDE7990758BF38
:102AF0006269A2600028E0D1B4F90C301A06DDD575
:102B000043F04003A3814FF0FF3038BD184600F07A
:102B100079F9C2E7216B51B104F14003994204D025
:102B2000284600F007FBB4F90C20002323630023A0
:102B30002069636022F024022060C5E742F0400271
:102B400009232B604FF0FF30A28138BD30040020F4
:102B5000024B13B1024800F005B8704700000000B6
:102B6000192E4000002301461A46184602F0D0B93B
:102B7000B1F90C309AB22DE9F0410D4611078046AB
:102B80003CD46A6843F40063002AAB8173DDAC6A0D
:102B9000002C4BD09BB203F48052002192B2D8F8A3
:102BA0000060C8F80010002A69D02A6D5F0705D5BB
:102BB00069682B6B521A0BB1EB6BD21A0023E969CF
:102BC0004046A047441C3CD0B5F90C302A692A6025
:102BD00023F400630022AB81DB046A6049D4296BD3
:102BE000C8F8006011B305F14003994202D0404695
:102BF00000F0A0FA00202863BDE8F0812E69AEB194
:102C00002C682E6090070CBF6B690023A41BAB607F
:102C10000AE0234632466F6AE9694046B847002811
:102C2000A4EB0004064404DD002CF2DC0020BDE827
:102C3000F081AB8943F04003AB814FF0FF30BDE83A
:102C4000F081D8F800201D2AF3D81A4BD34003F0A6
:102C5000010383F00104002BEBD0B5F90C30296996
:102C6000296023F40063D9046C60AB81B7D5002AD6
:102C7000B5D12865B3E7EA6B002A88DCD6E70123E3
:102C8000E9694046A047431C024602D0AB89AC6AC2
:102C90008CE7D8F80030002BF8D01D2B01D0162B74
:102CA00002D1C8F80060C1E7AB8943F04003AB81B3
:102CB000BDE8F0810100402010B5044682B008B1A3
:102CC000836B53B1B1F90C0008B902B010BD2046B6
:102CD00002B0BDE81040FFF74BBF019100F092F841
:102CE0000199EFE720B1054B01461868FFF7E4BFF3
:102CF000034B0449186800F0ADBC00BF300400204D
:102D00008C564000B92C4000014900F0A3BC00BF24
:102D1000D94F40002DE9F04F354B4568C36300247F
:102D2000074600F53B7204230321C0F8E412C0F803
:102D3000E822C0F8E04283B02C606C60AC606C6646
:102D4000EC812C616C61AC61AB81214605F15C00CA
:102D50000822FEF73BF8BE68DFF898B0DFF898A0CD
:102D6000DFF89890DFF89880C5F820B00123092299
:102D7000C5F824A0C5F82890C5F82C80ED6121463F
:102D8000F381B28106F15C0034607460B4607466F3
:102D900034617461B46108220193FEF717F8FD688D
:102DA000F66112200222C6F820B0C6F824A0C6F8A8
:102DB0002890C6F82C802146A881EA812C606C609E
:102DC000AC606C662C616C61AC6105F15C00082242
:102DD000FDF7FCFF019BED61C5F820B0C5F824A00C
:102DE000C5F82890C5F82C80BB6303B0BDE8F08F10
:102DF000092D400015464000394640007546400008
:102E000095464000836B03B17047FFF783BF00BF57
:102E1000704700BF704700BF38B5074D074C2C1BEB
:102E2000A41005D0013C55F8043D9847002CF9D179
:102E3000BDE8384002F0F4BC305840002C58400047
:102E40002DE9F04782B080468946144600F03EFCEA
:102E5000012833D004F15C034A4601A9404602F040
:102E600009F8B0F1FF3F824621D088B39DF8046095
:102E7000002508E023685A1C22601E700135554564
:102E800026D201AB5E5DA368013B002BA360F1DAA3
:102E9000A769BB4231462246404601DB0A2EE9D1F2
:102EA00001F092FF431CE9D102B0BDE8F087A3898D
:102EB00043F04003A38102B0BDE8F08709F1FF337E
:102EC000FE2BC7D85FFA89F682468DF80460CFE7FB
:102ED000484602B0BDE8F087B2F90C3013F4005F49
:102EE0000AD110B4546E43F4005344F400545466B1
:102EF000938110BCFFF7A4BFFFF7A2BF2DE9F04FED
:102F000083B002FB03F6DDF830B0002E48D09146C6
:102F100098460C46054618B1826B002A00F0AB803B
:102F2000BBF90C2091B288040AD4DBF8641042F497
:102F3000005221F40050ABF80C2091B2CBF86400A1
:102F4000DBF80470002F36DB8B073A463AD4B246E2
:102F500012E0DBF8001000F08BFFDBF800303B44A0
:102F6000CBF80030594628463C44C7EB0A0A01F02A
:102F70007BFAC8B9DBF80470BA453A462046E8D86F
:102F80005246DBF8001000F073FF9BE80600CAEB26
:102F9000020251448BE80600404603B0BDE8F08FC2
:102FA000304603B0BDE8F08FCAEB0606B6FBF9F079
:102FB00003B0BDE8F08F00208B070246CBF8040079
:102FC0000746C4D5B242134628BF33461A46DBF83B
:102FD00000100093204600F04BFFDBF80070009BD0
:102FE000DBF80420DBF8301007EB030AD21ACBF829
:102FF00000A0CBF80420F71A002949D0002F45D0B3
:103000000BF14000814206D02846009300F092F870
:10301000DBF800A0009B0021CBF83010DBF810207B
:10302000DBF8141000961C44CDF804801646A04628
:103030005446AA460D4600E037B3CBF81080CBF8D3
:103040001470CBF800805946504601F00DFADBF8B9
:103050000410CBF810600023CBF81450CBF80040DC
:103060007F1A8844CBF804300028E5D0009EF61B78
:10307000B6FBF9F091E7FFF7C5FEBBF90C2091B262
:1030800088043FF55DAF50E7DDF80480404684E7F3
:10309000002FC3D1404680E7F8B5234F0C460646C3
:1030A00000F0E4FFBB685D6825F00305291B01F60D
:1030B000EF7121F47F6121F00F01A1F58054B4F587
:1030C000805F07DB0021304601F058FABB682B44D3
:1030D000984204D0304600F0CBFF0020F8BD61429A
:1030E000304601F04BFA01300DD0104BBA68196828
:1030F0002D1B45F001053046091B5560196000F095
:10310000B7FF0120F8BD0021304601F037FABA6858
:10311000831A0F2BDEDD064C0449246843F00103BB
:10312000001B53600860D5E75C040020AC08002059
:1031300068080020002945D02DE9F0410D46804661
:1031400000F094FF55F8047C6A4927F00103A5F1CB
:103150000804E2188E685068B24220F0030062D082
:10316000FE0750600BD455F8087CE41B01F1080EF3
:10317000A56875453B446FD0E768EF60BD601518E2
:103180006D68ED0742D543F001026260E350B3F58C
:10319000007F18D2DB085A1C4D6851F83270A760C6
:1031A00001209B1000FA03F301EBC2001D43083815
:1031B000E0604D6041F83240FC604046BDE8F041BF
:1031C00000F056BF70475A0A042A53D89A0902F1F0
:1031D00039077F0002F1380501EB870051F82720FD
:1031E0004449083890424DD0516821F003018B4288
:1031F00002D292689042F7D1D068E060A260846009
:10320000D4604046BDE8F04100F032BF95683A4FC7
:10321000BD4203443FD0D068E86043F001028560BE
:103220006260E350B3E7FF07034407D455F8082C66
:10323000A41A1344A068E268C26090602F4A126822
:1032400043F00100934260608C60B6D32C4B404643
:103250001968FFF721FFB0E711184968C90744D47E
:103260009168D268CA60034443F0010091606060D5
:10327000E350A2E7142A17D802F15C077F0002F19D
:103280005B05A9E7AA104B68012505FA02F2134372
:103290004B600246B1E743F001024C610C61E5600E
:1032A000A5606260E35088E7542A06D81A0B02F141
:1032B0006F077F0002F16E058EE7B2F5AA7F06D890
:1032C000DA0B02F178077F0002F1770584E740F21C
:1032D0005450824206D89A0C02F17D077F0002F119
:1032E0007C0579E7FE277E2576E743F001026260E0
:1032F000E35062E75C0400206404002064080020BE
:10330000A80800209368002B76D02DE9F04F8B8918
:1033100085B00C4619070190164629D522693AB3A3
:1033200003F002081FFA88F0356800282FD04FF00C
:103330000009B44FC846B246B84543464A4628BF7E
:103340003B460198B8F1000F50D0E169666AB0477A
:10335000002871DDDAF808301B1A8144C0EB080838
:10336000CAF80830002BE7D1002005B0BDE8F08F87
:1033700021460198FFF788FB002840F03A81A38995
:10338000356803F002081FFA88F00028CFD113F047
:1033900001095BD14F4602961FB39A05D4F8088005
:1033A0002CD54745C246C0F0A48013F4906F40F07E
:1033B000B18020685246494600F0F4FDA0682368B9
:1033C000C8EB00005344A06023603846029A93681B
:1033D0001B1A81443F1A9360002BC5D0A389002F8C
:1033E000DBD1D5F800906F680835D5E7D5F80090A7
:1033F000D5F8048008359FE70020704720682369CE
:10340000984203D861698F4280F0B780B84528BFE1
:10341000B8464246494600F0C5FDA3682268C8EB9D
:1034200003034244A3602260002B49D12146019846
:10343000FFF742FC002843D0B4F90C3043F04003BE
:103440004FF0FF30A38105B0BDE8F08F80460290B9
:1034500082468146B9F1000F2AD0029B002B4CD046
:10346000206823696269C845C34628BFCB46984295
:103470005F4604D9A36813449B4500F390809345AD
:1034800020DB1346676AE16901985246B847071E78
:10349000D2DDB8EB070823D0B368DB1BBA44C7EB17
:1034A0000909B360002B3FF45FAFB9F1000FD4D12D
:1034B0000023D5F800A0D5F8049002930835C9E799
:1034C000404683E75A46514600F06CFDA2682368E7
:1034D000CBEB02025B44B8EB0708A2602360DBD1B0
:1034E00021460198FFF7E8FB0028A5D1CDF8088018
:1034F000D2E72068B846BA465CE74A460A215046F9
:1035000000F066FC00286FD001300123CAEB0008F0
:103510000293A5E762692068216902EB4208C1EBCA
:10352000000A08EBD8780AF101004FEA680838442D
:103530004045424684BF804642465B0542D511461F
:10354000019800F045F98346002855D0524621697C
:1035500000F08EFCA38923F4906343F08003A381E1
:10356000CAEB08030BEB0A00C4F81480C4F810B0CF
:103570002060A360B846BA461CE76FF00043BB4228
:1035800028BF3B464A4693FBF1F30198666A01FB6C
:1035900003F3E169B04700283FF718AF4CE71A463C
:1035A0005146039300F0FEFC2268039B01981A44E5
:1035B00022602146FFF780FB039B00287FF43CAF8D
:1035C0001F4666E7019800F055FD83460028C7D1E5
:1035D000019D21692846FFF7ADFDB4F90C300C229E
:1035E00023F080032A6029E7012309F101080293EF
:1035F00036E74FF0FF30B8E6019A0C231360B4F9B8
:103600000C301BE700FCFF7F2DE9F04110F5387707
:103610001BD0884600267D68BC68013D0FD4A38975
:10362000012B05F1FF3506D9B4F90E3001332046E0
:1036300001D0C04706436B1C04F16804EFD13F681A
:10364000002FE8D13046BDE8F0813E463046BDE867
:10365000F08100BF2DE9F84310F538771FD0884678
:1036600006464FF000097D68BC68013D11D4A3896E
:10367000012B05F1FF3508D9B4F90E30013321468D
:10368000304602D0C04749EA00096B1C04F16804C7
:10369000EDD13F68002FE6D14846BDE8F883B94632
:1036A0004846BDE8F88300BFFF2807D8044B1B68D5
:1036B0001844407800F00800C0B2704700207047FE
:1036C000340400200048704738040020014B18687B
:1036D000704700BF5804002070B50D46B1F90E10B8
:1036E000002990B014461E4614DB01AA01F0B6FC76
:1036F00000280FDB029A02F47042A2F50052B2FADF
:1037000082F252094FF480634FF40060326023600C
:1037100010B070BDA88900F0800082B20020306037
:103720001AB14023236010B070BD4FF4806310467F
:10373000236010B070BD00BF8A8992070B4606D582
:1037400001F1430201211A601A6159617047F0B515
:1037500083B001AB6A460C460546FFF7BDFF0099F2
:103760000646284600F034F8B4F90C30D0B1019A7E
:10377000124F0099EF6343F08003A3812060206122
:1037800061611AB93343A38103B0F0BD2846B4F98F
:103790000E1001F077FCB4F90C300028F2D043F0A1
:1037A0000103EFE79A05EFD404F1430243F002036B
:1037B0000121A381226022616161E5E7092D4000BA
:1037C000024B0146186800F003B800BF3004002027
:1037D0002DE9F04F01F10B05162D83B0064640F29E
:1037E0009F8035F0070500F1BF80A94200F2BC8040
:1037F00000F03CFCB5F5FC7FC0F09C826B0A00F049
:10380000BA80042B00F28381A80900F1390E4FEA37
:103810004E033830C44F07EB8303A3F108015C6803
:10382000A14207D1ACE0002A80F2AC80E468A1425A
:1038300000F0A680636823F003035A1B0F2AF2DD11
:10384000B9493C6901F1080E744500F0B381636821
:1038500023F003035A1B0F2A00F39981002AC1F8B1
:1038600014E0C1F810E080F29E80B3F5007F80F094
:103870006781DB0803F1010C01229B1002FA03F3BC
:103880004A6851F83C80C4F8088001EBCC091A431F
:10389000A9F10803E3604A6041F83C40C8F80C40D5
:1038A000831001249C40944200F28A80144206D185
:1038B00020F003006400144200F10400FAD007EB8A
:1038C000C009CC468046DCF80C108C4507D173E16A
:1038D000002A80F28181C9688C4500F06D814B68B7
:1038E00023F003035A1B0F2AF2DD0C46D1F80CC05B
:1038F00054F8088F4B1945F001054D6042F0010165
:10390000C8F80CC03046CCF808807B613B61C3F836
:103910000CE0C3F808E059609A5000F0A9FB1FE0E2
:10392000102921D800F0A2FB1025062302207E4F8B
:1039300007EB8303A3F108025C68944200F0458121
:103940006368E168A56823F00303234430465A689E
:10395000E96042F001028D605A6000F089FB083492
:10396000204603B0BDE8F08F00240C2320463360CE
:1039700003B0BDE8F08F80234FF0400E3F2049E7B1
:1039800070465DE72344E1685A68A56842F0010289
:10399000E96030468D605A6000F06AFB08342046CA
:1039A00003B0BDE8F08F234430465A6842F001026C
:1039B0005A6000F05DFB0834204603B0BDE8F08F8C
:1039C000BC68636823F00308A84504D3C5EB08036B
:1039D0000F2B00F38C80554BDFF860911A68D9F8F3
:1039E000003001332A4404EB080A00F0608102F53C
:1039F00080520F3222F47F6222F00F0211463046CD
:103A0000019200F0BBFDB0F1FF3F8346019A00F048
:103A10005881824500F2FC80454B1968DA45114413
:103A2000196000F05381D9F80000DFF810E101308F
:103A30001BBFCAEB0B0A5144CEF800B019601BF053
:103A4000070100F01781C1F10800C1F580518344DE
:103A500008315A44C2F30B02C2EB01094946304611
:103A6000019300F08BFD431C019B00F03F81CBEBE9
:103A700000024A4442F001021968C7F808B04944FC
:103A8000BC42CBF804201960DFF8A49016D0B8F13E
:103A90000F0F40F2FD806268A8F10C0323F00703CA
:103AA000E01802F001024FF0050E1A430F2B62607E
:103AB000C0F804E0C0F808E000F21C811D4BBC68AF
:103AC0001A68914288BF19601B4B1A68914262685C
:103AD00088BF196022F003029542A2EB050301D8CA
:103AE0000F2B04DC304600F0C3FA002438E76219DB
:103AF00043F0010345F0010565603046BA6053604C
:103B000000F0B6FA0834204603B0BDE8F08F142B5D
:103B100071D9542B00F2A480280B00F16F0E4FEAEC
:103B20004E036E3076E600BF5C040020A80800203B
:103B3000AC080020A4080020A0080020680800208D
:103B40005A0A042A5ED9142A00F2B38002F15C01F9
:103B500049005B3207EB810C57F82110DFF8DC815C
:103B6000ACF1080C8C4500F088804A6822F0030212
:103B7000934202D289688C45F7D1D1F80CC07A689B
:103B8000C4F80CC0A160CCF80840CC6088E663198A
:103B900042F0010745F00105656030464B610B615D
:103BA000C3F80CE0C3F808E05F609A50083400F0F6
:103BB0005FFAD5E64A6873E608F1010818F0030FCA
:103BC0000CF1080C7FF47FAE30E0DC68A34208BF44
:103BD00002303FF435AEB3E60B440C465A68C96870
:103BE00054F8085F42F001025A603046E9608D6087
:103BF00000F03EFAB4E603F15C0E03F15B004FEA1D
:103C00004E0307E69A0902F1390149003832A1E76B
:103C1000BC424A4B3FF400AF9C68626822F003024A
:103C20005AE759F80839994540F0828010F0030F9F
:103C300000F1FF30F5D17B6823EA04037B60640068
:103C40009C423FF6BDAE002C3FF4BAAE1C4240464B
:103C50007FF435AE64001C4200F10400FAD02EE679
:103C6000B3F5AA7F18D8E80B00F1780E4FEA4E039F
:103C70007730CFE54FF48051EBE60121D8F80430DE
:103C8000921001FA02F21A43C8F80420614677E75D
:103C90000123CBF8043025E740F25452934220D858
:103CA000A80C00F17D0E4FEA4E037C30B2E51032D5
:103CB000A4E6542A26D81A0B02F16F0149006E328D
:103CC00048E7BC68626822F0030205E7CAF30B000C
:103CD00000287FF4A8AE4244BB6842F001025A605B
:103CE000ECE6FE234FF07F0E7E2093E501224FF09D
:103CF0000009C1E604F108013046FFF71BFAD9F8C4
:103D00000010DBE6B2F5AA7F05D8DA0B02F17801E4
:103D1000490077321EE740F254518A4205D89A0C86
:103D200002F17D0149007C3214E7FE217E2211E779
:103D30007B6884E7E808431C5B00F8E55C0400202E
:103D40002DE9F04383B005460A9E1446B2B1984669
:103D5000104B0F46D3F80090FFF7B4FC43468DE8B4
:103D60004100224639462846C847431C03D1002259
:103D70008A2332602B6003B0BDE8F083054B1F68D7
:103D8000FFF7A0FC21468DE841000123024A2846A6
:103D9000B847EAE76C080020B456400082B049B149
:103DA0005AB16BB113780B601278101C18BF012048
:103DB00002B0704701A9002AF3D1104602B0704743
:103DC0006FF00100F4E700BF0000000000000000F9
:103DD00001F0FF01102A2BDB10F0070F08D010F8BC
:103DE000013B013A8B422DD010F0070F42B3F6D1C0
:103DF000F0B441EA012141EA014122F007047FF0D9
:103E000000070023F0E80256083C85EA010586EA2F
:103E1000010685FA47F5A3FA87F586FA47F6A5FA6B
:103E200087F68EB9EED1F0BC01F0FF0102F0070277
:103E300032B110F8013B013A83EA010313B1F8D122
:103E40000020704701387047002D06BF3546033803
:103E5000073815F0010F07D1013015F4807F02BF3C
:103E6000013015F4C03F0130F0BC0138704700BF8D
:103E7000844641EA000313F003036DD1403A41D375
:103E800051F8043B40F8043B51F8043B40F8043B34
:103E900051F8043B40F8043B51F8043B40F8043B24
:103EA00051F8043B40F8043B51F8043B40F8043B14
:103EB00051F8043B40F8043B51F8043B40F8043B04
:103EC00051F8043B40F8043B51F8043B40F8043BF4
:103ED00051F8043B40F8043B51F8043B40F8043BE4
:103EE00051F8043B40F8043B51F8043B40F8043BD4
:103EF00051F8043B40F8043B51F8043B40F8043BC4
:103F0000403ABDD2303211D351F8043B40F8043B63
:103F100051F8043B40F8043B51F8043B40F8043BA3
:103F200051F8043B40F8043B103AEDD20C3205D373
:103F300051F8043B40F8043B043AF9D2043208D06B
:103F4000D2071CBF11F8013B00F8013B01D30B88DD
:103F500003806046704700BF082A13D38B078DD0BB
:103F600010F003038AD0C3F10403D21ADB071CBF8D
:103F700011F8013B00F8013B80D331F8023B20F8F7
:103F8000023B7BE7043AD9D3013A11F8013B00F830
:103F9000013BF9D20B7803704B7843708B788370B8
:103FA000604670478842F0B50DD98B1898420AD206
:103FB0008118002A51D09A1A13F8014D01F8014DC9
:103FC0009342F9D1F0BD0F2A48D941EA00039B077B
:103FD00046D100F1100401F11003154653F8106C9E
:103FE00044F8106C53F80C6C44F80C6C53F8086CE3
:103FF00044F8086C103D53F8046C44F8046C0F2D21
:1040000003F1100304F11004E8D8A2F1100323F027
:104010000F0302F00F0E1033BEF1030F19440344D7
:1040200021D91E1F0D467446043C55F8047B46F802
:10403000047F032CF8D8AEF1040424F00304043404
:104040002344214402F0030262B1013B0A4411F807
:10405000014B03F8014F8A42F9D1F0BD0346F3E763
:104060000346F2E7F0BD7246EEE700BF704700BFBF
:10407000704700BF2DE9F04F174683B0002900F0CC
:10408000C1800E46814607F10B05FFF7EFFF56F89A
:1040900004EC162D2EF00304A6F1080840D81022D7
:1040A0001546AF4241D8944275DAC94B996808EB7E
:1040B00004008842416800F0D98021F001030344E4
:1040C0005B68DB077DD51EF0010F35D039464846C9
:1040D000FFF77EFB0746E0B156F8043C23F00103EE
:1040E0004344A0F108029A4200F04481221F242A8E
:1040F00000F23181132A00F204810346324611682E
:1041000019605168596092689A6031464846FFF7D5
:1041100011F84846FFF7ACFF384603B0BDE8F08F12
:1041200025F00705002D2A46BBDA0C230020C9F82C
:10413000003003B0BDE8F08F56F8083CC3EB080A26
:10414000DAF8043023F0030C04EB0C039342BDDBDC
:104150005746DAF80C1057F8080F221F242AC160BE
:10416000886000F21781132A40F212813168CAF880
:1041700008107168CAF80C101B2A00F22B8108364F
:104180000AF110023168116071685160B168916084
:104190003E461C46D046631B0F2B1DD8D8F8043072
:1041A00003F0010323434444C8F80430636843F038
:1041B000010363604846FFF75BFF304603B0BDE88C
:1041C000F08F21F003012144914221DBC368826812
:1041D0000C46D3609A60DEE7D8F8042008EB0501AE
:1041E00002F00102154343F001020B44C8F80450E9
:1041F0004A605A6842F0010208315A604846FEF7A8
:1042000099FFD7E7114603B0BDE8F04FFFF7E0BADA
:104210001EF0010F7FF45AAF56F8083CC3EB080AB2
:10422000DAF8043023F0030C01EB0C0E96458BDB1F
:10423000C36882685746D3609A6057F8081FDAF857
:104240000C30CB60221F242A996000F29980132A37
:1042500062D93368CAF808307368CAF80C301B2A70
:1042600000F2A08008360AF1100356E021F0030B9B
:10427000A34405F11000834559DA1EF0010F7FF4C5
:1042800025AF56F8081CC1EB080ADAF8041021F033
:10429000030CE34458453FF757AF5746DAF80C1084
:1042A00057F8080F221F242AC160886000F2B480EA
:1042B000132A40F2A5803168CAF808107168CAF85C
:1042C0000C101B2A00F2AF8008360AF11002316888
:1042D000116071685160B16891600AEB0501C5EB2E
:1042E0000B0242F0010299604A60DAF8043003F0F0
:1042F00001031D434846CAF80450FFF7B9FE38468B
:104300005CE733680360736843601B2A27D800F1B9
:10431000080306F10802F2E63B4632681A6072684A
:104320005A60B2689A603E467446D04633E708EB5E
:104330000501C5EB0B0B4BF0010299604A6056F882
:10434000043C03F001031D43484646F8045CFFF7B4
:104350008FFE304632E73146FFF724FED5E6B368DC
:104360008360F368C360242A28D000F1100306F1AB
:104370001002C4E650F8043C23F003031C440AE78F
:10438000314638467446D046FFF70CFE3E4602E7FB
:104390003A46F7E6314638461C46D046FFF702FE5D
:1043A0003E46F8E6B368CAF81030F368CAF814302D
:1043B000242A1BD010360AF11803AEE733690361D3
:1043C0007369436106F1180200F1180397E600BF14
:1043D0005C040020B168CAF81010F168CAF8141023
:1043E000242A0FD010360AF11802CBE63369CAF836
:1043F00018307369CAF81C3018360AF120038CE7AC
:104400003A4664E73269CAF818207269CAF81C2073
:1044100018360AF12002B5E6314638460193FFF717
:10442000C1FD019B59E7B168CAF81010F168CAF8DC
:104430001410242A03D010360AF1180247E7326913
:10444000CAF818207269CAF81C2018360AF120022E
:104450003DE700BF838903F00903092B01D0002049
:104460007047FEF73FBC00BFF8B50C46054610B1DB
:10447000836B002B45D0B4F90C309AB2970407D463
:10448000626E43F4005322F400526266A3819AB232
:1044900000219606616031D4500722D5216B61B1AD
:1044A00004F14003994202D02846FEF743FEE36B35
:1044B000636000202063002B3FD12369002B4CD088
:1044C000B4F90C70BEB2B3071ED12269226028462F
:1044D0006369256AE169A8470028606009DD00205A
:1044E000F8BDD1063ED512072AD443F00403A381B8
:1044F000E3E7A38919D143F02003A3814FF0FF30F4
:10450000F8BDFEF77FFCB6E71A4B1B49186801237C
:10451000A38106F00906FFF777F8092EA781D4D109
:1045200021462846FEF724FBCFE7002243F0400354
:10453000A38162604FF0FF30F8BDA36B2360F8BD2C
:1045400021462846FEF7B8FB0028D7D1B4F90C3035
:10455000A060A06123F00803C7E721462846FFF7C3
:10456000EBF8ADE743F0400309222A604FF0FF303B
:10457000A381F8BD8C5640005544400038B5074C27
:104580000023054608462360FCF7A8FB431C00D027
:1045900038BD2368002BFBD02B6038BD48090020B4
:1045A00070B40D785E2D2FD0002201311646431EC7
:1045B00000F1FF0403F8012FA342FBD185B186F07F
:1045C000010242554C1C14F8013C2D2B0ED05D2BE2
:1045D00009D013B11D462146F3E7084670BC704769
:1045E000481E70BC7047204670BC70474E785D2EE8
:1045F000F0D0B542EEDC023143190135AE4203F88A
:10460000012FFADC0234DEE701224D781646023132
:10461000CDE700BF10B50C46B1F90E1000F05AFD01
:10462000002803DB236D0344236510BDA38923F415
:104630008053A38110BD00BF2DE9F0411646B1F9AA
:104640000C201F46D3050C46054607D50022022341
:10465000B1F90E1000F028FDB4F90C20B4F90E10D9
:1046600022F48052A2813B4632462846BDE8F04102
:1046700000F038BC10B50C46B1F90E1000F014FD76
:10468000A389421C0EBF23F4805343F4805320655A
:10469000A38110BDB1F90E1000F08CBC2DE9F04FD4
:1046A000474C83460E46D4F800E000E026463446E8
:1046B00014F8015B0EEB0500407800F0080000F0F4
:1046C000FF080028F2D12D2D5CD02B2D04BF75786A
:1046D000B41C002B3ED0102B60D09A46B8F1000FCE
:1046E0000CBF6FF000404FF000400027B0FBFAF91C
:1046F000BC460AFB19000CE0303DAB4219DD7E1CC4
:1047000005D0CC4523D820D00AFB0C5C012714F837
:10471000015B0EEB0506767816F0040FECD116F06F
:10472000030606D0012E14BF57263726AD1BAB4219
:10473000E5DC7B1C16D0B8F1000F10D16046002AD2
:1047400039D0DFB91160BDE8F08F8542DCDD4FF074
:10475000FF37DCE7302D1AD00A239A46BEE7CCF1AA
:10476000000CEBE7B8F1000F4FF022030CBF6FF025
:1047700000404FF00040CBF80030F2B1611E1160F4
:10478000BDE8F08FB41C75784FF00108A1E72378DD
:1047900003F0DF03582B08D008239EE7302D9CD16F
:1047A000207800F0DF00582897D14FF0100A657884
:1047B0005346023492E7BDE8F08FBDE8F08F00BFAA
:1047C000340400202DE9F04F694C87B09B460292DB
:1047D000049105900A46D4F800A000E02A46154648
:1047E00015F8014B0AEB04035B7803F0080303F0B0
:1047F000FF01002BF2D12D2C00F083802B2C08BF61
:104800005478019108BF951CBBF1000F0CD0BBF18F
:10481000100F00F09580019B5E46F7176BB94FF0C3
:10482000FF386FF000490CE0302C7FD00A260027BB
:104830004FF00A0B019B002BF1D04FF000084FF016
:104840000049404632463B46494600F059FC3B464B
:10485000039240463246494600F052FC4FF0000EAB
:1048600000220023DDF80C801BE0303CA3452DDD49
:10487000BEF1FF3F13D0994208BF90423ED38B4216
:1048800008BF824238D002FB07FE06FB03EEA2FB04
:1048900006237344121943EBE4734FF0010E15F82D
:1048A000014B0AEB040C9CF801C01CF0040FDCD196
:1048B0001CF0030C0AD0BCF1010F14BF4FF0570CD1
:1048C0004FF0370CCCEB0404A345D1DCBEF1FF3F25
:1048D0001CD0019911B1524263EB430302990029A4
:1048E00040D0BEF1000F1DD1049D10461946029B19
:1048F0001D6007B0BDE8F08F4445C4DD4FF0FF3EBA
:10490000CDE70123951C547801937DE7019B2BBBD8
:104910004FF0FF306FF00041059A22231360029B95
:1049200013B9E6E710461946013DE0E72B7803F09E
:10493000DF03582B0BD0082600274FF0080B79E730
:10494000302C12D12B7803F0DF03582B0DD16C786B
:104950001026002702354FF0100B6BE700204FF0B8
:104960000041D9E710461946C3E71026002761E742
:10497000340400202DE9F04F494C82460E46D4F80D
:1049800000E000E02646344614F8015B0EEB05001B
:10499000407800F0080000F0FF0C0028F2D12D2D27
:1049A00054D02B2D04BF7578B41C5BB1102B5ED096
:1049B0004FF0FF38B8FBF3F803FB08FB6FEA0B0B73
:1049C000994607E0302D46D00A23DFF8D880994673
:1049D0004FF0050B002738460CE0303DAB4219DDA7
:1049E0007E1C05D0404522D81FD009FB005001276E
:1049F00014F8015B0EEB0506767816F0040FECD187
:104A000016F0030606D0012E14BF57263726AD1B1D
:104A1000AB42E5DC002F0FDBBCF1000F00D04042C1
:104A200042B17FB91160BDE8F08F5D45DDDD4FF02B
:104A3000FF37DDE7BDE8F08F2223CAF800304FF0E2
:104A4000FF305AB3611E1160BDE8F08FB41C757859
:104A50004FF0010CA9E7237803F0DF03582B0DD0AA
:104A6000082399464FF0070B6FF06048B2E7302DEE
:104A70000ED1207800F0DF00582809D14FF010093E
:104A800065784B464FF00F0B02346FF07048A1E78A
:104A90004FF00F0B6FF0704899469BE7BDE8F08F21
:104AA00034040020999999192DE9F04F6E4C87B084
:104AB00092468B4604901F460A46266800E02A4626
:104AC000154615F8014B33195B7803F0080303F022
:104AD000FF01002BF3D12D2C00F08E802B2C08BF72
:104AE0005478039108BF951CDFB1102F00F09A8015
:104AF0004FEAE7793A464B464FF0FF304FF0FF312F
:104B000000F0FEFA3A46019005914B464FF0FF3017
:104B10004FF0FF3100F0F4FAB8460292019A059B7B
:104B20000BE0302C6DD005230293504B4FF099329F
:104B30004FF00A084FF000090A274FF0000E00203E
:104B4000002101971CE0019F303CA7422EDDBEF101
:104B5000FF3F13D08B4208BF82423ED3994208BF29
:104B6000904237D000FB09FC08FB01CCA0FB0801F8
:104B70006144001941EBE4714FF0010E15F8014B4F
:104B800006EB040C9CF801C01CF0040FDBD11CF0F8
:104B9000030C0BD0BCF1010F14BF4FF0570C4FF0BA
:104BA000370C019FCCEB0404A742D0DCBEF1000F10
:104BB00016DB039B13B1404261EB4101BAF1000FD8
:104BC00005D0BEF1000F15D15D46CAF8005007B000
:104BD000BDE8F08F029FBC42C4DD4FF0FF3ECDE741
:104BE000049A222313604FF0FF304FF0FF31BAF1E7
:104BF000000FECD0013DE8E70123951C54780393A6
:104C000072E72B7803F0DF03582B12D007230293AF
:104C10004FF0FF326FF060434FF008084FF000098B
:104C200008278AE7302C14D12B7803F0DF03582BA8
:104C30000FD10F2302934FF0FF3301936FF07043B6
:104C40006C78059302354FF010084FF000091027DB
:104C500064E70F2302934FF0FF326FF070434FF081
:104C600010084FF0000968E7340400209999991959
:104C700001F140032DE9F0410C46096B994214D033
:104C8000666B77003A46FFF7F5F9054640B300EB4F
:104C90000608324640462946FFF7EAF8C4F8008085
:104CA000256367630020BDE8F0814FF48061FEF763
:104CB0008FFDA8B194F8423020634FF480626263A4
:104CC00080F8FF3394F8413080F8FE3394F8403098
:104CD00080F8FD3300F2FD3020600020BDE8F08157
:104CE0004FF0FF30BDE8F081B1F1FF3F68D0F8B57B
:104CF000074614460E4610B1836B002B30D0B4F932
:104D00000C309D0405D4626E22F4005243F400532B
:104D1000626623F020039AB25007A38106D4D1061D
:104D20001BD5120738D443F00403A381236BF5B2DB
:104D3000CBB16268636B9A4209DA23685A1E22601B
:104D400003F8016C6368013328466360F8BD384698
:104D50002146FFF78DFF0028EFD04FF0FF30F8BD60
:104D6000FEF750F8CBE7226923682AB19A4203D2B2
:104D700013F8012C95421CD0A36323466068E063BE
:104D800004F1400103226263216303F8426F0122B0
:104D9000284623606260F8BD21463846FDF78CFF47
:104DA0000028DAD1B4F90C30A060A06123F0080328
:104DB000B9E76268013B0132236028466260F8BDB2
:104DC0004FF0FF30704700BFF8B50E461446074657
:104DD00010B1836B002B4AD0B4F90C20A369A360F7
:104DE00091B2080738D52369002B35D08904F5B274
:104DF00015D522686169D31A8B421CDA0133A16888
:104E0000501C0139A1602060167062699A421AD064
:104E1000A389DB0701D50A2D15D02846F8BD616EA0
:104E200042F4005221F40051A28122686166616956
:104E3000D31A8B42E2DB21463846FDF73DFF40B9ED
:104E400022680123DBE721463846FDF735FF0028BD
:104E5000E3D04FF0FF30F8BD21463846FDF714FE91
:104E60000028F6D1B4F90C20236991B2BEE7FDF712
:104E7000C9FFB1E72DE9F041054686B01E460C4654
:104E8000A1B1104B1746D3F80080FEF71BFC00962B
:104E900003463A4621462846C047431C03D1002218
:104EA0008A2332602B6006B0BDE8F081054B1F6895
:104EB000FEF708FC00960346224603A92846B84799
:104EC000EBE700BF7008002021B1FF2A04D80A7068
:104ED00001207047084670478A2303604FF0FF3077
:104EE000704700BF70B50D46084C114606461A467D
:104EF000284600232360FBF77DFB431C00D070BDD8
:104F00002368002BFBD0336070BD00BF4809002030
:104F10002DE9F047254C2568D5F8484106468846D6
:104F200092469946C4B360681F2817DC431C76B1CB
:104F300004EB80050122C5F888A0D4F888118240CE
:104F40001143022EC4F88811C5F808911ED0023012
:104F5000636044F820800020BDE8F087144B03B361
:104F60004FF4C870FEF72CFC0446D0B1D5F8483198
:104F7000002780E88800C5F8484138460123C4F876
:104F80008871C4F88C71002EE1D0D1E7D4F88C116F
:104F90000A43C4F88C21DAE705F5A674C5F8484140
:104FA000C1E74FF0FF30BDE8F08700BF8C564000EE
:104FB000C137400038B5074C00230546084623603A
:104FC000FBF7A6FE431C00D038BD2368002BFBD0A6
:104FD0002B6038BD4809002000293DD070B505463A
:104FE0000C4608B1836B7BB3B4F90C300BB90020CD
:104FF00070BD21462846FDF7BBFDE36A064633B186
:10500000E169284698470028B8BF4FF0FF36A389CA
:105010001B061CD4216B41B104F14003994202D01C
:105020002846FEF787F800232363616C21B12846E8
:10503000FEF780F800236364FDF7EAFE0023A381F6
:10504000FDF7E8FE304670BDFDF7DCFECCE72169D8
:105050002846FEF76FF8DDE70020704738B50B46AD
:10506000074C05461146184600232360FBF754FE03
:10507000431C00D038BD2368002BFBD02B6038BD0B
:105080004809002038B5074C002305460846236030
:10509000FBF748FE431C00D038BD2368002BFBD033
:1050A0002B6038BD4809002070B50D46084C1146EC
:1050B00006461A46284600232360FBF735FE431CAC
:1050C00000D070BD2368002BFBD0336070BD00BFE3
:1050D0004809002070B50D46084C114606461A4690
:1050E000284600232360FBF767FA431C00D070BDFD
:1050F0002368002BFBD0336070BD00BF480900203F
:1051000053B94AB9002908BF00281CBF4FF0FF312E
:105110004FF0FF3000F07EB9ADF1080C6DE904CE20
:1051200000F006F8DDF804E0DDE9022304B0704782
:105130002DE9F0478C460E460446089D002B50D1C1
:105140008A4217466CD9B2FA82FEBEF1000F0BD02C
:10515000CEF1200420FA04F401FA0EF644EA060C1B
:1051600002FA0EF700FA0EF44FEA1749220CBCFBC4
:10517000F9F01FFA87F809FB10C642EA064600FB61
:1051800008F3B34209D9F61900F1FF3280F0228109
:10519000B34240F21F8102383E44F61AA2B2B6FB77
:1051A000F9F309FB136642EA064403FB08F8A0453D
:1051B00009D9E41903F1FF3280F00A81A04540F2D9
:1051C0000781023B3C44C8EB040443EA0040002151
:1051D000002D62D024FA0EF400232C606B60BDE831
:1051E000F0878B4207D9002D55D0002185E841007A
:1051F0000846BDE8F087B3FA83F1002940F09080BB
:10520000B34202D3824200F2F880841A66EB0306AE
:105210000120B446002D40D085E81010BDE8F0878D
:1052200012B90127B7FBF2F7B7FA87FEBEF1000FFC
:1052300035D1F31B4FEA17481FFA87FC0121B3FB56
:10524000F8F0220C08FB103642EA06460CFB00F38D
:10525000B34207D9F61900F1FF3202D2B34200F28D
:10526000CE801046F61AA2B2B6FBF8F308FB13661E
:1052700042EA06440CFB03FCA44507D9E41903F1F8
:10528000FF3202D2A44500F2B5801346CCEB0404F1
:1052900043EA00409CE729462846BDE8F087CEF166
:1052A000200106FA0EF307FA0EF720FA01F94FEA89
:1052B0001748CE4049EA0309B6FBF8FA4FEA194409
:1052C00008FB1A661FFA87FC44EA06430AFB0CF245
:1052D0009A4200FA0EF40AD9DB190AF1FF3180F084
:1052E00087809A4240F28480AAF1020A3B449B1ACA
:1052F0001FFA89F9B3FBF8F108FB113349EA0343BC
:1053000001FB0CF69E4207D9DB1901F1FF326BD28B
:105310009E4269D902393B449B1B41EA0A418EE710
:10532000C1F1200E22FA0EF48B40234320FA0EF72F
:1053300006FA01F44FEA134C26FA0EF63C43B6FB8C
:10534000FCF9270C0CFB19661FFA83F847EA06469E
:1053500009FB08F7B74202FA01F200FA01FA08D98C
:10536000F61809F1FF3041D2B7423FD9A9F102093D
:105370001E44F61BA0B2B6FBFCF40CFB146640EA1C
:10538000064704FB08F8B84507D9FF1804F1FF30B9
:1053900028D2B84526D9023C1F4444EA0940C8EB4C
:1053A0000707A0FB02894F4544464E4614D329D037
:1053B00065B3BAEB040367EB060707FA0EFECB40B2
:1053C000CF404EEA030385E888000021BDE8F0875E
:1053D0001346F8E61046E0E6B8EB020469EB030674
:1053E0000138E5E70446D8E7114695E78146C0E76E
:1053F0008A467CE7023B3C4448E708460AE7023815
:105400003E442FE7C245E7D33E46D1E72946BDE8F3
:10541000F08700BF704700BF0A2D2D204144432074
:10542000456E68616E636564205265736F6C757458
:10543000696F6E204578616D706C65202D2D0D0AA9
:105440002D2D2053414D344E5F58504C41494E450F
:10545000445F50524F202D2D0D0A2D2D20436F6D8E
:1054600070696C65643A204F6374203234203230A6
:1054700031372032303A35363A3139202D2D0D0072
:105480000A0D2D2D2070726573732061206B657974
:1054900020746F2073656C65637420746865207276
:1054A00065736F6C7574696F6E206D6F64652D2DFB
:1054B0000A0D2D2D20613A204E6F726D616C2052C5
:1054C00065736F6C7574696F6E204D6F64652C2009
:1054D000382D626974202D2D0A0D2D2D20623A2061
:1054E0004E6F726D616C205265736F6C7574696F6D
:1054F0006E204D6F64652C2031302D626974202D33
:105500002D0A0D2D2D20633A20456E68616E63656E
:1055100064205265736F6C7574696F6E204D6F6493
:10552000652C2031312D626974202D2D0A0D2D2D11
:1055300020643A20456E68616E636564205265732D
:105540006F6C7574696F6E204D6F64652C203132FD
:105550002D626974202D2D0A0D00000025630000C6
:1055600020536574205265736F6C7574696F6E207B
:10557000746F204E6F726D616C20382D62697420DB
:105580000A0D0000205175697420436F6E666967CB
:1055900075726174696F6E200A0D00002053657486
:1055A000205265736F6C7574696F6E20746F204E36
:1055B0006F726D616C2031302D626974200A0D00AC
:1055C00020536574205265736F6C7574696F6E201B
:1055D000746F20456E68616E6365642031312D62A1
:1055E0006974200A0D000000205365742052657311
:1055F0006F6C7574696F6E20746F20456E68616E94
:105600006365642031322D626974200A0D00000048
:105610002D2D20566F6C746167652069733A2025C3
:1056200034646D760D0A00000100000002000000E5
:10563000040000000800000010000000200000002E
:105640004000000080000000000100000002000097
:10565000000400000008000000100000002000000E
:105660000040000000800000000001000000080071
:1056700000008000000000010000000200000004A3
:105680000000000800000010430000000800002097
:105690000A000000303030303030303030303030C0
:1056A00030303030303132333435363738394142AA
:1056B000434445460000000030313233343536373C
:1056C000383961626364656600000000286E756C9D
:1056D0006C290000202020202020202020202020B5
:1056E000202020200A000100020003000400050021
:1056F00006000700080009000A000B000C000D005E
:105700000E000F001000000000202020202020208C
:105710002020282828282820202020202020202061
:105720002020202020202020208810101010101071
:1057300010101010101010101004040404040404BD
:105740000404041010101010101041414141414157
:105750000101010101010101010101010101010139
:105760000101010110101010101042424242424249
:105770000202020202020202020202020202020209
:1057800002020202101010102000000000000000B1
:105790000000000000000000000000000000000009
:1057A00000000000000000000000000000000000F9
:1057B00000000000000000000000000000000000E9
:1057C00000000000000000000000000000000000D9
:1057D00000000000000000000000000000000000C9
:1057E00000000000000000000000000000000000B9
:1057F00000000000000000000000000000000000A9
:10580000000000000000000000000000F8B500BF2C
:10581000F8BC08BC9E467047512B4000E500400094
:10582000F8B500BFF8BC08BC9E467047C1004000F8
:0858300000F9FF7F01000000F8
:105838000100000000093D0000000000F402002003
:105848005C030020C40300200000000000000000EA
:105858000000000000000000000000000000000040
:105868000000000000000000000000008856400012
:105878000000000000000000000000000000000020
:105888000000000000000000000000000000000010
:105898000000000000000000000000000000000000
:1058A80000000000000000000000000000000000F0
:1058B80000000000000000000000000000000000E0
:1058C80000000000000000000000000000000000D0
:1058D80000000000000000000000000000000000C0
:1058E80001000000000000000E33CDAB34126DE65D
:1058F800ECDE05000B0000000000000000000000C6
:10590800000000000000000000000000000000008F
:10591800000000000000000000000000000000007F
:10592800000000000000000000000000000000006F
:10593800000000000000000000000000000000005F
:105C680008000020085740004153434949000000FC
:105C7800000000000000000000000000000000001C
:105C8800000000000000000001000000000000000B
:105C9800000000005C0400205C0400206404002074
:105CA800640400206C0400206C04002074040020AC
:105CB800740400207C0400207C040020840400205C
:105CC800840400208C0400208C040020940400200C
:105CD800940400209C0400209C040020A4040020BC
:105CE800A4040020AC040020AC040020B40400206C
:105CF800B4040020BC040020BC040020C40400201C
:105D0800C4040020CC040020CC040020D4040020CB
:105D1800D4040020DC040020DC040020E40400207B
:105D2800E4040020EC040020EC040020F40400202B
:105D3800F4040020FC040020FC04002004050020DA
:105D4800040500200C0500200C0500201405002087
:105D5800140500201C0500201C0500202405002037
:105D6800240500202C0500202C05002034050020E7
:105D7800340500203C0500203C0500204405002097
:105D8800440500204C0500204C0500205405002047
:105D9800540500205C0500205C05002064050020F7
:105DA800640500206C0500206C05002074050020A7
:105DB800740500207C0500207C0500208405002057
:105DC800840500208C0500208C0500209405002007
:105DD800940500209C0500209C050020A4050020B7
:105DE800A4050020AC050020AC050020B405002067
