:020000040040BA
:1000000060340020BD054000B9054000B90540003E
:10001000B9054000B9054000B905400000000000E6
:10002000000000000000000000000000B9054000D2
:10003000B905400000000000B9054000B9054000C6
:10004000B9054000B9054000B9054000B9054000B8
:10005000B9054000B9054000B905400000000000A6
:10006000B9054000B9054000B9054000C508400089
:10007000B9054000B9054000B9054000B905400088
:10008000B9054000B905400000000000B905400076
:10009000B9054000B9054000B9054000AD02400077
:1000A000B9054000B9054000B9054000B905400058
:1000B000B9054000B9054000B9054000B905400048
:1000C00010B5054C237833B9044B13B10448AFF392
:1000D00000800123237010BD4004002000000000B8
:1000E000980B4000084B10B51BB108490848AFF306
:1000F00000800848036803B910BD074B002BFBD0F4
:10010000BDE81040184700BF000000004404002074
:10011000980B4000980B40000000000048B9174BB6
:100120001A6822F001021A601A6842F002021A608C
:100130007047012809D1114B1A6822F001021A6098
:100140001A6822F002021A607047022809D10B4B8C
:100150001A6842F001021A601A6842F002021A603C
:100160007047032808D1054B1A6842F001021A6053
:100170001A6822F002021A60704700BF3080004007
:1001800008B5184A136843F400131360164B1A6835
:1001900042F001021A601A6822F002021A6000207E
:1001A000124B9847124B1A6842F4A0621A601A6800
:1001B00042F004021A6003F5582303F6D4531A6878
:1001C00042F400621A601A6842F400521A601A6817
:1001D00042F480421A60074A136843F00103136037
:1001E00008BD00BF10040E40048000401D01400007
:1001F0003080004000800040044A136813F0020F72
:10020000FBD0034A13681843106070471080004009
:100210000C8000400022174B1A804FF40002164B4E
:100220001A60164A136843F40003136014490B68FC
:1002300043F4804343F001030B6020310B6843F02B
:1002400010030B6040F2E2410E4B19600E490B683F
:1002500043F480130B6010310B6843F480130B6080
:10026000136843F400631360084A136843F00503FE
:10027000136070475E04002000E100E010040E40AF
:10028000040001401C000140000E0E40000001402F
:10029000012805DD034B93FBF0F080B2024B1860A0
:1002A000704700BFF82401001C0001400C4B1B6884
:1002B0000C4A138801339BB2138041F28732934278
:1002C0000DD9094B1B6813F4801F14BF074A084A55
:1002D000136843F4801313600022024B1A807047A6
:1002E000200001405E0400203C0E0E40340E0E4003
:1002F000300E0E40164A136843F40063136015492C
:100300000B6843F400330B6002F52062136843F47A
:1003100000331360104B186840F400301860086810
:1003200040F400400860106840F400401060186815
:1003300040F400401860086840F48030086011689C
:1003400041F4803111601A6842F480321A607047BB
:1003500010040E40000E0E40340E0E4070B4364DA8
:100360002B6843F480532B60344C236843F4805350
:1003700023603348036843F48053036031490B68BA
:1003800043F480530B60304A136843F48053136086
:100390002E4B1E6846F480561E602E6846F02006DE
:1003A0002E60266846F020062660066846F0200685
:1003B00006600E6846F020060E60166846F02006BD
:1003C00016601E6846F020061E602E6846F0400645
:1003D0002E60256845F040052560046844F040041F
:1003E0000460086840F040000860116841F0400176
:1003F00011601A6842F040021A602C331B68144BDB
:100400001A6842F480521A601A6842F020021A6098
:10041000104A116841F020011160196841F0400153
:100420001960136843F0400313604FF400620A4BF5
:100430001A6070BC704700BF000E0E40140E0E40D4
:10044000900E0E40640E0E40840E0E40200E0E40A4
:10045000400E0E40D40E0E4000E100E008B5024B05
:100460009847024B984708BDF50240005D034000E5
:1004700010B50E480E4B984710200E4B98470E4C67
:10048000A0470028FCD00D4B98470D4A0D4B9A62AF
:100490000D4CA0470028FCD010200C4B98470C4B6B
:1004A00098470248024B984710BD00BF00E1F50590
:1004B000650740003D054000890540009905400062
:1004C000013F182000040E40A9054000D50440005B
:1004D00055064000184A136B23F07003184310634D
:1004E000936E13F0080F03D009E0013B03D11EE027
:1004F0004FF4006310498A6E12F0080FF5D00E4ACF
:10050000136B23F0030343F002031363906E10F0A8
:10051000080004D000207047013B03D109E04FF4EC
:10052000006305498A6E12F0080FF5D0704701206C
:1005300070470120704700BF00040E40114B1A6A3B
:1005400042F45C1242F008021A621A46936E13F4E7
:10055000003FFBD00B4A136A23F45C1323F07003B3
:1005600043F45C1303431362936E13F4003FFBD018
:10057000044A136A23F09B7323F4803343F45C131F
:100580001362704700040E40024B986E00F48030F6
:10059000704700BF00040E404FF00052014B9A62BA
:1005A000704700BF00040E40024B986E00F002003E
:1005B000704700BF00040E40FEE700BF08B5194BAE
:1005C000194A9A4203D0194B164A9A4204D3184B3F
:1005D000184A9A420FD31AE01249174B5B1A23F0BC
:1005E00003030433104A134452F8040B41F8040B7C
:1005F0009A42F9D1EBE7114B114AD21A22F00302C9
:100600001A44043B002143F8041B9342FBD10D4ADA
:100610000D4B23F07F0393600C4B98470C4B98478E
:10062000FEE700BF00000020980B400040040020BF
:1006300060040020400400203F0400204404002007
:100640006304002000ED00E000004000310A40009B
:10065000C50740003C4B1B6B03F00303012B0FD07D
:1006600013B1022B29D057E0384B5B6913F0800F90
:1006700014BF4FF400424FF4FA42354B1A604BE07E
:10068000314B1B6A13F0807F03D0324A304B1A6023
:1006900042E0314A2E4B1A602B4B1B6A03F0700369
:1006A000102B02D0202B04D036E02C4A284B1A60A5
:1006B00032E0284A264B1A602EE0234B1B6A13F0C7
:1006C000807F03D0234A224B1A6012E0224A204B3B
:1006D0001A601D4B1B6A03F07003102B02D0202BF5
:1006E00004D006E01D4A1A4B1A6002E0194A184B62
:1006F0001A60154B1B6B03F00303022B0CD1124A3B
:10070000936A926A1248C3F30A41036801FB0333F8
:10071000D2B2B3FBF2F303600B4B1B6B03F070031D
:10072000702B07D10A4A13680D49A1FB03135B081C
:1007300013607047044B1B6B0549C3F302120B682F
:10074000D3400B60704700BF00040E4010140E40F1
:100750000C000020001BB70000093D0000127A00C9
:10076000ABAAAAAA0F4B984204D84FF080620E4B56
:100770001A6070470D4B984203D80D4A0A4B1A6015
:1007800070470C4B984203D80B4A074B1A607047CE
:100790000A4B984294BF0A4A4FF00422024B1A6057
:1007A000704700BFFF2C3101000A0E40FF59620262
:1007B00000010004FF86930300020004FFB3C40499
:1007C0000003000470B5324B98474FF40042314BA0
:1007D0005A60314B9847314B9847314B9847314BD2
:1007E0001888314B98479420304CA0475F20A04791
:1007F000FF20A0478020A04718242D4E2B4D307895
:10080000A847013CFBD19420284CA0475F20A0477B
:10081000FF20A047FF20A0471824254E234D307805
:10082000A847013CFBD143F2CE70224B98472248A7
:10083000224B2349027862B91A6842F400421A60D6
:100840000A6842F480320A601A6842F400321A6080
:10085000F0E7012A0CD10A6842F400420A601A68E3
:1008600042F480321A601A6842F400321A60E1E7FA
:10087000022ADFD11A6842F400421A601A6842F470
:1008800080321A600A6842F400320A60D2E700BF80
:100890007104400050140E405D044000810140008E
:1008A000150240001200002091024000F9014000B2
:1008B000100000200100002011000020340E0E4026
:1008C000300E0E4070B5504B1B6813F4805F06D09D
:1008D00001224E4B1A7078224D4B1A808EE04D4A01
:1008E000136812684C490878C2F3801242EA400249
:1008F0004A480478C3F3401343EA440303F00F0368
:10090000037002F00F020A70092B3CD1032A75D143
:100910003E4B1B78012B02D801333C4A13703C4BF1
:100920001B8840F2E632934202D80133384A1380E2
:100930003B4B1B78802B02D05B00394A137094200C
:10094000384CA0475F20A047FF20A0478020A04749
:100950001824334E334D3078A847013CFBD1942006
:10096000304CA0475F20A047FF20A047FF20A047B2
:1009700018242B4E2B4D3078A847013CFBD1282062
:10098000294B98473AE0032B38D1092A36D11F4B1F
:100990001B7813B1013B1D4A13701D4B1B88142B90
:1009A00002D9013B1A4A13801D4B1B78012B02D040
:1009B0005B081B4A137094201A4CA0475F20A04785
:1009C000FF20A0478020A0471824154E154D3078F1
:1009D000A847013CFBD19420124CA0475F20A047C0
:1009E000FF20A047FF20A04718240D4E0D4D307862
:1009F000A847013CFBD128200B4B9847044B188893
:100A00000A4B984770BD00BF4C0E0E4011000020ED
:100A1000120000203C0E0E405D0400205C0400200B
:100A200010000020F9014000010000209102400068
:100A300070B50F4E0F4D761BB61018BF002405D0B1
:100A4000013455F8043B9847A642F9D10A4E0B4DA4
:100A5000761B00F08FF8B61018BF002406D00134C2
:100A600055F8043B9847A642F9D170BD70BD00BF50
:100A7000800B4000800B4000880B4000800B400042
:100A8000024B13B1024800F005B8704700000000A7
:100A9000A10A4000002301461A46184600F014B887
:100AA00038B5074D074C2C1BA41005D0013C55F858
:100AB000043D9847002CF9D1BDE8384000F064B8F7
:100AC000980B4000940B40002DE9F047254C256819
:100AD000D5F848410646884692469946C4B36068B0
:100AE0001F2817DC431C76B104EB80050122C5F8F2
:100AF00088A0D4F8881182401143022EC4F88811CE
:100B0000C5F808911ED00230636044F820800020B0
:100B1000BDE8F087144B03B34FF4C870AFF3008007
:100B20000446D0B1D5F84831002780E88800C5F8E0
:100B3000484138460123C4F88871C4F88C71002EEE
:100B4000E1D0D1E7D4F88C110A43C4F88C21DAE75C
:100B500005F5A674C5F84841C1E74FF0FF30BDE880
:100B6000F08700BF700B4000000000004300000051
:100B700018000020F8B500BFF8BC08BC9E467047BE
:100B8000810A4000E5004000F8B500BFF8BC08BC91
:080B90009E467047C1004000C1
:100B9800BFF35F8F0138FBD1704700BF00093D00EC
:100BA800010178000000000000000000040300209C
:100BB8006C030020D40300200000000000000000A7
:100BC800000000000000000000000000000000001D
:100BD8000000000000000000000000006C0B400056
:100BE80000000000000000000000000000000000FD
:100BF80000000000000000000000000000000000ED
:100C080000000000000000000000000000000000DC
:100C180000000000000000000000000000000000CC
:100C280000000000000000000000000000000000BC
:100C380000000000000000000000000000000000AC
:100C4800000000000000000000000000000000009C
:100C580001000000000000000E33CDAB34126DE639
:100C6800ECDE05000B0000000000000000000000A2
:100C7800000000000000000000000000000000006C
:100C8800000000000000000000000000000000005C
:100C9800000000000000000000000000000000004C
:100CA800000000000000000000000000000000003C
:04000005004005BDF5
:00000001FF
