S01C00006761746F7273796E74685F73657175656E6365722E737265638B
S21440000060340020C1044000BD044000BD044000F0
S214400010BD044000BD044000BD0440000000000098
S214400020000000000000000000000000BD0440008A
S214400030BD04400000000000BD044000BD04400078
S214400040BD044000BD044000BD044000BD04400067
S214400050BD044000BD044000BD0440000000000058
S214400060BD044000BD044000BD0440000107400000
S214400070BD044000BD044000BD044000BD04400037
S214400080BD044000BD04400000000000BD04400028
S214400090BD044000BD044000BD044000B101400026
S2144000A0BD044000BD044000BD044000BD04400007
S2144000B0BD044000BD044000BD044000BD044000F7
S2144000C010B5054C237833B9044B13B10448AFF34D
S2144000D000800123237010BD38040020000000007B
S2144000E0C8094000084B10B51BB108490848AFF393
S2144000F000800848036803B910BD074B002BFBD0AF
S214400100BDE81040184700BF000000003C04002037
S214400110C8094000C8094000000000000022174BF4
S2144001201A804FF40002164B1A60164A136843F4BE
S2144001300003136014490B6843F4804343F0010303
S2144001400B6020310B6843F010030B6040F2E24135
S2144001500E4B19600E490B6843F400630B60103178
S2144001600B6843F400630B60136843F4006313604A
S214400170084A136843F00503136070475A0400208A
S21440018000E100E010040E40040001401C00014065
S214400190000E0E4000000140034B93FBF0F080B28F
S2144001A0024B1860704700BFF82401001C00014055
S2144001B00C4B1B680C4A138801339BB2138041F2E8
S2144001C0873293420DD9094B1B6813F4006F14BF56
S2144001D0074A084A136843F4006313600022024B40
S2144001E01A807047200001405A0400203C0E0E4002
S2144001F0340E0E40300E0E40164A136843F4006329
S214400200136015490B6843F400630B6002F52062E7
S214400210136843F400631360104B186840F40060A2
S2144002201860086840F400400860106840F40040D9
S2144002301060186840F400401860086840F4803049
S2144002400860116841F4803111601A6842F48032C7
S2144002501A60704710040E40000E0E40340E0E40DA
S21440026070B4364D2B6843F480532B60344C23686F
S21440027043F4805323603348036843F48053036059
S21440028031490B6843F480530B60304A136843F49B
S214400290805313602E4B1E6846F480561E602E68B0
S2144002A046F400562E60266846F4005626600668D9
S2144002B046F4005606600E6846F400560E60166811
S2144002C046F4005616601E6846F400561E602E68B9
S2144002D046F480462E60256845F4804525600468CF
S2144002E044F480440460086840F480400860116824
S2144002F041F4804111601A6842F480421A602C33FF
S2144003001B68144B1A6842F480521A601A6842F40A
S21440031000521A60104A116841F400511160196881
S21440032041F480411960136843F4804313604FF4EE
S21440033000620A4B1A6070BC704700BF000E0E4049
S214400340140E0E40900E0E40640E0E40840E0E406C
S214400350200E0E40400E0E40D40E0E4000E100E04F
S21440036008B5024B9847024B984708BDF901400034
S2144003706102400010B50E480E4B984710200E4BB9
S21440038098470E4CA0470028FCD00D4B98470D4A86
S2144003900D4B9A620D4CA0470028FCD010200C4B09
S2144003A098470C4B98470248024B984710BD00BFF1
S2144003B000E1F50569064000410440008D04400018
S2144003C09D044000013F182000040E40AD0440004C
S2144003D0D903400059054000184A136B23F07003B8
S2144003E018431063936E13F0080F03D009E0013BE7
S2144003F003D11EE04FF4006310498A6E12F0080FD6
S214400400F5D00E4A136B23F0030343F00203136345
S214400410906E10F0080004D000207047013B03D1D6
S21440042009E04FF4006305498A6E12F0080FF5D0D4
S2144004307047012070470120704700BF00040E40FF
S214400440114B1A6A42F45C1242F008021A621A46CB
S214400450936E13F4003FFBD00B4A136A23F45C13ED
S21440046023F0700343F45C1303431362936E13F458
S214400470003FFBD0044A136A23F09B7323F4803377
S21440048043F45C131362704700040E40024B986EB0
S21440049000F48030704700BF00040E404FF000521A
S2144004A0014B9A62704700BF00040E40024B986EA4
S2144004B000F00200704700BF00040E40FEE700BF99
S2144004C008B5194B194A9A4203D0194B164A9A4214
S2144004D004D3184B184A9A420FD31AE01249174BC6
S2144004E05B1A23F003030433104A134452F8040BF8
S2144004F041F8040B9A42F9D1EBE7114B114AD21A54
S21440050022F003021A44043B002143F8041B9342A2
S214400510FBD10D4A0D4B23F07F0393600C4B98475D
S2144005200C4B9847FEE700BF00000020C80940007B
S214400530380400205C0400203804002037040020E3
S2144005403C0400205F04002000ED00E00000400076
S21440055061084000C90640003C4B1B6B03F0030398
S214400560012B0FD013B1022B29D057E0384B5B69D3
S21440057013F0800F14BF4FF400424FF4FA42354B4D
S2144005801A604BE0314B1B6A13F0807F03D0324A2F
S214400590304B1A6042E0314A2E4B1A602B4B1B6A96
S2144005A003F07003102B02D0202B04D036E02C4AE8
S2144005B0284B1A6032E0284A264B1A602EE0234B1E
S2144005C01B6A13F0807F03D0234A224B1A6012E046
S2144005D0224A204B1A601D4B1B6A03F07003102BF7
S2144005E002D0202B04D006E01D4A1A4B1A6002E0C7
S2144005F0194A184B1A60154B1B6B03F00303022B6A
S2144006000CD1124A936A926A1248C3F30A410368AD
S21440061001FB0333D2B2B3FBF2F303600B4B1B6B0D
S21440062003F07003702B07D10A4A13680D49A1FBEB
S21440063003135B0813607047044B1B6B0549C3F3F9
S21440064002120B68D3400B60704700BF00040E4098
S21440065010140E4000000020001BB70000093D00AB
S21440066000127A00ABAAAAAA0F4B984204D84FF0C1
S21440067080620E4B1A6070470D4B984203D80D4A65
S2144006800A4B1A6070470C4B984203D80B4A074BEC
S2144006901A6070470A4B984294BF0A4A4FF00422A9
S2144006A0024B1A60704700BFFF2C3101000A0E4013
S2144006B0FF59620200010004FF8693030002000413
S2144006C0FFB3C4040003000408B5074B9847074B24
S2144006D09847074B98474FF40042064B5A60064BE4
S2144006E01868064B9847FEE77503400061034000D4
S2144006F01D01400050140E400800002099014000A3
S2144007004A4B1B6813F4805F0BD0494B1B6813F4AD
S214400710805F14BF00230123464A1370464A137075
S214400720704710B50122454B1A70414A136812684B
S21440073043490878C2F3803242EA4002414804788E
S214400740C3F3403343EA440303F00F03037002F05D
S2144007500F020A70092B10D1032A21D10022364BF2
S2144007601A700122334B1A70374A137801331370CC
S214400770364A1368013313604DE0032B10D1092A23
S2144007800ED101222C4B1A7000222A4B1A70304A86
S2144007901378013313702D4A1368013B136013E03E
S2144007A0244B1B7883B1244B1B78002B33D0294B2A
S2144007B01A6842F400421A601A6842F480321A609C
S2144007C01C4B1B78002B2BD11B4B1B784BB9224B59
S2144007D01A6842F400421A601A6842F480321A607C
S2144007E014E01C4A136843F4004313600432136851
S2144007F043F48033136009E0174A136843F4004318
S2144008001360043A136843F4803313600F4B186840
S214400810124B984710BD074B1B78002BF6D0EBE7E2
S214400820054B1B78002BE7D0DBE700BF4C0E0E4095
S2144008303C0E0E40550400205804002004000020C2
S21440084057040020560400205404002008000020CE
S21440085059040020300E0E40340E0E4099014000E0
S21440086070B50F4E0F4D761BB61018BF002405D03E
S214400870013455F8043B9847A642F9D10A4E0B4D31
S214400880761B00F08FF8B61018BF002406D001344F
S21440089055F8043B9847A642F9D170BD70BD00BFDD
S2144008A0B0094000B0094000B8094000B009400017
S2144008B0024B13B1024800F005B870470000000034
S2144008C0D1084000002301461A46184600F014B8E6
S2144008D038B5074D074C2C1BA41005D0013C55F8E5
S2144008E0043D9847002CF9D1BDE8384000F064B884
S2144008F0C8094000C40940002DE9F047254C25684A
S214400900D5F848410646884692469946C4B360683C
S2144009101F2817DC431C76B104EB80050122C5F87E
S21440092088A0D4F8881182401143022EC4F888115A
S214400930C5F808911ED00230636044F8208000203D
S214400940BDE8F087144B03B34FF4C870AFF3008094
S2144009500446D0B1D5F84831002780E88800C5F86D
S214400960484138460123C4F88871C4F88C71002E7B
S214400970E1D0D1E7D4F88C110A43C4F88C21DAE7E9
S21440098005F5A674C5F84841C1E74FF0FF30BDE80D
S214400990F08700BFA00940000000000043000000B0
S2144009A010000020F8B500BFF8BC08BC9E46704753
S2144009B0B1084000E5004000F8B500BFF8BC08BCF0
S20C4009C09E467047C10040004E
S2144009C800093D0001000000800000000000000013
S2144009D800000000FC02002064030020CC03002036
S2144009E800000000000000000000000000000000BA
S2144009F800000000000000000000000000000000AA
S214400A08000000009C0940000000000000000000B4
S214400A180000000000000000000000000000000089
S214400A280000000000000000000000000000000079
S214400A380000000000000000000000000000000069
S214400A480000000000000000000000000000000059
S214400A580000000000000000000000000000000049
S214400A680000000000000000000000000000000039
S214400A780000000000000000010000000000000028
S214400A880E33CDAB34126DE6ECDE05000B000000ED
S214400A980000000000000000000000000000000009
S214400AA800000000000000000000000000000000F9
S214400AB800000000000000000000000000000000E9
S214400AC800000000000000000000000000000000D9
S8044004C1F6
