S01C00006761746F7273796E74685F73657175656E6365722E737265638B
S21440000040B70020D9334000D5334000D5334000B8
S214400010D5334000D5334000D533400000000000C3
S214400020000000000000000000000000D533400043
S214400030D533400000000000D5334000D5334000A3
S214400040D5334000D5334000D5334000D53340004B
S214400050D5334000D5334000D53340000000000083
S214400060D5334000D5334000D5334000252A4000E4
S214400070D5384000DD174000D5334000D53340002A
S214400080D5334000D533400000000000D533400053
S214400090D5334000D5334000D5334000B53040001E
S2144000A0D5334000D5334000D5334000D5334000EB
S2144000B0D53340009D014000D5334000D533400045
S2144000C010B5054C237833B9044B13B10448AFF34D
S2144000D000800123237010BD280600200000000089
S2144000E060514000084B10B51BB108490848AFF3B3
S2144000F000800848036803B910BD074B002BFBD0AF
S214400100BDE81040184700BF000000002C06002045
S21440011060514000605140000000000044F62062FC
S2144001200F4B1A800F4A136843F0005313604FF08A
S21440013000520D4B1A600D4A136843F004031360D7
S2144001400C3A136843F4106313602032136843F08C
S21440015004031360243A136843F0020313607047A5
S2144001602C87002010040E4000E100E01080034081
S21440017008B5054B98470549054B9847054B9847A2
S214400180054B188008BD00BFED3A40001A671C4278
S2144001909D3B40003D3E40002C87002008B5054B67
S2144001A01B6813F0040F1CBF034B1868034B98479B
S2144001B008BD00BF308003405880034071014000B6
S2144001C02DE9F041CB68002B49D08C68002646606C
S2144001D04A68120202F4407242F480550A7C1204C5
S2144001E002F4FE022A434260C6604D685DB10A785A
S2144001F0012DC4BF4E7846EA0222022D04DD8978DE
S21440020041EA022200E00022C260012B03D1032211
S214400210026001272FE00122026000272BE02946DA
S214400220026A12F4807F1DD14D1EF1B1012B04D11C
S21440023077BBC0F8008067462AE012F0020F05D070
S214400240026B2270013B0134314600E02946002B08
S214400250E6D1036A13F0010FFBD0036A1CE04FF0AF
S214400260010E19E04FF0050E16E04FF0090E13E0B0
S2144002704FF0050E10E0026A12F4807EF8D143F685
S214400280972543F698264FF002084FF0010CCDE72D
S21440029012F0020FC3D0D3E77046BDE8F08100BF2E
S2144002A00246C86830B310B48C680B7C1B0403F459
S2144002B0FE035360136A13F4807F04D01CE0136A75
S2144002C013F4807F1AD113F0040F03D023785363BE
S2144002D0013801340028F2D1136A13F480700FD12C
S2144002E013F0040FF8D002231360136A13F0010FC3
S2144002F0FBD006E001207047052002E0052000E024
S214400300052010BC704700BF38B504460D4672B68F
S214400310BFF35F8F0022304B1A70304B98473049FE
S2144003202046304B9847304B984784B2BDB92F4A49
S214400330136843F400531360A00960F06F00C0B226
S2144003402B4DA847A00000F0FC00A8471620294BDC
S2144003509847294A136843F40053136035E0012D4B
S21440036017D1224A136843F400531360A00960F083
S2144003705F00C0B21E4DA847A00000F0FC00A84792
S21440038016201C4B98471C4A136843F400531360CE
S2144003901BE0022D154A136843F4804313604FEA6E
S2144003A094100CBF60F06F0060F05F00C0B2104D5C
S2144003B0A847A00000F0FC00A84716200D4B984721
S2144003C00D4A136843F4804313600122024B1A70AF
S2144003D0BFF35F8F62B638BDF4010020412C400069
S2144003E09A99CC429D3B40003D3E400034100E4022
S2144003F0512D40000100002030100E4028B90C4A14
S214400400136843F0010313607047012805D1084A7A
S214400410136843F00203136070470228044A1368C7
S2144004200CBF43F0040343F008031360704700BF5B
S21440043034100E4028B90C4A136843F00103136089
S2144004407047012805D1084A136843F00203136039
S21440045070470228044A13680CBF43F0040343F075
S21440046008031360704700BF30100E404D4B1B789A
S214400470834200F09680062800F28380DFE800F092
S214400480041527394B5D6F00474B1A6842F080527F
S2144004901A601A6842F000521A601A6842F08042A7
S2144004A01A6000223F4B1A707047404A136843F068
S2144004B0805313603C4B1A6842F000521A601A6828
S2144004C042F080421A600122364B1A707047364B13
S2144004D01A6842F080521A6034490A6842F0005264
S2144004E00A601A6842F080421A6002222D4B1A7047
S2144004F070472E4B1A6842F080521A601A6842F0D3
S21440050000521A60284A136843F08043136003225F
S214400510244B1A707047244B1A6842F080521A6077
S2144005201A6842F000521A60204A136843F080432B
S214400530136004221B4B1A7070471C4B1A6842F01B
S21440054080521A6018490A6842F000520A601A68D7
S21440055042F080421A600522124B1A707047124AC7
S214400560136843F080531360104B1A6842F00052F1
S2144005701A601A6842F080421A600622094B1A70C6
S21440058070470A4B1A6842F080521A601A6842F066
S21440059000521A601A6842F080421A600722014BE5
S2144005A01A7070470C000020340E0E40300E0E407D
S2144005B010B586B0044608460A4B984700238DF887
S2144005C000308DF801403C228DF814200293CDF87F
S2144005D00CD00223049301A90348044B984706B065
S2144005E010BD00BF6D04400000800140A1024000E5
S2144005F030B587B005460C460846134B984740230F
S2144006008DF800308DF801503C238DF814300023CF
S2144006100293CDF80CD00223049301A90B480C4B4F
S21440062098470C4B33F8143008339BB2B3F5805FD1
S21440063003D2084A22F8143003E00022054B23F880
S214400640142007B030BD00BF6D044000008001405C
S214400650A10240004406002038B50B4B98470B4C8F
S214400660236843F00043236041F6E730084DA8472F
S214400670084A136843F0004313600748A8472368B6
S21440068043F00043236038BD6D044000300E0E40FA
S21440069001000020340E0E400517010038B505460F
S2144006A0284B98472946AE20274CA0472946D520B8
S2144006B0A04729468020A0472946D320A047294660
S2144006C00020A04729464020A04729468D20A04725
S2144006D029461420A0472946A020A0472946DA20CC
S2144006E0A04729460220A04729468120A047294600
S2144006F0CF20A0472946D920A0472946F120A04729
S2144007002946DB20A04729464020A0472946A62068
S214400710A0472946AF20A04729462020A047294683
S2144007200120A04729462220A04729460020A0476E
S21440073029460320A0472946A820A04729461F202F
S214400740A04738BD59064000B105400008B5134AD9
S214400750136843F080531360114B196841F0805181
S2144007601960116841F000511160196841F000515C
S2144007701960116841F080411160196841F080416C
S2144007801960116841F0004111601A6842F0004259
S2144007901A600220034B984708BD00BF000E0E406B
S2144007A0100E0E409D0640000E4B33F81030013BB5
S2144007B09BB2B3F5805F13D22DE9F041054604465F
S2144007C04FF00008084F074E21464046B84736F8D7
S2144007D01530013B9BB2B3F5805FF5D3BDE8F081A1
S2144007E0704700BF44060020F10540002DE9F04F59
S2144007F085B00192202808D108240026A64D0199EC
S2144008003046A847013CFAD142E182461C2941D1F4
S214400810A24B98471FFA80FBBBF1000F00F03881CF
S2144008204FEA4B031FFA83F95C460026DFF87C82CA
S214400830994F4B46D9469B46B5B2BAF1230F00F0C6
S214400840BB80BAF1620F00F09F8001990020B84744
S21440085029465046C047029021465046C04703901E
S21440086005EB0B0189B25046C047054601990298F0
S214400870B84701990398B84701992846B84702E017
S21440088001990020B84701360134A4B2B3B24B45B3
S214400890D2D3FDE0162941D1814B98471FFA80FB01
S2144008A0BBF1000F00F0F4804FEA4B031FFA83F9C8
S2144008B05C460026DFF8F881774F4B46D9469B4684
S2144008C0B5B2BAF1230F00F08F80BAF1620F00F094
S2144008D0A38001990020B84729465046C047029059
S2144008E021465046C047039005EB0B0189B250465F
S2144008F0C047054601990298B84701990398B847FA
S21440090001992846B84702E001990020B8470136C9
S2144009100134A4B2B3B29945D2D8B9E0614B9847F6
S2144009201FFA80F9B9F1000F00F0B2804D4600245E
S214400930A046594E5C4FDDF804B0BAF1230F00F0E4
S2144009408380BAF1620F00F0918059464046B04726
S21440095059464046B04721465046B847019029463A
S2144009605046B847029059460198B04759460298B3
S214400970B04702E059464046B0470134A4B201357C
S214400980ADB2A145D9D183E029466220C047029046
S21440099021466220C047039005EB0B0189B26220D6
S2144009A0C047054601990298B84701990398B84749
S2144009B001992846B84763E729462320C047029056
S2144009C021462320C047039005EB0B0189B2232024
S2144009D0C047054601990298B84701990398B84719
S2144009E001992846B8474BE729462320C04702903E
S2144009F021462320C047039005EB0B0189B22320F4
S214400A00C047054601990298B84701990398B847E8
S214400A1001992846B84777E729466220C0470290A2
S214400A2021466220C047039005EB0B0189B2622045
S214400A30C047054601990298B84701990398B847B8
S214400A4001992846B8475FE759464046B047214691
S214400A502320B847019029462320B847029059469C
S214400A600198B04759460298B04783E759464046F2
S214400A70B04721466220B847019029466220B847D1
S214400A80029059460198B04759460298B04771E7D8
S214400A9005B0BDE8F08F00BFF105400041194000A9
S214400AA045194000491940009D1940004D19400025
S214400AB0691940002DE9F04383B00C46154638B915
S214400AC03020284EB0472A4621462020B04745E0F1
S214400AD0034642F20F72904230D8B0F57A7F30D259
S214400AE0632831D809288CBF4FF0020C4FF0010C18
S214400AF02CE0AEFB0372D20802EB8207A3EB47035F
S214400B00303300F8013D93B20139002BF1D1002972
S214400B1000DDFEE7BCF1000F20D06F46DFF84480D2
S214400B204FF020092A46214617F8010BC0472A46AF
S214400B3021464846C047BE42F4D10FE04FF0050C70
S214400B4004E04FF0040C01E04FF0030C0CF1FF31D1
S214400B500DEB0C063046DFF810E0CAE703B0BDE800
S214400B60F08300BFED074000CDCCCCCC38B5054671
S214400B7001221C214220134CA04701221C21202088
S214400B80A04701221C215020A04701221C212020E2
S214400B90A04701221C214D20A04701221C212020D5
S214400BA0A04701221C213A20A04701221C212020D8
S214400BB0A04701221C212846034B98470120034B9F
S214400BC0984738BDED074000B50A4000A9074000E9
S214400BD038B505460222162152202E4CA047022246
S214400BE01C212020A047022216214520A047022291
S214400BF01C212020A047022216215320A047022273
S214400C001C212020A047022216213A20A04702227B
S214400C101C212020A047022216213120A047022274
S214400C201C212020A047022216212F20A047022266
S214400C301C212020A047062D09D10222162104207F
S214400C40154B9847022216217420A0471EE00C2D13
S214400C500AD10222162108200F4B9847022216215D
S214400C6074200C4B984711E0182D0AD10222162109
S214400C701020094B9847022216217420054B9847AE
S214400C8004E0022216212846034B98470220034BD5
S214400C90984738BDED074000B50A4000A907400018
S214400CA038B5054603221C2150200D4CA047032290
S214400CB01C214120A04703221C214720A047032295
S214400CC01C214520A04703221C213A20A04703228E
S214400CD01C212846034B98470320034B984738BDB2
S214400CE0ED074000B50A4000A907400038B5054664
S214400CF003221C214C200D4CA04703221C214F20D0
S214400D00A04703221C214F20A04703221C2150202D
S214400D10A04703221C213A20A04703221C21284634
S214400D20034B98470320034B984738BDED074000D8
S214400D30B50A4000A907400038B5054604221C21E4
S214400D4050200D4CA04704221C215420A0470422CA
S214400D501C215220A04704221C214E20A0470422DA
S214400D601C213A20A04704221C212846034B9847C2
S214400D700420034B984738BDED074000B50A4000B5
S214400D80A907400038B5054604221C2143200D4CD7
S214400D90A04704221C214C20A04704221C2152209C
S214400DA0A04704221C213A20A04704221C212846A2
S214400DB0054B984704221C213F20A0470420034BA4
S214400DC0984738BDED074000B50A4000A9074000E7
S214400DD0F8B505460F460522162130201D4CA04783
S214400DE0052216212020A047052212213120A047A7
S214400DF0052212213A20A047052212212846164BEA
S214400E009847164B5B89B3F5F06F09D20526144D0B
S214400E10124C31460020A8476389B3F5F06FF8D3EB
S214400E200522162130200B4CA047052216212020F3
S214400E30A047052212213220A047052212213A203F
S214400E40A047052212213846034B98470520054BFC
S214400E509847F8BDED074000B50A4000440600201C
S214400E60F1054000A9074000F8B505460F460622A2
S214400E70162130201D4CA047062216212020A047D0
S214400E80062212213320A047062212213A20A047EC
S214400E90062212212846164B9847164B9B89B3F5D7
S214400EA0F06F09D20626144D124C31460020A84752
S214400EB0A389B3F5F06FF8D30622162130200B4CE9
S214400EC0A047062216212020A047062212213420C1
S214400ED0A047062212213A20A04706221221384671
S214400EE0034B98470620054B9847F8BDED07400052
S214400EF0B50A400044060020F1054000A90740001E
S214400F00F8B5194B1F681D68184C23780D4214BF5E
S214400F100121002141EA4301154D2E78074214BFB6
S214400F200123002343EA460303F00F032B7001F02E
S214400F300F012170092B0AD1032914D10D490B68E2
S214400F4043F008030B6010460B4B9847F8BD032B45
S214400F5009D1092907D109490B6843F008030B60FA
S214400F601046074B9847F8BD3C120E403D87002080
S214400F703387002030100E40092F400034100E40BA
S214400F80452F400070B40023A84A1370A84A137037
S214400F90A84A136843F400531360A74D2B6843F0E8
S214400FA001032B60A54C236843F001032360A4484B
S214400FB0036843F001030360A2490B6843F0010352
S214400FC00B6002F67462136843F0010313609E4B95
S214400FD01E6846F001061E602E6846F002062E6029
S214400FE0266846F002062660066846F00206066058
S214400FF00E6846F002060E60166846F00206166058
S2144010001E6846F002061E602E6846F004062E60F5
S214401010266846F004062660066846F00406066023
S2144010200E6846F004060E60166846F00406166023
S2144010301E6846F004061E602E6846F008062E60BF
S214401040266846F008062660066846F008060660EB
S2144010500E6846F008060E60166846F008061660EB
S2144010601E6846F008061E602E6846F010062E6083
S214401070266846F010062660066846F010060660AB
S2144010800E6846F010060E60166846F010061660AB
S2144010901E6846F010061E602E6846F020062E603B
S2144010A0266846F020062660066846F0200606605B
S2144010B00E6846F020060E60166846F0200616605B
S2144010C01E6846F020061E602E6846F040062E60DB
S2144010D0266846F040062660066846F040060660EB
S2144010E00E6846F040060E60166846F040061660EB
S2144010F01E6846F040061E602E6846F080062E604B
S214401100266846F080062660066846F0800606603A
S2144011100E6846F080060E60166846F0800616603A
S2144011201E6846F080061E602E6846F480762E6066
S214401130266846F480762660066846F48076066022
S2144011400E6846F480760E60166846F48076166022
S2144011501E6846F480761E602E6846F400762E6042
S214401160266846F400762660066846F400760660F2
S2144011700E6846F400760E60166846F400761660F2
S2144011801E6846F400761E602E6846F480662E6022
S214401190266846F480662660066846F480660660E2
S2144011A00E6846F480660E60166846F480661660E2
S2144011B01E6846F480661E602E6846F400662E6002
S2144011C0266846F400662660066846F400660660B2
S2144011D00E6846F400660E60166846F400661660B2
S2144011E01E6846F400661E602E6846F008062E60AE
S2144011F0266846F008062660066846F0080606603A
S2144012000E6846F008060E60166846F00806166039
S2144012101E6846F008061E602E6846F400562E608D
S214401220266846F40056266006680FE0338700209E
S2144012303D87002010040E4000120E4014120E404F
S21440124090120E4064120E4020120E4046F4005695
S21440125006600E6846F400560E60166846F4005661
S21440126016601E6846F400561E602E6846F4804699
S2144012702E60266846F480462660066846F4804619
S21440128006600E6846F480460E60166846F4804651
S21440129016601E6846F480461E602E6846F4004679
S2144012A02E60266846F400462660066846F40046E9
S2144012B006600E6846F400460E60166846F4004621
S2144012C016601E6846F400461E602E6846F4803659
S2144012D02E60266846F480362660066846F48036D9
S2144012E006600E6846F480360E60166846F4803611
S2144012F016601E6846F480361E602E6846F4003639
S2144013002E60266846F400362660066846F40036A8
S21440131006600E6846F400360E60166846F40036E0
S21440132016601E6846F400361E602E6846F4802618
S2144013302E60266846F480262660066846F4802698
S21440134006600E6846F480260E60166846F48026D0
S21440135016601E6846F480261E602E6846F40026F8
S2144013602E60266846F400262660066846F4002668
S21440137006600E6846F400260E60166846F40026A0
S21440138016601E6846F400261E602E6846F48016D8
S2144013902E60266846F480162660066846F4801658
S2144013A006600E6846F480160E60166846F4801690
S2144013B016601E6846F480161E602E6846F40016B8
S2144013C02E60266846F400162660066846F4001628
S2144013D006600E6846F400160E60166846F4001660
S2144013E016601E6846F400161E602E6846F4800698
S2144013F02E60266846F480062660066846F4800618
S21440140006600E6846F480060E60166846F480064F
S21440141016601E6846F480061E602E6846F4000677
S2144014202E60266846F400062660066846F40006E7
S21440143006600E6846F400060E60166846F400061F
S21440144016601E6846F400061E602E6846F08076DB
S2144014502E60266846F080762660066846F08076DF
S21440146006600E6846F080760E60166846F0807617
S21440147016601E6846F080761E602E6846F000763F
S2144014802E60266846F000762660066846F00076AF
S21440149006600E6846F000760E60166846F00076E7
S2144014A016601E6846F000761E602E6846F080661F
S2144014B02E60266846F080662660066846F080669F
S2144014C006600E6846F080660E60166846F08066D7
S2144014D016601E6846F080661E602E6846F00066FF
S2144014E02E60266846F000662660066846F000666F
S2144014F006600E6846F000660E60166846F00066A7
S21440150016601E6846F000661E602E6846F08056DE
S2144015102E60266846F080562660066846F080565E
S21440152006600E6846F080560E60166846F0805696
S21440153016601E6846F080561E602E6846F00056BE
S2144015402E60266846F000562660066846F000562E
S21440155006600E6846F000560E60166846F0005666
S21440156016601E6846F000561E602E6846F080469E
S2144015702E60266846F080462660066846F080461E
S21440158006600E6846F080460E60166846F0804656
S21440159016601E6846F080461E602E6846F000467E
S2144015A02E60256845F000452560046844F00044F8
S2144015B00460086840F000400860116841F000414F
S2144015C011601A6842F000421A602C331B68804B48
S2144015D01A6842F001021A607E4A116841F0010121
S2144015E01160196841F002011960116841F002016A
S2144015F01160196841F004011960136843F0040350
S2144016001360734B196841F008011960116841F086
S21440161008011160196841F010011960116841F025
S21440162010011160196841F020011960116841F0FD
S21440163020011160196841F040011960116841F0BD
S21440164040011160196841F080011960116841F04D
S21440165080011160196841F480711960116841F485
S21440166080711160196841F400711960116841F485
S21440167000711160196841F480611960196841F47D
S21440168000611960196841F008011960116841F05D
S21440169008011160196841F400511960116841F45D
S2144016A000511160196841F480411960116841F495
S2144016B080411160196841F400411960116841F495
S2144016C000411160196841F480311960116841F495
S2144016D080311160196841F400311960116841F495
S2144016E000311160196841F480211960116841F495
S2144016F080211160196841F400211960116841F495
S21440170000211160196841F480111960116841F494
S21440171080111160196841F400111960116841F494
S21440172000111160196841F480011960116841F494
S21440173080011160196841F400011960116841F494
S21440174000011160196841F080711960116841F01C
S21440175080711160196841F000711960116841F09C
S21440176000711160196841F080611960116841F09C
S21440177080611160196841F000611960116841F09C
S21440178000611160196841F080511960116841F09C
S21440179080511160196841F000511960116841F09C
S2144017A000511160196841F080411960116841F09C
S2144017B080411160196841F000411960136843F098
S2144017C0004313604FF40052034B1A6070BC7047DE
S2144017D040120E40D4120E4000E100E008B5564BD1
S2144017E01B6813F0030F05D0002202210120534B43
S2144017F0984708BD13F00C0F05D00122082104209D
S2144018004E4B984708BD13F0300F05D002222021DA
S21440181010204A4B984708BD13F0C00F05D003224E
S21440182080214020454B984708BD13F4407F07D0A1
S21440183004224FF400714FF48070404B984708BD27
S21440184013F4406F07D005224FF400614FF48060D8
S2144018503A4B984708BD13F4405F07D006224FF432
S21440186000514FF48050354B984708BD13F4404F15
S21440187007D007224FF400414FF480402F4B984743
S21440188008BD13F4403F07D008224FF400314FF410
S21440189080302A4B984708BD13F4402F07D00922C2
S2144018A04FF400214FF48020244B984708BD13F492
S2144018B0401F07D00A224FF400114FF480101F4BF0
S2144018C0984708BD13F4400F07D00B224FF4000191
S2144018D04FF48000194B984708BD13F0407F07D05F
S2144018E00C224FF000714FF08070144B984708BDA3
S2144018F013F0406F07D00D224FF000614FF080602C
S2144019000E4B984708BD13F0405F07D00E224FF0AD
S21440191000514FF08050094B984708BD13F0804F58
S21440192001D1002B06DA0F224FF000414FF08040E5
S214401930024B984708BD00BF4C120E40010F4000B6
S214401940102070470C2070470B207047233880B219
S214401950034B03EB80004288024B1944885C704777
S214401960E44E4000B448400082B0233880B2ADF820
S2144019700600BDF806309AB2064B03EB82035B883E
S214401980ADF80430BDF80430034A12FA83F3585CCD
S21440199002B0704780444000B83F400082B02338D1
S2144019A080B2ADF80600BDF806309AB2064B03EB9F
S2144019B082035B88ADF80430BDF80430034A12FA5F
S2144019C083F3585C02B07047E44F4000C84540007F
S2144019D0F8B5064D0024064F064EE1B23878B047BB
S2144019E045F8040F0134102CF7D1F8BD50060020FE
S2144019F0248700208D2E4000F8B572B6BFF35F8F67
S214401A00904F00233B7094208F4CA0475F20A04708
S214401A10FF20A047FF20A0478C4DA888000AA0477B
S214401A202879A0476888000AA047A878A047288851
S214401A30000AA0472878A047854EB088000AA047ED
S214401A403079A0477088000AA047B078A047308811
S214401A50000AA0473078A0477089000AA047B07AAD
S214401A60A0473089000AA047307AA047F088000A8D
S214401A70A047B079A0476889000AA047A87AA0473F
S214401A802889000AA047287AA047E888000AA04785
S214401A90A879A0479420A0475F20A047FF20A047F2
S214401AA0FF20A047288A000AA047287CA047E8894C
S214401AB0000AA047A87BA047A889000AA047287B21
S214401AC0A047308A000AA047307CA047F089000A29
S214401AD0A047B07BA047B089000AA047307BA0470C
S214401AE0F08A000AA047B07DA047B08A000AA04707
S214401AF0307DA047708A000AA047B07CA047E88A9D
S214401B00000AA047A87DA047A88A000AA047287DCB
S214401B10A047688A000AA047A87CA0479420A04710
S214401B205F20A047FF20A047FF20A047494DA88838
S214401B30000AA0472879A0476888000AA047A878E6
S214401B40A0472888000AA0472878A047424EB08879
S214401B50000AA0473079A0477088000AA047B078AE
S214401B60A0473088000AA0473078A0477089000A0E
S214401B70A047B07AA0473089000AA047307AA047ED
S214401B80F088000AA047B079A0476889000AA047B5
S214401B90A87AA0472889000AA047287AA047E8885C
S214401BA0000AA047A879A0479420A0475F20A047F6
S214401BB0FF20A047FF20A047288A000AA047287C8D
S214401BC0A047E889000AA047A87BA047A889000A42
S214401BD0A047287BA047308A000AA047307CA04711
S214401BE0F089000AA047B07BA047B089000AA0470A
S214401BF0307BA047F08A000AA047B07DA047B08A55
S214401C00000AA047307DA047708A000AA047B07CF3
S214401C10A047E88A000AA047A87DA047A88A000AED
S214401C20A047287DA047688A000AA047A87CA0470E
S214401C3043F2CE70094B984701233B70BFF35F8F4A
S214401C4062B6F8BDF4010020512D400094060020F5
S214401C50C4060020AC060020DC0600200100002060
S214401C602DE9F84F07467F4B98477F4CA51C7F4988
S214401C7000221346DFF824C2DFF818E210464FF67B
S214401C80FF78DFF808A2DFF800B2032B0AD80E6808
S214401C90012E25F8020C60800CBFA4F80480A080BA
S214401CA0914660E0A3F10409B9F1030F1DD8704EC8
S214401CB013EA060905D509F1FF3969F0030909F168
S214401CC0010909EB49095FFA89F90E68012E2BF8DC
S214401CD0190009F101062BF8160009F102060CBF9F
S214401CE02BF816802BF816003DE0A3F10806032ECD
S214401CF01DD8604E13EA060905D509F1FF3969F08B
S214401D00070909F1010909EB49095FFA89F90E68E3
S214401D10012E2AF8190009F101062AF8160009F1E1
S214401D2002060CBF2AF816802AF816001BE08CFB29
S214401D300369DE17C6EB690909EB4909A3EB890974
S214401D4009EB49095FFA89F90E68012E2EF8190049
S214401D5009F101062EF8160009F102060CBF2EF80E
S214401D6016802EF8160001330332D2B206340635FA
S214401D700431102B89D1404B83F800903F4B1A78A2
S214401D803F4B1B789A4268D1032F13D807EB47077F
S214401D90FBB23C4A1370344A4FF6FF7122F81310D8
S214401DA0591C40F6FF7022F811000233002122F839
S214401DB0131052E03B1FDBB2032B14D807F0030787
S214401DC007EB47072F4B1F702F4B4FF6FF7223F83A
S214401DD017207A1C40F6FF7123F8121002370022B3
S214401DE023F8172039E0A7F10803DBB2032B14D8F9
S214401DF007F0070707EB4707224B1F70234B4FF6AA
S214401E00FF7223F817207A1C40F6FF7123F8121051
S214401E100237002223F817201FE0A7F10C03DBB29D
S214401E20032B1AD81A4BA3FB0723DB0803EB430309
S214401E30A7EB830707EB4707FBB2124A1370154A16
S214401E404FF6FF7122F81310591C40F6FF7022F827
S214401E5011000233002122F813100F4B9847BDE8BB
S214401E60F88F00BFD1194000940600205406002089
S214401E7003000080070000803E8700202E87002059
S214401E80248700203F870020AC060020C4060020A0
S214401E90ABAAAAAADC060020F9194000ABAAAA2AD7
S214401EA008B5EF2931D006D8BF293ED0DF2934D037
S214401EB07F2949D141E0FB2917D002D8F7291CD009
S214401EC042E0FD2909D0FE293ED14F4AD36B013B63
S214401ED0002BB8BF5B42D36336E04B4A936B013B63
S214401EE0002BB8BF5B4293632EE0474A536B013BDF
S214401EF0002BB8BF5B42536326E0434A136B013B5B
S214401F00002BB8BF5B4213631EE03F4AD36A013BD7
S214401F10002BB8BF5B42D36216E03B4A936A013B54
S214401F20002BB8BF5B4293620EE0374A536A013BD0
S214401F30002BB8BF5B42536206E0334A136A013B4C
S214401F40002BB8BF5B421362EF2831D006D8BF28BB
S214401F503ED0DF2834D07F2849D141E0FB2817D037
S214401F6002D8F7281CD042E0FD2809D0FE283ED1F2
S214401F70254AD369013B002BB8BF5B42D36136E0AC
S214401F80214A9369013B002BB8BF5B4293612EE028
S214401F901D4A5369013B002BB8BF5B42536126E0A4
S214401FA0194A1369013B002BB8BF5B4213611EE020
S214401FB0154AD368013B002BB8BF5B42D36016E09E
S214401FC0114A9368013B002BB8BF5B4293600EE01A
S214401FD00D4A5368013B002BB8BF5B42536006E096
S214401FE0094A1368013B002BB8BF5B4213600649A1
S214401FF0064B1878064B9847064B9847064B18787A
S214402000064B984708BD00BF540600202487002092
S214402010AD2E4000D52B40001C870020611C4000A0
S21440202090B1012812D0022812D0032812D00428DA
S21440203012D0052812D0062812D0072812D0082819
S2144020400CBF2020012070470120704702207047B7
S2144020500420704706207047082070470C207047C1
S2144020601020704718207047034B1B68072B02DC74
S2144020700133014A1360704708870020034B1B68F2
S214402080002B02DD013B014A1360704708870020A1
S214402090054B1A88054B1B78D118B1F57A7F01DAC3
S2144020A0014A1180704700BF3687002032870020E3
S2144020B0044B1B88044A1278991A132901DD014AF9
S2144020C01180704736870020328700200C4B1B78E3
S2144020D0012B03D105220A4B1A707047052B03D1FA
S2144020E00A22074B1A7070470A2B03D11422044B5E
S2144020F01A707047142B02D10122014B1A70704798
S21440210032870020034B1B780E2B02D80133014A3E
S2144021101370704724870020034B1B7813B1013B94
S214402120014A1370704700BF24870020034B1B787A
S2144021300E2B02D80133014A1370704700870020E7
S214402140034B1B7813B1013B014A1370704700BF25
S21440215000870020034B1B5C0E2B02D80133014A3C
S2144021601354704718870020034B1B5C13B1013B88
S214402170014A1354704700BF18870020034B1B7852
S2144021800E2B02D80133014A137070470C8700208B
S214402190034B1B7813B1013B014A1370704700BFD5
S2144021A00C870020F8B5754B1F681D68744C237863
S2144021B00D4214BF0121002141EA4301714D2E78A2
S2144021C0074214BF0123002343EA460303F00F03EC
S2144021D02B7001F00F012170092B67D1032940F0C5
S2144021E0CC804AB9684B9847684C2088684B9847DB
S2144021F02078684B9847F8BD012A0CD1664B984723
S214402200624B1888624B9847644B1878644B9847E3
S214402210644B9847F8BD022A13D1634B1B7833B9F9
S214402220624B9847624B1878624B9847F8BD012B33
S21440223040F0A380604B9847604B1878604B9847B7
S214402240F8BD032A06D15F4B98475F4B18785F4B23
S2144022509847F8BD042A08D100205D4B98475D4B4F
S214402260597818785C4B9847F8BD052A08D1012064
S214402270574B9847574B59781878574B9847F8BD5F
S214402280062A08D10220524B9847524BD978987864
S214402290524B9847F8BD072A6FD103204C4B9847BE
S2144022A04C4BD97898784D4B9847F8BD032B64D162
S2144022B0092962D14AB94A4B9847344C2088344B56
S2144022C098472078334B9847F8BD012A0CD1454BA8
S2144022D098472E4B18882E4B9847304B1878304BE3
S2144022E09847304B9847F8BD022A12D12E4B1B78A0
S2144022F033B93D4B98472E4B18782E4B9847F8BD30
S214402300012B3AD1394B98472C4B18782C4B984791
S214402310F8BD032A06D1364B98472B4B18782B4BE3
S2144023209847F8BD042A08D10020324B9847294BDD
S21440233059781878284B9847F8BD052A08D10120C7
S2144023402C4B9847234B59781878234B9847F8BD21
S214402350062A08D10220274B98471E4BD9789878F2
S2144023601E4B9847F8BD072A07D10320214B9847B4
S214402370184BD9789878194B9847F8BD3C0E0E40C4
S2144023803D8700203387002091204000368700207C
S214402390813040006D0B40006920400008870020D7
S2144023A021204000D10B40003C8700200521400002
S2144023B024870020A10C40007D2140000C8700208F
S2144023C0ED0C40002D21400000870020390D4000D4
S2144023D05521400018870020D10D4000690E40006E
S2144023E0B12040007D20400019214000912140004E
S2144023F0412140006921400010B5EF294AD006D857
S214402400BF295DD0DF2950D07F296ED163E0FB29FC
S21440241007D0FE2902D0F72967D117E0334B9847FB
S21440242010BD334A1378013B002BB8BF5B42DBB28A
S214402430137023B92F4B18782F4B984710BD012B9C
S21440244053D12E4B18782E4B984710BD2D4B1B78EA
S21440245063B901222B4B1A702B4A136843F00503CD
S21440246013602A4B18782A4B984710BD012B3CD155
S2144024700023284A1380234A1370234A136843F0E4
S21440248002031360214C2078234B98472078234B37
S214402490984710BD224A1378013B002BB8BF5B42D9
S2144024A0137000201F4B984710BD1D4A5378013BC0
S2144024B0002BB8BF5B42537001201A4B984710BDA3
S2144024C0174A9378013B002BB8BF5B4293700220BB
S2144024D0144B984710BD124AD378013B002BB8BF27
S2144024E05B42D37003200F4B984710BDCD20400071
S2144024F03C87002024870020A10C40000C87002049
S214402500ED0C40003187002040000140008700204D
S214402510850D400002870020D52E4000390D400032
S214402520208700203504400070B47822A84B1A80DB
S2144025300122A84B1A700023A74A1370A74A1370AB
S214402540A74A1370A74A1370A74A1370A74A137076
S214402550A74A136843F400631360A64D2B6843F004
S21440256004032B60A44C236843F004032360A34871
S214402570036843F004030360A14B1A6842F0040268
S2144025801A60A0490A6842F480220A6020310A682C
S21440259042F480220A602A6842F001022A602268D9
S2144025A042F001022260026842F0010202601A68AC
S2144025B042F001021A6054310A6842F001020A6091
S2144025C0914A166846F0010616602E6846F00206E6
S2144025D02E60266846F002062660066846F002062A
S2144025E006601E6846F002061E600E6846F002064A
S2144025F00E60166846F0020616602E6846F04006E4
S2144026002E60266846F040062660066846F040067D
S21440261006601E6846F040061E600E6846F040069D
S2144026200E60166846F0400616602E6846F0800635
S2144026302E60266846F080062660066846F08006CD
S21440264006601E6846F080061E600E6846F08006ED
S2144026500E60166846F0800616602E6846F4807651
S2144026602E60266846F480762660066846F48076B5
S21440267006601E6846F480761E600E6846F48076D5
S2144026800E60166846F4807616602E6846F400762D
S2144026902E60266846F400762660066846F4007685
S2144026A006601E6846F400761E600E6846F40076A5
S2144026B00E60166846F4007616602E6846F480363D
S2144026C02E60266846F480362660066846F48036D5
S2144026D006601E6846F480361E600E6846F48036F5
S2144026E00E60166846F4803616602E6846F400364D
S2144026F02E60266846F400362660066846F40036A5
S21440270006601E6846F400361E600E6846F40036C4
S2144027100E60166846F4003616602E6846F480163C
S2144027202E60266846F480162660066846F48016B4
S21440273006601E6846F480161E600E6846F48016D4
S2144027400E60166846F4801616602E6846F400162C
S2144027502E60266846F400162660066846F4001684
S21440276006601E6846F400161E600E6846F40016A4
S2144027700E60166846F4001616602E6846F480060C
S2144027802E60266846F480062660066846F4800674
S21440279006601E6846F480061E600E6846F4800694
S2144027A00E60166846F4800616602E6846F40006EC
S2144027B02E60266846F400062660066846F4000644
S2144027C006601E6846F400061E600E681EE000BFE7
S2144027D036870020328700203C8700203187002043
S2144027E03087002034870020338700203D87002034
S2144027F010040E40000E0E40140E0E40900E0E407A
S214402800640E0E40100E0E40200E0E4046F400069B
S2144028100E60166846F4000616602E6846F080760F
S2144028202E60266846F080762660066846F08076FB
S21440283006601E6846F080761E600E6846F080761B
S2144028400E60166846F0807616602E6846F0007673
S2144028502E60266846F000762660066846F00076CB
S21440286006601E6846F000761E600E6846F00076EB
S2144028700E60166846F0007616602E6846F0806653
S2144028802E60266846F080662660066846F08066BB
S21440289006601E6846F080661E600E6846F08066DB
S2144028A00E60166846F0806616602E6846F0006633
S2144028B02E60256845F000652560046844F0006495
S2144028C00460186840F0006018600B6843F00063CE
S2144028D00B60136843F0006313604D4B1B684D4B11
S2144028E0186840F0040018604B4C206840F0040024
S2144028F02060086840F004000860116841F0040158
S21440290011601A6842F001021A60444A116841F0A8
S21440291001011160196841F002011960116841F027
S21440292002011160196841F040011960116841F0D8
S21440293040011160196841F080011960116841F04A
S21440294080011160196841F480711960116841F482
S21440295080711160196841F400711960116841F482
S21440296000711160196841F480311960116841F4B2
S21440297080311160196841F400311960116841F4E2
S21440298000311160196841F480111960116841F4F2
S21440299080111160196841F400111960116841F402
S2144029A000111160196841F480011960116841F402
S2144029B080011160196841F400011960116841F402
S2144029C000011160196841F080711960116841F08A
S2144029D080711160196841F000711960116841F00A
S2144029E000711160196841F080611960116841F00A
S2144029F080611160196841F000611960136843F006
S214402A00006313604FF40062054B1A6070BC704759
S214402A104C0E0E40400E0E40D00E0E40D40E0E40D1
S214402A2000E100E038B5494B1B6813F0030F05D0B2
S214402A30002202210120464B984738BD13F0040F70
S214402A4036D0444A13780133DBB21370022B7CD164
S214402A50414B1B78CBB9414A136843F4802313603B
S214402A6001253D4B1D7000203D4CA0472846A04701
S214402A700220A0470320A04700223A4B1A803A4A39
S214402A80136843F0020313600EE0012B0CD1374A63
S214402A90136843F48023136000222F4B1A70324A87
S214402AA0136843F00503136000222A4B1A7038BDA2
S214402AB013F0C00F05D0012280214020244B9847B8
S214402AC038BD13F4407F07D002224FF400714FF414
S214402AD080701F4B984738BD13F4806F35D113F480
S214402AE0403F07D003224FF400314FF48030184B5C
S214402AF0984738BD13F4401F07D004224FF4001106
S214402B004FF48010124B984738BD13F4400F07D04F
S214402B1005224FF400014FF480000D4B984738BD16
S214402B2013F0407F07D006224FF000714FF08070C0
S214402B30074B984738BD13F0406F06D007224FF03A
S214402B4000614FF08060024B984738BD4C0E0E40F7
S214402B50A52140003487002030870020340E0E40E8
S214402B60350440001487002000000140300E0E401F
S214402B7048B9174B1A6822F001021A601A6842F0E8
S214402B8002021A607047012809D1114B1A6822F0D8
S214402B9001021A601A6822F002021A607047022880
S214402BA009D10B4B1A6842F001021A601A6842F0CB
S214402BB002021A607047032808D1054B1A6842F093
S214402BC001021A601A6822F002021A60704700BFBB
S214402BD03080004008B5144A136843F4001313606D
S214402BE0124B1A6842F001021A601A6822F002027A
S214402BF01A6000200E4B98470E4A136843F4A063B1
S214402C0013600D4B1A6842F400621A601A6842F468
S214402C1000521A601A6842F480421A60074A1368E3
S214402C2043F00103136008BD10040E4004800040CA
S214402C30712B400030800040040E0E400080004063
S214402C4008B53A490B6843F400530B60384A13689A
S214402C5043F400531360374B186840F40050186034
S214402C60086840F480400860106840F48040106077
S214402C70186840F480401860086840F0010008601A
S214402C80106840F001001060186840F001001860BD
S214402C90086840F002000860106840F002001060CB
S214402CA0186840F002001860086840F004000860A9
S214402CB0106840F004001060186840F00400186087
S214402CC0086840F008000860116841F0080111608B
S214402CD01A6842F008021A60174A136843F4001351
S214402CE01360164B1A6842F001021A601A6822F006
S214402CF002021A600020124B9847124A136843F4A7
S214402D00A0531360104B1A6842F400621A601A68A7
S214402D1042F400521A601A6842F480421A600B4A23
S214402D20136843F00103136008BD00BF00100E4057
S214402D3010100E4030100E4010040E40048000402C
S214402D40712B400030800040040E0E400080004052
S214402D50044A136813F0020FFBD0034A1368184363
S214402D6010607047108000400C80004059B91C4BE2
S214402D701A781C4B1B7803EB021300EB03101A4B1C
S214402D8053F8302028E001290BD1154B5A78154BC3
S214402D905B7803EB021300EB0310134B53F8302021
S214402DA01AE002290BD10E4B9A780E4B9B7803EB18
S214402DB0021300EB03100C4B53F830200CE00329B1
S214402DC00AD1074BDA78074BDB7803EB021300EBAC
S214402DD00310054B53F83020044B53F8220070473D
S214402DE01887002010870020F406002010000020DE
S214402DF061B9234B1A78234B1B7803EB021300EB85
S214402E000310214B03EBC0004068704701290CD1EA
S214402E101B4B5A781B4B5B7803EB021300EB0310FB
S214402E20194B03EBC0004068704702290CD1144B85
S214402E309A78144B9B7803EB021300EB0310124B6B
S214402E4003EBC0004068704703290CD10C4BDA787E
S214402E500C4BDB7803EB021300EB03100A4B03EB3F
S214402E60C00040687047064B1A78064B1B7803EB49
S214402E70021300EB0310044B03EBC000406870479E
S214402E801887002010870020F4060020054B1B788A
S214402E9000EB031001EB0010034901EBC000406853
S214402EA0704700BF00870020F4060020074B1B78C1
S214402EB00A1F00EB0310064B03EBC0103C3152F8E0
S214402EC0043F436008308A42F9D1704700870020AB
S214402ED0F406002010B40B4A02EBC023013002EB8C
S214402EE0C0243020002107E0186059600833934220
S214402EF0FAD11346944202D003F18002F4E710BCA4
S214402F00704700BFF406002010B40B4B19780B4BEB
S214402F101A7802EB011300EB0313094C54F83330D4
S214402F20772B06DC02EB011200EB0210013344F86B
S214402F30303010BC704700BF008700202487002038
S214402F40F406002010B40B4B19780B4B1A7802EBA2
S214402F50011300EB0313094C54F83330002B06DD05
S214402F6002EB011200EB0210013B44F8303010BC7B
S214402F70704700BF0087002024870020F40600200A
S214402F8000232D4A13802D4A13802D4A1380022198
S214402F902C4A11602C4A13702C4A13702C4A13701A
S214402FA02C4A13702C4A13702C4A13700120507010
S214402FB091700321D1702A4A137053709370D37066
S214402FC0284A137053709370D370274A1370537007
S214402FD09370D3704FF40002244B1A60244B1A6847
S214402FE042F400021A601A6842F080721A6001F1D8
S214402FF0804101F101110A6844F201031A430A6054
S2144030001C4A11680B431360203A136843F01003C0
S21440301013604032136843F01003136040F2E242FC
S214403020154B1A6040F6C41240331A60134A1368B0
S21440303043F0050313607047148700200287002082
S2144030400487002008870020248700200C87002063
S2144030501C8700202E87002000870020188700202D
S21440306010870020288700202087002000E100E00D
S21440307010040E40440001401C0001400000014086
S21440308001280EDD10B50446064B1878064B9847C7
S21440309004FB00F0054C94FBF0F080B2044B186043
S2144030A010BD70470887002021204000F82401000A
S2144030B01C00014070B55D4B1B6813F0100F11D01B
S2144030C05B4A138801339BB213805A4A12889A424D
S2144030D008D10020584CA0470120A0470220A04716
S2144030E00320A047524B1A8849F63F439A427ED95E
S2144030F0524B1B780F2B21D1514B1B78514A1278DB
S2144031009A4203D901334E4A137002E000224C4BD8
S2144031101A704D4B4D491C1D002513F8012B11F814
S214403120010B82423ABF013203F8012C03F8015CDE
S214403130A342F2D10022414B1A7002E001333F4ACB
S2144031401370434B98473D4C2078424B984700219C
S2144031502078414EB0470021404DA84701212078B5
S214403160B0470121A84702212078B0470221A8474E
S21440317003212078B0470321A84700212078384B08
S2144031809847012805D1374B1B7813B90020364B9A
S21440319098470121294B1878314B9847012804D18C
S2144031A0304B5B780BB9304B98470221234B18784D
S2144031B02B4B9847012805D12A4B9B7813B9022000
S2144031C0294B984703211D4B1878254B98470128D3
S2144031D005D1244BDB7813B90320234B9847234A69
S2144031E0136843F0020313600022114B1A80204BF1
S2144031F01B6813F0100F03D01E4A13880133138048
S2144032001C4B1A8842F20F739A420DD900231A4A71
S2144032101370184A1380194A136843F00203136068
S214403220174B1878174B984770BD00BF20000140D9
S214403230148700202C870020350440001C8700207F
S2144032402E8700200C87002010870020288700202B
S214403250D52B4000611C40006D2D40000903400006
S214403260F12D400020870020FD03400000800340F1
S2144032706000014002870020318700204000014066
S21440328000870020390D4000704700BF10B50E483B
S2144032900E4B984710200E4B98470E4CA0470028E0
S2144032A0FCD00D4B98470D4A0D4B9A620D4CA047EB
S2144032B00028FCD010200C4B98470C4B98470248EF
S2144032C0024B984710BD00BF00E1F5058135400030
S2144032D059334000A5334000B5334000013F182025
S2144032E000040E40C5334000F132400071344000C7
S2144032F0184A136B23F0700318431063936E13F051
S214403300080F03D009E0013B03D11EE04FF40063F1
S21440331010498A6E12F0080FF5D00E4A136B23F050
S214403320030343F002031363906E10F0080004D0CA
S21440333000207047013B03D109E04FF40063054984
S2144033408A6E12F0080FF5D07047012070470120B2
S214403350704700BF00040E40114B1A6A42F45C12DC
S21440336042F008021A621A46936E13F4003FFBD0EE
S2144033700B4A136A23F45C1323F0700343F45C1384
S21440338003431362936E13F4003FFBD0044A136A60
S21440339023F09B7323F4803343F45C13136270472B
S2144033A000040E40024B986E00F48030704700BF19
S2144033B000040E404FF00052014B9A62704700BF27
S2144033C000040E40024B986E00F00200704700BFAB
S2144033D000040E40FEE700BF08B5194B194A9A4252
S2144033E003D0194B164A9A4204D3184B184A9A42AD
S2144033F00FD31AE01249174B5B1A23F0030304332A
S214403400104A134452F8040B41F8040B9A42F9D17F
S214403410EBE7114B114AD21A22F003021A44043B3E
S214403420002143F8041B9342FBD10D4A0D4B23F079
S2144034307F0393600C4B98470C4B9847FEE700BFC2
S21440344000000020605140002806002040870020F1
S21440345028060020270600202C0600204387002050
S21440346000ED00E0000040007D3E40003D3840005A
S2144034703C4B1B6B03F00303012B0FD013B1022B05
S21440348029D057E0384B5B6913F0800F14BF4FF4D8
S21440349000424FF4FA42354B1A604BE0314B1B6A00
S2144034A013F0807F03D0324A304B1A6042E0314AF4
S2144034B02E4B1A602B4B1B6A03F07003102B02D066
S2144034C0202B04D036E02C4A284B1A6032E0284A9B
S2144034D0264B1A602EE0234B1B6A13F0807F03D0E6
S2144034E0234A224B1A6012E0224A204B1A601D4B98
S2144034F01B6A03F07003102B02D0202B04D006E08A
S2144035001D4A1A4B1A6002E0194A184B1A60154BAE
S2144035101B6B03F00303022B0CD1124A936A926A88
S2144035201248C3F30A41036801FB0333D2B2B3FB2C
S214403530F2F303600B4B1B6B03F07003702B07D149
S2144035400A4A13680D49A1FB03135B0813607047D2
S214403550044B1B6B0549C3F302120B68D3400B6048
S214403560704700BF00040E4010140E40F8010020C3
S214403570001BB70000093D0000127A00ABAAAAAAB9
S2144035800F4B984204D84FF080620E4B1A6070473B
S2144035900D4B984203D80D4A0A4B1A6070470C4BA5
S2144035A0984203D80B4A074B1A6070470A4B98421A
S2144035B094BF0A4A4FF00422024B1A60704700BF7D
S2144035C0FF2C3101000A0E40FF5962020001000440
S2144035D0FF86930300020004FFB3C4040003000404
S2144035E070B42B4A136843F480531360294D2B68FC
S2144035F043F480632B60284C236843F48063236045
S2144036002648036843F48063036025490B6843F407
S21440361080630B6002F67442136843F48063136061
S214403620204B1E6846F480661E602E6846F4006690
S2144036302E60256845F400652560046844F40064FF
S2144036400460086840F400600860116841F4006156
S21440365011601A6842F400621A602C331B68124AE2
S214403660136843F480631360104B196841F480611B
S2144036701960116841F4006111601A6842F40062F2
S2144036801A604FF480520A4B1A6070BC704700BFF5
S21440369010040E4000100E4014100E4090100E40C5
S2144036A064100E4020100E4040100E40D0100E40C9
S2144036B000E100E0124B80221A6012490A6842F488
S2144036C000220A60104A116841F008011160116832
S2144036D041F010011160A2F54822A2F6F45211689A
S2144036E041F079011160116841F4F24111601A68A5
S2144036F042F020021A601A6842F004021A607047CC
S2144037000080014010040E40040E0E402DE9F04F9C
S21440371089B0DFF88C8002AFB8F80030ADF80830DA
S21440372020268DF81C600025049505974FF0020B67
S214403730CDF818B003A91848184CA04701AA43462C
S21440374033F804AF93F80290ADF804A08DF80690D5
S2144037508DF81C60049505920326069603A90E482C
S214403760A0474FF024088DF81C8004950597CDF8A7
S21440377018B003A90848A047ADF800A08DF80290FD
S2144037808DF81C800495CDF814D0069603A90248FF
S214403790A04709B0BDE8F08F00800140A10240007C
S2144037A02C514000F0B58DB0074600248DF80440FB
S2144037B020268DF81860039401AB049301230593EB
S2144037C0084D02A92846084B98478DF82C60089467
S2144037D0099702230A9307A92846044B98470DB039
S2144037E0F0BD00BF00800140A1024000C101400082
S2144037F0F0B58DB0074600248DF8044024268DF899
S2144038001860039401AB049301230593084D02A965
S2144038102846084B98478DF82C6008940997022351
S2144038200A9307A92846044B98470DB0F0BD00BF41
S21440383000800140A1024000C101400008B5134B82
S21440384098474FF40042124B5A60124B9847124B1F
S2144038509847124B9847124B9847124B9847124B33
S2144038609847124B9847124B9847124B9847124B23
S2144038709847124C2088124B9847124B984712484C
S214403880124B98472078124B9847FEE78D324000FF
S21440389050140E4089324000D52B4000B5364000CB
S2144038A0E1354000812F40001D014000850F40005B
S2144038B04D07400029254000F91940003687002072
S2144038C0813040000D374000FC860020F137400034
S2144038D06D0B400010B5204B1B6813F4806F1BD057
S2144038E01E4C20461E4B98472078FF2802D163780E
S2144038F0FF2B2FD01B4B1870184A517859701A4A14
S21440390013780133DBB21370012B23D9174B98473A
S2144039100022154B1A7010BD13F4006F1AD00F4CCE
S2144039202046134B98472078FF2802D16378FF2B18
S21440393010D0104B1870094A517859700E4A1378B7
S2144039400133DBB21370012B04D90C4B984700228D
S214403950094B1A7010BD00BF4C100E40F486002074
S214403960F1374000FC860020FF860020A11E400064
S214403970A5374000F8860020FE860020F923400048
S21440398080F0004002E000BF81F0004142001FBFCF
S2144039905FEA410392EA030F7FEA226C7FEA236CD8
S2144039A06AD04FEA1262D2EB1363C1BFD2184140CD
S2144039B048404140B8BF5B42192B88BF704710F063
S2144039C0004F40F4000020F07F4018BF404211F006
S2144039D0004F41F4000121F07F4118BF494292EA6E
S2144039E0030F3FD0A2F1010241FA03FC10EB0C009A
S2144039F0C3F1200301FA03F100F0004302D5494227
S214403A0060EB4000B0F5000F13D3B0F1807F06D3D3
S214403A1040084FEA310102F10102FE2A51D2B1F1CB
S214403A20004F40EBC25008BF20F0010040EA0300C0
S214403A307047490040EB000010F4000FA2F101026D
S214403A40EDD1B0FA80FCACF1080CB2EB0C0200FAF7
S214403A500CF0AABF00EBC25052421843BCBFD04045
S214403A601843704792F0000F81F4000106BF80F4BF
S214403A7000000132013BB5E74FEA41037FEA226C82
S214403A8018BF7FEA236C21D092EA030F04D092F04D
S214403A90000F08BF0846704790EA010F1CBF002081
S214403AA0704712F07F4F04D1400028BF40F00040DE
S214403AB0704712F100723CBF00F50000704700F0FE
S214403AC0004343F0FE4040F4000070477FEA226225
S214403AD016BF08467FEA23630146420206BF5FEAF6
S214403AE0412390EA010F40F4800070474FF00003F6
S214403AF004E000BF10F0004348BF40425FEA000CBD
S214403B0008BF704743F0964301464FF000001CE064
S214403B1050EA010208BF70474FF000030AE000BFBA
S214403B2050EA010208BF704711F0004302D54042F8
S214403B3061EB41015FEA010C02BF8446014600206A
S214403B4043F0B64308BFA3F18053A3F50003BCFA85
S214403B508CF2083AA3EBC25310DB01FA02FC634432
S214403B6000FA02FCC2F12002BCF1004F20FA02F239
S214403B7043EB020008BF20F00100704702F120022C
S214403B8001FA02FCC2F1200250EA4C0021FA02F28D
S214403B9043EB020008BF20EADC7070474FF0FF0C92
S214403BA01CEAD0521EBF1CEAD15392EA0C0F93EA8D
S214403BB00C0F6FD01A4480EA010C400218BF5FEA2F
S214403BC041211ED04FF0006343EA501043EA5111A2
S214403BD0A0FB01310CF00040B1F5000F3EBF49009C
S214403BE041EAD3715B0040EA010062F17F02FD2AA0
S214403BF01DD8B3F1004F40EBC25008BF20F0010083
S214403C00704790F0000F0CF0004C08BF49024CEA99
S214403C10502040EA51207F3AC2BFD2F1FF0340EA2B
S214403C20C250704740F400004FF00003013A5DDC9C
S214403C3012F1190FDCBF00F000407047C2F10002DD
S214403C40410021FA02F1C2F1200200FA02FC5FEACA
S214403C50310040F1000053EA4C0308BF20EADC7014
S214403C60704792F0000F00F0004C02BF400010F486
S214403C70000F013AF9D040EA0C0093F0000F01F033
S214403C80004C02BF490011F4000F013BF9D041EA55
S214403C900C018FE70CEAD15392EA0C0F18BF93EA57
S214403CA00C0F0AD030F0004C18BF31F0004CD8D181
S214403CB080EA010000F00040704790F0000F17BF08
S214403CC090F0004F084691F0000F91F0004F14D04E
S214403CD092EA0C0F01D142020FD193EA0C0F03D1A6
S214403CE04B0218BF084608D180EA010000F00040A9
S214403CF040F0FE4040F40000704740F0FE4040F484
S214403D00400070474FF0FF0C1CEAD0521EBF1CEA22
S214403D10D15392EA0C0F93EA0C0F69D0A2EB030240
S214403D2080EA010C49024FEA402037D04FF08053DA
S214403D3043EA111143EA10130CF000408B4238BF9F
S214403D405B0042F17D024FF4000C8B4224BF5B1AAD
S214403D5040EA0C00B3EB510F24BFA3EB510340EAFB
S214403D605C00B3EB910F24BFA3EB910340EA9C00A9
S214403D70B3EBD10F24BFA3EBD10340EADC001B0119
S214403D8018BF5FEA1C1CE0D1FD2A3FF650AF8B42BD
S214403D9040EBC25008BF20F0010070470CF0004CCA
S214403DA04CEA50207F32C2BFD2F1FF0340EAC250F5
S214403DB0704740F400004FF00003013A37E792F0B6
S214403DC0000F00F0004C02BF400010F4000F013A14
S214403DD0F9D040EA0C0093F0000F01F0004C02BF0F
S214403DE0490011F4000F013BF9D041EA0C0195E778
S214403DF00CEAD15392EA0C0F08D142027FF47DAF11
S214403E0093EA0C0F7FF470AF084676E793EA0C0F00
S214403E1004D14B023FF44CAF08466EE730F0004CFE
S214403E2018BF31F0004CCAD130F000427FF45CAF8E
S214403E3031F000437FF43CAF5FE700BF42000ED254
S214403E40B2F1FE4F0BD34FF09E03B3EB126209D490
S214403E504FEA002343F0004323FA02F070474FF046
S214403E600000704712F1610F01D1420202D14FF0BB
S214403E70FF3070474FF00000704700BF70B50F4EE0
S214403E800F4D761BB61018BF002405D0013455F8E8
S214403E90043B9847A642F9D10A4E0B4D761B01F0DB
S214403EA04DF9B61018BF002406D0013455F8043B2F
S214403EB09847A642F9D170BD70BD00BF485140003A
S214403EC0485140005051400048514000024B13B109
S214403ED0024800F005B8704700000000ED3E400084
S214403EE0002301461A46184600F014B838B5074D68
S214403EF0074C2C1BA41005D0013C55F8043D9847B0
S214403F00002CF9D1BDE8384001F022B9605140009C
S214403F105C5140002DE9F047254C2568D5F84841CE
S214403F200646884692469946C4B360681F2817DC02
S214403F30431C76B104EB80050122C5F888A0D4F86E
S214403F40881182401143022EC4F88811C5F80891A2
S214403F501ED00230636044F820800020BDE8F08721
S214403F60144B03B34FF4C870AFF300800446D0B18F
S214403F70D5F84831002780E88800C5F848413846DB
S214403F800123C4F88871C4F88C71002EE1D0D1E7C3
S214403F90D4F88C110A43C4F88C21DAE705F5A674E8
S214403FA0C5F84841C1E74FF0FF30BDE8F08700BF95
S214403FB038514000000000003030FFFF30303030D5
S214403FC0FFFF30300C0CFFFF0C0C0C0CFFFF0C0CF2
S214403FD0000000000000000000000000000000009C
S214403FE0000080E0703C0F030080E0703C0F03014F
S214403FF0000000000607010000000000000000006E
S214404000FEFF0303030303030303FFFEFFFF00005B
S214404010000000000000FFFF03070606060606062F
S214404020060607030303030303FFFF000000000028
S2144040300000000000FFFF000000F8F80606060635
S21440404006070706060607070303030303030303DF
S2144040500303FFFEFEFF03030303030303030301FF
S21440406007070606060606060606060603030303B5
S214404070030303030303FFFE0000030303030303DA
S2144040800303FFFC060606060606060606060703A4
S21440409000FFFF000000000000FCFC00000F0F0CBB
S2144040A00C0C0C0C0CFFFF0C000000000000000085
S2144040B0000707000000FFFF030303030303030397
S2144040C000000303030303030303FFFE0303070683
S2144040D00606060606060703FFFF0300000000006C
S2144040E000000000FFFF0C0C0C0C0C0C0C0CFCFC35
S2144040F0070706060606060606060707070703031B
S214404100030303030303FFFF0000000000F8FC0E58
S2144041100603010000000000000707000000000042
S2144041200000FFFF03030303FFFF0000FEFF03033F
S214404130030303030303FFFE0307060606060606FD
S21440414006060703FFFF8383838383838383FFFF00
S21440415001010101010101010101FFFF0000000012
S2144041600000000000060707000000007878787816
S214404170000000000000000078787878000000001A
S214404180000000000000000000000000000000C02A
S214404190F87F7FF8C000000000E0FC3F333030334B
S2144041A03FFCE00007070000000000000000070793
S2144041B0FFFF0303030303030386FEF8FFFF030327
S2144041C0030303030307FFFC070706060606060667
S2144041D00603030080E0781E07030303030303037C
S2144041E00F3FF0C000000000000000000000000389
S2144041F007060606060606060303FFFF0303030735
S2144042001E78E0800000FFFF00000000C0F03F0F77
S214404210060607070606060703000000FFFF03031F
S2144042200303030303030303FFFF03030303030024
S21440423000000000070706060606060606060606EF
S214404240FFFFC3C3C3C3C3C3C3C30303FFFF00000F
S214404250000000000000000007070000000000000B
S21440426000000000C0E0381C0E07030303030303EE
S214404270FFFF000000000C0C0C0CFCFC01030606C3
S2144042800606060606060301FFFF000000000000C3
S2144042900000FFFFFFFF0303030303030303FFFFC7
S2144042A007070000000000000000070703030303A1
S2144042B003FFFF03030303030000000000FFFF00AB
S2144042C0000000000606060606070706060606065F
S2144042D0000000000000000000FFFF0000FCFC00A3
S2144042E00000000000FFFF00000103060606060669
S2144042F006030100FFFF0080C06030180C06030173
S214404300FFFF0F0D183060C0800000000707000058
S2144043100000000001030604FFFF0000000000004C
S21440432000000000FFFF000000000000000000004A
S214404330070706060606060606060606FFFF0F1CC5
S21440434078E0E0781C0EFFFFFFFF00000001010050
S2144043500000FFFF070700000000000000000707FE
S214404360FFFF1E7CF0C000000000FFFFFFFF0000C4
S21440437001071F7CF0C0FFFF070700000000000099
S2144043800103070780E0F83E0F03030F3EF8E08086
S2144043900F3FF8E080000080E0F83F0F0000000389
S2144043A00706060703000000FFFF0303030303039B
S2144043B00303FEFCFFFF0C0C0C0C0C0C0C0C070350
S2144043C0070700000000000000000000FFFF838396
S2144043D0838383838383FE7CFFFF010101030F3DBC
S2144043E071E180000707000000000000000107069A
S2144043F00E1F73E3C383030303030F0E8080000086
S21440440001030E1C3870C080030706060606060623
S214404410060607030F0F030303FFFF0303030F0FF5
S2144044200000000000FFFF00000000000000000049
S2144044300007070000000000FFFF80C0606060606B
S21440444060C08000FFFF8100000000000000FFFF0A
S2144044500707030306060606060301006060FEFE25
S21440446060606060606060000000FFFF0000000069
S21440447000008080000001030606060606070301CA
S2144044800C030000000000000000000000000000D8
S21440449000000000000000000000000000000000D7
S2144044A000000000000000000000000000000000C7
S2144044B00C0324000C0348000C036C000C03900013
S2144044C00C03B4000C03D8000C03FC000C032001C2
S2144044D00C0344010C0368010C038C010C03B0016F
S2144044E00000000000000000000000000000000087
S2144044F000000000000000000C03D4010C03F8018B
S2144045000C031C020C0340020C0364020C038802DA
S2144045100C03AC020C03D0020C03F4020C03180389
S2144045200C033C030C0360030C0384030C03A80336
S2144045300C03CC030C03F003000000000C0314042F
S2144045400C0338040C035C0400000000000000006C
S2144045500000000000000000000000000000000016
S2144045600000000000000000000000000000000006
S2144045700000000000000000000000000C03800463
S21440458000000000000000000000000000000000E6
S21440459000000000000000000000000000000000D6
S2144045A000000000000000000000000000000000C6
S2144045B000000000000000000000000000000000B6
S2144045C0000000000C03A4041818FFFF181818FF7A
S2144045D0FF181803031F1F0303031F1F03030000D6
S2144045E0000000C0E0781C0F03C070381E070300B0
S2144045F000000000FEFF03030303030303FFFE7FE8
S214404600FFC0C0C0C0C0C0C0FF7F0003030303FF9D
S214404610FF0000000000C0C0C0C0FFFFC0C0FEFEDC
S214404620038383838383838383FFFEFFFFC1C1C1EC
S214404630C1C1C1C1C1C00303838383838383FF7E1B
S21440464000C0C0C1C1C1C1C1C1FF7E0000FFFF00A4
S214404650000000FCFC000000070706060606FFFFF9
S21440466006000000FFFF838383838383036060E14B
S214404670C1C1C1C1C1C1FF7FFFFF030000000000F0
S214404680000000FFFFC6C6C6C6C6C6C6FEFE00077A
S21440469007030303030383FF7F0000000000FEFEC2
S2144046A0030100000080FFFF838383FFFF80007FBD
S2144046B0FFC1C1C1C1C1C1C1FF7F7F7F6363636367
S2144046C0636363FFFF0000000000000000C0FFFFC0
S2144046D00000000070707000000000000000001C29
S2144046E01C1C00000000000000E0FC1FFCE0000076
S2144046F000E0F83F0F0C0C0C0F3FF8E0FFFF838301
S214404700838383C7FE7C00FFFFC1C1C1C1C1E37F75
S2144047103E00C0F03C0E03030303030300030F3CBC
S21440472070C0C0C0C0C0C0000303FFFF03030E3C00
S214404730F0C000C0C0FFFFC0C0703C0F0300FFFFCA
S214404740838383830303030300FFFFC1C1C1C1C04A
S214404750C0C0C000FFFF636363636363030300FF7F
S214404760FF000000000000000000E0F0180C060308
S21440477003030303037FFFC0C0C0C6C6C6C6FE7E93
S214404780FFFF80808080808080FFFFFFFF01010167
S21440479001010101FFFF03030303FFFF03030303BC
S2144047A000C0C0C0C0FFFFC0C0C0C00000000000C6
S2144047B0000000FFFF0000007EFEC0C0C0C0FF7FBC
S2144047C00000FFFFC06030180C06030100FFFF0129
S2144047D003060C3860C08000FFFF000000000000A9
S2144047E0000000FFFFC0C0C0C0C0C0C0C0C0FFFFC8
S2144047F00E1C70701C0EFFFF00FFFF000000000044
S21440480000FFFF00FFFF0F3CF0C0800000FFFFFFEF
S214404810FF00000001071E78FFFFC0F03C1E0703A4
S214404820071E3CF0C0030F3C78E0C0E0783C0F0326
S214404830FFFF03030303030303FFFEFFFF0303031C
S214404840030303030101FFFF636363E3E363637FE3
S2144048503EFFFF00000001070E38F0C00E1F336316
S214404860C3830303030F0E70F0C0C0C0C1C3C6CCE1
S214404870F870000F0F0303FFFF03030F0F00000045
S2144048800000FFFF00000000FFFF60303030303097
S21440489070E0C0FFFF60C0C0C0C0C0E07F3F3030A7
S2144048A0FEFE3030303030000000007FFFC0C0C019
S2144048B0C0F0700000E0E0E0FFFFFFE0E0FFFFFF39
S2144048C0E0E0E00000707070FFFFFF7070FFFFFFD9
S2144048D070707000000000000F0F0F00000F0F0FE9
S2144048E000000000000000000000000000C0F0FCD7
S2144048F07F1F07000000000080C0F0FC3F0F030150
S2144049000000000000E0F8FE3F0F0300000000003B
S2144049100000000000FEFFFF07070707070707071E
S214404920FFFFFE0000FFFFFF000000000000000049
S214404930FFFFFF00007FFFFFE0E0E0E0E0E0E0E0B8
S214404940FFFF7F0000070707070707FFFFFF00007E
S2144049500000000000000000000000FFFFFF000015
S21440496000E0E0E000E0E0E0E0E0E0FFFFFFE0E065
S214404970E0FFFFFF000707070707070707070707C8
S214404980FFFFFE0000F8FCFC1C1C1C1C1C1C1C1C16
S2144049901F1F0F0000FFFFFFE0E0E0E0E0E0E0E088
S2144049A0E0E0E000000707070707070707070707D5
S2144049B007FFFFFE000000001C1C1C1C1C1C1C1CCF
S2144049C01CFFFFE700E0E0E0E0E0E0E0E0E0E0E001
S2144049D0E0FFFF7F0000FFFFFF000000000000F840
S2144049E0F8F800000000FFFFFFE0E0E0E0E0E0FF56
S2144049F0FFFFE0E00000000000000000000000FFB5
S214404A00FFFF000000000000FFFFFF070707070743
S214404A1007070700000000001F1F1F1C1C1C1C1C53
S214404A20FCFCF80000707070E0E0E0E0E0E0E0E001
S214404A30FFFF7F0000FFFFFF0707000000000000A9
S214404A400000000000FFFFFFE0E0E0E0E0E0E0E024
S214404A50E0E0E00000FFFFFFE0E0E0E0E0E0E0E074
S214404A60FFFFFF00000F0F0F07070707070707079F
S214404A7007FFFFFF00000000000000C0E0F0783CA9
S214404A801E0F070700000000000000FFFFFF0000A9
S214404A900000000000000000FFFFFF0707FFFFFFC9
S214404AA00000000000F8FCFC1F1F1F1C1C1F1F1FDF
S214404AB0FCFCF800007FFFFFE0E0E0E0E0E0E0E044
S214404AC0FFFF7F0000FFFFFF0707070707070707EF
S214404AD0FFFFFF0000070707070707070707070747
S214404AE0FFFFFF0000000000000000000000C0E0E4
S214404AF0FFFFFF000000000000F0F0F0F0F00000C4
S214404B00000000000000000000C1C1C1C1C100009B
S214404B10000000000000000000070707070700002D
S214404B20000000000000000000E0FEFFFFFEE00086
S214404B3000000000000000F0FEFF1F01011FFFFE06
S214404B40E000000000F0FFFF1F0707070707071FEA
S214404B50FFFFF00000FFFFFF0707070707070707ED
S214404B600FFEFCF800FFFFFF1C1C1C1C1C1C1C1C22
S214404B703EFFF7C100FFFFFFE0E0E0E0E0E0E0E0FE
S214404B80707F3F0F000080E0F8FC3E0F07070707E6
S214404B9007070707007EFFFFC30000000000000075
S214404BA000000000000001071F3F7CF0E0E0E0E06E
S214404BB0E0E0E0E000070707FFFFFF07070F3EFEC5
S214404BC0F8E0800000000000FFFFFF00000000004B
S214404BD0C3FFFF7E00E0E0E0FFFFFFE0E0F07C3F49
S214404BE01F07010000FFFFFF070707070707070724
S214404BF00707070700FFFFFF1C1C1C1C1C1C0000AF
S214404C000000000000FFFFFFE0E0E0E0E0E0E0E062
S214404C10E0E0E0E000FFFFFF07070707070707079A
S214404C200707070700FFFFFF0707070707070707EE
S214404C300700000000FFFFFF00000000000000002B
S214404C4000000000000080E0F0783E1F07070707DE
S214404C500707070000FFFFFF01000000E0E0E0E07C
S214404C60E0E0E000003F7FFFE0E0E0E0E0E0E0E0A2
S214404C70FF7F3F0000FEFFFE000000000000000037
S214404C80FEFFFE0000FFFFFF1C1C1C1C1C1C1C1C07
S214404C90FFFFFF00007FFF7F0000000000000000D5
S214404CA07FFF7F00020707070707FFFFFF0707078B
S214404CB007070200000000000000FFFFFF000000A2
S214404CC00000000040E0E0E0E0E0FFFFFFE0E0E062
S214404CD0E0E040000000000000000000000000FF90
S214404CE0FFFF00000000E0E0E0000000000000FFE2
S214404CF0FFFF000000001F7FFFE0E0E0E0E0E0FF95
S214404D007F3F000000FFFFFF008080C0E0F0783C5F
S214404D101E0F070300FFFFFF7FF7E3C18000000080
S214404D200000000000FFFFFF00000103070F1E3CCD
S214404D3078F0E0C000FFFFFF000000000000000029
S214404D400000000000FFFFFF000000000000000021
S214404D500000000000FFFFFFE0E0E0E0E0E0E0E011
S214404D60E0E0E00000FFFFFF1F7FFCE0FC7F1FFF4E
S214404D70FFFF000000FFFFFF00000707070000FFDF
S214404D80FFFF000000FFFFFF00000000000000FFE4
S214404D90FFFF000000FFFFFF3FFEF8C000000000DE
S214404DA0FFFFFF0000FFFFFF00010F7FFEF08000C7
S214404DB0FFFFFF0000FFFFFF00000000031F7FFC17
S214404DC0FFFFFF00000080E0F87E1F07071FFEF889
S214404DD0E0800000007EFFFFC3000000000000C32C
S214404DE0FFFF7E00000001071F7FF8E0E0F87F1F0E
S214404DF00701000000FFFFFF070707070707070731
S214404E00FFFEFC0000FFFFFF7070707070707070E7
S214404E107F3F1F0000FFFFFF000000000000000073
S214404E200000000000FFFFFF070707070707070708
S214404E30FFFEFC0000FFFFFF07071F3FFFF7C70707
S214404E400703010000FFFFFF0000000000030F3FC4
S214404E507EF8E000001C7EFFE7C7870707070707C6
S214404E603F3E3C000000000003070F3E7CF0E0C0E1
S214404E7000000000003C7CFCE0E0E0E0E0E1E3E72E
S214404E80FFFE3800003F3F3F070707FFFFFF0707CB
S214404E90073F3F3F00000000000000FFFFFF00000C
S214404EA00000000000000000000000FFFFFF0000C0
S214404EB00000000000FFFFFF0000808080808080B0
S214404EC00000000000FFFFFF0E0703030303030775
S214404ED0FFFEFC0000FFFFFF3870E0E0E0E0E0F09F
S214404EE07F3F1F001003000000000000000000008D
S214404EF0000000000000000000000000000000006D
S214404F00000000000000000000000000000000005C
S214404F1000000000100330001003600010039000F3
S214404F201003C0001003F0001003200110035001CE
S214404F30100380011003B0011003E00110031002BB
S214404F4010034002000000000000000000000000C7
S214404F500000000000000000000000001003700287
S214404F601003A0021003D002100300031003300306
S214404F7010036003100390031003C0031003F003F4
S214404F801003200410035004100380041003B004E0
S214404F901003E00410031005100340050000000055
S214404FA0100370051003A0051003D0050000000094
S214404FB000000000000000000000000000000000AC
S214404FC0000000000000000000000000000000009C
S214404FD0000000000000000000000000000000008C
S214404FE0100300060B020000000000000000000056
S214404FF0000000000000000000000000000000006C
S214405000000000000000000000000000000000005B
S214405010000000000B0216000B022C000B024200A0
S2144050200B0258000B026E000B0284000B029A0023
S2144050300B02B0000B02C6000B02DC000B02F200B3
S2144050400B02080100000000000000000000000005
S2144050500000000000000000000000000B021E01DF
S2144050600B0234010B024A010B0260010B0276016F
S2144050700B028C010B02A2010B02B8010B02CE01FF
S2144050800B02E4010B02FA010B0210020B0226028D
S2144050900B023C020B0252020B02680200000000A8
S2144050A00B027E020B0294020B02AA0200000000D2
S2144050B000000000000000000000000000000000AB
S2144050C0000000000000000000000000000000009B
S2144050D0000000000000000000000000000000008B
S2144050E00B02C002000000000000000000000000AC
S2144050F0000000000000000000000000000000006B
S214405100000000000000000000000000000000005A
S214405110000000000000000000000000000000004A
S21440512000000000000000000B02D6020F0800003E
S21440513006FFFF004300000000020020F8B500BF55
S214405140F8BC08BC9E467047CD3E4000E500400097
S214405150F8B500BFF8BC08BC9E467047C10040008A
S214405160BFF35F8F0138FBD1704700BF07000000D8
S21440517000004040CA54454093A94A405DFE4F4017
S21440518026535540F0A75A40B9FC5F4083516540CE
S2144051904CA66A4016FB6F40DF4F7540A9A47A4084
S2144051A00000804065AA8240CA5485402EFF874052
S2144051B093A98A40F8538D405DFE8F40C1A8924027
S2144051C0265395408BFD9740F0A79A4054529D40F9
S2144051D00000A04065AAA240CA54A5402EFFA740A2
S2144051E093A9AA40F853AD405DFEAF40C1A8B24077
S2144051F02653B5408BFDB740F0A7BA405452BD4049
S2144052000000C04065AAC240CA54C5402EFFC740F1
S21440521093A9CA40F853CD405DFECF40C1A8D240C6
S2144052202653D5408BFDD740F0A7DA405452DD4098
S2144052300000E04065AAE240CA54E5402EFFE74041
S21440524093A9EA40F853ED405DFEEF40C1A8F24016
S2144052502653F5408BFDF740F0A7FA405452FD40E8
S214405260000000413255014165AA024197FF0341C3
S214405270CA540541FCA906412EFF07416154094125
S21440528093A90A41C5FE0B41F8530D412AA90E4188
S214405290000010413255114165AA124197FF134153
S2144052A0CA541541FCA916412EFF174161541941B5
S2144052B093A91A41C5FE1B41F8531D412AA91E4118
S2144052C0000020413255214165AA224197FF2341E3
S2144052D0CA542541FCA926412EFF27416154294145
S2144052E093A92A41C5FE2B41F8532D412AA92E41A8
S2144052F0000030413255314165AA324197FF334173
S214405300CA543541FCA936412EFF374161543941D4
S21440531093A93A41C5FE3B41F8533D412AA93E4137
S214405320000040413255414165AA424197FF434102
S214405330CA544541FCA946412EFF47416154494164
S21440534093A94A41C5FE4B41F8534D412AA94E41C7
S214405350000050410100000000093D000000000030
S21440536000000000EC04002054050020BC0500208E
S21440537000000000000000000000000000000000E8
S21440538000000000000000000000000000000000D8
S2144053900000000034514000000000000000000003
S2144053A000000000000000000000000000000000B8
S2144053B000000000000000000000000000000000A8
S2144053C00000000000000000000000000000000098
S2144053D00000000000000000000000000000000088
S2144053E00000000000000000000000000000000078
S2144053F00000000000000000000000000000000068
S2144054000000000000000000010000000000000056
S2144054100E33CDAB34126DE6ECDE05000B0000001B
S2144054200000000000000000000000000000000037
S2144054300000000000000000000000000000000027
S2144054400000000000000000000000000000000017
S2144054500000000000000000000000000000000007
S8044033D9AF
