S01C00006761746F7273796E74685F73657175656E6365722E737265638B
S214400000C8D90020814640007D4640007D464000DD
S2144000107D4640007D4640007D4640000000000092
S2144000200000000000000000000000007D46400088
S2144000307D464000000000007D4640007D46400072
S2144000407D4640007D4640007D4640007D4640005F
S2144000507D4640007D4640007D4640000000000052
S2144000607D4640007D4640007D464000493C40007D
S214400070F14B40003D2340007D4640007D46400019
S2144000807D4640007D464000000000007D46400022
S2144000907D4640007D4640007D464000D5424000BB
S2144000A07D4640007D4640007D4640007D464000FF
S2144000B07D4640009D0140007D4640007D46400014
S2144000C010B5054C237833B9044B13B10448AFF34D
S2144000D000800123237010BD800600200000000031
S2144000E078674000084B10B51BB108490848AFF385
S2144000F000800848036803B910BD074B002BFBD0AF
S214400100BDE81040184700BF0000000084060020ED
S21440011078674000786740000000000044F62062A0
S2144001200F4B1A800F4A136843F0005313604FF08A
S21440013000520D4B1A600D4A136843F004031360D7
S2144001400C3A136843F4106313602032136843F08C
S21440015004031360243A136843F0020313607047A5
S2144001608E09002010040E4000E100E0108003409D
S21440017008B5054B98470549054B9847054B9847A2
S214400180054B188008BD00BF094E40001A671C4248
S214400190B94E4000595140008E09002008B5054B25
S2144001A01B6813F0040F1CBF034B1868034B98479B
S2144001B008BD00BF308003405880034071014000B6
S2144001C008B5120202F4706241F080611143024B9E
S2144001D09847002008BD00BF6900002038B5A1F14F
S2144001E00E03012B1AD9EFF3108472B6BFF35F8F5C
S2144001F000250C4B1D70120222F07F4222F0FF02B7
S21440020042F0B442C9B21143074B984744B9012261
S214400210044B1A70BFF35F8F62B638BD4FF0FF30A5
S21440022038BD00BF4C0200206D0000202DE9F04193
S21440023072B6BFF35F8F00223A4B1A70CB68002B22
S2144002404FD08C68164642604A68120202F44072EA
S21440025042F480550A7C120402F4FE022A434260AD
S214400260C6604D685DB10A78012DC4BF4E7846EA37
S2144002700222022D04DD897841EA022200E00022B3
S214400280C260012B03D103220260012735E0012220
S2144002900260002731E02946026A12F4807F23D1AB
S2144002A04D1E21B3012B04D1A7BBC0F80080674682
S2144002B030E012F0020F05D0026B2270013B013491
S2144002C0314600E02946002BE6D1036A13F0010FC1
S2144002D0FBD0036A0122134B1A70BFF35F8F62B6DE
S2144002E01CE04FF0010E19E04FF0050E16E04FF0FF
S2144002F0090E13E04FF0050E10E0026A12F4807EFD
S214400300F8D143F6972543F698264FF002084FF06B
S214400310010CC7E712F0020FBDD0CDE77046BDE82E
S214400320F08100BF4C020020024672B6BFF35F8FDA
S21440033000201D4B1870C86860B310B48C680B7CE6
S2144003401B0403F4FE035360136A13F4807F04D047
S21440035022E0136A13F4807F20D113F0040F03D0F9
S21440036023785363013801340028F2D1136A13F41A
S214400370807015D113F0040FF8D002231360136A6F
S21440038013F0010FFBD00122074B1A70BFF35F8FAB
S21440039062B606E001207047052002E0052000E036
S2144003A0052010BC704700BF4C02002008B50A4626
S2144003B001460248024B9847002008BD000A0E40FE
S2144003C0C101400008B5A0F58002C2F34F221121BA
S2144003D00348044B9847002818BF102008BD00BFAC
S2144003E0000A0E40DD0140002DE9F04F85B0009137
S2144003F00393A0F58003C3F34F2BC0F30807002AEE
S21440040049D09246DFF8A49009F5FE75C7F500730B
S21440041002931C46534528BF5446CDF804B00BF50E
S21440042000534FEA43283A46414648461C4EB0479A
S2144004302246009909EB0700B0473819029A121B6A
S21440044004EB080192B239444844B047A9F104038A
S214400450A8F1040253F8041F42F8041FAB42F9D136
S214400460039B2BB1019A03210E480F4B984704E09B
S214400470019A01210B480C4B984768B9009B2344CE
S21440048000930BF1010B1FFA8BFB0027BAEB040A13
S214400490BCD1384600E0002005B0BDE8F08F00BF74
S2144004A0E9514000000A0E40DD0140009C06002055
S2144004B02DE9F04120F4FF5020F01F0021F4FF51B9
S2144004C021F01F0101F5FF541F3402B1106003B143
S2144004D01C60A0F58004640AA4B20D4D0D44C5F31B
S2144004E04F25A5420ED9DFF830800827094E224610
S2144004F039464046B04740B91034A4B2AC42F6D371
S214400500BDE8F0810020BDE8F081BDE8F08100BF85
S214400510FF1FC0FFDD014000000A0E402DE9F041FC
S21440052020F4FF5020F01F0021F4FF5121F01F015E
S21440053001F5FF541F3402B1106003B11C60A0F5F2
S2144005408004640AA4B20D4D0D44C5F34F25A54260
S2144005500ED9DFF830800927094E224639464046F4
S214400560B04740B91034A4B2AC42F6D3BDE8F081EF
S2144005700020BDE8F081BDE8F08100BFFF1FC0FF4E
S214400580DD014000000A0E4038B50D4672B6BFF396
S2144005905F8F00222E4B1A702E492F4B98472F4BB9
S2144005A0984784B2BDB92E4A136843F4005313608B
S2144005B0A00960F06F00C0B22A4DA847A00000F026
S2144005C0FC00A8471620284B9847284A136843F44F
S2144005D00053136035E0012D17D1214A136843F4C8
S2144005E000531360A00960F05F00C0B21D4DA847DD
S2144005F0A00000F0FC00A84716201B4B98471B4A5B
S214400600136843F4005313601BE0022D144A13682A
S21440061043F4804313604FEA94100CBF60F06F00C1
S21440062060F05F00C0B20F4DA847A00000F0FC008D
S214400630A84716200C4B98470C4A136843F480434F
S21440064013600122024B1A70BFF35F8F62B638BD4B
S2144006504C0200209A99CC42B94E40005951400075
S21440066034100E40753F40008900002030100E4088
S21440067028B90C4A136843F00103136070470128F9
S21440068005D1084A136843F00203136070470228F6
S214400690044A13680CBF43F0040343F00803136096
S2144006A0704700BF34100E4028B90C4A136843F018
S2144006B0010313607047012805D1084A136843F0C8
S2144006C00203136070470228044A13680CBF43F0C5
S2144006D0040343F008031360704700BF30100E4019
S2144006E04D4B1B78834200F09680062800F28380AC
S2144006F0DFE800F0041527394B5D6F00474B1A685A
S21440070042F080521A601A6842F000521A601A6824
S21440071042F080421A6000223F4B1A707047404AAF
S214400720136843F0805313603C4B1A6842F0005203
S2144007301A601A6842F080421A600122364B1A70DC
S2144007407047364B1A6842F080521A6034490A683D
S21440075042F000520A601A6842F080421A60022252
S2144007602D4B1A7070472E4B1A6842F080521A6012
S2144007701A6842F000521A60284A136843F08043D1
S21440078013600322244B1A707047244B1A6842F0B9
S21440079080521A601A6842F000521A60204A136863
S2144007A043F08043136004221B4B1A7070471C4B67
S2144007B01A6842F080521A6018490A6842F000529D
S2144007C00A601A6842F080421A600522124B1A707C
S2144007D07047124A136843F080531360104B1A68F0
S2144007E042F000521A601A6842F080421A600622AE
S2144007F0094B1A7070470A4B1A6842F080521A60CA
S2144008001A6842F000521A601A6842F080421A6033
S2144008100722014B1A70704794000020340E0E4099
S214400820300E0E4010B586B0044608460A4B984730
S21440083000238DF800308DF801403C228DF81420BE
S2144008400293CDF80CD00223049301A90348044B2D
S214400850984706B010BD00BFE1064000008001404A
S2144008602903400030B587B005460C460846134B72
S214400870984740238DF800308DF801503C238DF882
S214400880143000230293CDF80CD00223049301A920
S2144008900B480C4B98470C4B33F8143008339BB23C
S2144008A0B3F5805F03D2084A22F8143003E00022F2
S2144008B0054B23F8142007B030BD00BFE1064000CA
S2144008C000800140290340009C08002038B50A4CAF
S2144008D0236843F00043236041F6E730074DA847BE
S2144008E0074A136843F0004313600648A847236846
S2144008F043F00043236038BD300E0E408900002090
S214400900340E0E400517010038B505460146AE20A8
S214400910264CA0472946D520A04729468020A047F8
S2144009202946D320A04729460020A04729464020F4
S214400930A04729468D20A04729461420A04729468F
S214400940A020A0472946DA20A04729460220A047F3
S21440095029468120A0472946CF20A0472946D920AE
S214400960A0472946F120A0472946DB20A047294634
S2144009704020A0472946A620A0472946AF20A047AA
S21440098029462020A04729460120A0472946222064
S214400990A04729460020A04729460320A0472946CD
S2144009A0A820A04729461F20A04738BD250840005C
S2144009B010B51A4A136843F080531360184B1968F1
S2144009C041F080511960116841F00051116019687A
S2144009D041F000511960116841F08041116019687A
S2144009E041F080411960116841F0004111601A6879
S2144009F042F000421A600B4B984700200A4CA04732
S214400A000120A0470220A0470320A0470420A0477B
S214400A100520A0470620A04710BD00BF000E0E4090
S214400A20100E0E40CD084000090940000E4B33F82A
S214400A301030013B9BB2B3F5805F13D22DE9F041F5
S214400A40054604464FF00008084F074E21464046EC
S214400A50B84736F81530013B9BB2B3F5805FF5D307
S214400A60BDE8F081704700BF9C0800206508400044
S214400A702DE9F04F85B00192202808D108240026A1
S214400A80A64D01993046A847013CFAD142E182463C
S214400A901C2941D1A24B98471FFA80FBBBF1000F9F
S214400AA000F038814FEA4B031FFA83F95C46002674
S214400AB0DFF87C82994F4B46D9469B46B5B2BAF191
S214400AC0230F00F0BB80BAF1620F00F09F800199BF
S214400AD00020B84729465046C04702902146504617
S214400AE0C047039005EB0B0189B25046C047054608
S214400AF001990298B84701990398B8470199284642
S214400B00B84702E001990020B84701360134A4B244
S214400B10B3B24B45D2D3FDE0162941D1814B98471D
S214400B201FFA80FBBBF1000F00F0F4804FEA4B0346
S214400B301FFA83F95C460026DFF8F881774F4B466C
S214400B40D9469B46B5B2BAF1230F00F08F80BAF172
S214400B50620F00F0A38001990020B847294650460E
S214400B60C047029021465046C047039005EB0B0114
S214400B7089B25046C047054601990298B847019940
S214400B800398B84701992846B84702E001990020E3
S214400B90B84701360134A4B2B3B29945D2D8B9E0C9
S214400BA0614B98471FFA80F9B9F1000F00F0B28008
S214400BB04D460024A046594E5C4FDDF804B0BAF1CD
S214400BC0230F00F08380BAF1620F00F091805946FF
S214400BD04046B04759464046B04721465046B8473B
S214400BE0019029465046B847029059460198B0476A
S214400BF059460298B04702E059464046B04701344D
S214400C00A4B20135ADB2A145D9D183E029466220D0
S214400C10C047029021466220C047039005EB0B0177
S214400C2089B26220C047054601990298B8470199A3
S214400C300398B84701992846B84763E729462320D2
S214400C40C047029021462320C047039005EB0B0186
S214400C5089B22320C047054601990298B8470199B2
S214400C600398B84701992846B8474BE729462320BA
S214400C70C047029021462320C047039005EB0B0156
S214400C8089B22320C047054601990298B847019982
S214400C900398B84701992846B84777E7294662201F
S214400CA0C047029021466220C047039005EB0B01E7
S214400CB089B26220C047054601990298B847019913
S214400CC00398B84701992846B8475FE759464046D3
S214400CD0B04721462320B847019029462320B847ED
S214400CE0029059460198B04759460298B04783E764
S214400CF059464046B04721466220B84701902946AB
S214400D006220B847029059460198B0475946029823
S214400D10B04771E705B0BDE8F08F00BF65084000FA
S214400D20C5254000C9254000CD254000212640006D
S214400D30D1254000ED2540002DE9F04F85B00192C9
S214400D40202808D10824FF26B54D01993046A847EB
S214400D50013CFAD18AE106461C2947D1B14B984757
S214400D601FFA80FABAF1000F00F080814FEA4A037A
S214400D709BB2029354460027DFF8B492DFF8A08275
S214400D80CDF80CA0BDB2232E00F0D580622E00F028
S214400D90B3800199FF20C04729463046C84783465E
S214400DA021463046C8478246029BE91889B23046FB
S214400DB0C84705466FEA0B00DDF804B05946C0B296
S214400DC0C0476FEA0A005946C0B2C047E843594692
S214400DD0C0B2C04702E00199FF20C0470137013446
S214400DE0A4B2BBB2039A9342CCD33FE1162947D173
S214400DF08D4B98471FFA80FABAF1000F00F0368103
S214400E004FEA4A039BB2029354460027DFF82492E7
S214400E10DFF80C82CDF80CA0BDB2232E00F0AA80DD
S214400E20622E00F0C6800199FF20C0472946304612
S214400E30C847834621463046C8478246029BE91843
S214400E4089B23046C84705466FEA0B00DDF804B065
S214400E505946C0B2C0476FEA0A005946C0B2C047BA
S214400E60E8435946C0B2C04702E00199FF20C04758
S214400E7001370134A4B2BBB2039A9A42CCD8F5E00B
S214400E806A4B98471FFA80FBBBF1000F00F0EE80DC
S214400E905D460024624FDFF8A081232E00F0A88034
S214400EA0622E00F0CB80DDF804A05146FF20B84704
S214400EB0CDF804A051460020B84721463046C047EA
S214400EC0824629463046C04781466FEA0A00DDF82A
S214400ED004A05146C0B2B8476FEA09005146C0B2B6
S214400EE0B84702E00199FF20B8470134A4B2013563
S214400EF0ADB2A345D1D1B9E029466220C847834662
S214400F0021466220C8478246029BE91889B2622081
S214400F10C84705466FEA0B00DDF804B05946C0B234
S214400F20C0476FEA0A005946C0B2C047E843594630
S214400F30C0B2C0474FE729462320C84783462146CC
S214400F402320C8478246029BE91889B22320C84717
S214400F5005466FEA0B00DDF804B05946C0B2C047FC
S214400F606FEA0A005946C0B2C047E8435946C0B285
S214400F70C04730E729462320C847834621462320DA
S214400F80C8478246029BE91889B22320C8470546CF
S214400F906FEA0B00DDF804B05946C0B2C0476FEAAE
S214400FA00A005946C0B2C047E8435946C0B2C04797
S214400FB05BE729466220C847834621466220C847E9
S214400FC08246029BE91889B26220C84705466FEA06
S214400FD00B00DDF804B05946C0B2C0476FEA0A00BD
S214400FE05946C0B2C047E8435946C0B2C0473CE73E
S214400FF001990020B84721462320C047824629460B
S2144010002320C04781466FEA0A00DDF804A0514617
S214401010C0B2B8476FEA09005146C0B2B84761E768
S21440102065084000C5254000C9254000CD25400044
S214401030D1254000ED2540002126400001990020A2
S214401040B84721466220C047824629466220C047AC
S21440105081466FEA0A00DDF804A05146C0B2B847A0
S2144010606FEA09005146C0B2B8473BE705B0BDE855
S214401070F08F00BF2DE9F04383B00C46154638B9D3
S2144010803020284EB0472A4621462020B04745E02B
S214401090034642F20F72904230D8B0F57A7F30D293
S2144010A0632831D809288CBF4FF0020C4FF0010C52
S2144010B02CE0AEFB0372D20802EB8207A3EB470399
S2144010C0303300F8013D93B20139002BF1D10029AD
S2144010D000DDFEE7BCF1000F20D06F46DFF844800D
S2144010E04FF020092A46214617F8010BC0472A46EA
S2144010F021464846C047BE42F4D10FE04FF0050CAB
S21440110004E04FF0040C01E04FF0030C0CF1FF310B
S2144011100DEB0C063046DFF810E0CAE703B0BDE83A
S214401120F08300BF710A4000CDCCCCCCF8B5074662
S214401130B14B1B88B3F5207F09D20026AF4DAE4C8D
S21440114031463046A8472388B3F5207FF8D30B2F87
S21440115014D9172F14D9232F14D92F2F14D93B2F36
S21440116014D9472F14D9532F14D95F2F14D96B2F66
S21440117014D9782F34BF09240A2410E000240EE046
S21440118001240CE002240AE0032408E0042406E0DC
S214401190052404E0062402E0072400E00824A4B264
S2144011A0A4EB840307EB83039BB213F0010F40F0DC
S2144011B0D580934AA2FB0312D20802EB4202A3EB6D
S2144011C0820292B2E2B91C2120208E4DA84700220E
S2144011D01C212020A84700221C212020A8470022AE
S2144011E01C212020A84700221C212020A84700229E
S2144011F01C212020A84700221C214320A8479CE110
S214401200814AA2FB0312D20802EB8202A3EB4202FF
S21440121092B2E2B91C2141207A4DA84700221C21F7
S2144012202020A847002212212320A84700221C2164
S2144012302F20A84700221C214220A84700221C211C
S2144012402020A847002212216220A84775E113F00B
S214401250070F1DD100221C2147206A4DA8470022B7
S2144012601C212020A847002212212320A847002224
S2144012701C212F20A84700221C214120A8470022DD
S2144012801C212020A847002212216220A84754E1B2
S2144012905B4AA2FB0312920802EB4202A3EB420215
S2144012A092B2E2B91C214620564DA84700221C2186
S2144012B02020A847002212212320A84700221C21D4
S2144012C02F20A84700221C214720A84700221C2187
S2144012D02020A847002212216220A8472DE113F0C3
S2144012E0030F1DD100221C212020464DA847002276
S2144012F01C212020A84700221C212020A84700228D
S2144013001C212020A84700221C212020A84700227C
S2144013101C212020A84700221C214520A8470CE17C
S21440132000221C212020374DA84700221C212020C7
S214401330A84700221C212020A84700221C2120204C
S214401340A84700221C212020A84700221C2120203C
S214401350A84700221C214420A847EEE02B4AA2FBC7
S2144013600312D20802EB820102EB41029A1A92B2B1
S214401370E2B91C212020234DA84700221C21202012
S214401380A84700221C212020A84700221C212020FC
S214401390A84700221C212020A84700221C212020EC
S2144013A0A84700221C214220A847C6E0184AA2FBB4
S2144013B00312520802EBC2029A1A92B252BB1C2186
S2144013C02020104DA84700221C212020A84700229C
S2144013D01C212020A84700221C212020A8470022AC
S2144013E01C212020A84700221C212020A84700229C
S2144013F01C214120A847A0E09C080020650840002A
S214401400ABAAAAAA710A4000CDCCCCCCA38B2EBAEC
S214401410398EE3385248A3FB00015A1A01EB5202B8
S2144014209208C2EBC2029A1A92B2E2B91C2120205C
S2144014304C4DA84700221C212020A84700221C21F2
S2144014402020A84700221C212020A84700221C213B
S2144014502020A84700221C212020A84700221C212B
S2144014604720A84769E0404AA2FB0312920802EBD5
S21440147082029A1A92B2E2B91C212020394DA8471E
S21440148000221C212020A84700221C212020A847FB
S21440149000221C212020A84700221C212020A847EB
S2144014A000221C212020A84700221C214620A847B5
S2144014B043E02E4AA2FB0312520802EB42029B1A5A
S2144014C09BB2EBB900221C214420264DA84700229F
S2144014D01C212020A847002212212320A8470022B2
S2144014E01C212F20A84700221C214520A847002267
S2144014F01C212020A847002212216220A8471CE079
S21440150000221C214320174DA84700221C212020E2
S214401510A847002212212320A84700221C212F2062
S214401520A84700221C214420A84700221C21202036
S214401530A847002212216220A84700221C21202012
S214401540084DA84700221C212020A8470022BD2184
S2144015502046074B98470020064B9847F8BD00BFEB
S21440156025499224710A4000CDCCCCCCABAAAAAA7D
S214401570751040002D0A400038B5054601221C2152
S2144015804220134CA04701221C212020A0470122C4
S2144015901C215020A04701221C212020A0470122C8
S2144015A01C214D20A04701221C212020A0470122BB
S2144015B01C213A20A04701221C212020A0470122BE
S2144015C01C212846034B98470120034B984738BDBB
S2144015D0710A4000751040002D0A400038B5054697
S2144015E0022216215220354CA04702221C212020E0
S2144015F0A047022216214520A04702221C21202077
S214401600A047022216215320A04702221C21202058
S214401610A047022216213A20A04702221C21202061
S214401620A047022216213120A04702221C2120205A
S214401630A047022216212F20A04702221C2120204C
S214401640A047062D09D10222162104201C4B98479C
S214401650022216217420A0472BE00C2D0AD102222C
S21440166016210820164B9847022216217420134B49
S21440167098471EE0182D0AD1022216211020104B42
S21440168098470222162174200C4B984711E0302DC3
S2144016900AD1022216212020094B98470222162101
S2144016A07420064B984704E0022216212846044B35
S2144016B098470220034B984738BD00BF710A400048
S2144016C0751040002D0A400010B502221C21532000
S2144016D0144CA04702221C212020A04702221C2195
S2144016E04120A04702221C212020A04702221C2184
S2144016F05620A04702221C212020A04702221C215F
S2144017004520A04702221C212020A04702221C215F
S2144017104420A04702221C212020A0470220024B42
S214401720984710BD710A40002D0A400038B505465E
S21440173003221C2150200D4CA04703221C2141208F
S214401740A04703221C214720A04703221C214520F6
S214401750A04703221C213A20A04703221C212846EA
S214401760034B98470320034B984738BD710A400007
S214401770751040002D0A400038B5054603221C214E
S2144017804C200D4CA04703221C214F20A04703228B
S2144017901C214F20A04703221C215020A047032293
S2144017A01C213A20A04703221C212846034B984779
S2144017B00320034B984738BD710A4000751040001F
S2144017C02D0A400038B5054604221C2150200D4CF9
S2144017D0A04704221C215420A04704221C2152204A
S2144017E0A04704221C214E20A04704221C213A2058
S2144017F0A04704221C212846034B98470420034B4D
S214401800984738BD710A4000751040002D0A4000C8
S21440181070B506460D46042216214320304CA0479C
S214401820042216212020A047042216214C20A0473F
S214401830042216212020A047042216215220A04729
S214401840042216213A20A047042216213046254B72
S2144018509847042216212020A04704221621202043
S214401860A047D5B10422162120201F4CA0470422B1
S21440187016215920A047042216212020A0470422E2
S21440188016212F20164CA047042216212020A047C0
S214401890042216214E20A0471DE0042216212020B7
S2144018A00F4CA047042216215920A0470422162197
S2144018B02020A047042216212F20A04704221621CC
S2144018C02020094CA047042216214E20A04704227F
S2144018D016212020A0470420044B984770BD00BF27
S2144018E0710A400075104000390D40002D0A400036
S2144018F0F8B505460F460522162130201D4CA04758
S214401900052216212020A047052212213120A0477B
S214401910052212213A20A047052212212846164BBE
S2144019209847164B5B89B3F5F06F09D20526144DE0
S214401930124C31460020A8476389B3F5F06FF8D3C0
S2144019400522162130200B4CA047052216212020C8
S214401950A047052212213220A047052212213A2014
S214401960A047052212213846034B98470520054BD1
S2144019709847F8BD710A4000751040009C0800204A
S214401980650840002D0A4000F8B505460F46062279
S214401990162130201D4CA047062216212020A047A5
S2144019A0062212213320A047062212213A20A047C1
S2144019B0062212212846164B9847164B9B89B3F5AC
S2144019C0F06F09D20626144D124C31460020A84727
S2144019D0A389B3F5F06FF8D30622162130200B4CBE
S2144019E0A047062216212020A04706221221342096
S2144019F0A047062212213A20A04706221221384646
S214401A00034B98470620054B9847F8BD710A40009F
S214401A10751040009C080020650840002D0A4000D4
S214401A20F8B51546214B1F681B68214C22780B429F
S214401A3014BF0123002343EA42021E490E780742A0
S214401A4014BF0123002343EA460303F00F030B7041
S214401A5002F00F022270092B12D1032A24D1284605
S214401A60154B9847154B1A78154B1B7803EB02130A
S214401A7005EB0315134B13F81500134B9847F8BDA9
S214401A80032B11D1092A0FD12846104B98470B4BF0
S214401A901A780B4B1B7803EB021305EB0315094B27
S214401AA013F81500084B9847F8BD00BF3C120E408F
S214401AB0A6090020980900202D4140005809002022
S214401AC084090020A80900202D11400069414000EB
S214401AD070B40023A84A1370A84A1370A84A136823
S214401AE043F400531360A74D2B6843F001032B606B
S214401AF0A54C236843F001032360A448036843F0E1
S214401B0001030360A2490B6843F001030B6002F631
S214401B107462136843F0010313609E4B1E6846F0E0
S214401B2001061E602E6846F002062E60266846F0C5
S214401B3002062660066846F0020606600E6846F014
S214401B4002060E60166846F0020616601E6846F0EC
S214401B5002061E602E6846F004062E60266846F092
S214401B6004062660066846F0040606600E6846F0E0
S214401B7004060E60166846F0040616601E6846F0B8
S214401B8004061E602E6846F008062E60266846F05C
S214401B9008062660066846F0080606600E6846F0A8
S214401BA008060E60166846F0080616601E6846F080
S214401BB008061E602E6846F010062E60266846F020
S214401BC010062660066846F0100606600E6846F068
S214401BD010060E60166846F0100616601E6846F040
S214401BE010061E602E6846F020062E60266846F0D8
S214401BF020062660066846F0200606600E6846F018
S214401C0020060E60166846F0200616601E6846F0EF
S214401C1020061E602E6846F040062E60266846F077
S214401C2040062660066846F0400606600E6846F0A7
S214401C3040060E60166846F0400616601E6846F07F
S214401C4040061E602E6846F080062E60266846F0E7
S214401C5080062660066846F0800606600E6846F0F7
S214401C6080060E60166846F0800616601E6846F0CF
S214401C7080061E602E6846F480762E60266846F4FF
S214401C8080762660066846F4807606600E6846F4DF
S214401C9080760E60166846F4807616601E6846F4B7
S214401CA080761E602E6846F400762E60266846F4DF
S214401CB000762660066846F4007606600E6846F4AF
S214401CC000760E60166846F4007616601E6846F487
S214401CD000761E602E6846F480662E60266846F4BF
S214401CE080662660066846F4806606600E6846F49F
S214401CF080660E60166846F4806616601E6846F477
S214401D0080661E602E6846F400662E60266846F49E
S214401D1000662660066846F4006606600E6846F46E
S214401D2000660E60166846F4006616601E6846F446
S214401D3000661E602E6846F480562E60266846F47E
S214401D4080562660066846F4805606600E6846F45E
S214401D5080560E60166846F4805616601E6846F436
S214401D6080561E602E6846F400562E60266846F45E
S214401D700056266006680FE098090020A609002055
S214401D8010040E4000120E4014120E4090120E40E8
S214401D9064120E4020120E4046F4005606600E684E
S214401DA046F400560E60166846F4005616601E68E6
S214401DB046F400561E602E6846F480462E6026681E
S214401DC046F480462660066846F4804606600E68FE
S214401DD046F480460E60166846F4804616601E68D6
S214401DE046F480461E602E6846F400462E602668FE
S214401DF046F400462660066846F4004606600E68CE
S214401E0046F400460E60166846F4004616601E68A5
S214401E1046F400461E602E6846F480362E602668DD
S214401E2046F480362660066846F4803606600E68BD
S214401E3046F480360E60166846F4803616601E6895
S214401E4046F480361E602E6846F400362E602668BD
S214401E5046F400362660066846F4003606600E688D
S214401E6046F400360E60166846F4003616601E6865
S214401E7046F400361E602E6846F480262E6026689D
S214401E8046F480262660066846F4802606600E687D
S214401E9046F480260E60166846F4802616601E6855
S214401EA046F480261E602E6846F400262E6026687D
S214401EB046F400262660066846F4002606600E684D
S214401EC046F400260E60166846F4002616601E6825
S214401ED046F400261E602E6846F480162E6026685D
S214401EE046F480162660066846F4801606600E683D
S214401EF046F480160E60166846F4801616601E6815
S214401F0046F480161E602E6846F400162E6026683C
S214401F1046F400162660066846F4001606600E680C
S214401F2046F400160E60166846F4001616601E68E4
S214401F3046F400161E602E6846F480062E6026681C
S214401F4046F480062660066846F4800606600E68FC
S214401F5046F480060E60166846F4800616601E68D4
S214401F6046F480061E602E6846F400062E602668FC
S214401F7046F400062660066846F4000606600E68CC
S214401F8046F400060E60166846F4000616601E68A4
S214401F9046F400061E602E6846F080762E60266860
S214401FA046F080762660066846F0807606600E68C4
S214401FB046F080760E60166846F0807616601E689C
S214401FC046F080761E602E6846F000762E602668C4
S214401FD046F000762660066846F0007606600E6894
S214401FE046F000760E60166846F0007616601E686C
S214401FF046F000761E602E6846F080662E602668A4
S21440200046F080662660066846F0806606600E6883
S21440201046F080660E60166846F0806616601E685B
S21440202046F080661E602E6846F000662E60266883
S21440203046F000662660066846F0006606600E6853
S21440204046F000660E60166846F0006616601E682B
S21440205046F000661E602E6846F080562E60266863
S21440206046F080562660066846F0805606600E6843
S21440207046F080560E60166846F0805616601E681B
S21440208046F080561E602E6846F000562E60266843
S21440209046F000562660066846F0005606600E6813
S2144020A046F000560E60166846F0005616601E68EB
S2144020B046F000561E602E6846F080462E60266823
S2144020C046F080462660066846F0804606600E6803
S2144020D046F080460E60166846F0804616601E68DB
S2144020E046F080461E602E6846F000462E60256804
S2144020F045F000452560046844F0004404600868E4
S21440210040F000400860116841F0004111601A68D4
S21440211042F000421A602C331B68854B1A6842F026
S21440212001021A60834A116841F001011160196882
S21440213041F002011960116841F00201116019680E
S21440214041F004011960126842F0040294331A60A8
S214402150774A116841F008011160196841F008019A
S2144021601960116841F010011160196841F01001C2
S2144021701960116841F020011160196841F0200192
S2144021801960116841F040011160196841F0400142
S2144021901960116841F080011160196841F08001B2
S2144021A01960116841F480711160196841F48071BA
S2144021B01960116841F400711160196841F40071AA
S2144021C01960116841F480611160196841F48061BA
S2144021D01960116841F400611160196841F40061AA
S2144021E01960116841F480511160196841F48051BA
S2144021F01960116841F400511160196841F40051AA
S2144022001960116841F480411160196841F48041B9
S2144022101960116841F400411160196841F40041A9
S2144022201960116841F480311160196841F48031B9
S2144022301960116841F400311160196841F40031A9
S2144022401960116841F480211160196841F48021B9
S2144022501960116841F400211160196841F40021A9
S2144022601960116841F480111160196841F48011B9
S2144022701960116841F400111160196841F40011A9
S2144022801960116841F480011160196841F48001B9
S2144022901960116841F400011160196841F40001A9
S2144022A01960116841F080711160196841F08071C1
S2144022B01960116841F000711160196841F00071B1
S2144022C01960116841F080611160196841F08061C1
S2144022D01960116841F000611160196841F00061B1
S2144022E01960116841F080511160196841F08051C1
S2144022F01960116841F000511160196841F00051B1
S2144023001960116841F080411160196841F08041C0
S2144023101960116841F0004111601A6842F00042AD
S2144023201A604FF40052044B1A6070BC704700BFEE
S21440233040120E40D4120E4000E100E008B5564B65
S2144023401B6813F0030F05D0002202210120534BD7
S214402350984708BD13F00C0F05D001220821042031
S2144023604E4B984708BD13F0300F05D0022220216F
S21440237010204A4B984708BD13F0C00F05D00322E3
S21440238080214020454B984708BD13F4407F07D036
S21440239004224FF400714FF48070404B984708BDBC
S2144023A013F4406F07D005224FF400614FF480606D
S2144023B03A4B984708BD13F4405F07D006224FF4C7
S2144023C000514FF48050354B984708BD13F4404FAA
S2144023D007D007224FF400414FF480402F4B9847D8
S2144023E008BD13F4403F07D008224FF400314FF4A5
S2144023F080302A4B984708BD13F4402F07D0092257
S2144024004FF400214FF48020244B984708BD13F426
S214402410401F07D00A224FF400114FF480101F4B84
S214402420984708BD13F4400F07D00B224FF4000125
S2144024304FF48000194B984708BD13F0407F07D0F3
S2144024400C224FF000714FF08070144B984708BD37
S21440245013F0406F07D00D224FF000614FF08060C0
S2144024600E4B984708BD13F0405F07D00E224FF042
S21440247000514FF08050094B984708BD13F0804FED
S21440248001D1002B06DA0F224FF000414FF080407A
S214402490024B984708BD00BF4C120E40211A400020
S2144024A02DE9F041054606210020294B9847294C46
S2144024B0206005F5FF467F3600231A4631462846FB
S2144024C0254FB8472060254FDFF89CE007F5005CB5
S2144024D016E012F8011C196012F8021B5960083306
S2144024E08342F6D120340346BC4203D003F1800039
S2144024F02246EEE707F500770EF5006E674503D0F7
S214402500A7F500747346F1E74FF40054144B1C6073
S2144025102846144B98470F4F386000234FF400422C
S21440252011492846DFF84880C04738602346013BBB
S214402530FDD14FF400520A4B1A6000231A4631462A
S21440254028460A4CA047034B1860BDE8F08100BF00
S214402550AD034000B82900201D054000A90B00200F
S214402560C0290020C5034000C4290020B104400013
S214402570E9034000F0B400F60805114F00F50846A0
S214402580083617E053F8081C117053F8041C5170B5
S214402590083302328342F5D120340346854203D0C5
S2144025A003F180002246EDE705F5006507F5007764
S2144025B0AE4203D0A5F500633C46F1E7F0BC704759
S2144025C0A8090020102070470C2070470B20704749
S2144025D0233880B2034B03EB80004288024B1944F9
S2144025E0885C7047B4644000945D400082B02338F5
S2144025F080B2ADF80600BDF806309AB2064B03EB43
S21440260082035B88ADF80430BDF80430034A12FA02
S21440261083F3585C02B0704760594000085440004D
S21440262082B0233880B2ADF80600BDF806309AB2C4
S214402630064B03EB82035B88ADF80430BDF80430EC
S214402640034A12FA83F3585C02B07047FC654000B8
S214402650A85A40004AF6FF720A4B1A8041F6FF72AB
S214402660094B1A800023094A1380094A1380094AF5
S21440267013804FF2FF71084A1180084A1370084AC7
S214402680137070475A0900207809002090090020EE
S2144026905C0900207A0900208C0900207D09002072
S2144026A085090020174B1B7863B94FF40043164A40
S2144026B01380164A13800022154B1A800122114BB4
S2144026C01A707047012B0CD147F6FF720E4B1A80DA
S2144026D000230E4A13800E4A13800222094B1A70BA
S2144026E07047022B0CD14AF6FF72074B1A8041F610
S2144026F0FF72064B1A800023054A1380014A137066
S214402700704700BF7D0900205A0900207809002044
S21440271090090020184B1B7873B90022174B1A807B
S2144027204FF4C042164B1A804FF48052154B1A8015
S2144027300122114B1A707047012B0ED14FF40052F4
S2144027400E4B1A8000220E4B1A804FF4A0420D4BBF
S2144027501A800222084B1A707047022B0AD10023B7
S214402760064A1380064A13804FF2FF71054A1180CD
S214402770014A1370704700BF850900205C0900209D
S2144027807A0900208C090020F8B5064D0024064F33
S214402790064EE1B23878B04745F8040F0134102CA5
S2144027A0F7D1F8BDA808002084090020B1404000B9
S2144027B0F8B572B6BFF35F8F904F00233B709420FE
S2144027C08F4CA0475F20A047FF20A047FF20A04790
S2144027D08C4DA888000AA0472879A0476888000A38
S2144027E0A047A878A0472888000AA0472878A0478E
S2144027F0854EB088000AA0473079A0477088000A06
S214402800A047B078A0473088000AA0473078A04755
S2144028107089000AA047B07AA0473089000AA047CE
S214402820307AA047F088000AA047B079A047688968
S214402830000AA047A87AA0472889000AA047287A15
S214402840A047E888000AA047A879A0479420A04758
S2144028505F20A047FF20A047FF20A047288A000A05
S214402860A047287CA047E889000AA047A87BA04745
S214402870A889000AA047287BA047308A000AA047BC
S214402880307CA047F089000AA047B07BA047B089BB
S214402890000AA047307BA047F08A000AA047B07DD8
S2144028A0A047B08A000AA047307DA047708A000A39
S2144028B0A047B07CA047E88A000AA047A87DA0476A
S2144028C0A88A000AA047287DA047688A000AA04731
S2144028D0A87CA0479420A0475F20A047FF20A047A1
S2144028E0FF20A047494DA888000AA0472879A0475E
S2144028F06888000AA047A878A0472888000AA0470A
S2144029002878A047424EB088000AA0473079A047B2
S2144029107088000AA047B078A0473088000AA047D1
S2144029203078A0477089000AA047B07AA04730891F
S214402930000AA047307AA047F088000AA047B0793E
S214402940A0476889000AA047A87AA0472889000AB5
S214402950A047287AA047E888000AA047A879A04759
S2144029609420A0475F20A047FF20A047FF20A04715
S214402970288A000AA047287CA047E889000AA04782
S214402980A87BA047A889000AA047287BA047308A92
S214402990000AA047307CA047F089000AA047B07BD9
S2144029A0A047B089000AA047307BA047F08A000ABB
S2144029B0A047B07DA047B08A000AA047307DA04718
S2144029C0708A000AA047B07CA047E88A000AA04761
S2144029D0A87DA047A88A000AA047287DA047688A05
S2144029E0000AA047A87CA04743F2CE70094B984700
S2144029F001233B70BFF35F8F62B6F8BD4C020020E8
S214402A00753F4000EC0800201C0900200409002007
S214402A1034090020890000202DE9F04F83B0064697
S214402A208A4B98478A4BB3F800908A4BB3F800809D
S214402A30894BB3F800C089490022DFF860E2884D30
S214402A4088481446DFF848A201961746032A11D84C
S214402A5002EB4203DBB255F82270012F06D1A1F8F3
S214402A600090A1F80280A1F804C06FE00C804C8072
S214402A708C806BE0131F032B22D87B4B134003D56F
S214402A80013B63F00303013303EB4303DBB255F82A
S214402A902770012F0AD1754F27F813905F1C734E8D
S214402AA026F817809F1C26F817C04FE06F4E26F872
S214402AB013405F1C26F817409F1C26F8174045E039
S214402AC0A2F10803032B1FD8694B134003D5013BE3
S214402AD063F00703013303EB4303DBB255F827707B
S214402AE0012F08D12AF813905F1C2AF817809F1CE4
S214402AF02AF817C02AE02AF813405F1C2AF8174025
S214402B009F1C2AF8174021E08EFB02634FEAE27BC7
S214402B10CBEB630303EB4303A2EB830303EB4303D9
S214402B20DBB255F82270012F08D120F813905F1CB5
S214402B3020F817809F1C20F817C007E020F81340A5
S214402B405F1C20F817409F1C20F8174001320631C2
S214402B50102A7FF47AAF019E464A1370464B1A7885
S214402B60464B1B789A426CD1032E14D806EB460689
S214402B70F3B2434A1370394A4249098822F813107F
S214402B80591C4148008822F8110002333F49098801
S214402B9022F8131055E0331FDBB2032B15D806F08E
S214402BA0030606EB4606364B1E70304B354A1288F7
S214402BB023F81620721C3449098823F8121002366E
S214402BC0324A128823F816203BE0A6F10803DBB20F
S214402BD0032B15D806F0070606EB4606284B1E7054
S214402BE02B4B284A128823F81620721C264909883F
S214402BF023F812100236254A128823F8162020E0C1
S214402C00A6F10C03DBB2032B1BD8224BA3FB0623F7
S214402C10DB0803EB4303A6EB830606EB4606F3B25C
S214402C20174A13700F4A1749098822F81310591C7F
S214402C301548008822F8110002331449098822F802
S214402C401310154B984703B0BDE8F08F8927400016
S214402C505C0900207A0900208C090020EC0800203E
S214402C60AC0800203409002003000080040900203E
S214402C7007000080C4A90020920900208409002093
S214402C80C5A900205A090020780900209009002094
S214402C901C090020ABAAAAAAB1274000ABAAAA2AC0
S214402CA008B5EF2931D006D8BF293ED0DF2934D029
S214402CB07F2949D141E0FB2917D002D8F7291CD0FB
S214402CC042E0FD2909D0FE293ED14F4AD36B013B55
S214402CD0002BB8BF5B42D36336E04B4A936B013B55
S214402CE0002BB8BF5B4293632EE0474A536B013BD1
S214402CF0002BB8BF5B42536326E0434A136B013B4D
S214402D00002BB8BF5B4213631EE03F4AD36A013BC9
S214402D10002BB8BF5B42D36216E03B4A936A013B46
S214402D20002BB8BF5B4293620EE0374A536A013BC2
S214402D30002BB8BF5B42536206E0334A136A013B3E
S214402D40002BB8BF5B421362EF2831D006D8BF28AD
S214402D503ED0DF2834D07F2849D141E0FB2817D029
S214402D6002D8F7281CD042E0FD2809D0FE283ED1E4
S214402D70254AD369013B002BB8BF5B42D36136E09E
S214402D80214A9369013B002BB8BF5B4293612EE01A
S214402D901D4A5369013B002BB8BF5B42536126E096
S214402DA0194A1369013B002BB8BF5B4213611EE012
S214402DB0154AD368013B002BB8BF5B42D36016E090
S214402DC0114A9368013B002BB8BF5B4293600EE00C
S214402DD00D4A5368013B002BB8BF5B42536006E088
S214402DE0094A1368013B002BB8BF5B421360064993
S214402DF0064B1878064B9847064B9847064B18786C
S214402E00064B984708BD00BFAC0800208409002048
S214402E10D1404000F93D40007C090020192A40007E
S214402E20B0B1012816D0022816D0032816D00428A0
S214402E3016D0052816D0062816D0072816D00828FB
S214402E4016D0092816D00A280CBF4020012070470B
S214402E5001207047022070470420704706207047C4
S214402E60082070470C207047102070471820704785
S214402E702020704730207047034B1B68092B02DC2C
S214402E800133014A1360704764090020034B1B68F6
S214402E90002B02DD013B014A1360704764090020A5
S214402EA0054B1A88054B1B78D118B1F57A7F01DAA5
S214402EB0014A1180704700BF9A09002096090020F9
S214402EC0044B1B88044A1278991A132901DD014ADB
S214402ED0118070479A090020960900200C4B1B78F9
S214402EE0012B03D105220A4B1A707047052B03D1DC
S214402EF00A22074B1A7070470A2B03D11422044B40
S214402F001A707047142B02D10122014B1A70704779
S214402F1096090020034B1B780E2B02D80133014A3A
S214402F201370704784090020034B1B7813B1013B94
S214402F30014A1370704700BF84090020034B1B787A
S214402F400E2B02D80133014A1370704758090020EF
S214402F50034B1B7813B1013B014A1370704700BF07
S214402F6058090020034B1B5C0E2B02D80133014A44
S214402F701354704774090020034B1B5C13B1013B8C
S214402F80014A1354704700BF74090020044B1A7856
S214402F90044B9B5C0E2B02D8013302498B5470477E
S214402FA058090020A8290020044B1A78044B9B5C43
S214402FB013B1013B02498B54704700BF58090020AB
S214402FC0A8290020F8B58D4B1F681D688C4C2378C7
S214402FD00D4214BF0121002141EA4301894D2E785C
S214402FE0074214BF0123002343EA460303F00F03BE
S214402FF02B7001F00F012170092B40F0ED80032962
S21440300040F018824AB9804B9847804C2088804BC5
S214403010984720887F4B9847F8BD012A0CD17E4BB5
S21440302098477A4B18887A4B98477C4B18787C4B55
S21440303098477C4B9847F8BD022A1CD17A4B1B78A0
S2144030406BB90022794B1A70794B9847794B1878B0
S214403050794B9847794B1878794B9847F8BD012BB0
S21440306040F0E881774B9847774B1B78774AD05C9F
S214403070774B9847F8BD032A59D1764B1B78012BDE
S21440308007D10021744B19706F4B1878734B9847D3
S214403090F8BD0022654B1A70714B9847654B1878FF
S2144030A0654B9847684B18786E4B98475E4B1B7835
S2144030B0012B05D1644B1B78644AD05C644B98471F
S2144030C0614B1B78684A12789A4208D1674B187849
S2144030D0674B1870594B1870594B9847F8BD624A61
S2144030E052789A4208D1614B5878614B1870534BCE
S2144030F01870534B9847F8BD5B4A92789A4208D16D
S2144031005A4B98785A4B18704C4B18704C4B984703
S214403110F8BD554AD2789A4240F08C81534BD878C5
S214403120534B1870454B1870454B9847F8BD042ACA
S21440313012D100204F4B98474B4C617820784E4B2D
S21440314098472278404B1B789A4240F07381484B10
S2144031501A78464B1A70F8BD052A12D10120454B05
S2144031609847414C61782078434B98476278364B75
S2144031701B789A4240F05E813D4B1A783B4B5A7022
S214403180F8BD062A12D102203A4B9847364CE178D1
S214403190A0783A4B9847A2782B4B1B789A4240F03F
S2144031A04981334B1A78314B9A70F8BD072A40F064
S2144031B0418103202F4B98472B4CE178A0782F4B2A
S2144031C09847E278204B1B789A4240F03381284B50
S2144031D01A78264BDA70F8BD032B40F02B8109296C
S2144031E040F02881002A4DD1254B9847074C20882F
S2144031F0074B98472088074B9847F8BD3C0E0E4033
S214403200A609002098090020A12E40009A09002017
S214403210A142400079154000792E40006409002004
S214403220212E4000DD154000A50900209D09002004
S214403230152F40007C090020192A400084090020F0
S2144032402D1740008D2F400058090020A829002047
S2144032507917400095090020A40900201118400065
S2144032603D2F4000C5174000740900206C0900201F
S21440327092090020652F4000F1184000891940004F
S214403280C12E4000012A0CD16B4B98476B4B1888D7
S2144032906B4B98476B4B18786B4B98476B4B9847E4
S2144032A0F8BD022A1CD16A4B1B786BB90022694BC9
S2144032B01A70694B9847694B1878694B9847694B21
S2144032C01878694B9847F8BD012B40F0B380674BA0
S2144032D09847674B1B78674AD05C674B9847F8BD62
S2144032E0032A58D1654B1B78012B07D10121644B2B
S2144032F019705F4B1878634B9847F8BD0022554BC2
S2144033001A70614B9847554B1878554B9847584B11
S21440331018785E4B98474E4B1B78012B05D1544B83
S2144033201B78544AD05C544B9847514B1B78584AAC
S21440333012789A4208D1574B1878574B1870494B19
S2144033401870494B9847F8BD514A52789A4208D16E
S214403350504B5878504B1870424B1870424B984719
S214403360F8BD4B4A92789A4208D14A4B98784A4BD5
S21440337018703C4B18703C4B9847F8BD444AD2787E
S2144033809A4257D1434BD878434B1870354B1870F8
S214403390354B9847F8BD042A11D100203F4B98473B
S2144033A03B4C617820783E4B98472278304B1B78D0
S2144033B09A423FD1384B1A78364B1A70F8BD052AD8
S2144033C011D10120354B9847314C61782078344BE9
S2144033D098476278264B1B789A422BD12E4B1A7808
S2144033E02C4B5A70F8BD062A11D102202B4B984719
S2144033F0274CE178A0782B4B9847A2781C4B1B783B
S2144034009A4217D1244B1A78224B9A70F8BD072A55
S21440341010D10320214B98471D4CE178A078214BD2
S2144034209847E278124B1B789A4203D11A4B1A7887
S214403430184BDA70F8BD00BF8D2E40009A09002068
S214403440A142400064090020212E4000DD154000C6
S214403450A50900209D090020292F40007C09002056
S214403460192A4000840900202D174000A92F40004B
S21440347058090020A8290020791740009509002007
S214403480A409002011184000512F4000C5174000E5
S214403490740900206C09002092090020792F400012
S2144034A0F118400089194000024A137883F001035E
S2144034B0137070479D09002030B40E4B1A780E4B9F
S2144034C003EB4220013203EB42250EE010F81320B6
S2144034D002F10C016C299CBF0A4604F81320013304
S2144034E0102BF3D12030A84202D000230446EDE74B
S2144034F030BC704758090020A809002030B40E4B55
S2144035001A780E4B03EB4220013203EB42250EE0C5
S21440351010F81320A2F10C016C299CBF0A4604F84F
S21440352013200133102BF3D12030A84202D00023C1
S2144035300446EDE730BC704758090020A809002033
S21440354008B50020064B1870064B1870064B1870CE
S214403550064B187058709870D870054B984708BD41
S21440356092090020840900207C0900206C09002074
S2144035702D17400010B50446EF2957D006D8BF296E
S2144035806AD0DF295DD07F297BD170E0FB2917D038
S21440359002D8F7292BD074E0FD2904D0FE2970D13B
S2144035A04C4B98476DE000204B4B98474B4A13686E
S2144035B043F0050313604FF49200494B984760E090
S2144035C0484A1378013B002BB8BF5B42DBB213700E
S2144035D023B9454B1878454B984752E0012B50D1BC
S2144035E0434B1B78434AD05C434B984749E0434B98
S2144035F01B7843B900213E4B1878414B984701222F
S2144036003E4B1A703DE0012B3BD13E4B1B781BB125
S214403610374B18783C4B984700233A4A1370374A42
S2144036201370334B1878394B98472AE0384A13784A
S214403630013B002BB8BF5B4213700020354B9847C8
S2144036401FE0334A5378013B002BB8BF5B425370B0
S2144036500120304B984714E02D4A9378013B002BCD
S214403660B8BF5B42937002202A4B984709E0284A2D
S214403670D378013B002BB8BF5B42D3700320254B69
S2144036809847EF2C1AD006D8BF2C1DD0DF2C18D068
S2144036907F2C1ED11BE0FD2C07D0FE2C02D0F72C31
S2144036A017D105E01C4B984710BD1C4B984710BDE2
S2144036B01B4A137883F00103137010BD194B9847CB
S2144036C010BD194B984710BD184B984710BD184B66
S2144036D0984710BDDD2E4000C9164000400001400E
S2144036E0A1244000A5090020840900202D17400091
S2144036F058090020A8290020791740009509002085
S21440370011184000A4090020F9404000C5174000A9
S21440371080090020A906400015274000A526400045
S2144037209709002041354000A9344000FD34400050
S214403730B934400070B47822A84B1A800122A84BB6
S2144037401A700023A74A1370A74A1370A74A13702B
S214403750A74A1370A74A1370A74A1370A74A137054
S214403760A74A1370A74A1370A74A136843F4006326
S2144037701360A64D2B6843F004032B60A44C2368CB
S21440378043F004032360A348036843F00403036044
S214403790A14B1A6842F004021A60A0490A6842F433
S2144037A080220A6020310A6842F480220A602A6831
S2144037B042F001022A60226842F00102226002685A
S2144037C042F0010202601A6842F001021A60543167
S2144037D00A6842F001020A60914A166846F00106FD
S2144037E016602E6846F002062E60266846F00206F0
S2144037F02660066846F0020606601E6846F0020628
S2144038001E600E6846F002060E60166846F0020617
S21440381016602E6846F040062E60266846F0400643
S2144038202660066846F0400606601E6846F040067B
S2144038301E600E6846F040060E60166846F040066B
S21440384016602E6846F080062E60266846F0800693
S2144038502660066846F0800606601E6846F08006CB
S2144038601E600E6846F080060E60166846F08006BB
S21440387016602E6846F480762E60266846F480767B
S2144038802660066846F4807606601E6846F48076B3
S2144038901E600E6846F480760E60166846F48076A3
S2144038A016602E6846F400762E60266846F400764B
S2144038B02660066846F4007606601E6846F4007683
S2144038C01E600E6846F400760E60166846F4007673
S2144038D016602E6846F480362E60266846F480369B
S2144038E02660066846F4803606601E6846F48036D3
S2144038F01E600E6846F480360E60166846F48036C3
S21440390016602E6846F400362E60266846F400366A
S2144039102660066846F4003606601E6846F40036A2
S2144039201E600E6846F400360E60166846F4003692
S21440393016602E6846F480162E60266846F480167A
S2144039402660066846F4801606601E6846F48016B2
S2144039501E600E6846F480160E60166846F48016A2
S21440396016602E6846F400162E60266846F400164A
S2144039702660066846F4001606601E6846F4001682
S2144039801E600E6846F400160E60166846F4001672
S21440399016602E6846F480062E60266846F480063A
S2144039A02660066846F4800606601E6846F4800672
S2144039B01E600E6846F480060E60166846F4800662
S2144039C016602E6846F400062E60266846F400060A
S2144039D02660066846F40006066023E09A09002042
S2144039E096090020A509002095090020A40900207A
S2144039F0970900209D09002094090020990900207D
S214403A0098090020A609002010040E40000E0E4023
S214403A10140E0E40900E0E40640E0E40100E0E40D9
S214403A20200E0E401E6846F400061E600E6846F4E1
S214403A3000060E60166846F4000616602E6846F0CD
S214403A4080762E60266846F080762660066846F0C9
S214403A50807606601E6846F080761E600E6846F0E9
S214403A6080760E60166846F0807616602E6846F0C1
S214403A7000762E60266846F000762660066846F099
S214403A80007606601E6846F000761E600E6846F0B9
S214403A9000760E60166846F0007616602E6846F091
S214403AA080662E60266846F080662660066846F089
S214403AB0806606601E6846F080661E600E6846F0A9
S214403AC080660E60166846F0806616602E6846F081
S214403AD000662E60256845F000652560046844F061
S214403AE000640460186840F0006018600B6843F09B
S214403AF000630B60136843F0006313604D4B1B6814
S214403B004D4B186840F0040018604C4C206840F05C
S214403B1004002060086840F004000860116841F026
S214403B20040111601A6842F001021A60444A1168A2
S214403B3041F001011160196841F0020119601168F5
S214403B4041F002011160196841F0400119601168A6
S214403B5041F040011160196841F080011960116818
S214403B6041F080011160196841F480711960116854
S214403B7041F480711160196841F400711960116850
S214403B8041F400711160196841F480311960116880
S214403B9041F480311160196841F4003119601168B0
S214403BA041F400311160196841F4801119601168C0
S214403BB041F480111160196841F4001119601168D0
S214403BC041F400111160196841F4800119601168D0
S214403BD041F480011160196841F4000119601168D0
S214403BE041F400011160196841F080711960116854
S214403BF041F080711160196841F0007119601168D8
S214403C0041F000711160196841F0806119601168D7
S214403C1041F080611160196841F0006119601368D5
S214403C2043F0006313604FF40062064B1A6070BCAA
S214403C30704700BF4C0E0E40400E0E40D00E0E4059
S214403C40D40E0E4000E100E038B5494B1B6813F037
S214403C50030F05D0002202210120464B984738BD6D
S214403C6013F0040F36D0444A13780133DBB2137096
S214403C70022B7CD1414B1B78CBB9414A136843F4A5
S214403C808023136001253D4B1D7000203D4CA0470E
S214403C902846A0470220A0470320A04700223A4BD0
S214403CA01A803A4A136843F0020313600EE0012B71
S214403CB00CD1374A136843F48023136000222F4BFD
S214403CC01A70324A136843F00503136000222A4BE9
S214403CD01A7038BD13F0C00F05D001228021402055
S214403CE0244B984738BD13F4407F07D002224FF448
S214403CF000714FF480701F4B984738BD13F4806FA7
S214403D0035D113F4403F07D003224FF400314FF42F
S214403D108030184B984738BD13F4401F07D0042214
S214403D204FF400114FF48010124B984738BD13F4EF
S214403D30400F07D005224FF400014FF480000D4B92
S214403D40984738BD13F0407F07D006224FF00071E9
S214403D504FF08070074B984738BD13F0406F06D041
S214403D6007224FF000614FF08060024B984738BD05
S214403D704C0E0E40C52F40009909002094090020A3
S214403D80340E0E40A9064000700900200000014095
S214403D90300E0E4048B9174B1A6822F001021A60DE
S214403DA01A6842F002021A607047012809D1114B86
S214403DB01A6822F001021A601A6822F002021A609B
S214403DC07047022809D10B4B1A6842F001021A606C
S214403DD01A6842F002021A607047032808D1054B61
S214403DE01A6842F001021A601A6822F002021A604B
S214403DF0704700BF3080004008B5144A136843F44B
S214403E0000131360124B1A6842F001021A601A68D7
S214403E1022F002021A6000200E4B98470E4A1368A2
S214403E2043F4A06313600D4B1A6842F400621A60B4
S214403E301A6842F400521A601A6842F480421A60C5
S214403E40074A136843F00103136008BD10040E4090
S214403E5004800040953D400030800040040E0E40F7
S214403E600080004008B53A490B6843F400530B60A5
S214403E70384A136843F400531360374B186840F4CD
S214403E8000501860086840F480400860106840F4AD
S214403E9080401060186840F480401860086840F021
S214403EA001000860106840F001001060186840F09B
S214403EB001001860086840F002000860106840F092
S214403EC002001060186840F002001860086840F071
S214403ED004000860106840F004001060186840F065
S214403EE004001860086840F008000860116841F057
S214403EF0080111601A6842F008021A60174A1368EF
S214403F0043F400131360164B1A6842F001021A601D
S214403F101A6822F002021A600020124B9847124A92
S214403F20136843F4A0531360104B1A6842F40062BF
S214403F301A601A6842F400521A601A6842F48042C4
S214403F401A600B4A136843F00103136008BD00BFB4
S214403F5000100E4010100E4030100E4010040E4060
S214403F6004800040953D400030800040040E0E40E6
S214403F7000800040044A136813F0020FFBD0034A47
S214403F801368184310607047108000400C80004053
S214403F9059B91C4B1A781C4B1B7803EB021300EBE9
S214403FA003101A4B13F8102028E001290BD1154BAB
S214403FB05A78154B5B7803EB021300EB0310134B58
S214403FC013F810201AE002290BD10E4B9A780E4BAC
S214403FD09B7803EB021300EB03100C4B13F81020F6
S214403FE00CE003290AD1074BDA78074BDB7803EB62
S214403FF0021300EB0310054B13F81020044B53F844
S21440400022007047740900206C090020A80900208F
S2144040109800002061B9234B1A78234B1B7803EB9A
S214404020021300EB0310214B03EB4000407870472F
S21440403001290CD11B4B5A781B4B5B7803EB0213C0
S21440404000EB0310194B03EB400040787047022901
S2144040500CD1144B9A78144B9B7803EB021300EB6D
S2144040600310124B03EB40004078704703290CD1F5
S2144040700C4BDA780C4BDB7803EB021300EB0310A7
S2144040800A4B03EB400040787047064B1A78064BC5
S2144040901B7803EB021300EB0310044B03EB4000CA
S2144040A040787047740900206C090020A809002059
S2144040B0054B1B7800EB031001EB0010034901EBA6
S2144040C040004078704700BF58090020A8090020EB
S2144040D0074B1B780A1F00EB0310064B03EB401000
S2144040E03C3152F8043F437002308A42F9D170475F
S2144040F058090020A809002010B40B4A02EB4023C0
S214404100013002EB40243020002107E0187059703F
S21440411002339342FAD11346944202D003F120026E
S214404120F4E710BC704700BFA809002010B40B4B42
S21440413019780B4B1A7802EB011300EB0313094C6A
S21440414014F813306B2B06D802EB011200EB02106A
S214404150013304F8103010BC704700BF58090020E7
S21440416084090020A809002010B40A4B19780A4B8D
S2144041701A7802EB011300EB0313084C14F81330C3
S21440418033B102EB011200EB0210013B04F8103091
S21440419010BC70475809002084090020A809002058
S2144041A000232D4A13802D4A13802D4A1380022166
S2144041B02C4A11602C4A13702C4A13702C4A1370E8
S2144041C02C4A13702C4A13702C4A137001205070DE
S2144041D091700321D1702A4A137053709370D37034
S2144041E0284A137053709370D370274A13705370D5
S2144041F09370D3704FF40002244B1A60244B1A6815
S21440420042F400021A601A6842F080721A6001F1A5
S214404210804101F101110A6844F201031A430A6021
S2144042201C4A11680B431360203A136843F010038E
S21440423013604032136843F01003136040F2E242CA
S214404240154B1A6040F6C41240331A60134A13687E
S21440425043F0050313607047700900205E09002094
S21440426060090020640900208409002068090020B5
S2144042707C0900209209002058090020740900207B
S2144042806C090020880900208009002000E100E039
S21440429010040E40440001401C0001400000014054
S2144042A001280EDD10B50446064B1878064B984795
S2144042B004FB00F0054C94FBF0F080B2044B186011
S2144042C010BD704764090020212E4000F8240100EC
S2144042D01C00014070B5784B1B6813F0100F00F0BF
S2144042E0CC80764B1A88764B1B889A4208D10020A1
S2144042F0744CA0470120A0470220A0470320A047B7
S2144043006E4B1B88002B5AD16F4B984700216F4B42
S21440431018786F4B984701280DD16E4B1B7853B9D0
S21440432000216A4B18786C4B984700216B4B984796
S21440433000206B4B98470121644B1878644B984794
S21440434001280DD1634B5B7853B901215F4B187838
S214404350614B98470121614B98470120604B984735
S21440436002215A4B18785A4B984701280DD1594B81
S2144043709B7853B90221554B1878574B98470221E2
S214404380564B98470220564B984703214F4B187878
S2144043904F4B984701280DD14E4BDB7853B903213C
S2144043A04A4B18784C4B984703214C4B9847032070
S2144043B04B4B98474B4A136843F0020313603F4BFE
S2144043C01A8842F210739A4249D1474B98473F4C5D
S2144043D02078464B9847237853B9454A1278002AA6
S2144043E033D0444B1878444B98470022434B1A70BE
S2144043F0364B1B780F2B28D1414B1B780BBB3D4BC4
S2144044001B78404A127840498A5C9A4203D9013365
S214404410384A137002E00022364B1A703B4B3C4938
S2144044201D1D394C002613F8012B11F8010B205C9A
S214404430904286BF013203F8012C03F8016CAB4270
S214404440F1D10022214B1A7002E001331F4A13704B
S214404450274B1B781BB1274B1A782E4B1A70174BDD
S2144044601B8801339BB249F63F42934202D8134A17
S214404470138002E00022114B1A80274B1B6813F072
S214404480100F18D0254B1B8801339BB242F20F7297
S214404490934202D8214A138070BD00221F4B1A80D7
S2144044A01F4A136843F0020313601E4B18781E4BD6
S2144044B098471E4B984770BD200001407009002069
S2144044C08E090020A9064000653E40007C09002079
S2144044D01540400080090020913F4000890540007B
S2144044E07106400000800340F93D4000192A400014
S2144044F09D090020920900202D174000A5090020A4
S2144045009709002058090020A82900206C0900209F
S2144045107409002084090020600001405E090020E4
S2144045204000014064090020212E4000DD15400077
S214404530704700BF10B50E480E4B984710200E4BE4
S21440454098470E4CA0470028FCD00D4B98470D4A84
S2144045500D4B9A620D4CA0470028FCD010200C4B07
S21440456098470C4B98470248024B984710BD00BFEF
S21440457000E1F50529484000014640004D46400010
S2144045805D464000013F182000040E406D46400046
S2144045909945400019474000184A136B23F07003B2
S2144045A018431063936E13F0080F03D009E0013BE5
S2144045B003D11EE04FF4006310498A6E12F0080FD4
S2144045C0F5D00E4A136B23F0030343F00203136344
S2144045D0906E10F0080004D000207047013B03D1D5
S2144045E009E04FF4006305498A6E12F0080FF5D0D3
S2144045F07047012070470120704700BF00040E40FE
S214404600114B1A6A42F45C1242F008021A621A46C9
S214404610936E13F4003FFBD00B4A136A23F45C13EB
S21440462023F0700343F45C1303431362936E13F456
S214404630003FFBD0044A136A23F09B7323F4803375
S21440464043F45C131362704700040E40024B986EAE
S21440465000F48030704700BF00040E404FF0005218
S214404660014B9A62704700BF00040E40024B986EA2
S21440467000F00200704700BF00040E40FEE700BF97
S21440468008B5194B194A9A4203D0194B164A9A4212
S21440469004D3184B184A9A420FD31AE01249174BC4
S2144046A05B1A23F003030433104A134452F8040BF6
S2144046B041F8040B9A42F9D1EBE7114B114AD21A52
S2144046C022F003021A44043B002143F8041B9342A1
S2144046D0FBD10D4A0D4B23F07F0393600C4B98475C
S2144046E00C4B9847FEE700BF00000020786740006C
S2144046F080060020C8A90020800600207F060020F3
S21440470084060020CBA9002000ED00E00000400019
S21440471099514000E54A40003C4B1B6B03F00303B5
S214404720012B0FD013B1022B29D057E0384B5B69D1
S21440473013F0800F14BF4FF400424FF4FA42354B4B
S2144047401A604BE0314B1B6A13F0807F03D0324A2D
S214404750304B1A6042E0314A2E4B1A602B4B1B6A94
S21440476003F07003102B02D0202B04D036E02C4AE6
S214404770284B1A6032E0284A264B1A602EE0234B1C
S2144047801B6A13F0807F03D0234A224B1A6012E044
S214404790224A204B1A601D4B1B6A03F07003102BF5
S2144047A002D0202B04D006E01D4A1A4B1A6002E0C5
S2144047B0194A184B1A60154B1B6B03F00303022B68
S2144047C00CD1124A936A926A1248C3F30A410368AC
S2144047D001FB0333D2B2B3FBF2F303600B4B1B6B0C
S2144047E003F07003702B07D10A4A13680D49A1FBEA
S2144047F003135B0813607047044B1B6B0549C3F3F8
S21440480002120B68D3400B60704700BF00040E4096
S21440481010140E4050020020001BB70000093D0057
S21440482000127A00ABAAAAAA0F4B984204D84FF0BF
S21440483080620E4B1A6070470D4B984203D80D4A63
S2144048400A4B1A6070470C4B984203D80B4A074BEA
S2144048501A6070470A4B984294BF0A4A4FF00422A7
S214404860024B1A60704700BFFF2C3101000A0E4011
S214404870FF59620200010004FF8693030002000411
S214404880FFB3C4040003000470B42B4A136843F417
S21440489080531360294D2B6843F480632B60284C6B
S2144048A0236843F4806323602648036843F48063A8
S2144048B0036025490B6843F480630B6002F674423C
S2144048C0136843F480631360204B1E6846F480668A
S2144048D01E602E6846F400662E60256845F4006526
S2144048E02560046844F400640460086840F400608E
S2144048F00860116841F4006111601A6842F4006271
S2144049001A602C331B68124A136843F480631360A2
S214404910104B196841F480611960116841F40061D8
S21440492011601A6842F400621A604FF480520A4BD3
S2144049301A6070BC704700BF10040E4000100E4056
S21440494014100E4090100E4064100E4020100E4082
S21440495040100E40D0100E4000E100E0124B802286
S2144049601A6012490A6842F400220A60104A116826
S21440497041F008011160116841F010011160A2F584
S2144049804822A2F6F452116841F07901116011688C
S21440499041F4F24111601A6842F020021A601A6827
S2144049A042F004021A6070470080014010040E4036
S2144049B0040E0E402DE9F04F89B0DFF88C8002AF30
S2144049C0B8F80030ADF8083020268DF81C60002579
S2144049D0049505974FF0020BCDF818B003A9184878
S2144049E0184CA04701AA434633F804AF93F8029008
S2144049F0ADF804A08DF806908DF81C6004950592DD
S214404A000326069603A90E48A0474FF024088DF8C3
S214404A101C8004950597CDF818B003A90848A04710
S214404A20ADF800A08DF802908DF81C800495CDF866
S214404A3014D0069603A90248A04709B0BDE8F08FF7
S214404A40008001402903400044674000F0B58DB027
S214404A50074600248DF8044020268DF818600394FD
S214404A6001AB049301230593084D02A92846084B41
S214404A7098478DF82C600894099702230A9307A953
S214404A802846044B98470DB0F0BD00BF008001405B
S214404A90290340002D024000F0B58DB007460024A3
S214404AA08DF8044024268DF81860039401AB0493D7
S214404AB001230593084D02A92846084B98478DF8D0
S214404AC02C600894099702230A9307A92846044BAA
S214404AD098470DB0F0BD00BF00800140290340005C
S214404AE02D02400008B5234B98474FF40042224B16
S214404AF05A60224B9847224B9847224B9847224B66
S214404B009847224B9847224B9847224B9847224B30
S214404B109847224B9847224B9847224B9847224C1F
S214404B202088224B9847224B98472248224B98474A
S214404B303020224B98472088214B9847214B1878A5
S214404B40214B9847214B9847214B1878214B984743
S214404B50214B1878214B9847214C61782078214B7F
S214404B609847E178A078204B98474FF492001F4B27
S214404B709847FEE73545400050140E40314540000A
S214404B8055264000F93D40005D49400089484000B8
S214404B90A14140001D014000D11A4000B10940002B
S214404BA035374000B12740009A090020A142400016
S214404BB0B549400054090020994A40002D11400054
S214404BC07915400064090020212E4000DD15400084
S214404BD0920900202D17400058090020C5174000B4
S214404BE074090020F11840008919400075254000DE
S214404BF010B5204B1B6813F4806F1BD01E4C20460C
S214404C001E4B98472078FF2802D16378FF2B2FD081
S214404C101B4B1870184A517859701A4A137801334A
S214404C20DBB21370012B23D9174B98470022154B44
S214404C301A7010BD13F4006F1AD00F4C2046134B59
S214404C4098472078FF2802D16378FF2B10D0104B6E
S214404C501870094A517859700E4A13780133DBB2FE
S214404C601370012B04D90C4B98470022094B1A703D
S214404C7010BD00BF4C100E404C090020994A400021
S214404C805409002057090020A12C40004D4A4000FE
S214404C9050090020560900207535400080F000403D
S214404CA002E000BF81F0004142001FBF5FEA4103BF
S214404CB092EA030F7FEA226C7FEA236C6AD04FEABF
S214404CC01262D2EB1363C1BFD21841404840414004
S214404CD0B8BF5B42192B88BF704710F0004F40F4B6
S214404CE0000020F07F4018BF404211F0004F41F4D2
S214404CF0000121F07F4118BF494292EA030F3FD09E
S214404D00A2F1010241FA03FC10EB0C00C3F12003B0
S214404D1001FA03F100F0004302D5494260EB40003F
S214404D20B0F5000F13D3B0F1807F06D340084FEAAA
S214404D30310102F10102FE2A51D2B1F1004F40EB9F
S214404D40C25008BF20F0010040EA03007047490007
S214404D5040EB000010F4000FA2F10102EDD1B0FAD2
S214404D6080FCACF1080CB2EB0C0200FA0CF0AABFC7
S214404D7000EBC25052421843BCBFD0401843704765
S214404D8092F0000F81F4000106BF80F4000001326B
S214404D90013BB5E74FEA41037FEA226C18BF7FEA42
S214404DA0236C21D092EA030F04D092F0000F08BF84
S214404DB00846704790EA010F1CBF0020704712F06B
S214404DC07F4F04D1400028BF40F00040704712F1AA
S214404DD000723CBF00F50000704700F0004343F00F
S214404DE0FE4040F4000070477FEA226216BF084645
S214404DF07FEA23630146420206BF5FEA412390EA08
S214404E00010F40F4800070474FF0000304E000BFFD
S214404E1010F0004348BF40425FEA000C08BF7047AE
S214404E2043F0964301464FF000001CE050EA010272
S214404E3008BF70474FF000030AE000BF50EA010287
S214404E4008BF704711F0004302D5404261EB410174
S214404E505FEA010C02BF84460146002043F0B64399
S214404E6008BFA3F18053A3F50003BCFA8CF2083ABE
S214404E70A3EBC25310DB01FA02FC634400FA02FCC7
S214404E80C2F12002BCF1004F20FA02F243EB0200CE
S214404E9008BF20F00100704702F1200201FA02FC30
S214404EA0C2F1200250EA4C0021FA02F243EB020023
S214404EB008BF20EADC7070474FF0FF0C1CEAD05267
S214404EC01EBF1CEAD15392EA0C0F93EA0C0F6FD028
S214404ED01A4480EA010C400218BF5FEA41211ED006
S214404EE04FF0006343EA501043EA5111A0FB0131F2
S214404EF00CF00040B1F5000F3EBF490041EAD371C7
S214404F005B0040EA010062F17F02FD2A1DD8B3F142
S214404F10004F40EBC25008BF20F00100704790F0B1
S214404F20000F0CF0004C08BF49024CEA502040EA03
S214404F3051207F3AC2BFD2F1FF0340EAC2507047C9
S214404F4040F400004FF00003013A5DDC12F1190F07
S214404F50DCBF00F000407047C2F10002410021FA79
S214404F6002F1C2F1200200FA02FC5FEA310040F191
S214404F70000053EA4C0308BF20EADC70704792F00A
S214404F80000F00F0004C02BF400010F4000F013A42
S214404F90F9D040EA0C0093F0000F01F0004C02BF3D
S214404FA0490011F4000F013BF9D041EA0C018FE7AC
S214404FB00CEAD15392EA0C0F18BF93EA0C0F0AD0B2
S214404FC030F0004C18BF31F0004CD8D180EA0100D8
S214404FD000F00040704790F0000F17BF90F0004F71
S214404FE0084691F0000F91F0004F14D092EA0C0F53
S214404FF001D142020FD193EA0C0F03D14B0218BFE6
S214405000084608D180EA010000F0004040F0FE402B
S21440501040F40000704740F0FE4040F440007047C7
S2144050204FF0FF0C1CEAD0521EBF1CEAD15392EA46
S2144050300C0F93EA0C0F69D0A2EB030280EA010C36
S21440504049024FEA402037D04FF0805343EA1111CF
S21440505043EA10130CF000408B4238BF5B0042F12D
S2144050607D024FF4000C8B4224BF5B1A40EA0C00D2
S214405070B3EB510F24BFA3EB510340EA5C00B3EB04
S214405080910F24BFA3EB910340EA9C00B3EBD10FF2
S21440509024BFA3EBD10340EADC001B0118BF5FEA44
S2144050A01C1CE0D1FD2A3FF650AF8B4240EBC2506D
S2144050B008BF20F0010070470CF0004C4CEA50202E
S2144050C07F32C2BFD2F1FF0340EAC250704740F47D
S2144050D000004FF00003013A37E792F0000F00F06F
S2144050E0004C02BF400010F4000F013AF9D040EAED
S2144050F00C0093F0000F01F0004C02BF490011F481
S214405100000F013BF9D041EA0C0195E70CEAD15378
S21440511092EA0C0F08D142027FF47DAF93EA0C0F5F
S2144051207FF470AF084676E793EA0C0F04D14B0243
S2144051303FF44CAF08466EE730F0004C18BF31F0F5
S214405140004CCAD130F000427FF45CAF31F00043EF
S2144051507FF43CAF5FE700BF42000ED2B2F1FE4F95
S2144051600BD34FF09E03B3EB126209D44FEA0023F1
S21440517043F0004323FA02F070474FF000007047B8
S21440518012F1610F01D1420202D14FF0FF30704759
S2144051904FF00000704700BF70B50F4E0F4D761BA6
S2144051A0B61018BF002405D0013455F8043B984784
S2144051B0A642F9D10A4E0B4D761B01F0CBFAB6103B
S2144051C018BF002406D0013455F8043B9847A64241
S2144051D0F9D170BD70BD00BF606740006067400099
S2144051E06867400060674000844641EA000313F069
S2144051F003036DD1403A41D351F8043B40F8043B99
S21440520051F8043B40F8043B51F8043B40F8043B5B
S21440521051F8043B40F8043B51F8043B40F8043B4B
S21440522051F8043B40F8043B51F8043B40F8043B3B
S21440523051F8043B40F8043B51F8043B40F8043B2B
S21440524051F8043B40F8043B51F8043B40F8043B1B
S21440525051F8043B40F8043B51F8043B40F8043B0B
S21440526051F8043B40F8043B51F8043B40F8043BFB
S21440527051F8043B40F8043B403ABDD2303211D39B
S21440528051F8043B40F8043B51F8043B40F8043BDB
S21440529051F8043B40F8043B51F8043B40F8043BCB
S2144052A0103AEDD20C3205D351F8043B40F8043B9B
S2144052B0043AF9D2043208D0D2071CBF11F8013B99
S2144052C000F8013B01D30B8803806046704700BF5F
S2144052D0082A13D38B078DD010F003038AD0C3F16E
S2144052E00403D21ADB071CBF11F8013B00F8013B50
S2144052F080D331F8023B20F8023B7BE7043AD9D30F
S214405300013A11F8013B00F8013BF9D20B780370E3
S2144053104B7843708B78837060467047024B13B16E
S214405320024800F005B87047000000003D534000BA
S214405330002301461A46184600F014B838B5074D03
S214405340074C2C1BA41005D0013C55F8043D98474B
S214405350002CF9D1BDE8384001F006BA7867400025
S214405360746740002DE9F047254C2568D5F848413C
S2144053700646884692469946C4B360681F2817DC9E
S214405380431C76B104EB80050122C5F888A0D4F80A
S214405390881182401143022EC4F88811C5F808913E
S2144053A01ED00230636044F820800020BDE8F087BD
S2144053B0144B03B34FF4C870AFF300800446D0B12B
S2144053C0D5F84831002780E88800C5F84841384677
S2144053D00123C4F88871C4F88C71002EE1D0D1E75F
S2144053E0D4F88C110A43C4F88C21DAE705F5A67484
S2144053F0C5F84841C1E74FF0FF30BDE8F08700BF31
S21440540050674000000000003030FFFF3030303042
S214405410FFFF30300C0CFFFF0C0C0C0CFFFF0C0C8D
S2144054200000000000000000000000000000000037
S214405430000000000000000000000000F0F0F0F067
S2144054400000000000000000000000000000000017
S21440545000000000000080E0703C0F030080E07019
S2144054603C0F03010000000006070100000000009A
S21440547000000000FEFF0303030303030303FFFED5
S214405480FFFF0000000000000000FFFF03070606C5
S21440549006060606060607030303030303FFFF008C
S2144054A0000000000000000000FFFF000000F8F8C9
S2144054B0060606060607070606060707030303034F
S2144054C0030303030303FFFEFEFF03030303030379
S2144054D00303030107070606060606060606060633
S2144054E003030303030303030303FFFE0000030356
S2144054F0030303030303FFFC06060606060606062A
S2144055000606070300FFFF000000000000FCFC004A
S214405510000F0F0C0C0C0C0C0CFFFF0C00000000D6
S21440552000000000000707000000FFFF030303031E
S2144055300303030300000303030303030303FFFE05
S214405540030307060606060606060703FFFF0300D4
S2144055500000000000000000FFFF0C0C0C0C0C0CC0
S2144055600C0CFCFC0707060606060606060607079A
S21440557007070303030303030303FFFF00000000C2
S21440558000F8FC0E060301000000000000070700BC
S214405590000000000000FFFF03030303FFFF0000BE
S2144055A0FEFF0303030303030303FFFE030706068E
S2144055B00606060606060703FFFF83838383838368
S2144055C08383FFFF01010101010101010101FFFF8A
S2144055D00000000000000000000607070000000072
S2144055E078787878000000000000000078787878B6
S2144055F00000000000000000000000000000000066
S21440560080C0606030180C8CC7C67C380100787C3F
S2144056100606030101000000000006060000000028
S21440562000000000000000C0F87F7FF8C0000000C7
S21440563000E0FC3F333030333FFCE000070700001B
S2144056400000000000000707FFFF030303030303F7
S2144056500386FEF8FFFF0303030303030307FFFC71
S21440566007070606060606060603030080E0781EC1
S21440567007030303030303030F3FF0C000000000CB
S21440568000000000000000030706060606060606A1
S2144056900303FFFF030303071E78E0800000FFFFBD
S2144056A000000000C0F03F0F060607070606060784
S2144056B003000000FFFF0303030303030303030386
S2144056C0FFFF03030303030000000000070706066E
S2144056D00606060606060606FFFFC3C3C3C3C3C3C5
S2144056E0C3C30303FFFF00000000000000000000EB
S2144056F0070700000000000000000000C0E0381C63
S2144057000E07030303030303FFFF000000000C0C17
S2144057100C0CFCFC010306060606060606060301FC
S214405720FFFF0000000000000000FFFFFFFF030334
S214405730030303030303FFFF070700000000000006
S214405740000007070303030303FFFF0303030303EA
S2144057500000000000FFFF000000000006060606EE
S21440576006070706060606060000000000000000C2
S21440577000FFFF0000FCFC000000000000FFFF00F0
S214405780000103060606060606030100FFFF00802A
S214405790C06030180C060301FFFF0F0D183060C0C4
S2144057A08000000007070000000000000103060418
S2144057B0FFFF00000000000000000000FFFF0000A8
S2144057C00000000000000000070706060606060662
S2144057D006060606FFFF0F1C78E0E0781C0EFFFF6B
S2144057E0FFFF0000000101000000FFFF0707000068
S2144057F00000000000000707FFFF1E7CF0C000000E
S2144058000000FFFFFFFF000001071F7CF0C0FFFF06
S21440581007070000000000000103070780E0F83E8D
S2144058200F03030F3EF8E0800F3FF8E08000008053
S214405830E0F83F0F000000030706060703000000DD
S214405840FFFF0303030303030303FEFCFFFF0C0CED
S2144058500C0C0C0C0C0C07030707000000000000A3
S21440586000000000FFFF8383838383838383FE7C63
S214405870FFFF010101030F3D71E1800007070000B3
S21440588000000000000107060E1F73E3C3830303F6
S21440589003030F0E8080000001030E1C3870C0808A
S2144058A00307060606060606060607030F0F03034B
S2144058B003FFFF0303030F0F0000000000FFFF007D
