S01C00006761746F7273796E74685F73657175656E6365722E737265638B
S214400000303700208D1A4000891A4000891A400077
S214400010891A4000891A4000891A400000000000F2
S214400020000000000000000000000000891A4000A8
S214400030891A400000000000891A4000891A4000D2
S214400040891A4000891A4000891A4000891A4000DF
S214400050891A4000891A4000891A400000000000B2
S214400060891A4000891A4000891A40002516400027
S214400070BD1E40004D0D4000891A4000891A4000C0
S214400080891A4000891A400000000000891A400082
S214400090891A4000891A4000891A40009918400081
S2144000A0891A4000891A4000891A4000891A40007F
S2144000B0891A4000BD014000891A4000891A400054
S2144000C010B5054C237833B9044B13B10448AFF34D
S2144000D000800123237010BD600600200000000051
S2144000E084254000084B10B51BB108490848AFF3BB
S2144000F000800848036803B910BD074B002BFBD0AF
S214400100BDE81040184700BF00000000640600200D
S21440011084254000842540000000000041F28832DB
S2144001200F4B1A800F4A136843F0005313604FF08A
S21440013000520D4B1A600D4A136843F004031360D7
S2144001400C3A136843F4807313602032136843F00C
S21440015004031360243A136843F0020313607047A5
S2144001602607002010040E4000E100E01080034007
S21440017008B50D4B98470D490D4B98470D4B984782
S21440018080B242F22833984203D91A460A4B1A8064
S21440019008BDB0F57A7F02D3074B188008BD4FF4F0
S2144001A07A72054B1A8008BD852040001A671C41AC
S2144001B035214000D52340002607002008B5054BD2
S2144001C01B6813F0040F1CBF034B1868034B98477B
S2144001D008BD00BF30800340588003407101400096
S2144001E02DE9F041CB68002B49D08C68002646604C
S2144001F04A68120202F4407242F480550A7C1204A5
S21440020002F4FE022A434260C6604D685DB10A7839
S214400210012DC4BF4E7846EA0222022D04DD8978BD
S21440022041EA022200E00022C260012B03D10322F1
S214400230026001272FE00122026000272BE02946BA
S214400240026A12F4807F1DD14D1EF1B1012B04D1FC
S21440025077BBC0F8008067462AE012F0020F05D050
S214400260026B2270013B0134314600E02946002BE8
S214400270E6D1036A13F0010FFBD0036A1CE04FF08F
S214400280010E19E04FF0050E16E04FF0090E13E090
S2144002904FF0050E10E0026A12F4807EF8D143F665
S2144002A0972543F698264FF002084FF0010CCDE70D
S2144002B012F0020FC3D0D3E77046BDE8F08100BF0E
S2144002C00246C86830B310B48C680B7C1B0403F439
S2144002D0FE035360136A13F4807F04D01CE0136A55
S2144002E013F4807F1AD113F0040F03D0237853639E
S2144002F0013801340028F2D1136A13F480700FD10C
S21440030013F0040FF8D002231360136A13F0010FA2
S214400310FBD006E001207047052002E0052000E003
S214400320052010BC704700BF70B572B6BFF35F8F34
S214400330134D00232B701349134B9847134B984784
S21440034084B2134B9847134A136843F40053136020
S214400350A00960F06F00C0B20F4EB047A00000F09A
S214400360FC00B04716200D4B98470D4A136843F4DF
S2144003700053136001232B70BFF35F8F62B670BDCE
S214400380300200209A99CC4235214000D5234000C7
S2144003902517400034100E40B117400001000020E1
S2144003A030100E4038B572B6BFF35F8F0E4C002348
S2144003B023700E4B98470E4A136843F4005313605D
S2144003C0AF200C4DA847FC20A84716200A4B98475C
S2144003D00A4A136843F40053136001232370BFF3A3
S2144003E05F8F62B638BD00BF300200202517400040
S2144003F034100E40B11740000100002030100E406F
S21440040070B572B6BFF35F8F0E4C002626700E4B4B
S21440041098470E4A136843F400531360A0200C4DCF
S214400420A8473046A84716200A4B98470A4A1368FA
S21440043043F40053136001232370BFF35F8F62B60B
S21440044070BD00BF300200202517400034100E401B
S214400450B11740000100002030100E40F8B5194B8F
S2144004601F681D68184C23780D4214BF01210021D7
S21440047041EA4301154D2E78074214BF012300235D
S21440048043EA460303F00F032B7001F00F0121707F
S214400490092B0AD1032914D10D490B6843F00803F0
S2144004A00B6010460B4B9847F8BD032B09D1092922
S2144004B007D109490B6843F008030B601046074B09
S2144004C09847F8BD3C120E40290700202807002018
S2144004D030100E40E517400034100E40FD17400027
S2144004E070B40023A84A1370A84A1370A84A136829
S2144004F043F400531360A74D2B6843F001032B6071
S214400500A54C236843F001032360A448036843F0E6
S21440051001030360A2490B6843F001030B6002F637
S2144005207462136843F0010313609E4B1E6846F0E6
S21440053001061E602E6846F002062E60266846F0CB
S21440054002062660066846F0020606600E6846F01A
S21440055002060E60166846F0020616601E6846F0F2
S21440056002061E602E6846F004062E60266846F098
S21440057004062660066846F0040606600E6846F0E6
S21440058004060E60166846F0040616601E6846F0BE
S21440059004061E602E6846F008062E60266846F062
S2144005A008062660066846F0080606600E6846F0AE
S2144005B008060E60166846F0080616601E6846F086
S2144005C008061E602E6846F010062E60266846F026
S2144005D010062660066846F0100606600E6846F06E
S2144005E010060E60166846F0100616601E6846F046
S2144005F010061E602E6846F020062E60266846F0DE
S21440060020062660066846F0200606600E6846F01D
S21440061020060E60166846F0200616601E6846F0F5
S21440062020061E602E6846F040062E60266846F07D
S21440063040062660066846F0400606600E6846F0AD
S21440064040060E60166846F0400616601E6846F085
S21440065040061E602E6846F080062E60266846F0ED
S21440066080062660066846F0800606600E6846F0FD
S21440067080060E60166846F0800616601E6846F0D5
S21440068080061E602E6846F480762E60266846F405
S21440069080762660066846F4807606600E6846F4E5
S2144006A080760E60166846F4807616601E6846F4BD
S2144006B080761E602E6846F400762E60266846F4E5
S2144006C000762660066846F4007606600E6846F4B5
S2144006D000760E60166846F4007616601E6846F48D
S2144006E000761E602E6846F480662E60266846F4C5
S2144006F080662660066846F4806606600E6846F4A5
S21440070080660E60166846F4806616601E6846F47C
S21440071080661E602E6846F400662E60266846F4A4
S21440072000662660066846F4006606600E6846F474
S21440073000660E60166846F4006616601E6846F44C
S21440074000661E602E6846F008062E60266846F054
S21440075008062660066846F0080606600E6846F0FC
S21440076008060E60166846F0080616601E6846F0D4
S21440077008061E602E6846F400562E60266846F42C
S2144007800056266006680FE028070020290700204C
S21440079010040E4000120E4014120E4090120E40EE
S2144007A064120E4020120E4046F4005606600E6854
S2144007B046F400560E60166846F4005616601E68EC
S2144007C046F400561E602E6846F480462E60266824
S2144007D046F480462660066846F4804606600E6804
S2144007E046F480460E60166846F4804616601E68DC
S2144007F046F480461E602E6846F400462E60266804
S21440080046F400462660066846F4004606600E68D3
S21440081046F400460E60166846F4004616601E68AB
S21440082046F400461E602E6846F480362E602668E3
S21440083046F480362660066846F4803606600E68C3
S21440084046F480360E60166846F4803616601E689B
S21440085046F480361E602E6846F400362E602668C3
S21440086046F400362660066846F4003606600E6893
S21440087046F400360E60166846F4003616601E686B
S21440088046F400361E602E6846F480262E602668A3
S21440089046F480262660066846F4802606600E6883
S2144008A046F480260E60166846F4802616601E685B
S2144008B046F480261E602E6846F400262E60266883
S2144008C046F400262660066846F4002606600E6853
S2144008D046F400260E60166846F4002616601E682B
S2144008E046F400261E602E6846F480162E60266863
S2144008F046F480162660066846F4801606600E6843
S21440090046F480160E60166846F4801616601E681A
S21440091046F480161E602E6846F400162E60266842
S21440092046F400162660066846F4001606600E6812
S21440093046F400160E60166846F4001616601E68EA
S21440094046F400161E602E6846F480062E60266822
S21440095046F480062660066846F4800606600E6802
S21440096046F480060E60166846F4800616601E68DA
S21440097046F480061E602E6846F400062E60266802
S21440098046F400062660066846F4000606600E68D2
S21440099046F400060E60166846F4000616601E68AA
S2144009A046F400061E602E6846F080762E60266866
S2144009B046F080762660066846F0807606600E68CA
S2144009C046F080760E60166846F0807616601E68A2
S2144009D046F080761E602E6846F000762E602668CA
S2144009E046F000762660066846F0007606600E689A
S2144009F046F000760E60166846F0007616601E6872
S214400A0046F000761E602E6846F080662E602668A9
S214400A1046F080662660066846F0806606600E6889
S214400A2046F080660E60166846F0806616601E6861
S214400A3046F080661E602E6846F000662E60266889
S214400A4046F000662660066846F0006606600E6859
S214400A5046F000660E60166846F0006616601E6831
S214400A6046F000661E602E6846F080562E60266869
S214400A7046F080562660066846F0805606600E6849
S214400A8046F080560E60166846F0805616601E6821
S214400A9046F080561E602E6846F000562E60266849
S214400AA046F000562660066846F0005606600E6819
S214400AB046F000560E60166846F0005616601E68F1
S214400AC046F000561E602E6846F080462E60266829
S214400AD046F080462660066846F0804606600E6809
S214400AE046F080460E60166846F0804616601E68E1
S214400AF046F080461E602E6846F000462E6025680A
S214400B0045F000452560046844F0004404600868E9
S214400B1040F000400860116841F0004111601A68DA
S214400B2042F000421A602C331B68854B1A6842F02C
S214400B3001021A60834A116841F001011160196888
S214400B4041F002011960116841F002011160196814
S214400B5041F004011960126842F0040294331A60AE
S214400B60774A116841F008011160196841F00801A0
S214400B701960116841F010011160196841F01001C8
S214400B801960116841F020011160196841F0200198
S214400B901960116841F040011160196841F0400148
S214400BA01960116841F080011160196841F08001B8
S214400BB01960116841F480711160196841F48071C0
S214400BC01960116841F400711160196841F40071B0
S214400BD01960116841F480611160196841F48061C0
S214400BE01960116841F400611160196841F40061B0
S214400BF01960116841F008011160196841F0080158
S214400C001960116841F400511160196841F40051AF
S214400C101960116841F480411160196841F48041BF
S214400C201960116841F400411160196841F40041AF
S214400C301960116841F480311160196841F48031BF
S214400C401960116841F400311160196841F40031AF
S214400C501960116841F480211160196841F48021BF
S214400C601960116841F400211160196841F40021AF
S214400C701960116841F480111160196841F48011BF
S214400C801960116841F400111160196841F40011AF
S214400C901960116841F480011160196841F48001BF
S214400CA01960116841F400011160196841F40001AF
S214400CB01960116841F080711160196841F08071C7
S214400CC01960116841F000711160196841F00071B7
S214400CD01960116841F080611160196841F08061C7
S214400CE01960116841F000611160196841F00061B7
S214400CF01960116841F080511160196841F08051C7
S214400D001960116841F000511160196841F00051B6
S214400D101960116841F080411160196841F08041C6
S214400D201960116841F0004111601A6842F00042B3
S214400D301A604FF40052044B1A6070BC704700BFF4
S214400D4040120E40D4120E4000E100E008B5564B6B
S214400D501B6813F0030F05D0002202210120534BDD
S214400D60984708BD13F00C0F05D001220821042037
S214400D704E4B984708BD13F0300F05D00222202175
S214400D8010204A4B984708BD13F0C00F05D00322E9
S214400D9080214020454B984708BD13F4407F07D03C
S214400DA004224FF400714FF48070404B984708BDC2
S214400DB013F4406F07D005224FF400614FF4806073
S214400DC03A4B984708BD13F4405F07D006224FF4CD
S214400DD000514FF48050354B984708BD13F4404FB0
S214400DE007D007224FF400414FF480402F4B9847DE
S214400DF008BD13F4403F07D008224FF400314FF4AB
S214400E0080302A4B984708BD13F4402F07D009225C
S214400E104FF400214FF48020244B984708BD13F42C
S214400E20401F07D00A224FF400114FF480101F4B8A
S214400E30984708BD13F4400F07D00B224FF400012B
S214400E404FF48000194B984708BD13F0407F07D0F9
S214400E500C224FF000714FF08070144B984708BD3D
S214400E6013F0406F07D00D224FF000614FF08060C6
S214400E700E4B984708BD13F0405F07D00E224FF048
S214400E8000514FF08050094B984708BD13F0804FF3
S214400E9001D1002B06DA0F224FF000414FF0804080
S214400EA0024B984708BD00BF4C120E405D04400000
S214400EB0014B53F8200070477C060020F8B572B608
S214400EC0BFF35F8F904F00233B7094208F4CA0471A
S214400ED05F20A047FF20A047FF20A0478C4DA88852
S214400EE0000AA0472879A0476888000AA047A87843
S214400EF0A0472888000AA0472878A047854EB08893
S214400F00000AA0473079A0477088000AA047B0780A
S214400F10A0473088000AA0473078A0477089000A6A
S214400F20A047B07AA0473089000AA047307AA04749
S214400F30F088000AA047B079A0476889000AA04711
S214400F40A87AA0472889000AA047287AA047E888B8
S214400F50000AA047A879A0479420A0475F20A04752
S214400F60FF20A047FF20A047288A000AA047287CE9
S214400F70A047E889000AA047A87BA047A889000A9E
S214400F80A047287BA047308A000AA047307CA0476D
S214400F90F089000AA047B07BA047B089000AA04766
S214400FA0307BA047F08A000AA047B07DA047B08AB1
S214400FB0000AA047307DA047708A000AA047B07C50
S214400FC0A047E88A000AA047A87DA047A88A000A4A
S214400FD0A047287DA047688A000AA047A87CA0476B
S214400FE09420A0475F20A047FF20A047FF20A047AF
S214400FF0494DA888000AA0472879A0476888000A73
S214401000A047A878A0472888000AA0472878A04785
S214401010424EB088000AA0473079A0477088000A40
S214401020A047B078A0473088000AA0473078A0474D
S2144010307089000AA047B07AA0473089000AA047C6
S214401040307AA047F088000AA047B079A047688960
S214401050000AA047A87AA0472889000AA047287A0D
S214401060A047E888000AA047A879A0479420A04750
S2144010705F20A047FF20A047FF20A047288A000AFD
S214401080A047287CA047E889000AA047A87BA0473D
S214401090A889000AA047287BA047308A000AA047B4
S2144010A0307CA047F089000AA047B07BA047B089B3
S2144010B0000AA047307BA047F08A000AA047B07DD0
S2144010C0A047B08A000AA047307DA047708A000A31
S2144010D0A047B07CA047E88A000AA047A87DA04762
S2144010E0A88A000AA047287DA047688A000AA04729
S2144010F0A87CA04743F2CE70094B984701233B702B
S214401100BFF35F8F62B6F8BD30020020B1174000D3
S214401110BC060020EC060020D40600200407002071
S2144011200100002008B5EF2931D006D8BF293ED0AF
S214401130DF2934D07F2949D141E0FB2917D002D896
S214401140F7291CD042E0FD2909D0FE293ED14A4A63
S214401150D36B013B002BB8BF5B42D36336E0464AB5
S214401160936B013B002BB8BF5B4293632EE0424A31
S214401170536B013B002BB8BF5B42536326E03E4AAD
S214401180136B013B002BB8BF5B4213631EE03A4A29
S214401190D36A013B002BB8BF5B42D36216E0364AA7
S2144011A0936A013B002BB8BF5B4293620EE0324A23
S2144011B0536A013B002BB8BF5B42536206E02E4A9F
S2144011C0136A013B002BB8BF5B4213626F2831D0D5
S2144011D006D83F283ED05F2834D0022849D141E087
S2144011E07B2817D002D877281CD042E07D2809D02B
S2144011F07E283ED1204AD369013B002BB8BF5B42D4
S214401200D36136E01C4A9369013B002BB8BF5B4272
S21440121093612EE0184A5369013B002BB8BF5B42EE
S214401220536126E0144A1369013B002BB8BF5B426A
S21440123013611EE0104AD368013B002BB8BF5B42E7
S214401240D36016E00C4A9368013B002BB8BF5B4264
S21440125093600EE0084A5368013B002BB8BF5B42E0
S214401260536006E0044A1368013B002BB8BF5B425C
S2144012701360024B984708BD7C060020BD0E400018
S2144012802DE9F84F7C4DAE1C7C4900221346DFF812
S21440129014E27B4F14464FF6FF7CDFF8FC91DFF8F4
S2144012A0F4A183461046032B0AD80A68012A26F87A
S2144012B0024C6C800CBFA5F804C0AC80804660E051
S2144012C0A3F10408B8F1030F1DD86E4A13EA0208CA
S2144012D005D508F1FF3868F0030808F1010808EB67
S2144012E048085FFA88F80A68012A2AF8184008F180
S2144012F001022AF8124008F102020CBF2AF812C076
S2144013002AF812403DE0A3F10802032A1DD85E4A9F
S21440131013EA020805D508F1FF3868F0070808F117
S214401320010808EB48085FFA88F80A68012A29F895
S214401330184008F1010229F8124008F102020CBFD9
S21440134029F812C029F812401BE08EFB0328DA1752
S214401350C2EB680808EB4808A3EB880808EB480887
S2144013605FFA88F80A68012A27F8184008F101024F
S21440137027F8124008F102020CBF27F812C027F8DF
S214401380124001330330C0B2063506360431102B06
S21440139089D158463D4B83F80080032813D80BEB81
S2144013A04B00C0B23A4B1870334B4FF6FF7223F8DF
S2144013B01020421C40F6FF7123F812100230002223
S2144013C023F8102053E0ABF10403DBB2032B14D810
S2144013D00BF0030000EB40002D4B18702D4B4FF6E2
S2144013E0FF7223F81020421C40F6FF7123F81210BB
S2144013F00230002223F8102039E0ABF10803DBB2BC
S214401400032B14D80BF0070000EB4000204B18705D
S214401410214B4FF6FF7223F81020421C40F6FF7116
S21440142023F812100230002223F810201FE0ABF100
S2144014300C03DBB2032B1AD8184BA3FB0B23DB0899
S21440144003EB4303ABEB830000EB4000C3B2104A10
S21440145013700B4A4FF6FF7122F81310591C40F6D2
S214401460FF7022F811000233002122F813100C4BB3
S2144014709847BDE8F88F00BFBC0600207C060020D9
S2144014800407002003000080070000802A07002091
S2144014902B070020D4060020EC060020ABAAAAAA00
S2144014A0BD0E4000ABAAAA2A024A13880133138015
S2144014B0704700BF2C070020024A1388013B138068
S2144014C0704700BF2C07002070B5184B1E681B687D
S2144014D0174C22780B4214BF0123002343EA4202F2
S2144014E014490D78064214BF0123002343EA4503FE
S2144014F003F00F030B7002F00F022270092B09D184
S214401500032A12D10C4A136843F0080313600B4BAE
S214401510984770BD032B08D1092A06D1084A13689C
S21440152043F008031360074B984770BD3C0E0E40CF
S214401530290700202807002030100E40A91440003C
S21440154034100E40B914400070B478222B4B1A80E9
S2144015502B4A136843F4006313602A4D2B6843F00C
S21440156001032B60284C236843F00103236027487F
S214401570036843F00103036025490B6843F0010309
S2144015800B6002F67422136843F001031360214B8C
S2144015901E6846F001061E602E6846F002062E6063
S2144015A0256845F002052560046844F0020404609E
S2144015B0086840F002000860116841F002011160BE
S2144015C01A6842F002021A602C331B68124A1368EB
S2144015D043F001031360114B196841F00101196093
S2144015E0116841F0020111601A6842F002021A6066
S2144015F04FF400620A4B1A6070BC70472C070020FC
S21440160010040E40000E0E40140E0E40900E0E407B
S214401610640E0E40200E0E40400E0E40D40E0E407D
S21440162000E100E008B5074B1B6813F0030F07D036
S21440163002210120044B9847044B1888044B9847D6
S21440164008BD00BF4C0E0E40C91440002C070020B9
S2144016507D18400048B9174B1A6822F001021A60FC
S2144016601A6842F002021A607047012809D1114BED
S2144016701A6822F001021A601A6822F002021A6002
S2144016807047022809D10B4B1A6842F001021A60D3
S2144016901A6842F002021A607047032808D1054BC8
S2144016A01A6842F001021A601A6822F002021A60B2
S2144016B0704700BF3080004008B5144A136843F4B2
S2144016C000131360124B1A6842F001021A601A683F
S2144016D022F002021A6000200E4B98470E4A13680A
S2144016E043F4A06313600D4B1A6842F400621A601C
S2144016F01A6842F400521A601A6842F480421A602D
S214401700074A136843F00103136008BD10040E40F7
S214401710048000405516400030800040040E0E40C5
S2144017200080004008B51C4A136843F40053136019
S2144017301032136843F4005313602032136843F4A6
S21440174000531360A2F54262136843F4001313601B
S214401750124B1A6842F001021A601A6822F002021E
S2144017601A6000200E4B98470E4A136843F4A05365
S21440177013600D4B1A6842F400621A601A6842F40D
S21440178000521A601A6842F480421A60074A136888
S21440179043F00103136008BD00100E400480004073
S2144017A05516400030800040040E0E400080004039
S2144017B0044A136813F0020FFBD0034A1368184319
S2144017C010607047108000400C800040034B53F878
S2144017D02020034B53F82200704700BF0C00002027
S2144017E04C000020044B53F82030772B03DC0133A9
S2144017F0014A42F8203070470C000020044B53F852
S2144018002030002B03DD013B014A42F82030704770
S2144018100C0000200023134A1380134A13704FF421
S2144018200002124B1A60124A136843F40003136016
S214401830A2F55022A2F20C42136843F4804343F0D0
S214401840010313602032136843F01003136040F224
S214401850E242084B1A60084A136843F005031360D7
S214401860704700BF220700202407002000E100E068
S21440187010040E401C00014000000140012805DD18
S214401880034B93FBF0F080B2024B1860704700BFEA
S214401890F82401001C00014010B51C4B1B681C4A74
S2144018A0138801339BB213801A4A12889A4201D198
S2144018B0194B9847164B1A8842F20F739A4224D90E
S2144018C0164B9847164C2078164B98472078164B60
S2144018D09847164B98472078154B9847012801D1D2
S2144018E0144B9847144A136843F0020313600C4B9A
S2144018F01B780F2B03D10022094B1A7002E00133EC
S214401900074A13700022024B1A8010BD2000014087
S214401910220700202607002001044000B916400098
S2144019202407002081124000CD17400029034000C4
S214401930B10E4000A503400000800340704700BF42
S21440194010B50E480E4B984710200E4B98470E4C3D
S214401950A0470028FCD00D4B98470D4A0D4B9A6285
S2144019600D4CA0470028FCD010200C4B98470C4B41
S21440197098470248024B984710BD00BF00E1F50566
S214401980351C40000D1A4000591A4000691A4000A4
S214401990013F182000040E40791A4000A519400067
S2144019A0251B4000184A136B23F07003184310633E
S2144019B0936E13F0080F03D009E0013B03D11EE0FD
S2144019C04FF4006310498A6E12F0080FF5D00E4AA5
S2144019D0136B23F0030343F002031363906E10F07F
S2144019E0080004D000207047013B03D109E04FF4C3
S2144019F0006305498A6E12F0080FF5D07047012043
S214401A0070470120704700BF00040E40114B1A6A11
S214401A1042F45C1242F008021A621A46936E13F4BD
S214401A20003FFBD00B4A136A23F45C1323F0700389
S214401A3043F45C1303431362936E13F4003FFBD0EE
S214401A40044A136A23F09B7323F4803343F45C13F5
S214401A501362704700040E40024B986E00F48030CC
S214401A60704700BF00040E404FF00052014B9A6290
S214401A70704700BF00040E40024B986E00F0020014
S214401A80704700BF00040E40FEE700BF08B5194B84
S214401A90194A9A4203D0194B164A9A4204D3184B15
S214401AA0184A9A420FD31AE01249174B5B1A23F092
S214401AB003030433104A134452F8040B41F8040B52
S214401AC09A42F9D1EBE7114B114AD21A22F003029F
S214401AD01A44043B002143F8041B9342FBD10D4AB1
S214401AE00D4B23F07F0393600C4B98470C4B984765
S214401AF0FEE700BF0000002084254000600600206E
S214401B0030070020600600205F06002064060020A4
S214401B103307002000ED00E00000400015244000A0
S214401B20151E40003C4B1B6B03F00303012B0FD0EC
S214401B3013B1022B29D057E0384B5B6913F0800F66
S214401B4014BF4FF400424FF4FA42354B1A604BE054
S214401B50314B1B6A13F0807F03D0324A304B1A60F9
S214401B6042E0314A2E4B1A602B4B1B6A03F070033F
S214401B70102B02D0202B04D036E02C4A284B1A607B
S214401B8032E0284A264B1A602EE0234B1B6A13F09D
S214401B90807F03D0234A224B1A6012E0224A204B11
S214401BA01A601D4B1B6A03F07003102B02D0202BCB
S214401BB004D006E01D4A1A4B1A6002E0194A184B38
S214401BC01A60154B1B6B03F00303022B0CD1124A11
S214401BD0936A926A1248C3F30A41036801FB0333CF
S214401BE0D2B2B3FBF2F303600B4B1B6B03F07003F4
S214401BF0702B07D10A4A13680D49A1FB03135B08F3
S214401C0013607047044B1B6B0549C3F302120B6805
S214401C10D3400B60704700BF00040E4010140E40C7
S214401C2034020020001BB70000093D0000127A0075
S214401C30ABAAAAAA0F4B984204D84FF080620E4B2C
S214401C401A6070470D4B984203D80D4A0A4B1A60EB
S214401C5070470C4B984203D80B4A074B1A607047A4
S214401C600A4B984294BF0A4A4FF00422024B1A602D
S214401C70704700BFFF2C3101000A0E40FF59620238
S214401C8000010004FF86930300020004FFB3C4046F
S214401C90000300041A4A136843F48053136002F5A5
S214401CA03F62136843F4806313601432136843F44E
S214401CB0806313607C32136843F4806313602C3A6D
S214401CC0136843F4806313602032136843F48063E0
S214401CD01360643A136843F480631360094B1B68CF
S214401CE02032136843F4806313609032136843F4E1
S214401CF0806313604FF48052034B1A60704700BFF6
S214401D0010040E404C100E4000E100E0124B8022C2
S214401D101A6012490A6842F400220A60104A1168A2
S214401D2041F008011160116841F010011160A2F500
S214401D304822A2F6F452116841F079011160116808
S214401D4041F4F24111601A6842F020021A601A68A3
S214401D5042F004021A6070470080014010040E40B2
S214401D60040E0E402DE9F04188B0144C2388ADF89F
S214401D7008304FF020088DF81C800027049702ABEF
S214401D800593022306930E4E03A930460D4DA847F1
S214401D9001AA234633F8041F9B78ADF804108DF84B
S214401DA006308DF81C80049705920323069303A9FA
S214401DB03046A84708B0BDE8F08100BF5025400037
S214401DC000800140C1024000F0B58DB007460024B7
S214401DD08DF8044020268DF81860039401AB0493D8
S214401DE001230593084D02A92846084B98478DF8CD
S214401DF02C600894099702230A9307A92846044BA7
S214401E0098470DB0F0BD00BF00800140C1024000C1
S214401E10E101400008B5184B98474FF40042174B75
S214401E205A60174B9847174B9847174B9847174B8E
S214401E309847174B9847174B1888174B9847174B98
S214401E409847174A136843F0080313601032136824
S214401E5043F0080313602032136843F0080313600E
S214401E60104B9847104B9847104B9847104B984745
S214401E701048114B9847FEE74119400050140E4059
S214401E803D19400049154000B9164000BD0E4000BF
S214401E90151840002C0700207D1840001D0140000A
S214401EA000100E40E10440000D1D4000951C40000F
S214401EB0651D400020070020C91D4000104B1B68D0
S214401EC013F4806F1BD010B50E4C20460E4B98472F
S214401ED07F2323706178FF2910D00C4B7F221A7025
S214401EE059700B4A13780133DBB21370012B05D9B6
S214401EF07F20084B98470022054B1A7010BD70474C
S214401F004C100E401C070020C91D40002007002032
S214401F101E0700202511400080F0004002E000BF70
S214401F2081F0004142001FBF5FEA410392EA030F7F
S214401F307FEA226C7FEA236C6AD04FEA1262D2EBC9
S214401F401363C1BFD218414048404140B8BF5B42CE
S214401F50192B88BF704710F0004F40F4000020F067
S214401F607F4018BF404211F0004F41F4000121F07D
S214401F707F4118BF494292EA030F3FD0A2F10102C7
S214401F8041FA03FC10EB0C00C3F1200301FA03F105
S214401F9000F0004302D5494260EB4000B0F5000F28
S214401FA013D3B0F1807F06D340084FEA310102F1E7
S214401FB00102FE2A51D2B1F1004F40EBC25008BF99
S214401FC020F0010040EA03007047490040EB000063
S214401FD010F4000FA2F10102EDD1B0FA80FCACF192
S214401FE0080CB2EB0C0200FA0CF0AABF00EBC25091
S214401FF052421843BCBFD0401843704792F0000F7F
S21440200081F4000106BF80F400000132013BB5E7D1
S2144020104FEA41037FEA226C18BF7FEA236C21D047
S21440202092EA030F04D092F0000F08BF08467047AC
S21440203090EA010F1CBF0020704712F07F4F04D17A
S214402040400028BF40F00040704712F100723CBF8D
S21440205000F50000704700F0004343F0FE4040F4B7
S214402060000070477FEA226216BF08467FEA236375
S2144020700146420206BF5FEA412390EA010F40F460
S214402080800070474FF0000304E000BF10F00043AC
S21440209048BF40425FEA000C08BF704743F0964393
S2144020A001464FF000001CE050EA010208BF7047AE
S2144020B04FF000030AE000BF50EA010208BF704735
S2144020C011F0004302D5404261EB41015FEA010C4A
S2144020D002BF84460146002043F0B64308BFA3F142
S2144020E08053A3F50003BCFA8CF2083AA3EBC25324
S2144020F010DB01FA02FC634400FA02FCC2F1200243
S214402100BCF1004F20FA02F243EB020008BF20F079
S2144021100100704702F1200201FA02FCC2F12002DF
S21440212050EA4C0021FA02F243EB020008BF20EAD4
S214402130DC7070474FF0FF0C1CEAD0521EBF1CEA02
S214402140D15392EA0C0F93EA0C0F6FD01A4480EAF0
S214402150010C400218BF5FEA41211ED04FF00063D9
S21440216043EA501043EA5111A0FB01310CF0004005
S214402170B1F5000F3EBF490041EAD3715B0040EA2B
S214402180010062F17F02FD2A1DD8B3F1004F40EBFB
S214402190C25008BF20F00100704790F0000F0CF0CE
S2144021A0004C08BF49024CEA502040EA51207F3A92
S2144021B0C2BFD2F1FF0340EAC250704740F400006D
S2144021C04FF00003013A5DDC12F1190FDCBF00F05E
S2144021D000407047C2F10002410021FA02F1C2F10C
S2144021E0200200FA02FC5FEA310040F1000053EAA8
S2144021F04C0308BF20EADC70704792F0000F00F0F6
S214402200004C02BF400010F4000F013AF9D040EAFB
S2144022100C0093F0000F01F0004C02BF490011F48F
S214402220000F013BF9D041EA0C018FE70CEAD1538D
S21440223092EA0C0F18BF93EA0C0F0AD030F0004C0D
S21440224018BF31F0004CD8D180EA010000F00040C1
S214402250704790F0000F17BF90F0004F084691F07F
S214402260000F91F0004F14D092EA0C0F01D14202B9
S2144022700FD193EA0C0F03D14B0218BF084608D182
S21440228080EA010000F0004040F0FE4040F40000CC
S214402290704740F0FE4040F4400070474FF0FF0C5F
S2144022A01CEAD0521EBF1CEAD15392EA0C0F93EAA6
S2144022B00C0F69D0A2EB030280EA010C49024FEAF8
S2144022C0402037D04FF0805343EA111143EA1013B1
S2144022D00CF000408B4238BF5B0042F17D024FF469
S2144022E0000C8B4224BF5B1A40EA0C00B3EB510F44
S2144022F024BFA3EB510340EA5C00B3EB910F24BF2D
S214402300A3EB910340EA9C00B3EBD10F24BFA3EBB1
S214402310D10340EADC001B0118BF5FEA1C1CE0D179
S214402320FD2A3FF650AF8B4240EBC25008BF20F02C
S214402330010070470CF0004C4CEA50207F32C2BF80
S214402340D2F1FF0340EAC250704740F400004FF01D
S2144023500003013A37E792F0000F00F0004C02BF4E
S214402360400010F4000F013AF9D040EA0C0093F018
S214402370000F01F0004C02BF490011F4000F013B72
S214402380F9D041EA0C0195E70CEAD15392EA0C0FDA
S21440239008D142027FF47DAF93EA0C0F7FF470AF12
S2144023A0084676E793EA0C0F04D14B023FF44CAF55
S2144023B008466EE730F0004C18BF31F0004CCAD1EA
S2144023C030F000427FF45CAF31F000437FF43CAF26
S2144023D05FE700BF42000ED2B2F1FE4F0BD34FF084
S2144023E09E03B3EB126209D44FEA002343F0004346
S2144023F023FA02F070474FF00000704712F1610F69
S21440240001D1420202D14FF0FF3070474FF000003A
S214402410704700BF70B50F4E0F4D761BB61018BFF5
S214402420002405D0013455F8043B9847A642F9D11C
S2144024300A4E0B4D761B00F093F8B61018BF0024DA
S21440244006D0013455F8043B9847A642F9D170BDF2
S21440245070BD00BF6C2540006C25400074254000D0
S2144024606C254000024B13B1024800F005B8704797
S2144024700000000085244000002301461A46184606
S21440248000F014B838B5074D074C2C1BA41005D0E7
S214402490013C55F8043D9847002CF9D1BDE838403A
S2144024A000F068B884254000802540002DE9F047BC
S2144024B0254C2568D5F848410646884692469946B2
S2144024C0C4B360681F2817DC431C76B104EB800554
S2144024D00122C5F888A0D4F8881182401143022E04
S2144024E0C4F88811C5F808911ED00230636044F8DD
S2144024F020800020BDE8F087144B03B34FF4C8702B
S214402500AFF300800446D0B1D5F84831002780E8C4
S2144025108800C5F8484138460123C4F88871C4F895
S2144025208C71002EE1D0D1E7D4F88C110A43C4F860
S2144025308C21DAE705F5A674C5F84841C1E74FF0A7
S214402540FF30BDE8F08700BF5C254000000000007B
S2144025500F08000006FFFF0043000000380200207E
S214402560F8B500BFF8BC08BC9E46704765244000DE
S214402570E5004000F8B500BFF8BC08BC9E46704772
S208402580C100400011
S214402584BFF35F8F0138FBD1704700BF30000000B7
S2144025943000000030000000300000003000000032
S2144025A43000000030000000300000003000000022
S2144025B43000000030000000300000003000000012
S2144025C43000000030000000300000000000000032
S2144025D43199AA3D31992A3EC9E57F3E3199AA3EB2
S2144025E47D3FD53EC9E5FF3E0B46153F31992A3F10
S2144025F457EC3F3F7D3F553FA3926A3F0000803FE4
S21440260493A98A3F2653953FB9FC9F3F4CA6AA3FC1
S214402614DF4FB53F72F9BF3F05A3CA3F984CD53F3D
S2144026242BF6DF3FBE9FEA3F5249F53F000000408D
S214402634CA54054093A90A405DFE0F4026531540F0
S214402644F0A71A40B9FC1F40835125404CA62A40A7
S21440265416FB2F40DF4F3540A9A43A4000004040C7
S214402664CA54454093A94A405DFE4F4026535540C0
S214402674F0A75A40B9FC5F40835165404CA66A4077
S21440268416FB6F40DF4F7540A9A47A400000804097
S21440269465AA8240CA5485402EFF874093A98A4043
S2144026A4F8538D405DFE8F40C1A892402653954016
S2144026B48BFD9740F0A79A4054529D400000A0409E
S2144026C465AAA240CA54A5402EFFA74093A9AA4093
S2144026D4F853AD405DFEAF40C1A8B2402653B54066
S2144026E48BFDB740F0A7BA405452BD400000C040EE
S2144026F465AAC240CA54C5402EFFC74093A9CA40E3
S214402704F853CD405DFECF40C1A8D2402653D540B5
S2144027148BFDD740F0A7DA405452DD400000E0403D
S21440272465AAE240CA54E5402EFFE74093A9EA4032
S214402734F853ED405DFEEF40C1A8F2402653F54005
S2144027448BFDF740F0A7FA405452FD40000000418C
S2144027543255014165AA024197FF0341CA540541D7
S214402764FCA906412EFF07416154094193A90A4139
S214402774C5FE0B41F8530D412AA90E4100001041F5
S2144027843255114165AA124197FF1341CA54154167
S214402794FCA916412EFF17416154194193A91A41C9
S2144027A4C5FE1B41F8531D412AA91E410000204185
S2144027B40100000000093D00000000002405002040
S2144027C48C050020F40500200000000000000000F6
S2144027D400000000000000000000000000000000B0
S2144027E400000000000000000000000058254000E3
S2144027F40000000000000000000000000000000090
S214402804000000000000000000000000000000007F
S214402814000000000000000000000000000000006F
S214402824000000000000000000000000000000005F
S214402834000000000000000000000000000000004F
S214402844000000000000000000000000000000003F
S214402854000000000000000000000000000000002F
S21440286401000000000000000E33CDAB34126DE6CC
S214402874ECDE05000B000000000000000000000035
S21440288400000000000000000000000000000000FF
S21440289400000000000000000000000000000000EF
S2144028A400000000000000000000000000000000DF
S2144028B400000000000000000000000000000000CF
S804401A8D14
