S01C00006761746F7273796E74685F73657175656E6365722E737265638B
S214400000C8340020990940009509400095094000F1
S2144000109509400095094000950940000000000001
S21440002000000000000000000000000095094000AD
S21440003095094000000000009509400095094000E1
S21440004095094000950940009509400095094000F3
S21440005095094000950940009509400000000000C1
S21440006095094000950940009509400095094000D3
S21440007095094000F50B4000950940009509400061
S2144000809509400095094000000000009509400091
S214400090950940009509400095094000F507400045
S2144000A09509400095094000950940009509400093
S2144000B09509400095094000950940009509400083
S2144000C010B5054C237833B9044B13B10448AFF34D
S2144000D000800123237010BDA8040020000000000B
S2144000E0600D4000084B10B51BB108490848AFF3F7
S2144000F000800848036803B910BD074B002BFBD0AF
S214400100BDE81040184700BF00000000AC040020C7
S214400110600D4000600D40000000000010B5054B2B
S2144001209847FC20044CA0470020A047034B984724
S21440013010BD00BF29064000ED06400009074000FC
S21440014070B594202B4CA0475F20A047FF20A047C7
S214400150FF20A047284E06F11804264D34F8020D1D
S214400160000AA8472078A847B442F7D19420214CEB
S214400170A0475F20A047FF20A047FF20A0471F4E74
S21440018006F118041B4D34F8020D000AA8472078E3
S214400190A847B442F7D19420164CA0475F20A0470A
S2144001A0FF20A047FF20A047154E06F11804114D2A
S2144001B034F8020D000AA8472078A847A642F7D18F
S2144001C094200C4CA0475F20A047FF20A047FF206C
S2144001D0A0470C4E06F11804064D34F8020D000AEE
S2144001E0A8472078A847B442F7D143F2CE70064BD2
S2144001F0984770BDED064000540000203C000020AB
S214400200240000200C0000200100002008B50F2824
S21440021000F29081DFE810F0100028003F00560002
S2144002206D0085009C00B300CA00E200F900100192
S21440023032014A01610178018B4B8C4A1188598200
S214400240518899829188D982894B1988118059881A
S21440025051809988918041F6FF721A8040F2FF32B1
S2144002605A8000229A8065E1814B804A1188198025
S2144002705188598091889980D988118019895180F0
S2144002805989918041F6FF72DA8040F2FF321A8136
S21440029000225A814EE1764B744A1188D9805188A3
S2144002A019819188598199891180D9895180198AF3
S2144002B0918041F6FF729A8140F2FF32DA81002245
S2144002C01A8237E16A4B694A118899815188D981E7
S2144002D091881982598A1180998A5180D98A918049
S2144002E041F6FF725A8240F2FF329A820022DA8248
S2144002F020E15F4B5D4A11885982518899829188E6
S214400300D9825C4B19881180598851809988918090
S21440031041F6FF721A8040F2FF325A8000229A80DD
S21440032008E1544B514A1188198051885980918868
S2144003309980D9881180198951805989918041F6D0
S214400340FF72DA8040F2FF321A8100225A81F1E0D1
S214400350484B464A1188D9805188198191885981DD
S21440036099891180D9895180198A918041F6FF7206
S2144003709A8140F2FF32DA8100221A82DAE03D4B5F
S2144003803A4A118899815188D98191881982598A27
S2144003901180998A5180D98A918041F6FF725A829B
S2144003A040F2FF329A820022DA82C3E0314B2F4A73
S2144003B011885982518899829188D9822E4B198802
S2144003C01180598851809988918041F6FF721A8031
S2144003D040F2FF325A8000229A80ABE0264B234AF6
S2144003E0118819805188598091889980D9881180C0
S2144003F0198951805989918041F6FF72DA8040F21E
S214400400FF321A8100225A8194E01B4B174A11880A
S214400410D980518819819188598199891180D989C3
S2144004205180198A918041F6FF729A8140F2FF32DC
S214400430DA8100221A827DE00F4B0C4A118899819E
S2144004405188D98191881982598A1180998A518018
S214400450D98A918041F6FF725A8240F2FF329A82E0
S2144004600022DA8266E000BF540000206C000020C4
S2144004700C000020240000203C0000202F4B304A77
S21440048011885982518899829188D9822D4B198832
S2144004901180598851809988918041F6FF721A8060
S2144004A040F2FF325A8000229A8043E0254B244A8D
S2144004B0118819805188598091889980D9881180EF
S2144004C0198951805989918041F6FF72DA8040F24D
S2144004D0FF321A8100225A812CE01A4B184A1188A2
S2144004E0D980518819819188598199891180D989F3
S2144004F05180198A918041F6FF729A8140F2FF320C
S214400500DA8100221A8215E00E4B0D4A1188998135
S2144005105188D98191881982598A1180998A518047
S214400520D98A918041F6FF725A8240F2FF329A820F
S2144005300022DA82044B984708BD00BF3C000020EA
S2144005406C000020540000204101400048B9174B81
S2144005501A6822F001021A601A6842F002021A6013
S2144005607047012809D1114B1A6822F001021A601F
S2144005701A6822F002021A607047022809D10B4B13
S2144005801A6842F001021A601A6842F002021A60C3
S2144005907047032808D1054B1A6842F001021A60DA
S2144005A01A6822F002021A60704700BF308000408E
S2144005B008B5184A136843F400131360164B1A68BC
S2144005C042F001021A601A6822F002021A60002005
S2144005D0124B9847124B1A6842F4A0621A601A6887
S2144005E042F004021A6003F5582303F6D4531A68FF
S2144005F042F400621A601A6842F400521A601A689E
S21440060042F480421A60074A136843F001031360BD
S21440061008BD00BF10040E40048000404D05400059
S214400620308000400080004010B5294B1A6842F4E4
S21440063080521A602748026842F480420260264987
S2144006400A6842F480420A60244A146844F48044AB
S2144006501460046844F400540460086840F4005091
S2144006600860116841F4005111601A6842F40012A3
S2144006701A60A3F55823A3F20C431A6842F001020D
S2144006801A601A6822F002021A600220144B984739
S214400690144B1A6842F4A0521A601A6842F00402D8
S2144006A01A6003F5582303F6D4531A6842F40062DE
S2144006B01A601A6842F400521A601A6842F480427D
S2144006C01A60094A136843F00103136010BD00BF67
S2144006D010040E4000100E4010100E4030100E4019
S2144006E04D0540003080004000800040044A1368BA
S2144006F013F0020FFBD0034A13681843106070478C
S214400700108000400C8000400E4A136813F0020F21
S214400710FBD070B50C4D2B6843F400532B6008207B
S2144007200A4EB0470A4C236843F4005323602B68B4
S21440073043F480432B600820B047236843F480434B
S214400740236070BD1080004034100E400100002031
S21440075030100E400023184A1380184A13704FF486
S2144007600002174B1A60174A136843F400031360DD
S21440077015490B6843F4804343F001030B60203176
S2144007800B6843F010030B6040F2E2410F4B1960D8
S2144007900F490B6843F480130B6010310B6843F429
S2144007A080130B60136843F400631360094A1368B0
S2144007B043F0050313607047C4040020C6040020BD
S2144007C000E100E010040E40040001401C0001401F
S2144007D0000E0E4000000140012805DD034B93FB50
S2144007E0F0F080B2024B1860704700BFF82401005A
S2144007F01C0001400F4B1B680F4A138801339BB205
S214400800138041F28732934213D910B50B4B984769
S2144008100B4C20780B4B984723780F2B02D10022A5
S214400820227002E00133064A13700022024B1A80FF
S21440083010BD704720000140C4040020B1054000B0
S214400840C60400200D024000704700BF10B50E4899
S2144008500E4B984710200E4B98470E4CA04700284A
S214400860FCD00D4B98470D4A0D4B9A620D4CA04755
S2144008700028FCD010200C4B98470C4B9847024859
S214400880024B984710BD00BF00E1F505410B400004
S214400890190940006509400075094000013F1820CD
S2144008A000040E4085094000B1084000310A40006F
S2144008B0184A136B23F0700318431063936E13F0BB
S2144008C0080F03D009E0013B03D11EE04FF400635C
S2144008D010498A6E12F0080FF5D00E4A136B23F0BB
S2144008E0030343F002031363906E10F0080004D035
S2144008F000207047013B03D109E04FF400630549EF
S2144009008A6E12F0080FF5D070470120704701201C
S214400910704700BF00040E40114B1A6A42F45C1246
S21440092042F008021A621A46936E13F4003FFBD058
S2144009300B4A136A23F45C1323F0700343F45C13EE
S21440094003431362936E13F4003FFBD0044A136ACA
S21440095023F09B7323F4803343F45C131362704795
S21440096000040E40024B986E00F48030704700BF83
S21440097000040E404FF00052014B9A62704700BF91
S21440098000040E40024B986E00F00200704700BF15
S21440099000040E40FEE700BF08B5194B194A9A42BC
S2144009A003D0194B164A9A4204D3184B184A9A4217
S2144009B00FD31AE01249174B5B1A23F00303043394
S2144009C0104A134452F8040B41F8040B9A42F9D1EA
S2144009D0EBE7114B114AD21A22F003021A44043BA9
S2144009E0002143F8041B9342FBD10D4A0D4B23F0E4
S2144009F07F0393600C4B98470C4B9847FEE700BF2D
S214400A0000000020600D4000A8040020C80400201C
S214400A10A8040020A7040020AC040020CB0400203B
S214400A2000ED00E000004000F90B4000A10B400044
S214400A303C4B1B6B03F00303012B0FD013B1022B6F
S214400A4029D057E0384B5B6913F0800F14BF4FF442
S214400A5000424FF4FA42354B1A604BE0314B1B6A6A
S214400A6013F0807F03D0324A304B1A6042E0314A5E
S214400A702E4B1A602B4B1B6A03F07003102B02D0D0
S214400A80202B04D036E02C4A284B1A6032E0284A05
S214400A90264B1A602EE0234B1B6A13F0807F03D050
S214400AA0234A224B1A6012E0224A204B1A601D4B02
S214400AB01B6A03F07003102B02D0202B04D006E0F4
S214400AC01D4A1A4B1A6002E0194A184B1A60154B19
S214400AD01B6B03F00303022B0CD1124A936A926AF3
S214400AE01248C3F30A41036801FB0333D2B2B3FB97
S214400AF0F2F303600B4B1B6B03F07003702B07D1B4
S214400B000A4A13680D49A1FB03135B08136070473C
S214400B10044B1B6B0549C3F302120B68D3400B60B2
S214400B20704700BF00040E4010140E4074000020B2
S214400B30001BB70000093D0000127A00ABAAAAAA23
S214400B400F4B984204D84FF080620E4B1A607047A5
S214400B500D4B984203D80D4A0A4B1A6070470C4B0F
S214400B60984203D80B4A074B1A6070470A4B984284
S214400B7094BF0A4A4FF00422024B1A60704700BFE7
S214400B80FF2C3101000A0E40FF59620200010004AA
S214400B90FF86930300020004FFB3C404000300046E
S214400BA008B50B4B98474FF400420A4B5A600A4B25
S214400BB098470A4B98470A4B98470A4B98470A4B20
S214400BC018880A4B98470220094B9847FEE700BF13
S214400BD04D08400050140E4049084000B105400002
S214400BE0410140005507400078000020D9074000EA
S214400BF01D014000704700BF70B50F4E0F4D761B6D
S214400C00B61018BF002405D0013455F8043B984769
S214400C10A642F9D10A4E0B4D761B00F08FF8B6105F
S214400C2018BF002406D0013455F8043B9847A64226
S214400C30F9D170BD70BD00BF480D4000480D400062
S214400C40500D4000480D4000024B13B1024800F0E2
S214400C5005B8704700000000690C400000230146BC
S214400C601A46184600F014B838B5074D074C2C1BEA
S214400C70A41005D0013C55F8043D9847002CF9D106
S214400C80BDE8384000F064B8600D40005C0D4000A0
S214400C902DE9F047254C2568D5F848410646884654
S214400CA092469946C4B360681F2817DC431C76B149
S214400CB004EB80050122C5F888A0D4F8881182404C
S214400CC01143022EC4F88811C5F808911ED0023090
S214400CD0636044F820800020BDE8F087144B03B3DF
S214400CE04FF4C870AFF300800446D0B1D5F8483111
S214400CF0002780E88800C5F8484138460123C4F8F4
S214400D008871C4F88C71002EE1D0D1E7D4F88C11EC
S214400D100A43C4F88C21DAE705F5A674C5F84841BD
S214400D20C1E74FF0FF30BDE8F08700BF380D400008
S214400D30000000004300000080000020F8B500BF1F
S214400D40F8BC08BC9E467047490C4000E500400091
S214400D50F8B500BFF8BC08BC9E467047C1004000CE
S214400D60BFF35F8F0138FBD1704700BF0000000023
S214400D70FF3F00000000000000000000FF3F0000B2
S214400D800000000000000000FF3F000000000000E0
S214400D9000000000FF3F00000000000000000000D0
S214400DA0000000000000FF3F00000000FF3F000082
S214400DB00000FF3F00000000FF3F00000000000072
S214400DC000000000000000000000FF3F00000000A0
S214400DD0FF0F000000093D003C000000000000003E
S214400DE0000000006C030020D40300203C040020D8
S214400DF000000000000000000000000000000000AE
S214400E00000000000000000000000000000000009D
S214400E1000000000340D400000000000000000000C
S214400E20000000000000000000000000000000007D
S214400E30000000000000000000000000000000006D
S214400E40000000000000000000000000000000005D
S214400E50000000000000000000000000000000004D
S214400E60000000000000000000000000000000003D
S214400E70000000000000000000000000000000002D
S214400E80000000000000000001000000000000001C
S214400E900E33CDAB34126DE6ECDE05000B000000E1
S214400EA000000000000000000000000000000000FD
S214400EB000000000000000000000000000000000ED
S214400EC000000000000000000000000000000000DD
S214400ED000000000000000000000000000000000CD
S80440099919
