:020000040040BA
:1000000058340020850440008104400081044000F1
:100010008104400081044000810440000000000091
:10002000000000000000000000000000810440000B
:100030008104400000000000810440008104400071
:10004000810440008104400081044000810440009C
:100050008104400081044000810440000000000051
:1000600081044000810440008104400021074000D9
:10007000810440008104400081044000810440006C
:100080008104400081044000000000008104400021
:10009000810440008104400081044000810140004F
:1000A000810440008104400081044000810440003C
:1000B000810440008104400081044000810440002C
:1000C00010B5054C237833B9044B13B10448AFF392
:1000D00000800123237010BD3004002000000000C8
:1000E00034094000084B10B51BB108490848AFF36C
:1000F00000800848036803B910BD074B002BFBD0F4
:10010000BDE81040184700BF000000003404002084
:100110003409400034094000000000004FF40002A0
:10012000134B1A60134B1A6842F400021A6012490A
:100130000A6842F003020A6020310A6842F00102B4
:100140000A6001F5502101F6DC510A6842F40062B0
:100150000A6010310A6842F400620A601A6842F4C8
:1001600000621A60054A136843F005031360704784
:1001700000E100E010040E400400014000000140D6
:100180000A4B1B6813F0010F0FD0094B1B6813F4C7
:10019000006F05D0074A136843F40063136070478B
:1001A000054A136843F40063136070472000014060
:1001B0003C0E0E40340E0E40300E0E40164A1368B0
:1001C00043F40063136015490B6843F400630B604C
:1001D00002F52062136843F400631360104B186843
:1001E00040F400601860086840F40040086010683F
:1001F00040F400401060186840F40040186008683F
:1002000040F480300860116841F4803111601A6850
:1002100042F480321A60704710040E40000E0E4007
:10022000340E0E4070B4364D2B6843F480532B606F
:10023000344C236843F4805323603348036843F409
:100240008053036031490B6843F480530B60304A9C
:10025000136843F4805313602E4B1E6846F4805697
:100260001E602E6846F400562E60266846F400563E
:100270002660066846F4005606600E6846F400568E
:100280000E60166846F4005616601E6846F4005666
:100290001E602E6846F480462E60256845F4804531
:1002A0002560046844F480440460086840F4804099
:1002B0000860116841F4804111601A6842F480427C
:1002C0001A602C331B68144B1A6842F480521A606F
:1002D0001A6842F400521A60104A116841F4005141
:1002E0001160196841F480411960136843F4804338
:1002F00013604FF400620A4B1A6070BC704700BF75
:10030000000E0E40140E0E40900E0E40640E0E4075
:10031000840E0E40200E0E40400E0E40D40E0E40B5
:1003200000E100E008B5024B9847024B984708BD32
:10033000BD0140002502400010B50E480E4B984705
:1003400010200E4B98470E4CA0470028FCD00D4BB8
:1003500098470D4A0D4B9A620D4CA0470028FCD0DF
:1003600010200C4B98470C4B98470248024B98477B
:1003700010BD00BF00E1F505250640000504400062
:100380005104400061044000013F182000040E4069
:10039000710440009D0340001D054000184A136B86
:1003A00023F0700318431063936E13F0080F03D00B
:1003B00009E0013B03D11EE04FF4006310498A6E4F
:1003C00012F0080FF5D00E4A136B23F0030343F02D
:1003D00002031363906E10F0080004D000207047F1
:1003E000013B03D109E04FF4006305498A6E12F026
:1003F000080FF5D07047012070470120704700BFFB
:1004000000040E40114B1A6A42F45C1242F00802DA
:100410001A621A46936E13F4003FFBD00B4A136A1C
:1004200023F45C1323F0700343F45C13034313625F
:10043000936E13F4003FFBD0044A136A23F09B73BE
:1004400023F4803343F45C131362704700040E40BE
:10045000024B986E00F48030704700BF00040E40DD
:100460004FF00052014B9A62704700BF00040E40EB
:10047000024B986E00F00200704700BF00040E406F
:10048000FEE700BF08B5194B194A9A4203D0194B31
:10049000164A9A4204D3184B184A9A420FD31AE0CC
:1004A0001249174B5B1A23F003030433104A134419
:1004B00052F8040B41F8040B9A42F9D1EBE7114BC7
:1004C000114AD21A22F003021A44043B002143F8D5
:1004D000041B9342FBD10D4A0D4B23F07F03936025
:1004E0000C4B98470C4B9847FEE700BF00000020DC
:1004F000340940003004002054040020300400205F
:100500002F040020340400205704002000ED00E0F8
:1005100000004000CD074000850640003A4B1B6BB1
:1005200003F00303012B0FD013B1022B27D053E0AC
:10053000364B5B6913F0800F14BF4FF400424FF449
:10054000FA42334B1A6047E02F4B1B6A13F0807F4F
:1005500003D0304A2E4B1A603EE02F4A2C4B1A60D3
:10056000294B1B6A13F0700305D0102B34D12B4A92
:10057000274B1A6030E0274A254B1A602CE0224BAB
:100580001B6A13F0807F03D0224A214B1A6010E0CF
:10059000214A1F4B1A601C4B1B6A13F0700305D0D5
:1005A000102B06D11D4A1A4B1A6002E0194A184B4B
:1005B0001A60154B1B6B03F00303022B0CD1124A7C
:1005C000936A926A1248C3F30A41036801FB03333A
:1005D000D2B2B3FBF2F303600B4B1B6B03F070035F
:1005E000702B07D10A4A13680D49A1FB03135B085E
:1005F00013607047044B1B6B0549C3F302120B6871
:10060000D3400B60704700BF00040E4010140E4032
:1006100000000020001BB70000093D0000127A0016
:10062000ABAAAAAA0F4B984204D84FF080620E4B97
:100630001A6070470D4B984203D80D4A0A4B1A6056
:1006400070470C4B984203D80B4A074B1A6070470F
:100650000A4B984294BF0A4A4FF00422024B1A6098
:10066000704700BFFF2C3101000A0E40FF596202A3
:1006700000010004FF86930300020004FFB3C404DA
:100680000003000408B51F4B98471F4B98471F4BAA
:1006900098474FF400421E4B5A601E4C1E4AA3F26C
:1006A0001C631E48217859B10178E9B1116841F401
:1006B00000411160116841F4803111602178E1B985
:1006C000017841B9196841F400411960196841F491
:1006D00080311960E6E7116841F400411160196842
:1006E00041F480311960DDE7196841F40041196077
:1006F000116841F480311160D4E701780029F3D00A
:10070000E9E700BF39034000250340001D01400018
:1007100050140E404D040020300E0E4050040020B6
:10072000224B1B6813F4805F0BD0214B1B6813F422
:10073000805F14BF002301231E4A13701E4A1370EA
:10074000704710B41A4A136812681C490878C2F33B
:10075000803242EA40021A480478C3F3403343EA45
:10076000440303F00F03037002F00F020A70092B19
:100770000CD1032A18D100220F4B1A7001220D4B05
:100780001A70104A1378013313700DE0032B0BD14C
:10079000092A09D10122084B1A700022054B1A7050
:1007A000094A13780133137010BC70474C0E0E4089
:1007B0003C0E0E404D040020500400204F04002049
:1007C0004E0400204C0400205104002070B50F4E50
:1007D0000F4D761BB61018BF002405D0013455F814
:1007E000043B9847A642F9D10A4E0B4D761B00F008
:1007F0008FF8B61018BF002406D0013455F8043B1A
:100800009847A642F9D170BD70BD00BF1C094000D9
:100810001C094000240940001C094000024B13B190
:10082000024800F005B87047000000003D08400095
:10083000002301461A46184600F014B838B5074D93
:10084000074C2C1BA41005D0013C55F8043D9847DB
:10085000002CF9D1BDE8384000F064B834094000FC
:10086000300940002DE9F047254C2568D5F848416E
:100870000646884692469946C4B360681F2817DC2E
:10088000431C76B104EB80050122C5F888A0D4F89A
:10089000881182401143022EC4F88811C5F80891CE
:1008A0001ED00230636044F820800020BDE8F0874D
:1008B000144B03B34FF4C870AFF300800446D0B1BB
:1008C000D5F84831002780E88800C5F84841384607
:1008D0000123C4F88871C4F88C71002EE1D0D1E7EF
:1008E000D4F88C110A43C4F88C21DAE705F5A67414
:1008F000C5F84841C1E74FF0FF30BDE8F08700BFC1
:100900000C09400000000000430000000800002027
:10091000F8B500BFF8BC08BC9E4670471D084000F3
:10092000E5004000F8B500BFF8BC08BC9E46704723
:04093000C1004000C2
:1009340000093D000000000000000000F402002057
:100944005C030020C403002000000000000000003D
:100954000000000000000000000000000000000093
:100964000000000000000000000000000809400032
:100974000000000000000000000000000000000073
:100984000000000000000000000000000000000063
:100994000000000000000000000000000000000053
:1009A4000000000000000000000000000000000043
:1009B4000000000000000000000000000000000033
:1009C4000000000000000000000000000000000023
:1009D4000000000000000000000000000000000013
:1009E40001000000000000000E33CDAB34126DE6B0
:1009F400ECDE05000B000000000000000000000019
:100A040000000000000000000000000000000000E2
:100A140000000000000000000000000000000000D2
:100A240000000000000000000000000000000000C2
:100A340000000000000000000000000000000000B2
:04000005004004852E
:00000001FF
