S01C00006761746F7273796E74685F73657175656E6365722E737265638B
S21440000050340020C5044000C1044000C1044000F4
S214400010C1044000C1044000C1044000000000008C
S214400020000000000000000000000000C104400086
S214400030C104400000000000C1044000C10440006C
S214400040C1044000C1044000C1044000C104400057
S214400050C1044000C1044000C1044000000000004C
S214400060C1044000C1044000C10440005D07400098
S214400070C1044000C1044000C1044000C104400027
S214400080C1044000C104400000000000C10440001C
S214400090C1044000C1044000C1044000B501400016
S2144000A0C1044000C1044000C1044000C1044000F7
S2144000B0C1044000C1044000C1044000C1044000E7
S2144000C010B5054C237833B9044B13B10448AFF34D
S2144000D000800123237010BD300400200000000083
S2144000E070094000084B10B51BB108490848AFF3EB
S2144000F000800848036803B910BD074B002BFBD0AF
S214400100BDE81040184700BF00000000340400203F
S2144001107009400070094000000000000022174BA4
S2144001201A804FF40002164B1A60164A136843F4BE
S2144001300003136014490B6843F4804343F0010303
S2144001400B6020310B6843F010030B6040F2E24135
S2144001500E4B19600E490B6843F400630B60103178
S2144001600B6843F400630B60136843F4006313604A
S214400170084A136843F00503136070474E04002096
S21440018000E100E010040E40040001401C00014065
S214400190000E0E4000000140012805DD034B93FB96
S2144001A0F0F080B2024B1860704700BFF8240100A0
S2144001B01C0001400C4B1B680C4A138801339BB251
S2144001C0138041F2873293420DD9094B1B6813F4D2
S2144001D0006F14BF074A084A136843F4006313606D
S2144001E00022024B1A807047200001404E04002037
S2144001F03C0E0E40340E0E40300E0E40164A13682B
S21440020043F40063136015490B6843F400330B60F6
S21440021002F52062136843F400331360104B1868ED
S21440022040F400301860086840F4004008601068E9
S21440023040F400401060186840F4004018600868B9
S21440024040F480300860116841F4803111601A68CB
S21440025042F480321A60704710040E40000E0E4082
S214400260340E0E4070B4364D2B6843F480532B60EA
S214400270344C236843F4805323603348036843F484
S2144002808053036031490B6843F480530B60304A17
S214400290136843F4805313602E4B1E6846F4805612
S2144002A01E602E6846F400562E60266846F40056B9
S2144002B02660066846F4005606600E6846F4005609
S2144002C00E60166846F4005616601E6846F40056E1
S2144002D01E602E6846F480462E60256845F48045AC
S2144002E02560046844F480440460086840F4804014
S2144002F00860116841F4804111601A6842F48042F7
S2144003001A602C331B68144B1A6842F480521A60E9
S2144003101A6842F400521A60104A116841F40051BB
S2144003201160196841F480411960136843F48043B2
S21440033013604FF400620A4B1A6070BC704700BFEF
S214400340000E0E40140E0E40900E0E40640E0E40F0
S214400350840E0E40200E0E40400E0E40D40E0E4030
S21440036000E100E008B5024B9847024B984708BDAD
S214400370FD0140006502400010B50E480E4B984700
S21440038010200E4B98470E4CA0470028FCD00D4B33
S21440039098470D4A0D4B9A620D4CA0470028FCD05A
S2144003A010200C4B98470C4B98470248024B9847F6
S2144003B010BD00BF00E1F5056D0640004504400055
S2144003C091044000A1044000013F182000040E4064
S2144003D0B1044000DD0340005D054000184A136B41
S2144003E023F0700318431063936E13F0080F03D086
S2144003F009E0013B03D11EE04FF4006310498A6ECA
S21440040012F0080FF5D00E4A136B23F0030343F0A7
S21440041002031363906E10F0080004D0002070476B
S214400420013B03D109E04FF4006305498A6E12F0A0
S214400430080FF5D07047012070470120704700BF75
S21440044000040E40114B1A6A42F45C1242F0080255
S2144004501A621A46936E13F4003FFBD00B4A136A97
S21440046023F45C1323F0700343F45C1303431362DA
S214400470936E13F4003FFBD0044A136A23F09B7339
S21440048023F4803343F45C131362704700040E4039
S214400490024B986E00F48030704700BF00040E4058
S2144004A04FF00052014B9A62704700BF00040E4066
S2144004B0024B986E00F00200704700BF00040E40EA
S2144004C0FEE700BF08B5194B194A9A4203D0194BAC
S2144004D0164A9A4204D3184B184A9A420FD31AE047
S2144004E01249174B5B1A23F003030433104A134494
S2144004F052F8040B41F8040B9A42F9D1EBE7114B42
S214400500114AD21A22F003021A44043B002143F84F
S214400510041B9342FBD10D4A0D4B23F07F0393609F
S2144005200C4B98470C4B9847FEE700BF0000002056
S21440053070094000300400205004002030040020A1
S2144005402F040020340400205304002000ED00E077
S2144005500000400009084000CD0640003C4B1B6BA5
S21440056003F00303012B0FD013B1022B29D057E021
S214400570384B5B6913F0800F14BF4FF400424FF4C2
S214400580FA42354B1A604BE0314B1B6A13F0807FC2
S21440059003D0324A304B1A6042E0314A2E4B1A6042
S2144005A02B4B1B6A03F07003102B02D0202B04D079
S2144005B036E02C4A284B1A6032E0284A264B1A600E
S2144005C02EE0234B1B6A13F0807F03D0234A224B36
S2144005D01A6012E0224A204B1A601D4B1B6A03F039
S2144005E07003102B02D0202B04D006E01D4A1A4B75
S2144005F01A6002E0194A184B1A60154B1B6B03F041
S2144006000303022B0CD1124A936A926A1248C3F330
S2144006100A41036801FB0333D2B2B3FBF2F3036033
S2144006200B4B1B6B03F07003702B07D10A4A136801
S2144006300D49A1FB03135B0813607047044B1B6B0B
S2144006400549C3F302120B68D3400B60704700BFE6
S21440065000040E4010140E4000000020001BB7009F
S21440066000093D0000127A00ABAAAAAA0F4B984296
S21440067004D84FF080620E4B1A6070470D4B98427C
S21440068003D80D4A0A4B1A6070470C4B984203D861
S2144006900B4A074B1A6070470A4B984294BF0A4A67
S2144006A04FF00422024B1A60704700BFFF2C310106
S2144006B0000A0E40FF59620200010004FF869303C1
S2144006C000020004FFB3C4040003000408B51D4B39
S2144006D098471D4B98471D4B98474FF400421C4B7C
S2144006E05A601C48A3F21C631B49027862B91A6818
S2144006F042F400421A600A6842F480320A601A687D
S21440070042F400321A60F0E7012A0CD10A6842F43B
S21440071000420A601A6842F480321A601A6842F44C
S21440072000321A60E1E7022ADFD11A6842F400423A
S2144007301A601A6842F480321A600A6842F400323C
S2144007400A60D2E779034000650340001D0140007F
S21440075050140E4004000020300E0E4010B5234BBF
S2144007601B6813F4805F06D00122214B1A70782252
S214400770204B1A7035E0204A136812681F490878E3
S214400780C2F3803242EA40021D480478C3F3403345
S21440079043EA440303F00F03037002F00F020A70AB
S2144007A0092B0DD1032A1CD1114B1B78012B02D8E3
S2144007B001330F4A13700F4A13780133137010E059
S2144007C0032B0ED1092A0CD1094B1B7813B1013BE0
S2144007D0074A1370074B1B78142B02D9013B054A76
S2144007E01370044B1878074B984710BD4C0E0E40BC
S2144007F004000020050000203C0E0E404D04002062
S2144008004C0400209901400070B50F4E0F4D761BEA
S214400810B61018BF002405D0013455F8043B98475D
S214400820A642F9D10A4E0B4D761B00F08FF8B61053
S21440083018BF002406D0013455F8043B9847A6421A
S214400840F9D170BD70BD00BF58094000580940003E
S2144008506009400058094000024B13B1024800F0BE
S21440086005B87047000000007908400000230146A4
S2144008701A46184600F014B838B5074D074C2C1BDE
S214400880A41005D0013C55F8043D9847002CF9D1FA
S214400890BDE8384000F064B8700940006C0940007C
S2144008A02DE9F047254C2568D5F848410646884648
S2144008B092469946C4B360681F2817DC431C76B13D
S2144008C004EB80050122C5F888A0D4F88811824040
S2144008D01143022EC4F88811C5F808911ED0023084
S2144008E0636044F820800020BDE8F087144B03B3D3
S2144008F04FF4C870AFF300800446D0B1D5F8483105
S214400900002780E88800C5F8484138460123C4F8E7
S2144009108871C4F88C71002EE1D0D1E7D4F88C11E0
S2144009200A43C4F88C21DAE705F5A674C5F84841B1
S214400930C1E74FF0FF30BDE8F08700BF48094000F0
S214400940000000004300000008000020F8B500BF8B
S214400950F8BC08BC9E46704759084000E500400079
S214400960F8B500BFF8BC08BC9E467047C1004000C2
S21440097000093D000178000000000000F40200205D
S2144009805C030020C40300200000000000000000BC
S2144009900000000000000000000000000000000012
S2144009A00000000000000000000000004409400075
S2144009B000000000000000000000000000000000F2
S2144009C000000000000000000000000000000000E2
S2144009D000000000000000000000000000000000D2
S2144009E000000000000000000000000000000000C2
S2144009F000000000000000000000000000000000B2
S214400A0000000000000000000000000000000000A1
S214400A100000000000000000000000000000000091
S214400A2001000000000000000E33CDAB34126DE62E
S214400A30ECDE05000B000000000000000000000097
S214400A400000000000000000000000000000000061
S214400A500000000000000000000000000000000051
S214400A600000000000000000000000000000000041
S214400A700000000000000000000000000000000031
S8044004C5F2
