S01C00006761746F7273796E74685F73657175656E6365722E737265638B
S21440000090F70020893E4000853E4000853E4000F7
S214400010853E4000853E4000853E40000000000092
S214400020000000000000000000000000853E400088
S214400030853E400000000000853E4000853E400072
S214400040853E4000853E4000853E4000853E40005F
S214400050853E4000853E4000853E40000000000052
S214400060853E4000853E4000853E4000D5334000FA
S214400070ED4340005D204000853E4000853E400008
S214400080853E4000853E400000000000853E400022
S214400090853E4000853E4000853E4000613B400036
S2144000A0853E4000853E4000853E4000853E4000FF
S2144000B0853E40009D014000853E4000853E400014
S2144000C010B5054C237833B9044B13B10448AFF34D
S2144000D000800123237010BD280600200000000089
S2144000E0BC5C4000084B10B51BB108490848AFF34C
S2144000F000800848036803B910BD074B002BFBD0AF
S214400100BDE81040184700BF000000002C06002045
S214400110BC5C4000BC5C40000000000044F620622E
S2144001200F4B1A800F4A136843F0005313604FF08A
S21440013000520D4B1A600D4A136843F004031360D7
S2144001400C3A136843F4106313602032136843F08C
S21440015004031360243A136843F0020313607047A5
S2144001603807002010040E4000E100E010800340F5
S21440017008B5054B98470549054B9847054B9847A2
S214400180054B188008BD00BF054640001A671C4254
S214400190B5464000554940003807002008B5054B95
S2144001A01B6813F0040F1CBF034B1868034B98479B
S2144001B008BD00BF308003405880034071014000B6
S2144001C02DE9F041CB68002B49D08C68002646606C
S2144001D04A68120202F4407242F480550A7C1204C5
S2144001E002F4FE022A434260C6604D685DB10A785A
S2144001F0012DC4BF4E7846EA0222022D04DD8978DE
S21440020041EA022200E00022C260012B03D1032211
S214400210026001272FE00122026000272BE02946DA
S214400220026A12F4807F1DD14D1EF1B1012B04D11C
S21440023077BBC0F8008067462AE012F0020F05D070
S214400240026B2270013B0134314600E02946002B08
S214400250E6D1036A13F0010FFBD0036A1CE04FF0AF
S214400260010E19E04FF0050E16E04FF0090E13E0B0
S2144002704FF0050E10E0026A12F4807EF8D143F685
S214400280972543F698264FF002084FF0010CCDE72D
S21440029012F0020FC3D0D3E77046BDE8F08100BF2E
S2144002A00246C86830B310B48C680B7C1B0403F459
S2144002B0FE035360136A13F4807F04D01CE0136A75
S2144002C013F4807F1AD113F0040F03D023785363BE
S2144002D0013801340028F2D1136A13F480700FD12C
S2144002E013F0040FF8D002231360136A13F0010FC3
S2144002F0FBD006E001207047052002E0052000E024
S214400300052010BC704700BF38B504460D4672B68F
S214400310BFF35F8F0022304B1A70304B98473049FE
S2144003202046304B9847304B984784B2BDB92F4A49
S214400330136843F400531360A00960F06F00C0B226
S2144003402B4DA847A00000F0FC00A8471620294BDC
S2144003509847294A136843F40053136035E0012D4B
S21440036017D1224A136843F400531360A00960F083
S2144003705F00C0B21E4DA847A00000F0FC00A84792
S21440038016201C4B98471C4A136843F400531360CE
S2144003901BE0022D154A136843F4804313604FEA6E
S2144003A094100CBF60F06F0060F05F00C0B2104D5C
S2144003B0A847A00000F0FC00A84716200D4B984721
S2144003C00D4A136843F4804313600122024B1A70AF
S2144003D0BFF35F8F62B638BDF4010020F1354000B0
S2144003E09A99CC42B54640005549400034100E40DC
S2144003F0013740000100002030100E4028B90C4A5A
S214400400136843F0010313607047012805D1084A7A
S214400410136843F00203136070470228044A1368C7
S2144004200CBF43F0040343F008031360704700BF5B
S21440043034100E4028B90C4A136843F00103136089
S2144004407047012805D1084A136843F00203136039
S21440045070470228044A13680CBF43F0040343F075
S21440046008031360704700BF30100E404D4B1B789A
S214400470834200F09680062800F28380DFE800F092
S214400480041527394B5D6F00474B1A6842F080527F
S2144004901A601A6842F000521A601A6842F08042A7
S2144004A01A6000223F4B1A707047404A136843F068
S2144004B0805313603C4B1A6842F000521A601A6828
S2144004C042F080421A600122364B1A707047364B13
S2144004D01A6842F080521A6034490A6842F0005264
S2144004E00A601A6842F080421A6002222D4B1A7047
S2144004F070472E4B1A6842F080521A601A6842F0D3
S21440050000521A60284A136843F08043136003225F
S214400510244B1A707047244B1A6842F080521A6077
S2144005201A6842F000521A60204A136843F080432B
S214400530136004221B4B1A7070471C4B1A6842F01B
S21440054080521A6018490A6842F000520A601A68D7
S21440055042F080421A600522124B1A707047124AC7
S214400560136843F080531360104B1A6842F00052F1
S2144005701A601A6842F080421A600622094B1A70C6
S21440058070470A4B1A6842F080521A601A6842F066
S21440059000521A601A6842F080421A600722014BE5
S2144005A01A7070470C000020340E0E40300E0E407D
S2144005B010B586B0044608460A4B984700238DF887
S2144005C000308DF801403C228DF814200293CDF87F
S2144005D00CD00223049301A90348044B984706B065
S2144005E010BD00BF6D04400000800140A1024000E5
S2144005F030B587B005460C460846134B984740230F
S2144006008DF800308DF801503C238DF814300023CF
S2144006100293CDF80CD00223049301A90B480C4B4F
S21440062098470C4B33F8143008339BB2B3F5805FD1
S21440063003D2084A22F8143003E00022054B23F880
S214400640142007B030BD00BF6D044000008001405C
S214400650A10240004406002038B50A4C236843F007
S2144006600043236041F6E730074DA847074A136822
S21440067043F0004313600648A847236843F000430E
S214400680236038BD300E0E4001000020340E0E4070
S2144006900517010038B505460146AE20264CA04752
S2144006A02946D520A04729468020A0472946D32062
S2144006B0A04729460020A04729464020A047294673
S2144006C08D20A04729461420A0472946A020A047B1
S2144006D02946DA20A04729460220A04729468120FD
S2144006E0A0472946CF20A0472946D920A0472946DB
S2144006F0F120A0472946DB20A04729464020A047B6
S2144007002946A620A0472946AF20A04729462020B4
S214400710A04729460120A04729462220A04729462F
S2144007200020A04729460320A0472946A820A047E6
S21440073029461F20A04738BDB105400010B51A4ACB
S214400740136843F080531360184B196841F080518A
S2144007501960116841F000511160196841F000516C
S2144007601960116841F080411160196841F080417C
S2144007701960116841F0004111601A6842F0004269
S2144007801A600B4B984700200A4CA0470120A04710
S2144007900220A0470320A0470420A0470520A047EA
S2144007A00620A04710BD00BF000E0E40100E0E40A3
S2144007B059064000950640000E4B33F81030013B7A
S2144007C09BB2B3F5805F13D22DE9F041054604464F
S2144007D04FF00008084F074E21464046B84736F8C7
S2144007E01530013B9BB2B3F5805FF5D3BDE8F08191
S2144007F0704700BF44060020F10540002DE9F04F49
S21440080085B00192202808D108240026A64D0199DB
S2144008103046A847013CFAD142E182461C2941D1E4
S214400820A24B98471FFA80FBBBF1000F00F03881BF
S2144008304FEA4B031FFA83F95C460026DFF87C82BA
S214400840994F4B46D9469B46B5B2BAF1230F00F0B6
S214400850BB80BAF1620F00F09F8001990020B84734
S21440086029465046C047029021465046C04703900E
S21440087005EB0B0189B25046C047054601990298E0
S214400880B84701990398B84701992846B84702E007
S21440089001990020B84701360134A4B2B3B24B45A3
S2144008A0D2D3FDE0162941D1814B98471FFA80FBF1
S2144008B0BBF1000F00F0F4804FEA4B031FFA83F9B8
S2144008C05C460026DFF8F881774F4B46D9469B4674
S2144008D0B5B2BAF1230F00F08F80BAF1620F00F084
S2144008E0A38001990020B84729465046C047029049
S2144008F021465046C047039005EB0B0189B250464F
S214400900C047054601990298B84701990398B847E9
S21440091001992846B84702E001990020B8470136B9
S2144009200134A4B2B3B29945D2D8B9E0614B9847E6
S2144009301FFA80F9B9F1000F00F0B2804D4600244E
S214400940A046594E5C4FDDF804B0BAF1230F00F0D4
S2144009508380BAF1620F00F0918059464046B04716
S21440096059464046B04721465046B847019029462A
S2144009705046B847029059460198B04759460298A3
S214400980B04702E059464046B0470134A4B201356C
S214400990ADB2A145D9D183E029466220C047029036
S2144009A021466220C047039005EB0B0189B26220C6
S2144009B0C047054601990298B84701990398B84739
S2144009C001992846B84763E729462320C047029046
S2144009D021462320C047039005EB0B0189B2232014
S2144009E0C047054601990298B84701990398B84709
S2144009F001992846B8474BE729462320C04702902E
S214400A0021462320C047039005EB0B0189B22320E3
S214400A10C047054601990298B84701990398B847D8
S214400A2001992846B84777E729466220C047029092
S214400A3021466220C047039005EB0B0189B2622035
S214400A40C047054601990298B84701990398B847A8
S214400A5001992846B8475FE759464046B047214681
S214400A602320B847019029462320B847029059468C
S214400A700198B04759460298B04783E759464046E2
S214400A80B04721466220B847019029466220B847C1
S214400A90029059460198B04759460298B04771E7C8
S214400AA005B0BDE8F08F00BFF1054000C121400011
S214400AB0C5214000C92140001D224000CD214000F4
S214400AC0E92140002DE9F04F85B00192202808D159
S214400AD00824FF26B54D01993046A847013CFAD177
S214400AE08AE106461C2947D1B14B98471FFA80FA3F
S214400AF0BAF1000F00F080814FEA4A039BB202939E
S214400B0054460027DFF8B492DFF8A082CDF80CA058
S214400B10BDB2232E00F0D580622E00F0B38001993E
S214400B20FF20C04729463046C847834621463046C0
S214400B30C8478246029BE91889B23046C8470546F0
S214400B406FEA0B00DDF804B05946C0B2C0476FEA02
S214400B500A005946C0B2C047E8435946C0B2C047EB
S214400B6002E00199FF20C04701370134A4B2BBB26E
S214400B70039A9342CCD33FE1162947D18D4B9847F1
S214400B801FFA80FABAF1000F00F036814FEA4A03A6
S214400B909BB2029354460027DFF82492DFF80C827B
S214400BA0CDF80CA0BDB2232E00F0AA80622E00F035
S214400BB0C6800199FF20C04729463046C84783462D
S214400BC021463046C8478246029BE91889B23046DD
S214400BD0C84705466FEA0B00DDF804B05946C0B278
S214400BE0C0476FEA0A005946C0B2C047E843594674
S214400BF0C0B2C04702E00199FF20C0470137013428
S214400C00A4B2BBB2039A9A42CCD8F5E06A4B984756
S214400C101FFA80FBBBF1000F00F0EE805D4600241B
S214400C20624FDFF8A081232E00F0A880622E00F0ED
S214400C30CB80DDF804A05146FF20B847CDF804A08D
S214400C4051460020B84721463046C047824629468E
S214400C503046C04781466FEA0A00DDF804A0514698
S214400C60C0B2B8476FEA09005146C0B2B84702E082
S214400C700199FF20B8470134A4B20135ADB2A3456F
S214400C80D1D1B9E029466220C84783462146622032
S214400C90C8478246029BE91889B26220C847054683
S214400CA06FEA0B00DDF804B05946C0B2C0476FEAA1
S214400CB00A005946C0B2C047E8435946C0B2C0478A
S214400CC04FE729462320C847834621462320C84766
S214400CD08246029BE91889B22320C84705466FEA38
S214400CE00B00DDF804B05946C0B2C0476FEA0A00B0
S214400CF05946C0B2C047E8435946C0B2C04730E73D
S214400D0029462320C847834621462320C847824693
S214400D10029BE91889B22320C84705466FEA0B00B4
S214400D20DDF804B05946C0B2C0476FEA0A005946DB
S214400D30C0B2C047E8435946C0B2C0475BE7294601
S214400D406220C847834621466220C8478246029BA7
S214400D50E91889B26220C84705466FEA0B00DDF8FD
S214400D6004B05946C0B2C0476FEA0A005946C0B2FE
S214400D70C047E8435946C0B2C0473CE70199002007
S214400D80B84721462320C047824629462320C047ED
S214400D9081466FEA0A00DDF804A05146C0B2B84763
S214400DA06FEA09005146C0B2B84761E7F105400016
S214400DB0C1214000C5214000C9214000CD2140004E
S214400DC0E92140001D22400001990020B8472146F5
S214400DD06220C047824629466220C04781466FEA65
S214400DE00A00DDF804A05146C0B2B8476FEA0900D1
S214400DF05146C0B2B8473BE705B0BDE8F08F00BFEC
S214400E002DE9F04383B00C46154638B93020284EBD
S214400E10B0472A4621462020B04745E0034642F2E6
S214400E200F72904230D8B0F57A7F30D2632831D8EE
S214400E3009288CBF4FF0020C4FF0010C2CE0AEFBA3
S214400E400372D20802EB8207A3EB4703303300F865
S214400E50013D93B20139002BF1D1002900DDFEE7B8
S214400E60BCF1000F20D06F46DFF844804FF02009D9
S214400E702A46214617F8010BC0472A4621464846CF
S214400E80C047BE42F4D10FE04FF0050C04E04FF0EF
S214400E90040C01E04FF0030C0CF1FF310DEB0C0697
S214400EA03046DFF810E0CAE703B0BDE8F08300BF85
S214400EB0FD074000CDCCCCCCF8B50746B14B1B88DF
S214400EC0B3F5207F09D20026AF4DAE4C31463046B2
S214400ED0A8472388B3F5207FF8D30B2F14D9172FB4
S214400EE014D9232F14D92F2F14D93B2F14D9472F79
S214400EF014D9532F14D95F2F14D96B2F14D9782FA8
S214400F0034BF09240A2410E000240EE001240CE03B
S214400F1002240AE0032408E0042406E0052404E052
S214400F20062402E0072400E00824A4B2A4EB8403CD
S214400F3007EB83039BB213F0010F40F0D580934A32
S214400F40A2FB0312D20802EB4202A3EB820292B249
S214400F50E2B91C2120208E4DA84700221C212020CB
S214400F60A84700221C212020A84700221C21202020
S214400F70A84700221C212020A84700221C21202010
S214400F80A84700221C214320A8479CE1814AA2FB97
S214400F900312D20802EB8202A3EB420292B2E2B9FB
S214400FA01C2141207A4DA84700221C212020A8471A
S214400FB0002212212320A84700221C212F20A847C8
S214400FC000221C214220A84700221C212020A8479E
S214400FD0002212216220A84775E113F0070F1DD1A9
S214400FE000221C2147206A4DA84700221C212020B1
S214400FF0A847002212212320A84700221C212F2088
S214401000A84700221C214120A84700221C2120205E
S214401010A847002212216220A84754E15B4AA2FB5F
S2144010200312920802EB4202A3EB420292B2E2B9EA
S2144010301C214620564DA84700221C212020A847A8
S214401040002212212320A84700221C212F20A84737
S21440105000221C214720A84700221C212020A84708
S214401060002212216220A8472DE113F0030F1DD164
S21440107000221C212020464DA84700221C2120206B
S214401080A84700221C212020A84700221C212020FF
S214401090A84700221C212020A84700221C212020EF
S2144010A0A84700221C214520A8470CE100221C210D
S2144010B02020374DA84700221C212020A847002288
S2144010C01C212020A84700221C212020A8470022BF
S2144010D01C212020A84700221C212020A8470022AF
S2144010E01C214420A847EEE02B4AA2FB0312D2085C
S2144010F002EB820102EB41029A1A92B2E2B91C213B
S2144011002020234DA84700221C212020A84700224B
S2144011101C212020A84700221C212020A84700226E
S2144011201C212020A84700221C212020A84700225E
S2144011301C214220A847C6E0184AA2FB03125208C8
S21440114002EBC2029A1A92B252BB1C212020104DCA
S214401150A84700221C212020A84700221C2120202E
S214401160A84700221C212020A84700221C2120201E
S214401170A84700221C212020A84700221C214120ED
S214401180A847A0E044060020F1054000ABAAAAAA62
S214401190FD074000CDCCCCCCA38B2EBA398EE3389D
S2144011A05248A3FB00015A1A01EB52029208C2EBC6
S2144011B0C2029A1A92B2E2B91C2120204C4DA8478E
S2144011C000221C212020A84700221C212020A847BE
S2144011D000221C212020A84700221C212020A847AE
S2144011E000221C212020A84700221C214720A84777
S2144011F069E0404AA2FB0312920802EB82029A1A66
S21440120092B2E2B91C212020394DA84700221C2169
S2144012102020A84700221C212020A84700221C216D
S2144012202020A84700221C212020A84700221C215D
S2144012302020A84700221C214620A84743E02E4AEB
S214401240A2FB0312520802EB42029B1A9BB2EBB976
S21440125000221C214420264DA84700221C21202085
S214401260A847002212212320A84700221C212F2015
S214401270A84700221C214520A84700221C212020E8
S214401280A847002212216220A8471CE000221C2109
S2144012904320174DA84700221C212020A8470022A3
S2144012A012212320A84700221C212F20A8470022D5
S2144012B01C214420A84700221C212020A8470022A9
S2144012C012216220A84700221C212020084DA84752
S2144012D000221C212020A8470022BD212046074B83
S2144012E098470020064B9847F8BD00BF25499224F2
S2144012F0FD074000CDCCCCCCABAAAAAA010E40003C
S214401300B907400070B506460D4604221621432014
S214401310344CA047042216212020A0470422162140
S2144013204C20A047042216212020A0470422162144
S2144013305220A047042216213A20A0470422162114
S2144013403046294B9847042216212020A0470422E5
S21440135016212020A047042216212020A047042240
S21440136016212020A047D5B10422162120201F4C4C
S214401370A047042216215920A047042216212020E7
S214401380A047042216212F20164CA04704221621DF
S2144013902020A047042216214E20A0471DE004220C
S2144013A0162120200F4CA047042216215920A04782
S2144013B0042216212020A047042216212F20A047D1
S2144013C0042216212020094CA047042216214E2034
S2144013D0A047042216212020A0470420044B98470B
S2144013E070BD00BFFD074000010E4000C50A40002A
S2144013F0B907400038B5054601221C214220134C4F
S214401400A04701221C212020A04701221C21502059
S214401410A04701221C212020A04701221C214D204C
S214401420A04701221C212020A04701221C213A204F
S214401430A04701221C212020A04701221C2128462B
S214401440034B98470120034B984738BDFD074000A3
S214401450010E4000B907400038B505460222162165
S21440146052202E4CA04702221C212020A0470222B8
S21440147016214520A04702221C212020A0470222F8
S21440148016215320A04702221C212020A0470222DA
S21440149016213A20A04702221C212020A0470222E3
S2144014A016213120A04702221C212020A0470222DC
S2144014B016212F20A04702221C212020A047062DBF
S2144014C009D1022216210420154B984702221621E4
S2144014D07420A0471EE00C2D0AD1022216210820B7
S2144014E00F4B98470222162174200C4B984711E068
S2144014F0182D0AD1022216211020094B98470222A5
S21440150016217420054B984704E0022216212846EF
S214401510034B98470220034B984738BDFD074000D1
S214401520010E4000B907400038B5054603221C218D
S21440153050200D4CA04703221C214120A0470322E7
S2144015401C214720A04703221C214520A0470322F8
S2144015501C213A20A04703221C212846034B9847CB
S2144015600320034B984738BDFD074000010E40005E
S214401570B907400038B5054603221C214C200D4CC7
S214401580A04703221C214F20A04703221C214F20A6
S214401590A04703221C215020A04703221C213A20AA
S2144015A0A04703221C212846034B98470320034BA1
S2144015B0984738BDFD074000010E4000B90740007F
S2144015C038B5054604221C2150200D4CA047042265
S2144015D01C215420A04704221C215220A04704224C
S2144015E01C214E20A04704221C213A20A04704225A
S2144015F01C212846034B98470420034B984738BD88
S214401600FD074000010E4000B9074000F8B505460A
S2144016100F460522162130201D4CA04705221621D4
S2144016202020A047052212213120A0470522122162
S2144016303A20A047052212212846164B9847164BBB
S2144016405B89B3F5F06F09D20526144D124C31462E
S2144016500020A8476389B3F5F06FF8D3052216211A
S21440166030200B4CA047052216212020A0470522FB
S21440167012213220A047052212213A20A0470522F7
S21440168012213846034B98470520054B9847F8BD2E
S214401690FD074000010E400044060020F1054000D2
S2144016A0B9074000F8B505460F46062216213020F9
S2144016B01D4CA047062216212020A04706221221B4
S2144016C03320A047062212213A20A04706221221A4
S2144016D02846164B9847164B9B89B3F5F06F09D2B0
S2144016E00626144D124C31460020A847A389B3F570
S2144016F0F06FF8D30622162130200B4CA047062266
S21440170016212020A047062212213420A047062278
S21440171012213A20A047062212213846034B98470A
S2144017200620054B9847F8BDFD074000010E4000D7
S21440173044060020F1054000B9074000F8B51546BC
S214401740274B1F681B68274C22780B4214BF012387
S214401750002343EA420224490E78074214BF01237D
S214401760002343EA460303F00F030B7002F00F0218
S2144017702270092B18D1032A30D128461B4B984794
S2144017801B4B1B781B4A117805EB450503EB4302C0
S214401790920102EB850501EB410105EB8123164AD8
S2144017A0D05A164B9847F8BD032B17D1092A15D1A6
S2144017B02846134B98470E4B1B780E4A127805EB7B
S2144017C0450503EB43039B0103EB850502EB420211
S2144017D005EB8225084B585B084B9847F8BD00BF81
S2144017E03C120E404A0700203F0700208139400047
S2144017F030070020000700204C070020B90E4000AC
S214401800D539400070B40023A84A1370A84A137014
S214401810A84A136843F400531360A74D2B6843F05F
S21440182001032B60A54C236843F001032360A448C2
S214401830036843F001030360A2490B6843F00103C9
S2144018400B6002F67462136843F0010313609E4B0C
S2144018501E6846F001061E602E6846F002062E60A0
S214401860266846F002062660066846F002060660CF
S2144018700E6846F002060E60166846F002061660CF
S2144018801E6846F002061E602E6846F004062E606D
S214401890266846F004062660066846F0040606609B
S2144018A00E6846F004060E60166846F0040616609B
S2144018B01E6846F004061E602E6846F008062E6037
S2144018C0266846F008062660066846F00806066063
S2144018D00E6846F008060E60166846F00806166063
S2144018E01E6846F008061E602E6846F010062E60FB
S2144018F0266846F010062660066846F01006066023
S2144019000E6846F010060E60166846F01006166022
S2144019101E6846F010061E602E6846F020062E60B2
S214401920266846F020062660066846F020060660D2
S2144019300E6846F020060E60166846F020061660D2
S2144019401E6846F020061E602E6846F040062E6052
S214401950266846F040062660066846F04006066062
S2144019600E6846F040060E60166846F04006166062
S2144019701E6846F040061E602E6846F080062E60C2
S214401980266846F080062660066846F080060660B2
S2144019900E6846F080060E60166846F080061660B2
S2144019A01E6846F080061E602E6846F480762E60DE
S2144019B0266846F480762660066846F4807606609A
S2144019C00E6846F480760E60166846F4807616609A
S2144019D01E6846F480761E602E6846F400762E60BA
S2144019E0266846F400762660066846F4007606606A
S2144019F00E6846F400760E60166846F4007616606A
S214401A001E6846F400761E602E6846F480662E6099
S214401A10266846F480662660066846F48066066059
S214401A200E6846F480660E60166846F48066166059
S214401A301E6846F480661E602E6846F400662E6079
S214401A40266846F400662660066846F40066066029
S214401A500E6846F400660E60166846F40066166029
S214401A601E6846F400661E602E6846F008062E6025
S214401A70266846F008062660066846F008060660B1
S214401A800E6846F008060E60166846F008061660B1
S214401A901E6846F008061E602E6846F400562E6005
S214401AA0266846F40056266006680FE03F0700208A
S214401AB04A07002010040E4000120E4014120E403A
S214401AC090120E4064120E4020120E4046F400560D
S214401AD006600E6846F400560E60166846F40056D9
S214401AE016601E6846F400561E602E6846F4804611
S214401AF02E60266846F480462660066846F4804691
S214401B0006600E6846F480460E60166846F48046C8
S214401B1016601E6846F480461E602E6846F40046F0
S214401B202E60266846F400462660066846F4004660
S214401B3006600E6846F400460E60166846F4004698
S214401B4016601E6846F400461E602E6846F48036D0
S214401B502E60266846F480362660066846F4803650
S214401B6006600E6846F480360E60166846F4803688
S214401B7016601E6846F480361E602E6846F40036B0
S214401B802E60266846F400362660066846F4003620
S214401B9006600E6846F400360E60166846F4003658
S214401BA016601E6846F400361E602E6846F4802690
S214401BB02E60266846F480262660066846F4802610
S214401BC006600E6846F480260E60166846F4802648
S214401BD016601E6846F480261E602E6846F4002670
S214401BE02E60266846F400262660066846F40026E0
S214401BF006600E6846F400260E60166846F4002618
S214401C0016601E6846F400261E602E6846F480164F
S214401C102E60266846F480162660066846F48016CF
S214401C2006600E6846F480160E60166846F4801607
S214401C3016601E6846F480161E602E6846F400162F
S214401C402E60266846F400162660066846F400169F
S214401C5006600E6846F400160E60166846F40016D7
S214401C6016601E6846F400161E602E6846F480060F
S214401C702E60266846F480062660066846F480068F
S214401C8006600E6846F480060E60166846F48006C7
S214401C9016601E6846F480061E602E6846F40006EF
S214401CA02E60266846F400062660066846F400065F
S214401CB006600E6846F400060E60166846F4000697
S214401CC016601E6846F400061E602E6846F0807653
S214401CD02E60266846F080762660066846F0807657
S214401CE006600E6846F080760E60166846F080768F
S214401CF016601E6846F080761E602E6846F00076B7
S214401D002E60266846F000762660066846F0007626
S214401D1006600E6846F000760E60166846F000765E
S214401D2016601E6846F000761E602E6846F0806696
S214401D302E60266846F080662660066846F0806616
S214401D4006600E6846F080660E60166846F080664E
S214401D5016601E6846F080661E602E6846F0006676
S214401D602E60266846F000662660066846F00066E6
S214401D7006600E6846F000660E60166846F000661E
S214401D8016601E6846F000661E602E6846F0805656
S214401D902E60266846F080562660066846F08056D6
S214401DA006600E6846F080560E60166846F080560E
S214401DB016601E6846F080561E602E6846F0005636
S214401DC02E60266846F000562660066846F00056A6
S214401DD006600E6846F000560E60166846F00056DE
S214401DE016601E6846F000561E602E6846F0804616
S214401DF02E60266846F080462660066846F0804696
S214401E0006600E6846F080460E60166846F08046CD
S214401E1016601E6846F080461E602E6846F00046F5
S214401E202E60256845F000452560046844F000446F
S214401E300460086840F000400860116841F00041C6
S214401E4011601A6842F000421A602C331B68804BBF
S214401E501A6842F001021A607E4A116841F0010198
S214401E601160196841F002011960116841F00201E1
S214401E701160196841F004011960136843F00403C7
S214401E801360734B196841F008011960116841F0FE
S214401E9008011160196841F010011960116841F09D
S214401EA010011160196841F020011960116841F075
S214401EB020011160196841F040011960116841F035
S214401EC040011160196841F080011960116841F0C5
S214401ED080011160196841F480711960116841F4FD
S214401EE080711160196841F400711960116841F4FD
S214401EF000711160196841F480611960196841F4F5
S214401F0000611960196841F008011960116841F0D4
S214401F1008011160196841F400511960116841F4D4
S214401F2000511160196841F480411960116841F40C
S214401F3080411160196841F400411960116841F40C
S214401F4000411160196841F480311960116841F40C
S214401F5080311160196841F400311960116841F40C
S214401F6000311160196841F480211960116841F40C
S214401F7080211160196841F400211960116841F40C
S214401F8000211160196841F480111960116841F40C
S214401F9080111160196841F400111960116841F40C
S214401FA000111160196841F480011960116841F40C
S214401FB080011160196841F400011960116841F40C
S214401FC000011160196841F080711960116841F094
S214401FD080711160196841F000711960116841F014
S214401FE000711160196841F080611960116841F014
S214401FF080611160196841F000611960116841F014
S21440200000611160196841F080511960116841F013
S21440201080511160196841F000511960116841F013
S21440202000511160196841F080411960116841F013
S21440203080411160196841F000411960136843F00F
S214402040004313604FF40052034B1A6070BC704755
S21440205040120E40D4120E4000E100E008B5564B48
S2144020601B6813F0030F05D0002202210120534BBA
S214402070984708BD13F00C0F05D001220821042014
S2144020804E4B984708BD13F0300F05D00222202152
S21440209010204A4B984708BD13F0C00F05D00322C6
S2144020A080214020454B984708BD13F4407F07D019
S2144020B004224FF400714FF48070404B984708BD9F
S2144020C013F4406F07D005224FF400614FF4806050
S2144020D03A4B984708BD13F4405F07D006224FF4AA
S2144020E000514FF48050354B984708BD13F4404F8D
S2144020F007D007224FF400414FF480402F4B9847BB
S21440210008BD13F4403F07D008224FF400314FF487
S21440211080302A4B984708BD13F4402F07D0092239
S2144021204FF400214FF48020244B984708BD13F409
S214402130401F07D00A224FF400114FF480101F4B67
S214402140984708BD13F4400F07D00B224FF4000108
S2144021504FF48000194B984708BD13F0407F07D0D6
S2144021600C224FF000714FF08070144B984708BD1A
S21440217013F0406F07D00D224FF000614FF08060A3
S2144021800E4B984708BD13F0405F07D00E224FF025
S21440219000514FF08050094B984708BD13F0804FD0
S2144021A001D1002B06DA0F224FF000414FF080405D
S2144021B0024B984708BD00BF4C120E403D174000EA
S2144021C0102070470C2070470B207047233880B291
S2144021D0034B03EB80004288024B1944885C7047EF
S2144021E0405A40001054400082B0233880B2ADF8C8
S2144021F00600BDF806309AB2064B03EB82035B88B6
S214402200ADF80430BDF80430034A12FA83F3585C44
S21440221002B07047E04F4000D04A400082B02338BA
S21440222080B2ADF80600BDF806309AB2064B03EB16
S21440223082035B88ADF80430BDF80430034A12FAD6
S21440224083F3585C02B07047405B40002451400026
S214402250F8B5064D0024064F064EE1B23878B04732
S21440226045F8040F0134102CF7D1F8BD5006002075
S21440227030070020A9384000F8B572B6BFF35F8F2C
S214402280904F00233B7094208F4CA0475F20A04780
S214402290FF20A047FF20A0478C4DA888000AA047F3
S2144022A02879A0476888000AA047A878A0472888C9
S2144022B0000AA0472878A047854EB088000AA04765
S2144022C03079A0477088000AA047B078A047308889
S2144022D0000AA0473078A0477089000AA047B07A25
S2144022E0A0473089000AA047307AA047F088000A05
S2144022F0A047B079A0476889000AA047A87AA047B7
S2144023002889000AA047287AA047E888000AA047FC
S214402310A879A0479420A0475F20A047FF20A04769
S214402320FF20A047288A000AA047287CA047E889C3
S214402330000AA047A87BA047A889000AA047287B98
S214402340A047308A000AA047307CA047F089000AA0
S214402350A047B07BA047B089000AA047307BA04783
S214402360F08A000AA047B07DA047B08A000AA0477E
S214402370307DA047708A000AA047B07CA047E88A14
S214402380000AA047A87DA047A88A000AA047287D43
S214402390A047688A000AA047A87CA0479420A04788
S2144023A05F20A047FF20A047FF20A047494DA888B0
S2144023B0000AA0472879A0476888000AA047A8785E
S2144023C0A0472888000AA0472878A047424EB088F1
S2144023D0000AA0473079A0477088000AA047B07826
S2144023E0A0473088000AA0473078A0477089000A86
S2144023F0A047B07AA0473089000AA047307AA04765
S214402400F088000AA047B079A0476889000AA0472C
S214402410A87AA0472889000AA047287AA047E888D3
S214402420000AA047A879A0479420A0475F20A0476D
S214402430FF20A047FF20A047288A000AA047287C04
S214402440A047E889000AA047A87BA047A889000AB9
S214402450A047287BA047308A000AA047307CA04788
S214402460F089000AA047B07BA047B089000AA04781
S214402470307BA047F08A000AA047B07DA047B08ACC
S214402480000AA047307DA047708A000AA047B07C6B
S214402490A047E88A000AA047A87DA047A88A000A65
S2144024A0A047287DA047688A000AA047A87CA04786
S2144024B043F2CE70094B984701233B70BFF35F8FC2
S2144024C062B6F8BDF40100200137400094060020B3
S2144024D0C4060020AC060020DC06002001000020D8
S2144024E02DE9F84F07467F4B98477F4CA51C7F4900
S2144024F000221346DFF824C2DFF818E210464FF6F3
S214402500FF78DFF808A2DFF800B2032B0AD80E687F
S214402510012E25F8020C60800CBFA4F80480A08031
S214402520914660E0A3F10409B9F1030F1DD8704E3F
S21440253013EA060905D509F1FF3969F0030909F1DF
S214402540010909EB49095FFA89F90E68012E2BF853
S214402550190009F101062BF8160009F102060CBF16
S2144025602BF816802BF816003DE0A3F10806032E44
S2144025701DD8604E13EA060905D509F1FF3969F002
S214402580070909F1010909EB49095FFA89F90E685B
S214402590012E2AF8190009F101062AF8160009F159
S2144025A002060CBF2AF816802AF816001BE08CFBA1
S2144025B00369DE17C6EB690909EB4909A3EB8909EC
S2144025C009EB49095FFA89F90E68012E2EF81900C1
S2144025D009F101062EF8160009F102060CBF2EF886
S2144025E016802EF8160001330332D2B20634063572
S2144025F00431102B89D1404B83F800903F4B1A781A
S2144026003F4B1B789A4268D1032F13D807EB4707F6
S214402610FBB23C4A1370344A4FF6FF7122F813104F
S214402620591C40F6FF7022F811000233002122F8B0
S214402630131052E03B1FDBB2032B14D807F00307FE
S21440264007EB47072F4B1F702F4B4FF6FF7223F8B1
S21440265017207A1C40F6FF7123F81210023700222A
S21440266023F8172039E0A7F10803DBB2032B14D870
S21440267007F0070707EB4707224B1F70234B4FF621
S214402680FF7223F817207A1C40F6FF7123F81210C9
S2144026900237002223F817201FE0A7F10C03DBB215
S2144026A0032B1AD81A4BA3FB0723DB0803EB430381
S2144026B0A7EB830707EB4707FBB2124A1370154A8E
S2144026C04FF6FF7122F81310591C40F6FF7022F89F
S2144026D011000233002122F813100F4B9847BDE833
S2144026E0F88F00BF51224000940600205406002078
S2144026F003000080070000808CC700203A070020B7
S214402700300700208DC70020AC060020C4060020FD
S214402710ABAAAAAADC06002079224000ABAAAA2AC5
S21440272008B5EF2931D006D8BF293ED0DF2934D0AE
S2144027307F2949D141E0FB2917D002D8F7291CD080
S21440274042E0FD2909D0FE293ED14F4AD36B013BDA
S214402750002BB8BF5B42D36336E04B4A936B013BDA
S214402760002BB8BF5B4293632EE0474A536B013B56
S214402770002BB8BF5B42536326E0434A136B013BD2
S214402780002BB8BF5B4213631EE03F4AD36A013B4F
S214402790002BB8BF5B42D36216E03B4A936A013BCC
S2144027A0002BB8BF5B4293620EE0374A536A013B48
S2144027B0002BB8BF5B42536206E0334A136A013BC4
S2144027C0002BB8BF5B421362EF2831D006D8BF2833
S2144027D03ED0DF2834D07F2849D141E0FB2817D0AF
S2144027E002D8F7281CD042E0FD2809D0FE283ED16A
S2144027F0254AD369013B002BB8BF5B42D36136E024
S214402800214A9369013B002BB8BF5B4293612EE09F
S2144028101D4A5369013B002BB8BF5B42536126E01B
S214402820194A1369013B002BB8BF5B4213611EE097
S214402830154AD368013B002BB8BF5B42D36016E015
S214402840114A9368013B002BB8BF5B4293600EE091
S2144028500D4A5368013B002BB8BF5B42536006E00D
S214402860094A1368013B002BB8BF5B421360064918
S214402870064B1878064B9847064B9847064B1878F1
S214402880064B984708BD00BF54060020300700207E
S214402890D53840008535400028070020E124400018
S2144028A090B1012812D0022812D0032812D0042852
S2144028B012D0052812D0062812D0072812D0082891
S2144028C00CBF20200120704701207047022070472F
S2144028D00420704706207047082070470C20704739
S2144028E01020704718207047034B1B68072B02DCEC
S2144028F00133014A1360704708070020034B1B68EA
S214402900002B02DD013B014A136070470807002098
S214402910054B1A88054B1B78D118B1F57A7F01DA3A
S214402920014A1180704700BF420700203E07002042
S214402930044B1B88044A1278991A132901DD014A70
S21440294011807047420700203E0700200C4B1B7842
S214402950012B03D105220A4B1A707047052B03D171
S2144029600A22074B1A7070470A2B03D11422044BD5
S2144029701A707047142B02D10122014B1A7070470F
S2144029803E070020034B1B780E2B02D80133014A2A
S2144029901370704730070020034B1B7813B1013B80
S2144029A0014A1370704700BF30070020034B1B7866
S2144029B00E2B02D80133014A1370704700070020DF
S2144029C0034B1B7813B1013B014A1370704700BF9D
S2144029D000070020034B1B5C0E2B02D80133014A34
S2144029E01354704724070020034B1B5C13B1013B74
S2144029F0014A1354704700BF24070020054B1A783D
S214402A00054B53F822300E2B03DC0133024941F8C4
S214402A1022307047000700204CC70020054B1A782C
S214402A20054B53F82230002B03DD013B024941F8A9
S214402A3022307047000700204CC70020F8B5894B6D
S214402A401F681D68884C23780D4214BF0121002161
S214402A5041EA4301854D2E78074214BF01230023E7
S214402A6043EA460303F00F032B7001F00F01217079
S214402A70092B7FD1032940F043814AB97C4B9847C4
S214402A807C4C20887C4B984720887C4B9847F8BDE8
S214402A90012A0CD17A4B9847764B1888764B984744
S214402AA0784B1878784B9847784B9847F8BD022A69
S214402AB016D1774B1B7833B9764B9847764B1878B8
S214402AC0764B9847F8BD012B40F01A81744B9847D7
S214402AD0744B1A78744B13F82200744B9847F8BD21
S214402AE0032A1AD1724B1B78012B0FD1714B1A78DF
S214402AF0B2F1FF3F14BF012200221A7014BF012119
S214402B000021684B18786C4B9847F8BD6B4B98473C
S214402B10644B18786A4B9847F8BD042A08D10020C1
S214402B20684B9847684B59781878684B9847F8BD73
S214402B30052A08D10120634B9847634B597818788B
S214402B40624B9847F8BD062A08D102205D4B98474D
S214402B505D4BD97898785E4B9847F8BD072A40F089
S214402B60CF800320574B9847574BD9789878584B87
S214402B709847F8BD032B40F0C380092940F0C08039
S214402B804AB9544B98473B4C20883B4B9847208843
S214402B903A4B9847F8BD012A0CD14F4B9847354BD6
S214402BA01888354B9847374B1878374B9847374BEC
S214402BB09847F8BD022A16D1354B1B7833B9474B98
S214402BC09847354B1878354B9847F8BD012B40F061
S214402BD09780434B9847334B1A78334B13F8220071
S214402BE0324B9847F8BD032A1AD1314B1B78012B3C
S214402BF00FD1304B1A78B2F1FF3F14BF01220022AA
S214402C001A7014BF01210021264B18782A4B98478A
S214402C10F8BD344B9847234B1878294B9847F8BD56
S214402C20042A08D10020304B9847274B597818780B
S214402C30264B9847F8BD052A08D101202A4B9847CD
S214402C40214B59781878214B9847F8BD062A4DD124
S214402C500220254B98471C4BD97898781C4B9847B0
S214402C60F8BD00BF3C0E0E404A0700203F0700203C
S214402C7011294000420700202D3B4000F51340003C
S214402C80E928400008070020A128400059144000C9
S214402C9049070020852940003007002029154000BC
S214402CA0FD294000000700204CC700207515400055
S214402CB03D0700204807002005134000AD2940008E
S214402CC0C1154000D5294000240700200D164000BD
S214402CD0A516400031294000FD28400099294000B3
S214402CE01D2A4000C1294000E9294000072A07D193
S214402CF00320044B9847044BD9789878034B984761
S214402D00F8BD00BFE929400024070020A516400072
S214402D1010B50446EF294CD006D8BF295FD0DF292E
S214402D2052D07F2970D165E0FB2907D0FE2902D01A
S214402D30F72969D11AE0564B984765E0554A13780B
S214402D40013B002BB8BF5B42DBB2137023B9524B3A
S214402D501878524B984757E0012B55D1504B1A786C
S214402D60504B13F82200504B98474DE04F4B1B7882
S214402D7063B900214A4B18784D4B984701224B4B7C
S214402D801A707F2C65D0BF2C42D010BD012B79D154
S214402D90484B1B781BB1424B1878474B984700234B
S214402DA0444A1370414A13703D4B1878434B98473A
S214402DB02AE0434A1378013B002BB8BF5B421370AE
S214402DC00020404B98471FE03D4A5378013B002B7C
S214402DD0B8BF5B42537001203A4B984714E0384ADC
S214402DE09378013B002BB8BF5B4293700220354B73
S214402DF0984709E0324AD378013B002BB8BF5B4284
S214402E00D37003202F4B98477F2C1ED0BF2C3DD12C
S214402E10264B1B78012B11D1264A137883F00103E9
S214402E2013702BB101211E4B1878214B984710BDCB
S214402E3000211B4B18781E4B984710BD224B9847D5
S214402E40174B18781D4B984710BD184B1B78012B15
S214402E5011D1184A137883F0010313702BB1012166
S214402E600F4B1878124B984710BD00210C4B187822
S214402E700F4B984710BD154B9847094B18780F4B8A
S214402E80984710BD7F28F6D0BF28C1D010BD00BFE0
S214402E904D294000490700203007002029154000F2
S214402EA0000700204CC70020751540003D07002055
S214402EB0051340004807002009394000C11540006E
S214402EC02C07002035044000C1294000AD294000B1
S214402ED070B47822A84B1A800122A84B1A7000239F
S214402EE0A74A1370A74A1370A74A1370A74A1370CD
S214402EF0A74A1370A74A1370A74A1370A74A1368C5
S214402F0043F400631360A64D2B6843F004032B6024
S214402F10A44C236843F004032360A348036843F0AB
S214402F2004030360A14B1A6842F004021A60A049E9
S214402F300A6842F480220A6020310A6842F48022FD
S214402F400A602A6842F001022A60226842F00102C2
S214402F502260026842F0010202601A6842F00102F2
S214402F601A6054310A6842F001020A60914A1668B3
S214402F7046F0010616602E6846F002062E60266869
S214402F8046F002062660066846F0020606601E68A0
S214402F9046F002061E600E6846F002060E60166890
S214402FA046F0020616602E6846F040062E602668FA
S214402FB046F040062660066846F0400606601E68F4
S214402FC046F040061E600E6846F040060E601668E4
S214402FD046F0400616602E6846F080062E6026684C
S214402FE046F080062660066846F0800606601E6844
S214402FF046F080061E600E6846F080060E60166834
S21440300046F0800616602E6846F480762E60266867
S21440301046F480762660066846F4807606601E682B
S21440302046F480761E600E6846F480760E6016681B
S21440303046F4807616602E6846F400762E60266843
S21440304046F400762660066846F4007606601E68FB
S21440305046F400761E600E6846F400760E601668EB
S21440306046F4007616602E6846F480362E60266853
S21440307046F480362660066846F4803606601E684B
S21440308046F480361E600E6846F480360E6016683B
S21440309046F4803616602E6846F400362E60266863
S2144030A046F400362660066846F4003606601E681B
S2144030B046F400361E600E6846F400360E6016680B
S2144030C046F4003616602E6846F480162E60266853
S2144030D046F480162660066846F4801606601E682B
S2144030E046F480161E600E6846F480160E6016681B
S2144030F046F4801616602E6846F400162E60266843
S21440310046F400162660066846F4001606601E68FA
S21440311046F400161E600E6846F400160E601668EA
S21440312046F4001616602E6846F480062E60266822
S21440313046F480062660066846F4800606601E68EA
S21440314046F480061E600E6846F480060E601668DA
S21440315046F4800616602E6846F400062E60266802
S21440316046F400062660066846F4000606601E68BA
S21440317046F400061E601FE0420700203E0700207F
S214403180490700203D070020480700203C07002054
S214403190400700203F0700204A07002010040E404A
S2144031A0000E0E40140E0E40900E0E40640E0E4062
S2144031B0100E0E40200E0E400E6846F400060E60BE
S2144031C0166846F4000616602E6846F080762E6036
S2144031D0266846F080762660066846F0807606606A
S2144031E01E6846F080761E600E6846F080760E605A
S2144031F0166846F0807616602E6846F000762E609A
S214403200266846F000762660066846F00076066039
S2144032101E6846F000761E600E6846F000760E6029
S214403220166846F0007616602E6846F080662E6079
S214403230266846F080662660066846F08066066029
S2144032401E6846F080661E600E6846F080660E6019
S214403250166846F0806616602E6846F000662E6059
S214403260256845F000652560046844F00064046005
S214403270186840F0006018600B6843F000630B600D
S214403280136843F0006313604D4B1B684D4B186842
S21440329040F0040018604C4C206840F00400206069
S2144032A0086840F004000860116841F004011160AD
S2144032B01A6842F001021A60444A116841F001015E
S2144032C01160196841F002011960116841F002016D
S2144032D01160196841F040011960116841F04001E1
S2144032E01160196841F080011960116841F0800151
S2144032F01160196841F480711960116841F4807159
S2144033001160196841F400711960116841F4007148
S2144033101160196841F480311960116841F48031B8
S2144033201160196841F400311960116841F40031A8
S2144033301160196841F480111960116841F48011D8
S2144033401160196841F400111960116841F40011C8
S2144033501160196841F480011960116841F48001D8
S2144033601160196841F400011960116841F40001C8
S2144033701160196841F080711960116841F08071E0
S2144033801160196841F000711960116841F00071D0
S2144033901160196841F080611960116841F08061E0
S2144033A01160196841F000611960136843F00063CA
S2144033B013604FF40062064B1A6070BC704700BF43
S2144033C04C0E0E40400E0E40D00E0E40D40E0E4018
S2144033D000E100E038B5494B1B6813F0030F05D0F9
S2144033E0002202210120464B984738BD13F0040FB7
S2144033F036D0444A13780133DBB21370022B7CD1AB
S214403400414B1B78CBB9414A136843F48023136081
S21440341001253D4B1D7000203D4CA0472846A04747
S2144034200220A0470320A04700223A4B1A803A4A7F
S214403430136843F0020313600EE0012B0CD1374AA9
S214403440136843F48023136000222F4B1A70324ACD
S214403450136843F00503136000222A4B1A7038BDE8
S21440346013F0C00F05D0012280214020244B9847FE
S21440347038BD13F4407F07D002224FF400714FF45A
S21440348080701F4B984738BD13F4806F35D113F4C6
S214403490403F07D003224FF400314FF48030184BA2
S2144034A0984738BD13F4401F07D004224FF400114C
S2144034B04FF48010124B984738BD13F4400F07D096
S2144034C005224FF400014FF480000D4B984738BD5D
S2144034D013F0407F07D006224FF000714FF0807007
S2144034E0074B984738BD13F0406F06D007224FF081
S2144034F000614FF08060024B984738BD4C0E0E403E
S2144035003D2A4000400700203C070020340E0E4075
S214403510350440002007002000000140300E0E40D9
S21440352048B9174B1A6822F001021A601A6842F02E
S21440353002021A607047012809D1114B1A6822F01E
S21440354001021A601A6822F002021A6070470228C6
S21440355009D10B4B1A6842F001021A601A6842F011
S21440356002021A607047032808D1054B1A6842F0D9
S21440357001021A601A6822F002021A60704700BF01
S2144035803080004008B5144A136843F400131360B3
S214403590124B1A6842F001021A601A6822F00202C0
S2144035A01A6000200E4B98470E4A136843F4A063F7
S2144035B013600D4B1A6842F400621A601A6842F4AF
S2144035C000521A601A6842F480421A60074A13682A
S2144035D043F00103136008BD10040E400480004011
S2144035E02135400030800040040E0E4000800040F0
S2144035F008B53A490B6843F400530B60384A1368E1
S21440360043F400531360374B186840F4005018607A
S214403610086840F480400860106840F480401060BD
S214403620186840F480401860086840F00100086060
S214403630106840F001001060186840F00100186003
S214403640086840F002000860106840F00200106011
S214403650186840F002001860086840F004000860EF
S214403660106840F004001060186840F004001860CD
S214403670086840F008000860116841F008011160D1
S2144036801A6842F008021A60174A136843F4001397
S2144036901360164B1A6842F001021A601A6822F04C
S2144036A002021A600020124B9847124A136843F4ED
S2144036B0A0531360104B1A6842F400621A601A68EE
S2144036C042F400521A601A6842F480421A600B4A6A
S2144036D0136843F00103136008BD00BF00100E409E
S2144036E010100E4030100E4010040E400480004073
S2144036F02135400030800040040E0E4000800040DF
S214403700044A136813F0020FFBD0034A13681843A9
S21440371010607047108000400C80004089B9284BEC
S2144037201B78284A117800EB400003EB43029201D5
S21440373002EB800001EB410100EB8123224AD25884
S2144037403AE0012911D11E4B5A781E4B597800EBAE
S214403750400002EB4202920102EB800201EB410183
S21440376002EB8120184B1A5826E0022911D1144B3F
S2144037709A78144B997800EB400002EB4202920193
S21440378002EB800201EB410102EB81200E4B1A58FE
S21440379012E0032910D10A4BDB780A4AD27800EBB4
S2144037A0400003EB43039B0103EB800002EB420225
S2144037B000EB8220044B1A58044B53F82200704703
S2144037C010070020240700204C070020100000208F
S2144037D091B9324B1978324B1B7800EB400003EB23
S2144037E04302920202EB800001EB410300EB83139D
S2144037F02C4A134458687047012912D1274B5978F0
S214403800274B5A7800EB400002EB4202920202EB52
S214403810800201EB410102EB8110224B03445868C1
S2144038207047022912D11D4B99781D4B9A7800EBB0
S214403830400002EB4202920202EB800201EB4101A1
S21440384002EB8110174B034458687047032912D186
S214403850124BD978124BDA7800EB400002EB42026A
S214403860920202EB800201EB410102EB81100D4B0C
S214403870034458687047094B1B78094A127800EB96
S214403880400002EB4202920202EB800203EB43004E
S21440389002EB8010034B1844406870471007002026
S2144038A0240700204C070020084B1B7801EB410101
S2144038B003EB43039B0203EB810100EB400001EB6B
S2144038C08011034801444868704700BF0007002045
S2144038D04C07002010B40A4B1C780A1F00EB40002F
S2144038E004EB4404A40204EB8010064B03443C3132
S2144038F052F8040F58600C338A42F9D110BC704716
S214403900000700204C07002010B400EB40030C4A90
S21440391002EB8323013000EB400002EB8024302092
S214403920002107E0186059600C339342FAD11346E1
S214403930944202D003F1C002F4E710BC704700BFC7
S2144039404C07002030B40D4C04F540453020002193
S2144039500EE0186059600C339342FAD113469442F5
S21440396002D003F1C002F4E704F54064A54202D059
S214403970A4F54063F5E730BC704700BF4C13002009
S21440398010B4114B1978114B1B7800EB400403EB35
S2144039904302920102EB840201EB410402EB8422D3
S2144039A00B4CA458772C0DDC00EB400003EB430295
S2144039B0920102EB800001EB410100EB81230134D0
S2144039C0034AD45010BC7047000700203007002040
S2144039D04C07002010B4114B1978114B1B7800EBA4
S2144039E0400403EB4302920102EB840201EB4104E4
S2144039F002EB84220B4CA458002C0DDD00EB40005B
S214403A0003EB4302920102EB800001EB410100EB25
S214403A108123013C034AD45010BC70470007002065
S214403A20300700204C07002000232E4A13802E4AE1
S214403A3013802E4A138002212D4A11602D4A13709E
S214403A402D4A13700F202D4A10702D4A13702D4AA0
S214403A5013702D4A13700120507091700321D1705D
S214403A602A4A137053709370D370294A1370537058
S214403A709370D370274A137053709370D3704FF47B
S214403A800002254B1A60254B1A6842F400021A6061
S214403A901A6842F080721A6001F1804101F101110A
S214403AA00A6844F201031A430A601D4A11680B4330
S214403AB01360203A136843F01003136040321368D3
S214403AC043F01003136040F2E242164B1A6040F691
S214403AD0C41240331A60144A136843F00503136057
S214403AE0704700BF20070020020700200407002080
S214403AF008070020300700200C0700202807002079
S214403B003A07002000070020240700201007002066
S214403B10340700202C07002000E100E010040E408F
S214403B20440001401C0001400000014001280EDD19
S214403B3010B50446064B1878064B984704FB00F031
S214403B40054C94FBF0F080B2044B186010BD7047F3
S214403B5008070020A1284000F82401001C0001406E
S214403B6070B55E4B1B6813F0100F11D05C4A13887B
S214403B7001339BB213805B4A12889A4208D10020D8
S214403B80594CA0470120A0470220A0470320A04749
S214403B90534B1A8849F63F439A4240F28180534B32
S214403BA01B780F2B23D1524B1B78524A1178524A1E
S214403BB052F82120934203DA01334D4A137002E053
S214403BC000224B4B1A704D4B4D4903F11004002513
S214403BD013F8012F51F8040F8242BABF01321A700F
S214403BE01D70A342F4D10022404B1A7002E001330C
S214403BF03E4A1370434B98473C4C2078424B98477C
S214403C0000212078414EB0470021414DA847012170
S214403C102078B0470121A84702212078B0470221EA
S214403C20A84703212078B0470321A84700212078E1
S214403C30384B9847012805D1374B1B7813B90020DD
S214403C40364B98470121294B1878324B9847012824
S214403C5004D1314B5B780BB9304B98470221234B4C
S214403C6018782C4B9847012805D12B4B9B7813B9D5
S214403C7002202A4B984703211C4B1878254B98471F
S214403C80012805D1244BDB7813B90320234B9847F2
S214403C90234A136843F0020313600022104B1A8035
S214403CA0204B1B6813F0100F03D01F4A13880133B4
S214403CB013801D4B1A8842F20F739A420DD9002387
S214403CC01A4A1370184A1380194A136843F00203BD
S214403CD01360084B1878174B984770BD200001407A
S214403CE02007002038070020350440002807002021
S214403CF03A070020000700204CC700200F0700208E
S214403D0048C7002085354000E12440001D3740006C
S214403D1009034000D13740002C070020FD03400037
S214403D200080034060000140020700203D0700205D
S214403D3040000140C1154000704700BF10B50E4816
S214403D400E4B984710200E4B98470E4CA047002825
S214403D50FCD00D4B98470D4A0D4B9A620D4CA04730
S214403D600028FCD010200C4B98470C4B9847024834
S214403D70024B984710BD00BF00E1F50531404000BA
S214403D80093E4000553E4000653E4000013F182039
S214403D9000040E40753E4000A13D4000213F4000DB
S214403DA0184A136B23F0700318431063936E13F096
S214403DB0080F03D009E0013B03D11EE04FF4006337
S214403DC010498A6E12F0080FF5D00E4A136B23F096
S214403DD0030343F002031363906E10F0080004D010
S214403DE000207047013B03D109E04FF400630549CA
S214403DF08A6E12F0080FF5D07047012070470120F8
S214403E00704700BF00040E40114B1A6A42F45C1221
S214403E1042F008021A621A46936E13F4003FFBD033
S214403E200B4A136A23F45C1323F0700343F45C13C9
S214403E3003431362936E13F4003FFBD0044A136AA5
S214403E4023F09B7323F4803343F45C131362704770
S214403E5000040E40024B986E00F48030704700BF5E
S214403E6000040E404FF00052014B9A62704700BF6C
S214403E7000040E40024B986E00F00200704700BFF0
S214403E8000040E40FEE700BF08B5194B194A9A4297
S214403E9003D0194B164A9A4204D3184B184A9A42F2
S214403EA00FD31AE01249174B5B1A23F0030304336F
S214403EB0104A134452F8040B41F8040B9A42F9D1C5
S214403EC0EBE7114B114AD21A22F003021A44043B84
S214403ED0002143F8041B9342FBD10D4A0D4B23F0BF
S214403EE07F0393600C4B98470C4B9847FEE700BF08
S214403EF000000020BC5C40002806002090C7002040
S214403F0028060020270600202C06002093C7002005
S214403F1000ED00E00000400095494000ED424000C2
S214403F203C4B1B6B03F00303012B0FD013B1022B4A
S214403F3029D057E0384B5B6913F0800F14BF4FF41D
S214403F4000424FF4FA42354B1A604BE0314B1B6A45
S214403F5013F0807F03D0324A304B1A6042E0314A39
S214403F602E4B1A602B4B1B6A03F07003102B02D0AB
S214403F70202B04D036E02C4A284B1A6032E0284AE0
S214403F80264B1A602EE0234B1B6A13F0807F03D02B
S214403F90234A224B1A6012E0224A204B1A601D4BDD
S214403FA01B6A03F07003102B02D0202B04D006E0CF
S214403FB01D4A1A4B1A6002E0194A184B1A60154BF4
S214403FC01B6B03F00303022B0CD1124A936A926ACE
S214403FD01248C3F30A41036801FB0333D2B2B3FB72
S214403FE0F2F303600B4B1B6B03F07003702B07D18F
S214403FF00A4A13680D49A1FB03135B081360704718
S214404000044B1B6B0549C3F302120B68D3400B608D
S214404010704700BF00040E4010140E40F801002008
S214404020001BB70000093D0000127A00ABAAAAAAFE
S2144040300F4B984204D84FF080620E4B1A60704780
S2144040400D4B984203D80D4A0A4B1A6070470C4BEA
S214404050984203D80B4A074B1A6070470A4B98425F
S21440406094BF0A4A4FF00422024B1A60704700BFC2
S214404070FF2C3101000A0E40FF5962020001000485
S214404080FF86930300020004FFB3C4040003000449
S21440409070B42B4A136843F480531360294D2B6841
S2144040A043F480632B60284C236843F4806323608A
S2144040B02648036843F48063036025490B6843F44D
S2144040C080630B6002F67442136843F480631360A7
S2144040D0204B1E6846F480661E602E6846F40066D6
S2144040E02E60256845F400652560046844F4006445
S2144040F00460086840F400600860116841F400619C
S21440410011601A6842F400621A602C331B68124A27
S214404110136843F480631360104B196841F4806160
S2144041201960116841F4006111601A6842F4006237
S2144041301A604FF480520A4B1A6070BC704700BF3A
S21440414010040E4000100E4014100E4090100E400A
S21440415064100E4020100E4040100E40D0100E400E
S21440416000E100E0124B80221A6012490A6842F4CD
S21440417000220A60104A116841F008011160116877
S21440418041F010011160A2F54822A2F6F4521168DF
S21440419041F079011160116841F4F24111601A68EA
S2144041A042F020021A601A6842F004021A60704711
S2144041B00080014010040E40040E0E402DE9F04FE2
S2144041C089B0DFF88C8002AFB8F80030ADF8083020
S2144041D020268DF81C600025049505974FF0020BAD
S2144041E0CDF818B003A91848184CA04701AA434672
S2144041F033F804AF93F80290ADF804A08DF806901B
S2144042008DF81C60049505920326069603A90E4871
S214404210A0474FF024088DF81C8004950597CDF8EC
S21440422018B003A90848A047ADF800A08DF8029042
S2144042308DF81C800495CDF814D0069603A9024844
S214404240A04709B0BDE8F08F00800140A1024000C1
S214404250885C4000F0B58DB0074600248DF80440D9
S21440426020268DF81860039401AB04930123059330
S214404270084D02A92846084B98478DF82C600894AC
S214404280099702230A9307A92846044B98470DB07E
S214404290F0BD00BF00800140A1024000C1014000C7
S2144042A0F0B58DB0074600248DF8044024268DF8DE
S2144042B01860039401AB049301230593084D02A9AB
S2144042C02846084B98478DF82C6008940997022397
S2144042D00A9307A92846044B98470DB0F0BD00BF87
S2144042E000800140A1024000C101400008B5214BBA
S2144042F098474FF40042204B5A60204B9847204B3B
S2144043009847204B9847204B9847204B9847204B40
S2144043109847204B9847204B9847204B9847204B30
S2144043209847204C2088204B9847204B9847204859
S214404330204B9847204B98473020204B9847208862
S2144043401F4B98471F4B18781F4B98471F4B984753
S2144043501F4B18781F4B98471F4B18781F4B984792
S2144043601F4C617820781F4B9847E178A0781E4B09
S2144043709847FEE73D3D400050140E40393D400012
S214404380853540006541400091404000293A400054
S2144043901D014000051840003D074000D12E40005A
S2144043A079224000420700202D3B4000BD4140009E
S2144043B0FC060020A142400045394000B90E4000AE
S2144043C0F513400008070020A1284000591440007B
S2144043D03A0700202915400000070020C11540007C
S2144043E0240700200D164000A516400010B5204BAF
S2144043F01B6813F4806F1BD01E4C20461E4B9847FC
S2144044002078FF2802D16378FF2B2FD01B4B1870E3
S214404410184A517859701A4A13780133DBB2137030
S214404420012B23D9174B98470022154B1A7010BD05
S21440443013F4006F1AD00F4C2046134B9847207841
S214404440FF2802D16378FF2B10D0104B1870094A12
S214404450517859700E4A13780133DBB21370012B32
S21440446004D90C4B98470022094B1A7010BD00BF68
S2144044704C100E40F4060020A1424000FC060020EE
S214404480FF0600202127400055424000F806002045
S214404490FE060020112D400080F0004002E000BFE4
S2144044A081F0004142001FBF5FEA410392EA030FDA
S2144044B07FEA226C7FEA236C6AD04FEA1262D2EB24
S2144044C01363C1BFD218414048404140B8BF5B4229
S2144044D0192B88BF704710F0004F40F4000020F0C2
S2144044E07F4018BF404211F0004F41F4000121F0D8
S2144044F07F4118BF494292EA030F3FD0A2F1010222
S21440450041FA03FC10EB0C00C3F1200301FA03F15F
S21440451000F0004302D5494260EB4000B0F5000F82
S21440452013D3B0F1807F06D340084FEA310102F141
S2144045300102FE2A51D2B1F1004F40EBC25008BFF3
S21440454020F0010040EA03007047490040EB0000BD
S21440455010F4000FA2F10102EDD1B0FA80FCACF1EC
S214404560080CB2EB0C0200FA0CF0AABF00EBC250EB
S21440457052421843BCBFD0401843704792F0000FD9
S21440458081F4000106BF80F400000132013BB5E72C
S2144045904FEA41037FEA226C18BF7FEA236C21D0A2
S2144045A092EA030F04D092F0000F08BF0846704707
S2144045B090EA010F1CBF0020704712F07F4F04D1D5
S2144045C0400028BF40F00040704712F100723CBFE8
S2144045D000F50000704700F0004343F0FE4040F412
S2144045E0000070477FEA226216BF08467FEA2363D0
S2144045F00146420206BF5FEA412390EA010F40F4BB
S214404600800070474FF0000304E000BF10F0004306
S21440461048BF40425FEA000C08BF704743F09643ED
S21440462001464FF000001CE050EA010208BF704708
S2144046304FF000030AE000BF50EA010208BF70478F
S21440464011F0004302D5404261EB41015FEA010CA4
S21440465002BF84460146002043F0B64308BFA3F19C
S2144046608053A3F50003BCFA8CF2083AA3EBC2537E
S21440467010DB01FA02FC634400FA02FCC2F120029D
S214404680BCF1004F20FA02F243EB020008BF20F0D4
S2144046900100704702F1200201FA02FCC2F120023A
S2144046A050EA4C0021FA02F243EB020008BF20EA2F
S2144046B0DC7070474FF0FF0C1CEAD0521EBF1CEA5D
S2144046C0D15392EA0C0F93EA0C0F6FD01A4480EA4B
S2144046D0010C400218BF5FEA41211ED04FF0006334
S2144046E043EA501043EA5111A0FB01310CF0004060
S2144046F0B1F5000F3EBF490041EAD3715B0040EA86
S214404700010062F17F02FD2A1DD8B3F1004F40EB55
S214404710C25008BF20F00100704790F0000F0CF028
S214404720004C08BF49024CEA502040EA51207F3AEC
S214404730C2BFD2F1FF0340EAC250704740F40000C7
S2144047404FF00003013A5DDC12F1190FDCBF00F0B8
S21440475000407047C2F10002410021FA02F1C2F166
S214404760200200FA02FC5FEA310040F1000053EA02
S2144047704C0308BF20EADC70704792F0000F00F050
S214404780004C02BF400010F4000F013AF9D040EA56
S2144047900C0093F0000F01F0004C02BF490011F4EA
S2144047A0000F013BF9D041EA0C018FE70CEAD153E8
S2144047B092EA0C0F18BF93EA0C0F0AD030F0004C68
S2144047C018BF31F0004CD8D180EA010000F000401C
S2144047D0704790F0000F17BF90F0004F084691F0DA
S2144047E0000F91F0004F14D092EA0C0F01D1420214
S2144047F00FD193EA0C0F03D14B0218BF084608D1DD
S21440480080EA010000F0004040F0FE4040F4000026
S214404810704740F0FE4040F4400070474FF0FF0CB9
S2144048201CEAD0521EBF1CEAD15392EA0C0F93EA00
S2144048300C0F69D0A2EB030280EA010C49024FEA52
S214404840402037D04FF0805343EA111143EA10130B
S2144048500CF000408B4238BF5B0042F17D024FF4C3
S214404860000C8B4224BF5B1A40EA0C00B3EB510F9E
S21440487024BFA3EB510340EA5C00B3EB910F24BF87
S214404880A3EB910340EA9C00B3EBD10F24BFA3EB0C
S214404890D10340EADC001B0118BF5FEA1C1CE0D1D4
S2144048A0FD2A3FF650AF8B4240EBC25008BF20F087
S2144048B0010070470CF0004C4CEA50207F32C2BFDB
S2144048C0D2F1FF0340EAC250704740F400004FF078
S2144048D00003013A37E792F0000F00F0004C02BFA9
S2144048E0400010F4000F013AF9D040EA0C0093F073
S2144048F0000F01F0004C02BF490011F4000F013BCD
S214404900F9D041EA0C0195E70CEAD15392EA0C0F34
S21440491008D142027FF47DAF93EA0C0F7FF470AF6C
S214404920084676E793EA0C0F04D14B023FF44CAFAF
S21440493008466EE730F0004C18BF31F0004CCAD144
S21440494030F000427FF45CAF31F000437FF43CAF80
S2144049505FE700BF42000ED2B2F1FE4F0BD34FF0DE
S2144049609E03B3EB126209D44FEA002343F00043A0
S21440497023FA02F070474FF00000704712F1610FC3
S21440498001D1420202D14FF0FF3070474FF0000095
S214404990704700BF70B50F4E0F4D761BB61018BF50
S2144049A0002405D0013455F8043B9847A642F9D177
S2144049B00A4E0B4D761B01F06FF9B61018BF002457
S2144049C006D0013455F8043B9847A642F9D170BD4D
S2144049D070BD00BFA45C4000A45C4000AC5C4000DE
S2144049E0A45C4000024B13B1024800F005B8704783
S2144049F000000000054A4000002301461A461846BB
S214404A0000F014B838B5074D074C2C1BA41005D041
S214404A10013C55F8043D9847002CF9D1BDE8384094
S214404A2001F044B9BC5C4000B85C40002DE9F0475A
S214404A30254C2568D5F8484106468846924699460C
S214404A40C4B360681F2817DC431C76B104EB8005AE
S214404A500122C5F888A0D4F8881182401143022E5E
S214404A60C4F88811C5F808911ED00230636044F837
S214404A7020800020BDE8F087144B03B34FF4C87085
S214404A80AFF300800446D0B1D5F84831002780E81F
S214404A908800C5F8484138460123C4F88871C4F8F0
S214404AA08C71002EE1D0D1E7D4F88C110A43C4F8BB
S214404AB08C21DAE705F5A674C5F84841C1E74FF002
S214404AC0FF30BDE8F08700BF945C40000000000067
S214404AD03030FFFF30303030FFFF30300C0CFFFFFF
S214404AE00C0C0C0CFFFF0C0C00000000000000003B
S214404AF00000000000000000000080E0703C0F0353
S214404B000080E0703C0F0301000000000607010033
S214404B100000000000000000FEFF03030303030341
S214404B200303FFFEFFFF0000000000000000FFFF41
S214404B3003070606060606060606070303030303E0
S214404B4003FFFF00000000000000000000FFFF0021
S214404B500000F8F8060606060607070606060707D4
S214404B6003030303030303030303FFFEFEFF0303E2
S214404B7003030303030303010707060606060606A8
S214404B800606060603030303030303030303FFFEAD
S214404B9000000303030303030303FFFC06060606A5
S214404BA0060606060606070300FFFF000000000094
S214404BB000FCFC00000F0F0C0C0C0C0C0CFFFF0C48
S214404BC00000000000000000000707000000FFFF94
S214404BD00303030303030303000003030303030366
S214404BE00303FFFE0303070606060606060607033C
S214404BF0FFFF03000000000000000000FFFF0C0C59
S214404C000C0C0C0C0C0CFCFC0707060606060606ED
S214404C100606070707070303030303030303FFFF11
S214404C200000000000F8FC0E060301000000000033
S214404C3000070700000000000000FFFF0303030317
S214404C40FFFF0000FEFF0303030303030303FFFE0F
S214404C50030706060606060606060703FFFF8383C7
S214404C60838383838383FFFF0101010101010101E7
S214404C700101FFFF000000000000000000060707DB
S214404C8000000000787878780000000000000000FF
S214404C9078787878000000000000000000000000EF
S214404CA00000000080C0606030180C8CC7C67C389E
S214404CB00100787C0606030101000000000006069D
S214404CC00000000000000000000000C0F87F7FF8F1
S214404CD0C000000000E0FC3F333030333FFCE000D3
S214404CE0070700000000000000000707FFFF03035F
S214404CF0030303030386FEF8FFFF030303030303D4
S214404D000307FFFC0707060606060606060303001B
S214404D1080E0781E07030303030303030F3FF0C03E
S214404D200000000000000000000000030706060622
S214404D30060606060303FFFF030303071E78E0800C
S214404D400000FFFF00000000C0F03F0F0606070708
S214404D500606060703000000FFFF030303030303E2
S214404D6003030303FFFF03030303030000000000E5
S214404D70070706060606060606060606FFFFC3C320
S214404D80C3C3C3C3C3C30303FFFF00000000000048
S214404D9000000000070700000000000000000000C0
S214404DA0C0E0381C0E07030303030303FFFF0000A5
S214404DB000000C0C0C0CFCFC01030606060606065E
S214404DC006060301FFFF0000000000000000FFFF92
S214404DD0FFFF0303030303030303FFFF070700006C
S214404DE000000000000007070303030303FFFF0360
S214404DF0030303030000000000FFFF000000000064
S214404E000606060606070706060606060000000013
S214404E100000000000FFFF0000FCFC000000000057
S214404E2000FFFF0000010306060606060603010013
S214404E30FFFF0080C06030180C060301FFFF0F0D17
S214404E40183060C080000000070700000000000027
S214404E5001030604FFFF0000000000000000000001
S214404E60FFFF0000000000000000000007070606E5
S214404E700606060606060606FFFF0F1C78E0E078E4
S214404E801C0EFFFFFFFF0000000101000000FFFFB7
S214404E90070700000000000000000707FFFF1E7C19
S214404EA0F0C000000000FFFFFFFF000001071F7C6E
S214404EB0F0C0FFFF070700000000000001030707DF
S214404EC080E0F83E0F03030F3EF8E0800F3FF8E027
S214404ED080000080E0F83F0F00000003070606074A
S214404EE003000000FFFF0303030303030303FEFC6A
S214404EF0FFFF0C0C0C0C0C0C0C0C070307070000F7
S214404F000000000000000000FFFF8383838383834C
S214404F108383FE7CFFFF010101030F3D71E18000AA
S214404F200707000000000000000107060E1F73E39D
S214404F30C383030303030F0E8080000001030E1C8F
S214404F403870C080030706060606060606060703F0
S214404F500F0F030303FFFF0303030F0F00000000C0
S214404F6000FFFF00000000000000000000070700F0
S214404F70000000001F3F70E0C08080C0E0703F1F10
S214404F800000000001FFFF010000000000000000DC
S214404F900007070000000000FFFF80C06060606000
S214404FA060C08000FFFF8100000000000000FFFF9F
S214404FB00707030306060606060301006060FEFEBA
S214404FC060606060606060000000FFFF00000000FE
S214404FD0000080800000010306060606060703015F
S214404FE00C0300000000000000000000000000006D
S214404FF0000000000000000000000000000000006C
S214405000000000000000000000000000000000005B
S2144050100C0324000C0348000C036C000C039000A7
S2144050200C03B4000C03D8000C03FC000C03200156
S2144050300C0344010C0368010C038C010C03B00103
S214405040000000000000000000000000000000001B
S2144050500C03D401000000000C03F8010C031C02F2
S2144050600C0340020C0364020C0388020C03AC02DF
S2144050700C03D0020C03F4020C0318030C033C038D
S2144050800C0360030C0384030C03A8030C03CC033B
S2144050900C03F0030C031404000000000C03380457
S2144050A00C035C040C0380040000000000000000B9
S2144050B000000000000000000C03A40400000000F4
S2144050C0000000000000000000000000000000009B
S2144050D000000000000000000C03C80400000000B0
S2144050E0000000000000000000000000000000007B
S2144050F0000000000000000000000000000000006B
S214405100000000000000000000000000000000005A
S214405110000000000000000000000000000000004A
S2144051200C03EC041818FFFF181818FFFF18180394
S214405130031F1F0303031F1F03030000000000C0DC
S214405140E0781C0F03C070381E0703000000000004
S214405150FEFF03030303030303FFFE7FFFC0C0C03D
S214405160C0C0C0C0FF7F0003030303FFFF00000072
S2144051700000C0C0C0C0FFFFC0C0FEFE03838383E4
S2144051808383838383FFFEFFFFC1C1C1C1C1C1C109
S214405190C1C00303838383838383FF7E00C0C0C173
S2144051A0C1C1C1C1C1FF7E0000FFFF00000000FC7E
S2144051B0FC000000070706060606FFFF0600000084
S2144051C0FFFF838383838383036060E1C1C1C1C1E2
S2144051D0C1C1FF7FFFFF030000000000000000FF8A
S2144051E0FFC6C6C6C6C6C6C6FEFE000707030303FE
S2144051F0030383FF7F0000000000FEFE0301000063
S2144052000080FFFF838383FFFF80007FFFC1C1C113
S214405210C1C1C1C1FF7F7F7F63636363636363FF15
S214405220FF0000000000000000C0FFFF000000007C
S21440523070707000000000000000001C1C1C000085
S2144052400000000000E0FC1FFCE0000000E0F83F2B
S2144052500F0C0C0C0F3FF8E0FFFF8383838383C75C
S214405260FE7C00FFFFC1C1C1C1C1E37F3E00C0F06C
S2144052703C0E03030303030300030F3C70C0C0C08F
S214405280C0C0C0000303FFFF03030E3CF0C000C0D5
S214405290C0FFFFC0C0703C0F0300FFFF83838383C3
S2144052A00303030300FFFFC1C1C1C1C0C0C0C000AB
S2144052B0FFFF636363636363030300FFFF00000055
S2144052C0000000000000E0F0180C06030303030390
S2144052D0037FFFC0C0C0C6C6C6C6FE7EFFFF808036
S2144052E08080808080FFFFFFFF01010101010101F6
S2144052F0FFFF03030303FFFF0303030300C0C0C015
S214405300C0FFFFC0C0C0C00000000000000000FF9B
S214405310FF0000007EFEC0C0C0C0FF7F0000FFFF51
S214405320C06030180C06030100FFFF0103060C386E
S21440533060C08000FFFF000000000000000000FF8B
S214405340FFC0C0C0C0C0C0C0C0C0FFFF0E1C707051
S2144053501C0EFFFF00FFFF000000000000FFFF00E4
S214405360FFFF0F3CF0C0800000FFFFFFFF00000083
S21440537001071E78FFFFC0F03C1E0703071E3CF0E7
S214405380C0030F3C78E0C0E0783C0F03FFFF030308
S2144053900303030303FFFEFFFF03030303030303A9
S2144053A00101FFFF636363E3E363637F3EFFFF0048
S2144053B0000001070E38F0C00E1F3363C38303039B
S2144053C0030F0E70F0C0C0C0C1C3C6CCF870000F4B
S2144053D00F0303FFFF03030F0F0000000000FFFF53
S2144053E000000000FFFF60303030303070E0C0FF1B
S2144053F0FF60C0C0C0C0C0E07F3F3030FEFE3030EF
S214405400303030000000007FFFC0C0C0C0F07000E9
S21440541000E0E0E0FFFFFFE0E0FFFFFFE0E0E0004D
S21440542000707070FFFFFF7070FFFFFF70707000BD
S214405430000000000F0F0F00000F0F0F00000000CD
S214405440000000000000000000C0F0FC7F1F0700C6
S2144054500000000080C0F0FC3F0F03010000000089
S21440546000E0F8FE3F0F03000000000000000000D0
S21440547000FEFFFF0707070707070707FFFFFE00B7
S21440548000FFFFFF0000000000000000FFFFFF00DD
S214405490007FFFFFE0E0E0E0E0E0E0E0FFFF7F00CD
S2144054A000070707070707FFFFFF00000000000090
S2144054B000000000000000FFFFFF000000E0E0E00A
S2144054C000E0E0E0E0E0E0FFFFFFE0E0E0FFFFFFBD
S2144054D0000707070707070707070707FFFFFE003E
S2144054E000F8FCFC1C1C1C1C1C1C1C1C1F1F0F005A
S2144054F000FFFFFFE0E0E0E0E0E0E0E0E0E0E000CA
S21440550000070707070707070707070707FFFFFE06
S214405510000000001C1C1C1C1C1C1C1C1CFFFFE765
S21440552000E0E0E0E0E0E0E0E0E0E0E0E0FFFF7F39
S2144055300000FFFFFF000000000000F8F8F8000041
S2144055400000FFFFFFE0E0E0E0E0E0FFFFFFE0E01C
S2144055500000000000000000000000FFFFFF000009
S21440556000000000FFFFFF070707070707070700C1
S214405570000000001F1F1F1C1C1C1C1CFCFCF8000D
S21440558000707070E0E0E0E0E0E0E0E0FFFF7F0009
S21440559000FFFFFF070700000000000000000000BB
S2144055A000FFFFFFE0E0E0E0E0E0E0E0E0E0E00019
S2144055B000FFFFFFE0E0E0E0E0E0E0E0FFFFFF00AC
S2144055C0000F0F0F070707070707070707FFFFFF2D
S2144055D000000000000000C0E0F0783C1E0F070707
S2144055E000000000000000FFFFFF00000000000079
S2144055F000000000FFFFFF0707FFFFFF000000005E
S21440560000F8FCFC1F1F1F1C1C1F1F1FFCFCF80083
S214405610007FFFFFE0E0E0E0E0E0E0E0FFFF7F004B
S21440562000FFFFFF0707070707070707FFFFFF0003
S214405630000707070707070707070707FFFFFF00DB
S21440564000000000000000000000C0E0FFFFFF0078
S2144056500000000000F0F0F0F0F000000000000055
S2144056600000000000C1C1C1C1C100000000000030
S21440567000000000000707070707000000000000C2
S2144056800000000000E0FEFFFFFEE000000000001B
S214405690000000F0FEFF1F01011FFFFEE0000000BB
S2144056A000F0FFFF1F0707070707071FFFFFF00071
S2144056B000FFFFFF07070707070707070FFEFCF86F
S2144056C000FFFFFF1C1C1C1C1C1C1C1C3EFFF7C1C3
S2144056D000FFFFFFE0E0E0E0E0E0E0E0707F3F0F4B
S2144056E0000080E0F8FC3E0F07070707070707079C
S2144056F0007EFFFFC3000000000000000000000026
S214405700000001071F3F7CF0E0E0E0E0E0E0E0E082
S21440571000070707FFFFFF07070F3EFEF8E0800081
S21440572000000000FFFFFF0000000000C3FFFF7EF8
S21440573000E0E0E0FFFFFFE0E0F07C3F1F070100F5
S21440574000FFFFFF070707070707070707070707C3
S21440575000FFFFFF1C1C1C1C1C1C0000000000005F
S21440576000FFFFFFE0E0E0E0E0E0E0E0E0E0E0E077
S21440577000FFFFFF07070707070707070707070793
S21440578000FFFFFF07070707070707070700000098
S21440579000FFFFFF000000000000000000000000C7
S2144057A0000080E0F0783E1F07070707070707005E
S2144057B000FFFFFF01000000E0E0E0E0E0E0E00086
S2144057C0003F7FFFE0E0E0E0E0E0E0E0FF7F3F001A
S2144057D000FEFFFE0000000000000000FEFFFE008E
S2144057E000FFFFFF1C1C1C1C1C1C1C1CFFFFFF009A
S2144057F0007FFF7F00000000000000007FFF7F006A
S214405800020707070707FFFFFF070707070702000C
S214405810000000000000FFFFFF0000000000000046
S21440582040E0E0E0E0E0FFFFFFE0E0E0E0E04000F6
S2144058300000000000000000000000FFFFFF000026
S2144058400000E0E0E0000000000000FFFFFF000076
S21440585000001F7FFFE0E0E0E0E0E0FF7F3F000069
S21440586000FFFFFF008080C0E0F0783C1E0F07037B
S21440587000FFFFFF7FF7E3C180000000000000004C
S21440588000FFFFFF00000103070F1E3C78F0E0C05A
S21440589000FFFFFF000000000000000000000000C6
S2144058A000FFFFFF000000000000000000000000B6
S2144058B000FFFFFFE0E0E0E0E0E0E0E0E0E0E00006
