S01F00005457495F5457495F454550524F4D5F4558414D504C45312E73726563FB
S214400000B0380020C9054000C5054000C505400081
S214400010C5054000C5054000C5054000000000007D
S214400020000000000000000000000000C505400081
S214400030C505400000000000C5054000CD09400051
S214400040C5054000C5054000C5054000C505400043
S214400050C5054000C5054000C5054000000000003D
S214400060C5054000C5054000C5054000C505400023
S214400070C5054000C5054000C5054000C505400013
S214400080C5054000C505400000000000C50540000D
S214400090C5054000C5054000C5054000C5054000F3
S2144000A0C5054000C5054000C5054000C5054000E3
S2144000B0C5054000C5054000C5054000C5054000D3
S2144000C010B5054C237833B9044B13B10448AFF34D
S2144000D000800123237010BD44080020000000006B
S2144000E0FC284000084B10B51BB108490848AFF340
S2144000F000800848036803B910BD074B002BFBD0AF
S214400100BDE81040184700BF000000004808002027
S214400110FC284000FC2840000000000010B50E48B7
S2144001200E4B984710200E4B98470E4CA047002881
S214400130FCD00D4B98470D4A0D4B9A620D4CA0478C
S2144001400028FCD010200C4B98470C4B9847024890
S214400150024B984710BD00BF00E1F505710740000F
S21440016065034000B1034000C1034000013F182032
S21440017000040E40D1034000FD02400061064000EE
S21440018090B92DE9F0410C469046002A0FDD8F18B5
S214400190084E094D306821462B6898470134A742DF
S2144001A0F8D14046BDE8F0814FF0FF307047002060
S2144001B0BDE8F081A40800209C08002001380228F1
S2144001C015D82DE9F0410E4614469AB10D46DFF893
S2144001D038800C4FD8F8000015F8011B3B6898474C
S2144001E000280ADBA81B013CF4D1BDE8F0814FF0A3
S2144001F0FF3070470020BDE8F0814FF0FF30BDE88B
S214400200F08100BFA0080020A408002010B54FF4DD
S2144002100042364B5A600B20354CA0470C20A04776
S2144002200D20A047334B4FF480421A61C3F8A020FC
S2144002301A63A3F500734FF080425A61C3F8A020BA
S2144002405A66C3F890205A655A62C3F880201A6FDF
S21440025022F080421A675A6F22F080425A674FF067
S21440026080621A631A61C3F8A0204FF000621A63D6
S2144002701A61C3F8A020204908220A630A61C1F81F
S214400280A0204FF4C0611966C3F8901059655962B2
S214400290C3F88010186F20F4C0601867586F20F4B9
S2144002A0C060586759601A66C3F890205A655A620B
S2144002B0C3F88020196F21F008011967596F21F0A3
S2144002C0080159675A6010221A66C3F890205A658A
S2144002D05A62C3F88020196F21F010011967596FD0
S2144002E021F0100159675A6010BD00BF50140E40EF
S2144002F0E103400000100E4000120E40184A136BF7
S21440030023F0700318431063936E13F0080F03D066
S21440031009E0013B03D11EE04FF4006310498A6EAA
S21440032012F0080FF5D00E4A136B23F0030343F088
S21440033002031363906E10F0080004D0002070474C
S214400340013B03D109E04FF4006305498A6E12F081
S214400350080FF5D07047012070470120704700BF56
S21440036000040E40114B1A6A42F45C1242F0080236
S2144003701A621A46936E13F4003FFBD00B4A136A78
S21440038023F45C1323F0700343F45C1303431362BB
S214400390936E13F4003FFBD0044A136A23F09B731A
S2144003A023F4803343F45C131362704700040E401A
S2144003B0024B986E00F48030704700BF00040E4039
S2144003C04FF00052014B9A62704700BF00040E4047
S2144003D0024B986E00F00200704700BF00040E40CB
S2144003E01F280CD8084B9A6901238340934308D0B2
S2144003F0012303FA00F0044B1861002070470120E7
S21440040070470020704700BF00040E400F4B9942D3
S21440041019D84900B2FBF1F2043AFF2A07D9002363
S21440042001335208FF2A03D9072BF9D100E00023F5
S214400430110289B21B0403F4E0230B43D2B21A43E1
S2144004400261002070470120704700BF801A0600F6
S21440045038B504460D464FF0FF338362036A802367
S2144004600360036B082303602023036004230360B8
S2144004700A684968054B9847012814BF00200120A8
S2144004806B7A012B04BF4023236038BD0D04400027
S2144004900A4659B103780129C4BF417841EA03238B
S2144004A0022A05DD807840EA032070470020704726
S2144004B01846704770B5CD68002D34D00B460446BC
S2144004C08E68002060600A7C120402F4FE015A68BE
S2144004D0120202F440720A436260E06059681846AD
S2144004E0154B9847E060236A13F4807F04D01CE0E5
S2144004F0236A13F4807F1AD113F0040F03D03378A5
S2144005006363013D0136002DF2D1236A13F48070F7
S2144005100FD113F0040FF8D002232360236A13F0A0
S214400520010FFBD070BD012070BD052070BD0520B9
S21440053070BD052070BD00BF9104400010B4AC23D0
S21440054003600B684A68B3FBF2F31B095C1E4FF668
S214400550FE7294420AD803628B68436040F20223DC
S214400560C0F8203150230360002000E0012010BC7A
S214400570704700BF436913F0020F1ABFC1610020E5
S21440058001207047436913F0010F1DBF83690B704C
S21440059000200120704700BF436913F0020F1DBFC3
S2144005A0C1F30801C161002001207047436913F080
S2144005B0010F05D08369C3F308030B600020704722
S2144005C001207047FEE700BF08B5194B194A9A420A
S2144005D003D0194B164A9A4204D3184B184A9A42EB
S2144005E00FD31AE01249174B5B1A23F00303043368
S2144005F0104A134452F8040B41F8040B9A42F9D1BE
S214400600EBE7114B114AD21A22F003021A44043B7C
S214400610002143F8041B9342FBD10D4A0D4B23F0B7
S2144006207F0393600C4B98470C4B9847FEE700BF00
S21440063000000020FC28400044080020AC080020B1
S214400640440800204308002048080020AF08002047
S21440065000ED00E000004000110B4000DD094000C6
S2144006603C4B1B6B03F00303012B0FD013B1022B43
S21440067029D057E0384B5B6913F0800F14BF4FF416
S21440068000424FF4FA42354B1A604BE0314B1B6A3E
S21440069013F0807F03D0324A304B1A6042E0314A32
S2144006A02E4B1A602B4B1B6A03F07003102B02D0A4
S2144006B0202B04D036E02C4A284B1A6032E0284AD9
S2144006C0264B1A602EE0234B1B6A13F0807F03D024
S2144006D0234A224B1A6012E0224A204B1A601D4BD6
S2144006E01B6A03F07003102B02D0202B04D006E0C8
S2144006F01D4A1A4B1A6002E0194A184B1A60154BED
S2144007001B6B03F00303022B0CD1124A936A926AC6
S2144007101248C3F30A41036801FB0333D2B2B3FB6A
S214400720F2F303600B4B1B6B03F07003702B07D187
S2144007300A4A13680D49A1FB03135B081360704710
S214400740044B1B6B0549C3F302120B68D3400B6086
S214400750704700BF00040E4010140E4000000020FA
S214400760001BB70000093D0000127A00ABAAAAAAF7
S2144007700F4B984204D84FF080620E4B1A60704779
S2144007800D4B984203D80D4A0A4B1A6070470C4BE3
S214400790984203D80B4A074B1A6070470A4B984258
S2144007A094BF0A4A4FF00422024B1A60704700BFBB
S2144007B0FF2C3101000A0E40FF596202000100047E
S2144007C0FF86930300020004FFB3C4040003000442
S2144007D0094B1B6813B9094A074B1A60064B1B683E
S2144007E01A180749914204DB1046034A106018461F
S2144007F070474FF0FF30704760080020B038002048
S214400800FC3F01204FF0FF30704700BF4FF40053CD
S2144008104B600020704700BF0120704700207047A3
S214400820F0B583B005460C4600230193294B984209
S21440083007D11F46284E21463846B0470028FAD1F1
S21440084015E0264B984207D11F46234E2146384690
S214400850B0470028FAD115E0214B984207D11F46F1
S2144008601D4E21463846B0470028FAD117E01D4BAA
S2144008709D4207D11F46184E21463846B0470028AD
S214400880FAD119E0184B9D4209D11E46174D01A9D1
S2144008903046A8470028FAD1019B237018E0144B35
S2144008A09D4209D11E46114D01A93046A847002851
S2144008B0FAD1019B23700BE00E4B9D4208D11E4699
S2144008C00A4D01A93046A8470028FAD1019B23705B
S2144008D003B0F0BD00060E408505400000080E40FF
S2144008E0004004400080044000400240AD05400007
S2144008F00080024000C0024070B50C462A4B984229
S21440090008D11E46294D21463046A8470028FAD130
S214400910012070BD264B984208D11E46234D2146E5
S2144009203046A8470028FAD1012070BD214B984296
S21440093008D11E461D4D21463046A8470028FAD10C
S214400940012070BD1C4B984208D11E46174D2146CB
S2144009503046A8470028FAD1012070BD174B984270
S21440096008D11E46164D21463046A8470028FAD1E3
S214400970012070BD134B984208D11E46104D2146AB
S2144009803046A8470028FAD1012070BD0E4B984249
S21440099008D11E460A4D21463046A8470028FAD1BF
S2144009A0012070BD002070BD00060E407505400059
S2144009B000080E40004004400080044000400240D2
S2144009C0990540000080024000C00240024A136879
S2144009D001331360704700BF64080020F0B58DB047
S2144009E0304B9847304B98474FF480422F4B1A6312
S2144009F008202F4DA8472F4C2F4B1C602F4A304BBA
S214400A001A60304A304B1A60304E01964FF4E1334C
S214400A1002934FF4006303930820A84701A9204699
S214400A202B4B98472B4F3B68002198682A4CA04791
S214400A303B6800215868A0472848294CA0472948C9
S214400A40A047294B294A5A60F021294A82F82310A8
S214400A5000249C6007221A601320A8470996254B5D
S214400A600A9320238DF820308DF810408DF81140E1
S214400A700594214B06930123079309A91F48204B51
S214400A80984718B11F48164B9847FEE71B4D1E4C1B
S214400A9004A92846A0470028FAD01C48104B98477F
S214400AA0FEE700BF1D0140000D02400000100E4052
S214400AB0E103400000060E40A4080020F90840006C
S214400AC0A0080020210840009C08002000E1F50511
S214400AD03D05400030040020750C4000EC274000E7
S214400AE0650C40004828400010E000E09F8601006A
S214400AF000ED00E0801A0600C82840000080014053
S214400B005104400078284000B5044000A02840002A
S214400B1070B50F4E0F4D761BB61018BF002405D08B
S214400B20013455F8043B9847A642F9D10A4E0B4D7E
S214400B30761B01F0D1FEB61018BF002406D0013453
S214400B4055F8043B9847A642F9D170BD70BD00BF2A
S214400B50E4284000E4284000EC284000E428400018
S214400B6070B4840746D0541E002A41D0CDB2034606
S214400B7002E0621EE4B3144603F8015B9A07F8D11C
S214400B80032C2ED9CDB245EA05250F2C45EA05455E
S214400B9019D903F110022646103E0F2E42F8105C7B
S214400BA042F80C5C42F8085C42F8045C02F1100221
S214400BB0F2D8A4F1100222F00F0204F00F04103213
S214400BC0032C13440DD91E462246043A032A46F8FF
S214400BD0045BFAD8221F22F003020432134404F0C6
S214400BE003042CB1C9B21C4403F8011BA342FBD139
S214400BF070BC704714460346C2E700BFF0B50546D2
S214400C0089B008460C4600F0FBF8AB6B144F0494D2
S214400C100126441C04A9022203940590AC6806975A
S214400C20079601910292B3B1B4F90C309A0406D4F7
S214400C30626E43F4005322F40052A381626621465A
S214400C40284601AA00F04AFC002814BF4FF0FF30A7
S214400C500A2009B0F0BD284600F0ECFAE4E700BFF1
S214400C60D4284000024B01461868FFF7C7BF00BFB4
S214400C703004002000290CBF022200224FF480637B
S214400C8000F000B82DE9F043514C256883B0044687
S214400C900F4690461E4615B1AB6B002B79D0B8F187
S214400CA0020F04D0B8F1010F7FD8002E7DDB21461D
S214400CB0284600F02BFA216B41B104F140039942DB
S214400CC002D0284600F022FB00232363B4F90C3000
S214400CD00022A26162601A0654D423F44A6323F0C9
S214400CE00303B8F1020FA38139D001AB6A4621460F
S214400CF0284600F09FFDA3891843A08126B327B35A
S214400D00AB6B002B4DD0009BB4F90C0027609E4285
S214400D101CBF40F40060A081B8F1010F08BF40F04E
S214400D20010083B208BFA08103F0080080B22761AB
S214400D30666118B313F001002FD000207642A661FA
S214400D40A06003B0BDE8F083009E304600F0E6FDAC
S214400D50074668B3A38943F08003A381D0E7002009
S214400D6004F1430243F0020300250121A381A5605C
S214400D7022602261616103B0BDE8F083A06003B0E9
S214400D80BDE8F0832169284600F0C0FAB4F90C307B
S214400D90A3E7284600F04EFA81E7A66003B0BDE818
S214400DA0F083284600F046FAADE74FF0FF30E2E722
S214400DB0DDF80090B14506D0484600F0AFFD074646
S214400DC008B14E46C6E7B4F90C304FF0FF30C7E7DF
S214400DD0300400200000000000000000000000007A
S214400DE000000000000000000000000000000000BE
S214400DF000000000000000000000000000000000AE
S214400E0090F800F06DE9024520F007016FF0000C05
S214400E1010F0070491F820F040F049804FF00004AD
S214400E206FF00700D1E9002391F840F000F1080088
S214400E3082FA4CF2A4FA8CF283FA4CF3A2FA8CF3C0
S214400E404BBBD1E9022382FA4CF200F10800A4FA27
S214400E508CF283FA4CF3A2FA8CF3E3B9D1E904237B
S214400E6082FA4CF200F10800A4FA8CF283FA4CF3B2
S214400E70A2FA8CF37BB9D1E9062301F1200182FA6C
S214400E804CF200F10800A4FA8CF283FA4CF3A2FA72
S214400E908CF3002BC6D0002A04BF04301A4612BA80
S214400EA0B2FA82F2FDE8024500EBD2007047D1E983
S214400EB0002304F00305C4F100004FEAC50514F012
S214400EC0040F91F840F00CFA05F562EA05021CBFE3
S214400ED063EA050362464FF00004A9E738B5304B95
S214400EE01B6805460C4613B19A6B002A38D0B4F9F5
S214400EF00C2093B218070CD52069A8B113F0010254
S214400F001ED0636900225B42A361A260F0B100205C
S214400F1038BDD9063CD5580726D4206942F0080388
S214400F20A3819BB20028E9D103F42072B2F5007F7A
S214400F30E4D02846214600F0ADFCA3892069DDE7D1
S214400F40990758BF6269A2600028E0D1B4F90C3016
S214400F501A06DDD543F04003A3814FF0FF3038BD7D
S214400F60184600F067F9C2E7216B51B104F140031F
S214400F70994204D0284600F0C9F9B4F90C20002361
S214400F80236300232069636022F024022060C5E7C3
S214400F9042F0400209232B604FF0FF30A28138BD5B
S214400FA030040020024B13B1024800F005B87047E9
S214400FB00000000049124000002301461A46184629
S214400FC001F01CBBB1F90C309AB22DE9F0410D4648
S214400FD0110780463CD46A6843F40063002AAB811C
S214400FE073DDAC6A002C4BD09BB203F480520021D8
S214400FF092B2D8F80060C8F80010002A69D02A6D6E
S2144010005F0705D569682B6B521A0BB1EB6BD21A8A
S2144010100023E9694046A047441C3CD0B5F90C3053
S2144010202A692A6023F400630022AB81DB046A60ED
S21440103049D4296BC8F8006011B305F140039942C2
S21440104002D0404600F062F900202863BDE8F081F7
S2144010502E69AEB12C682E6090070CBF6B690023DA
S214401060A41BAB600AE0234632466F6AE9694046F5
S214401070B8470028A4EB0004064404DD002CF2DC4C
S2144010800020BDE8F081AB8943F04003AB814FF0D0
S214401090FF30BDE8F081D8F800201D2AF3D81A4B5F
S2144010A0D34003F0010383F00104002BEBD0B5F9E5
S2144010B00C302969296023F40063D9046C60AB8145
S2144010C0B7D5002AB5D12865B3E7EA6B002A88DC95
S2144010D0D6E70123E9694046A047431C024602D0B2
S2144010E0AB89AC6A8CE7D8F80030002BF8D01D2BC3
S2144010F001D0162B02D1C8F80060C1E7AB8943F097
S2144011004003AB81BDE8F0810100402010B50446A5
S21440111082B008B1836B53B1B1F90C0008B902B084
S21440112010BD204602B0BDE81040FFF74BBF01910E
S21440113000F080F80199EFE7014900F051BB00BF8D
S214401140C52640002DE9F04F354B4568C363002463
S214401150074600F53B7204230321C0F8E412C0F8AA
S214401160E822C0F8E04283B02C606C60AC606C66ED
S214401170EC812C616C61AC61AB81214605F15C0071
S2144011800822FFF7EDFCBE68DFF898B0DFF898A0BD
S214401190DFF89890DFF89880C5F820B00123092240
S2144011A0C5F824A0C5F82890C5F82C80ED612146E6
S2144011B0F381B28106F15C0034607460B46074669A
S2144011C034617461B46108220193FFF7C9FCFD687D
S2144011D0F66112200222C6F820B0C6F824A0C6F84F
S2144011E02890C6F82C802146A881EA812C606C6045
S2144011F0AC606C662C616C61AC6105F15C000822E9
S214401200FFF7AEFC019BED61C5F820B0C5F824A001
S214401210C5F82890C5F82C80BB6303B0BDE8F08FB6
S21440122039114000492540006D254000A925400061
S214401230C9254000836B03B17047FFF783BF00BFEB
S214401240704700BF704700BF38B5074D074C2C1B92
S214401250A41005D0013C55F8043D9847002CF9D120
S214401260BDE8384001F042BBFC284000F82840006A
S214401270F8B5234F0C46064600F060FFBB685D6835
S21440128025F00305291B01F6EF7121F47F6121F05B
S2144012900F01A1F58054B4F5805F07DB002130468E
S2144012A001F040F9BB682B44984204D0304600F029
S2144012B047FF0020F8BD6142304601F033F9013067
S2144012C00DD0104BBA6819682D1B45F00105304605
S2144012D0091B5560196000F033FF0120F8BD00215E
S2144012E0304601F01FF9BA68831A0F2BDEDD064C34
S2144012F00449246843F00103001B53600860D5E7A7
S214401300340400207408002040080020002945D0FE
S2144013102DE9F0410D46804600F010FF55F8047C5C
S2144013206A4927F00103A5F10804E2188E68506860
S214401330B24220F0030062D0FE0750600BD455F84E
S214401340087CE41B01F1080EA56875453B446FD048
S214401350E768EF60BD6015186D68ED0742D543F04D
S21440136001026260E350B3F5007F18D2DB085A1CD6
S2144013704D6851F83270A76001209B1000FA03F3C5
S21440138001EBC2001D430838E0604D6041F8324032
S214401390FC604046BDE8F04100F0D2BE70475A0AB5
S2144013A0042A53D89A0902F139077F0002F138051A
S2144013B001EB870051F827204449083890424DD029
S2144013C0516821F003018B4202D292689042F7D1D5
S2144013D0D068E060A2608460D4604046BDE8F041DA
S2144013E000F0AEBE95683A4FBD4203443FD0D06849
S2144013F0E86043F0010285606260E350B3E7FF07B0
S214401400034407D455F8082CA41A1344A068E2688D
S214401410C26090602F4A126843F0010093426060B9
S2144014208C60B6D32C4B40461968FFF721FFB0E7D7
S21440143011184968C90744D49168D268CA60034401
S21440144043F0010091606060E350A2E7142A17D889
S21440145002F15C077F0002F15B05A9E7AA104B6822
S214401460012505FA02F213434B600246B1E743F00A
S21440147001024C610C61E560A5606260E35088E75C
S214401480542A06D81A0B02F16F077F0002F16E0548
S2144014908EE7B2F5AA7F06D8DA0B02F178077F000E
S2144014A002F1770584E740F25450824206D89A0CFF
S2144014B002F17D077F0002F17C0579E7FE277E2555
S2144014C076E743F001026260E35062E734040020AE
S2144014D03C0400203C080020700800209368002B45
S2144014E076D02DE9F04F8B8985B00C4619070190D0
S2144014F0164629D522693AB303F002081FFA88F047
S214401500356800282FD04FF00009B44FC846B24681
S214401510B84543464A4628BF3B460198B8F1000FB7
S21440152050D0E169666AB047002871DDDAF80830C5
S2144015301B1A8144C0EB0808CAF80830002BE7D1D4
S214401540002005B0BDE8F08F21460198FFF7C6FCA5
S214401550002840F03A81A389356803F002081FFA54
S21440156088F00028CFD113F001095BD14F46029690
S2144015701FB39A05D4F808802CD54745C246C0F01C
S214401580A48013F4906F40F0B180206852464946DC
S21440159000F070FDA0682368C8EB00005344A060CC
S2144015A023603846029A93681B1A81443F1A936018
S2144015B0002BC5D0A389002FDBD1D5F800906F68EB
S2144015C00835D5E7D5F80090D5F8048008359FE76C
S2144015D00020704720682369984203D861698F428B
S2144015E080F0B780B84528BFB8464246494600F026
S2144015F041FDA3682268C8EB03034244A36022600F
S214401600002B49D121460198FFF780FD002843D0A2
S214401610B4F90C3043F040034FF0FF30A38105B0DF
S214401620BDE8F08F8046029082468146B9F1000FB1
S2144016302AD0029B002B4CD0206823696269C8459B
S214401640C34628BFCB4698425F4604D9A368134496
S2144016509B4500F39080934520DB1346676AE1691B
S21440166001985246B847071ED2DDB8EB070823D08C
S214401670B368DB1BBA44C7EB0909B360002B3FF4E1
S2144016805FAFB9F1000FD4D10023D5F800A0D5F84C
S214401690049002930835C9E7404683E75A465146C8
S2144016A000F0E8FCA2682368CBEB02025B44B8EB90
S2144016B00708A2602360DBD121460198FFF726FD8C
S2144016C00028A5D1CDF80880D2E72068B846BA46AB
S2144016D05CE74A460A21504600F0E2FB00286FD0FD
S2144016E001300123CAEB00080293A5E7626920682F
S2144016F0216902EB4208C1EB000A08EBD8780AF1F0
S21440170001004FEA680838444045424684BF804658
S21440171042465B0542D51146019800F007F98346DC
S214401720002855D05246216900F00AFCA38923F4CC
S214401730906343F08003A381CAEB08030BEB0A00D7
S214401740C4F81480C4F810B02060A360B846BA4607
S2144017501CE76FF00043BB4228BF3B464A4693FB1C
S214401760F1F30198666A01FB03F3E169B04700288C
S2144017703FF718AF4CE71A465146039300F07AFC01
S2144017802268039B01981A4422602146FFF7BEFC5C
S214401790039B00287FF43CAF1F4666E7019800F0A5
S2144017A0D1FC83460028C7D1019D21692846FFF712
S2144017B0ADFDB4F90C300C2223F080032A6029E7F3
S2144017C0012309F10108029336E74FF0FF30B8E6EF
S2144017D0019A0C231360B4F90C301BE700FCFF7F22
S2144017E02DE9F84310F538771FD0884606464FF067
S2144017F000097D68BC68013D11D4A389012B05F121
S214401800FF3508D9B4F90E3001332146304602D0B0
S214401810C04749EA00096B1C04F16804EDD13F68F3
S214401820002FE6D14846BDE8F883B9464846BDE8AD
S214401830F88300BF70B50D46B1F90E10002990B080
S21440184014461E4614DB01AA00F07EFF00280FDB7C
S214401850029A02F47042A2F50052B2FA82F252099B
S2144018604FF480634FF400603260236010B070BD68
S214401870A88900F0800082B2002030601AB1402370
S214401880236010B070BD4FF480631046236010B0E4
S21440189070BD00BF8A8992070B4606D501F1430208
S2144018A001211A601A6159617047F0B583B001ABE7
S2144018B06A460C460546FFF7BDFF00990646284691
S2144018C000F034F8B4F90C30D0B1019A124F0099B8
S2144018D0EF6343F08003A3812060206161611AB901
S2144018E03343A38103B0F0BD2846B4F90E1000F090
S2144018F03FFFB4F90C300028F2D043F00103EFE785
S2144019009A05EFD404F1430243F002030121A38178
S214401910226022616161E5E739114000024B0146D1
S214401920186800F003B800BF300400202DE9F04FDF
S21440193001F10B05162D83B0064640F29F8035F028
S214401940070500F1BF80A94200F2BC8000F0F6FB1C
S214401950B5F5FC7FC0F09C826B0A00F0BA80042B81
S21440196000F28381A80900F1390E4FEA4E03383061
S214401970C44F07EB8303A3F108015C68A14207D17B
S214401980ACE0002A80F2AC80E468A14200F0A68079
S214401990636823F003035A1B0F2AF2DDB9493C69FA
S2144019A001F1080E744500F0B381636823F0030329
S2144019B05A1B0F2A00F39981002AC1F814E0C1F897
S2144019C010E080F29E80B3F5007F80F06781DB08F0
S2144019D003F1010C01229B1002FA03F34A6851F806
S2144019E03C80C4F8088001EBCC091A43A9F10803EF
S2144019F0E3604A6041F83C40C8F80C40831001243C
S214401A009C40944200F28A80144206D120F00300A3
S214401A106400144200F10400FAD007EBC009CC463B
S214401A208046DCF80C108C4507D173E1002A80F222
S214401A308181C9688C4500F06D814B6823F00303B3
S214401A405A1B0F2AF2DD0C46D1F80CC054F8088F0A
S214401A504B1945F001054D6042F00101C8F80CC035
S214401A603046CCF808807B613B61C3F80CE0C3F895
S214401A7008E059609A5000F063FB1FE0102921D817
S214401A8000F05CFB1025062302207E4F07EB830305
S214401A90A3F108025C68944200F045816368E168FF
S214401AA0A56823F00303234430465A68E96042F0B1
S214401AB001028D605A6000F043FB0834204603B0B4
S214401AC0BDE8F08F00240C232046336003B0BDE809
S214401AD0F08F80234FF0400E3F2049E770465DE789
S214401AE02344E1685A68A56842F00102E96030463E
S214401AF08D605A6000F024FB0834204603B0BDE8F1
S214401B00F08F234430465A6842F001025A6000F093
S214401B1017FB0834204603B0BDE8F08FBC68636806
S214401B2023F00308A84504D3C5EB08030F2B00F3A6
S214401B308C80554BDFF860911A68D9F80030013335
S214401B402A4404EB080A00F0608102F580520F3206
S214401B5022F47F6222F00F0211463046019200F0D6
S214401B60E1FCB0F1FF3F8346019A00F05881824580
S214401B7000F2FC80454B1968DA451144196000F0C4
S214401B805381D9F80000DFF810E101301BBFCAEBE3
S214401B900B0A5144CEF800B019601BF0070100F064
S214401BA01781C1F10800C1F58051834408315A4479
S214401BB0C2F30B02C2EB010949463046019300F0DE
S214401BC0B1FC431C019B00F03F81CBEB00024A4432
S214401BD042F001021968C7F808B04944BC42CBF845
S214401BE004201960DFF8A49016D0B8F10F0F40F229
S214401BF0FD806268A8F10C0323F00703E01802F0AA
S214401C0001024FF0050E1A430F2B6260C0F804E045
S214401C10C0F808E000F21C811D4BBC681A6891426F
S214401C2088BF19601B4B1A689142626888BF19606A
S214401C3022F003029542A2EB050301D80F2B04DCE9
S214401C40304600F07DFA002438E7621943F001037D
S214401C5045F0010565603046BA60536000F070FAA2
S214401C600834204603B0BDE8F08F142B71D9542BAE
S214401C7000F2A480280B00F16F0E4FEA4E036E3040
S214401C8076E600BF34040020700800207408002068
S214401C906C08002068080020400800205A0A042AE1
S214401CA05ED9142A00F2B38002F15C0149005B322F
S214401CB007EB810C57F82110DFF8DC81ACF1080CFB
S214401CC08C4500F088804A6822F00302934202D294
S214401CD089688C45F7D1D1F80CC07A68C4F80CC036
S214401CE0A160CCF80840CC6088E6631942F0010752
S214401CF045F00105656030464B610B61C3F80CE06A
S214401D00C3F808E05F609A50083400F019FAD5E648
S214401D104A6873E608F1010818F0030F0CF1080C46
S214401D207FF47FAE30E0DC68A34208BF02303FF469
S214401D3035AEB3E60B440C465A68C96854F8085F9B
S214401D4042F001025A603046E9608D6000F0F8F9D2
S214401D50B4E603F15C0E03F15B004FEA4E0307E680
S214401D609A0902F1390149003832A1E7BC424A4B90
S214401D703FF400AF9C68626822F003025AE759F8C5
S214401D800839994540F0828010F0030F00F1FF308B
S214401D90F5D17B6823EA04037B6064009C423FF6EF
S214401DA0BDAE002C3FF4BAAE1C4240467FF435AE82
S214401DB064001C4200F10400FAD02EE6B3F5AA7F78
S214401DC018D8E80B00F1780E4FEA4E037730CFE58F
S214401DD04FF48051EBE60121D8F80430921001FA16
S214401DE002F21A43C8F80420614677E70123CBF88D
S214401DF0043025E740F25452934220D8A80C00F114
S214401E007D0E4FEA4E037C30B2E51032A4E6542AEB
S214401E1026D81A0B02F16F0149006E3248E7BC68BB
S214401E20626822F0030205E7CAF30B0000287FF43D
S214401E30A8AE4244BB6842F001025A60ECE6FE237C
S214401E404FF07F0E7E2093E501224FF00009C1E659
S214401E5004F108013046FFF759FAD9F80010DBE6DE
S214401E60B2F5AA7F05D8DA0B02F17801490077323D
S214401E701EE740F254518A4205D89A0C02F17D0181
S214401E8049007C3214E7FE217E2211E77B6884E716
S214401E90E808431C5B00F8E534040020000000001E
S214401EA001F0FF01102A2BDB10F0070F08D010F8C6
S214401EB0013B013A8B422DD010F0070F42B3F6D1CA
S214401EC0F0B441EA012141EA014122F007047FF0E3
S214401ED000070023F0E80256083C85EA010586EA3A
S214401EE0010685FA47F5A3FA87F586FA47F6A5FA76
S214401EF087F68EB9EED1F0BC01F0FF0102F0070282
S214401F0032B110F8013B013A83EA010313B1F8D12C
S214401F100020704701387047002D06BF354603380D
S214401F20073815F0010F07D1013015F4807F02BF46
S214401F30013015F4C03F0130F0BC0138704700BF97
S214401F40844641EA000313F003036DD1403A41D37F
S214401F5051F8043B40F8043B51F8043B40F8043B3E
S214401F6051F8043B40F8043B51F8043B40F8043B2E
S214401F7051F8043B40F8043B51F8043B40F8043B1E
S214401F8051F8043B40F8043B51F8043B40F8043B0E
S214401F9051F8043B40F8043B51F8043B40F8043BFE
S214401FA051F8043B40F8043B51F8043B40F8043BEE
S214401FB051F8043B40F8043B51F8043B40F8043BDE
S214401FC051F8043B40F8043B51F8043B40F8043BCE
S214401FD0403ABDD2303211D351F8043B40F8043B6E
S214401FE051F8043B40F8043B51F8043B40F8043BAE
S214401FF051F8043B40F8043B103AEDD20C3205D37E
S21440200051F8043B40F8043B043AF9D2043208D075
S214402010D2071CBF11F8013B00F8013B01D30B88E7
S21440202003806046704700BF082A13D38B078DD0C5
S21440203010F003038AD0C3F10403D21ADB071CBF97
S21440204011F8013B00F8013B80D331F8023B20F801
S214402050023B7BE7043AD9D3013A11F8013B00F83A
S214402060013BF9D20B7803704B7843708B788370C2
S214402070604670478842F0B50DD98B1898420AD210
S2144020808118002A51D09A1A13F8014D01F8014DD3
S2144020909342F9D1F0BD0F2A48D941EA00039B0785
S2144020A046D100F1100401F11003154653F8106CA8
S2144020B044F8106C53F80C6C44F80C6C53F8086CED
S2144020C044F8086C103D53F8046C44F8046C0F2D2B
S2144020D003F1100304F11004E8D8A2F1100323F032
S2144020E00F0302F00F0E1033BEF1030F19440344E2
S2144020F021D91E1F0D467446043C55F8047B46F80D
S214402100047F032CF8D8AEF1040424F0030404340E
S2144021102344214402F0030262B1013B0A4411F811
S214402120014B03F8014F8A42F9D1F0BD0346F3E76D
S2144021300346F2E7F0BD7246EEE700BF704700BFC9
S214402140704700BF2DE9F04F174683B0002900F0D6
S214402150C1800E46814607F10B05FFF7EFFF56F8A4
S21440216004EC162D2EF00304A6F1080840D81022E1
S2144021701546AF4241D8944275DAC94B996808EB88
S21440218004008842416800F0D98021F001030344EE
S2144021905B68DB077DD51EF0010F35D039464846D3
S2144021A0FFF7C4FB0746E0B156F8043C23F00103B2
S2144021B04344A0F108029A4200F04481221F242A98
S2144021C000F23181132A00F2048103463246116838
S2144021D019605168596092689A6031464846FFF7E0
S2144021E095F84846FFF7ACFF384603B0BDE8F08F99
S2144021F025F00705002D2A46BBDA0C230020C9F837
S214402200003003B0BDE8F08F56F8083CC3EB080A30
S214402210DAF8043023F0030C04EB0C039342BDDBE6
S2144022205746DAF80C1057F8080F221F242AC160C8
S214402230886000F21781132A40F212813168CAF88A
S21440224008107168CAF80C101B2A00F22B81083659
S2144022500AF110023168116071685160B16891608E
S2144022603E461C46D046631B0F2B1DD8D8F804307C
S21440227003F0010323434444C8F80430636843F042
S214402280010363604846FFF75BFF304603B0BDE896
S214402290F08F21F003012144914221DBC36882681C
S2144022A00C46D3609A60DEE7D8F8042008EB0501B8
S2144022B002F00102154343F001020B44C8F80450F3
S2144022C04A605A6842F0010208315A604846FFF7B1
S2144022D01DF8D7E7114603B0BDE8F04FFFF726BB21
S2144022E01EF0010F7FF45AAF56F8083CC3EB080ABD
S2144022F0DAF8043023F0030C01EB0C0E96458BDB2A
S214402300C36882685746D3609A6057F8081FDAF861
S2144023100C30CB60221F242A996000F29980132A41
S21440232062D93368CAF808307368CAF80C301B2A7A
S21440233000F2A08008360AF1100356E021F0030BA5
S214402340A34405F11000834559DA1EF0010F7FF4CF
S21440235025AF56F8081CC1EB080ADAF8041021F03D
S214402360030CE34458453FF757AF5746DAF80C108E
S21440237057F8080F221F242AC160886000F2B480F4
S214402380132A40F2A5803168CAF808107168CAF866
S2144023900C101B2A00F2AF8008360AF11002316892
S2144023A0116071685160B16891600AEB0501C5EB38
S2144023B00B0242F0010299604A60DAF8043003F0FA
S2144023C001031D434846CAF80450FFF7B9FE384695
S2144023D05CE733680360736843601B2A27D800F1C4
S2144023E0080306F10802F2E63B4632681A60726855
S2144023F05A60B2689A603E467446D04633E708EB69
S2144024000501C5EB0B0B4BF0010299604A6056F88C
S214402410043C03F001031D43484646F8045CFFF7BE
S2144024208FFE304632E73146FFF724FED5E6B368E6
S2144024308360F368C360242A28D000F1100306F1B5
S2144024401002C4E650F8043C23F003031C440AE799
S214402450314638467446D046FFF70CFE3E4602E705
S2144024603A46F7E6314638461C46D046FFF702FE67
S2144024703E46F8E6B368CAF81030F368CAF8143037
S214402480242A1BD010360AF11803AEE733690361DD
S2144024907369436106F1180200F1180397E600BF1E
S2144024A034040020B168CAF81010F168CAF8141055
S2144024B0242A0FD010360AF11802CBE63369CAF840
S2144024C018307369CAF81C3018360AF120038CE7B6
S2144024D03A4664E73269CAF818207269CAF81C207E
S2144024E018360AF12002B5E6314638460193FFF722
S2144024F0C1FD019B59E7B168CAF81010F168CAF8E7
S2144025001410242A03D010360AF1180247E732691D
S214402510CAF818207269CAF81C2018360AF1200238
S2144025203DE700BF38B5074C002305460846236004
S214402530FEF74EF9431C00D038BD2368002BFBD075
S2144025402B6038BDA808002010B50C46B1F90E1017
S21440255000F036F9002803DB236D0344236510BDE5
S214402560A38923F48053A38110BD00BF2DE9F04119
S2144025701646B1F90C201F46D3050C46054607D52E
S21440258000220223B1F90E1000F004F9B4F90C2031
S214402590B4F90E1022F48052A2813B4632462846B9
S2144025A0BDE8F04100F014B810B50C46B1F90E1075
S2144025B000F0F0F8A389421C0EBF23F4805343F486
S2144025C080532065A38110BDB1F90E1000F068B8A5
S2144025D070B50D46084C114606461A462846002356
S2144025E02360FDF7EBFD431C00D070BD2368002B35
S2144025F0FBD0336070BD00BFA80800202DE9F0472F
S214402600254C2568D5F84841064688469246994660
S214402610C4B360681F2817DC431C76B104EB800502
S2144026200122C5F888A0D4F8881182401143022EB2
S214402630C4F88811C5F808911ED00230636044F88B
S21440264020800020BDE8F087144B03B34FF4C870D9
S214402650FFF764F90446D0B1D5F84831002780E842
S2144026608800C5F8484138460123C4F88871C4F844
S2144026708C71002EE1D0D1E7D4F88C110A43C4F80F
S2144026808C21DAE705F5A674C5F84841C1E74FF056
S214402690FF30BDE8F08700BFD02840001D1940003D
S2144026A038B5074C0023054608462360FEF7AAF8CF
S2144026B0431C00D038BD2368002BFBD02B6038BDB0
S2144026C0A808002000293DD070B505460C4608B144
S2144026D0836B7BB3B4F90C300BB9002070BD214638
S2144026E02846FEF76FFCE36A064633B1E1692846A2
S2144026F098470028B8BF4FF0FF36A3891B061CD466
S214402700216B41B104F14003994202D02846FEF7BE
S214402710FDFD00232363616C21B12846FEF7F6FDDC
S21440272000236364FEF78CFD0023A381FEF78AFD39
S214402730304670BDFEF77EFDCCE721692846FEF7A1
S214402740E5FDDDE70020704738B50B46074C0546EB
S2144027501146184600232360FEF758F8431C00D065
S21440276038BD2368002BFBD02B6038BDA80800205E
S21440277038B5074C0023054608462360FEF74CF85C
S214402780431C00D038BD2368002BFBD02B6038BDDF
S214402790A808002070B50D46084C114606461A4655
S2144027A0284600232360FEF739F8431C00D070BD4E
S2144027B02368002BFBD0336070BD00BFA808002004
S2144027C070B50D46084C114606461A462846002364
S2144027D02360FDF7D5FC431C00D070BD2368002B5A
S2144027E0FBD0336070BD00BFA80800202D2D545785
S2144027F04920454550524F4D204578616D706C6577
S214402800202D2D0D0A2D2D2053414D344E5F58500E
S2144028104C41494E45445F50524F202D2D0D0A2DB8
S2144028202D20436F6D70696C65643A204F63742049
S214402830323120323031372031333A31313A313744
S214402840202D2D0D00000000436F6E66696775727F
S214402850652073797374656D207469636B20746F3B
S2144028602067657420316D73207469636B207065D2
S21440287072696F642E0D00002D452D09545749206E
S2144028806D617374657220696E697469616C697A8A
S2144028906174696F6E206661696C65642E0D000018
S2144028A02D452D09545749206D6173746572207704
S2144028B072697465207061636B6574206661696CCB
S2144028C065642E0D00000000530000004300000029
S2144028D0080000200A000000F8B500BFF8BC08BC9D
S2144028E09E467047A50F4000E5004000F8B500BF83
S2104028F0F8BC08BC9E467047C100400083
S2144028FC00093D000000000000000000F40200202B
S21440290C5C030020C4030020000000000000000010
S21440291C0000000000000000000000000000000066
S21440292C000000000000000000000000CC28400022
S21440293C0000000000000000000000000000000046
S21440294C0000000000000000000000000000000036
S21440295C0000000000000000000000000000000026
S21440296C0000000000000000000000000000000016
S21440297C0000000000000000000000000000000006
S21440298C00000000000000000000000000000000F6
S21440299C00000000000000000000000000000000E6
S2144029AC01000000000000000E33CDAB34126DE683
S2144029BCECDE05000B0000000000000000000000EC
S2144029CC00000000000000000000000000000000B6
S2144029DC00000000000000000000000000000000A6
S2144029EC0000000000000000000000000000000096
S2144029FC0000000000000000000000000000000086
S214402D2C08000020000000000000000034040020D2
S214402D3C340400203C0400203C04002044040020C2
S214402D4C440400204C0400204C0400205404002072
S214402D5C540400205C0400205C0400206404002022
S214402D6C640400206C0400206C04002074040020D2
S214402D7C740400207C0400207C0400208404002082
S214402D8C840400208C0400208C0400209404002032
S214402D9C940400209C0400209C040020A4040020E2
S214402DACA4040020AC040020AC040020B404002092
S214402DBCB4040020BC040020BC040020C404002042
S214402DCCC4040020CC040020CC040020D4040020F2
S214402DDCD4040020DC040020DC040020E4040020A2
S214402DECE4040020EC040020EC040020F404002052
S214402DFCF4040020FC040020FC0400200405002001
S214402E0C040500200C0500200C05002014050020AD
S214402E1C140500201C0500201C050020240500205D
S214402E2C240500202C0500202C050020340500200D
S214402E3C340500203C0500203C05002044050020BD
S214402E4C440500204C0500204C050020540500206D
S214402E5C540500205C0500205C050020640500201D
S214402E6C640500206C0500206C05002074050020CD
S214402E7C740500207C0500207C050020840500207D
S214402E8C840500208C0500208C050020940500202D
S214402E9C940500209C0500209C050020A4050020DD
S214402EACA4050020AC050020AC050020B40500208D
S214402EBCB4050020BC050020BC050020C40500203D
S214402ECCC4050020CC050020CC050020D4050020ED
S214402EDCD4050020DC050020DC050020E40500209D
S214402EECE4050020EC050020EC050020F40500204D
S214402EFCF4050020FC050020FC05002004060020FC
S214402F0C040600200C0600200C06002014060020A8
S214402F1C140600201C0600201C0600202406002058
S214402F2C240600202C0600202C0600203406002008
S214402F3C340600203C0600203C06002044060020B8
S214402F4C440600204C0600204C0600205406002068
S214402F5C540600205C0600205C0600206406002018
S214402F6C640600206C0600206C06002074060020C8
S214402F7C740600207C0600207C0600208406002078
S214402F8C840600208C0600208C0600209406002028
S214402F9C940600209C0600209C060020A4060020D8
S214402FACA4060020AC060020AC060020B406002088
S214402FBCB4060020BC060020BC060020C406002038
S214402FCCC4060020CC060020CC060020D4060020E8
S214402FDCD4060020DC060020DC060020E406002098
S214402FECE4060020EC060020EC060020F406002048
S214402FFCF4060020FC060020FC06002004070020F7
S21440300C040700200C0700200C07002014070020A3
S21440301C140700201C0700201C0700202407002053
S21440302C240700202C0700202C0700203407002003
S21440303C340700203C0700203C07002044070020B3
S21440304C440700204C0700204C0700205407002063
S21440305C540700205C0700205C0700206407002013
S21440306C640700206C0700206C07002074070020C3
S21440307C740700207C0700207C0700208407002073
S21440308C840700208C0700208C0700209407002023
S21440309C940700209C0700209C070020A4070020D3
S2144030ACA4070020AC070020AC070020B407002083
S2144030BCB4070020BC070020BC070020C407002033
S2144030CCC4070020CC070020CC070020D4070020E3
S2144030DCD4070020DC070020DC070020E407002093
S2144030ECE4070020EC070020EC070020F407002043
S2144030FCF4070020FC070020FC07002004080020F2
S21440310C040800200C0800200C080020140800209E
S21440311C140800201C0800201C080020240800204E
S21440312C240800202C0800202C0800200000020058
S20840313CFFFFFFFF4E
S8044005C9ED
